###############################################################################
#
# IAR ELF Linker V8.50.9.278/W32 for ARM                  27/Apr/2023  00:16:56
# Copyright 2007-2020 IAR Systems AB.
#
#    Output file  =
#        D:\Ls_Monitor_Lower\Xian_Template\EW-ARM(v8x)\Flash\Exe\Run_Xian.out
#    Map file     =
#        D:\Ls_Monitor_Lower\Xian_Template\EW-ARM(v8x)\Flash\List\Run_Xian.map
#    Command line =
#        -f C:\Users\ADMINI~1\AppData\Local\Temp\EWA30D.tmp
#        ("D:\Ls_Monitor_Lower\Xian_Template\EW-ARM(v8x)\Flash\Obj\about_phone_ui.o"
#        "D:\Ls_Monitor_Lower\Xian_Template\EW-ARM(v8x)\Flash\Obj\adjust_pedal.o"
#        "D:\Ls_Monitor_Lower\Xian_Template\EW-ARM(v8x)\Flash\Obj\battery_box.o"
#        "D:\Ls_Monitor_Lower\Xian_Template\EW-ARM(v8x)\Flash\Obj\bsp_can_bus.o"
#        "D:\Ls_Monitor_Lower\Xian_Template\EW-ARM(v8x)\Flash\Obj\bsp_dwt.o"
#        "D:\Ls_Monitor_Lower\Xian_Template\EW-ARM(v8x)\Flash\Obj\bsp_font.o"
#        "D:\Ls_Monitor_Lower\Xian_Template\EW-ARM(v8x)\Flash\Obj\bsp_iic_bus.o"
#        "D:\Ls_Monitor_Lower\Xian_Template\EW-ARM(v8x)\Flash\Obj\bsp_inkscreen.o"
#        "D:\Ls_Monitor_Lower\Xian_Template\EW-ARM(v8x)\Flash\Obj\bsp_key.o"
#        "D:\Ls_Monitor_Lower\Xian_Template\EW-ARM(v8x)\Flash\Obj\bsp_lcd.o"
#        "D:\Ls_Monitor_Lower\Xian_Template\EW-ARM(v8x)\Flash\Obj\bsp_led.o"
#        "D:\Ls_Monitor_Lower\Xian_Template\EW-ARM(v8x)\Flash\Obj\bsp_mlx90614.o"
#        "D:\Ls_Monitor_Lower\Xian_Template\EW-ARM(v8x)\Flash\Obj\bsp_rotation_sensor.o"
#        "D:\Ls_Monitor_Lower\Xian_Template\EW-ARM(v8x)\Flash\Obj\bsp_sdio_sd.o"
#        "D:\Ls_Monitor_Lower\Xian_Template\EW-ARM(v8x)\Flash\Obj\bsp_spi_ads1256.o"
#        "D:\Ls_Monitor_Lower\Xian_Template\EW-ARM(v8x)\Flash\Obj\bsp_spi_bus.o"
#        "D:\Ls_Monitor_Lower\Xian_Template\EW-ARM(v8x)\Flash\Obj\bsp_spi_flash.o"
#        "D:\Ls_Monitor_Lower\Xian_Template\EW-ARM(v8x)\Flash\Obj\bsp_spi_flash_demo.o"
#        "D:\Ls_Monitor_Lower\Xian_Template\EW-ARM(v8x)\Flash\Obj\bsp_sram.o"
#        "D:\Ls_Monitor_Lower\Xian_Template\EW-ARM(v8x)\Flash\Obj\bsp_tim_pwm.o"
#        "D:\Ls_Monitor_Lower\Xian_Template\EW-ARM(v8x)\Flash\Obj\bsp_touch.o"
#        "D:\Ls_Monitor_Lower\Xian_Template\EW-ARM(v8x)\Flash\Obj\bsp_usart_fifo.o"
#        "D:\Ls_Monitor_Lower\Xian_Template\EW-ARM(v8x)\Flash\Obj\bsp_ws2812b.o"
#        "D:\Ls_Monitor_Lower\Xian_Template\EW-ARM(v8x)\Flash\Obj\cc936.o"
#        "D:\Ls_Monitor_Lower\Xian_Template\EW-ARM(v8x)\Flash\Obj\cool_control.o"
#        "D:\Ls_Monitor_Lower\Xian_Template\EW-ARM(v8x)\Flash\Obj\DEV_Config.o"
#        "D:\Ls_Monitor_Lower\Xian_Template\EW-ARM(v8x)\Flash\Obj\diskio.o"
#        "D:\Ls_Monitor_Lower\Xian_Template\EW-ARM(v8x)\Flash\Obj\EPD_2in9b_V3.o"
#        "D:\Ls_Monitor_Lower\Xian_Template\EW-ARM(v8x)\Flash\Obj\EPD_2in9b_V3_test.o"
#        "D:\Ls_Monitor_Lower\Xian_Template\EW-ARM(v8x)\Flash\Obj\ff.o"
#        "D:\Ls_Monitor_Lower\Xian_Template\EW-ARM(v8x)\Flash\Obj\ff_gen_drv.o"
#        "D:\Ls_Monitor_Lower\Xian_Template\EW-ARM(v8x)\Flash\Obj\font12.o"
#        "D:\Ls_Monitor_Lower\Xian_Template\EW-ARM(v8x)\Flash\Obj\font12CN.o"
#        "D:\Ls_Monitor_Lower\Xian_Template\EW-ARM(v8x)\Flash\Obj\font16.o"
#        "D:\Ls_Monitor_Lower\Xian_Template\EW-ARM(v8x)\Flash\Obj\font20.o"
#        "D:\Ls_Monitor_Lower\Xian_Template\EW-ARM(v8x)\Flash\Obj\font24.o"
#        "D:\Ls_Monitor_Lower\Xian_Template\EW-ARM(v8x)\Flash\Obj\font24CN.o"
#        "D:\Ls_Monitor_Lower\Xian_Template\EW-ARM(v8x)\Flash\Obj\font8.o"
#        "D:\Ls_Monitor_Lower\Xian_Template\EW-ARM(v8x)\Flash\Obj\GUI_Paint.o"
#        "D:\Ls_Monitor_Lower\Xian_Template\EW-ARM(v8x)\Flash\Obj\HardFaultHandler.o"
#        "D:\Ls_Monitor_Lower\Xian_Template\EW-ARM(v8x)\Flash\Obj\ImageData.o"
#        "D:\Ls_Monitor_Lower\Xian_Template\EW-ARM(v8x)\Flash\Obj\ImageData2.o"
#        "D:\Ls_Monitor_Lower\Xian_Template\EW-ARM(v8x)\Flash\Obj\iwdg.o"
#        "D:\Ls_Monitor_Lower\Xian_Template\EW-ARM(v8x)\Flash\Obj\lv_anim.o"
#        "D:\Ls_Monitor_Lower\Xian_Template\EW-ARM(v8x)\Flash\Obj\lv_anim_timeline.o"
#        "D:\Ls_Monitor_Lower\Xian_Template\EW-ARM(v8x)\Flash\Obj\lv_animimg.o"
#        "D:\Ls_Monitor_Lower\Xian_Template\EW-ARM(v8x)\Flash\Obj\lv_arc.o"
#        "D:\Ls_Monitor_Lower\Xian_Template\EW-ARM(v8x)\Flash\Obj\lv_area.o"
#        "D:\Ls_Monitor_Lower\Xian_Template\EW-ARM(v8x)\Flash\Obj\lv_async.o"
#        "D:\Ls_Monitor_Lower\Xian_Template\EW-ARM(v8x)\Flash\Obj\lv_bar.o"
#        "D:\Ls_Monitor_Lower\Xian_Template\EW-ARM(v8x)\Flash\Obj\lv_bidi.o"
#        "D:\Ls_Monitor_Lower\Xian_Template\EW-ARM(v8x)\Flash\Obj\lv_btn.o"
#        "D:\Ls_Monitor_Lower\Xian_Template\EW-ARM(v8x)\Flash\Obj\lv_btnmatrix.o"
#        "D:\Ls_Monitor_Lower\Xian_Template\EW-ARM(v8x)\Flash\Obj\lv_calendar.o"
#        "D:\Ls_Monitor_Lower\Xian_Template\EW-ARM(v8x)\Flash\Obj\lv_calendar_header_arrow.o"
#        "D:\Ls_Monitor_Lower\Xian_Template\EW-ARM(v8x)\Flash\Obj\lv_calendar_header_dropdown.o"
#        "D:\Ls_Monitor_Lower\Xian_Template\EW-ARM(v8x)\Flash\Obj\lv_canvas.o"
#        "D:\Ls_Monitor_Lower\Xian_Template\EW-ARM(v8x)\Flash\Obj\lv_chart.o"
#        "D:\Ls_Monitor_Lower\Xian_Template\EW-ARM(v8x)\Flash\Obj\lv_checkbox.o"
#        "D:\Ls_Monitor_Lower\Xian_Template\EW-ARM(v8x)\Flash\Obj\lv_color.o"
#        "D:\Ls_Monitor_Lower\Xian_Template\EW-ARM(v8x)\Flash\Obj\lv_colorwheel.o"
#        "D:\Ls_Monitor_Lower\Xian_Template\EW-ARM(v8x)\Flash\Obj\lv_disp.o"
#        "D:\Ls_Monitor_Lower\Xian_Template\EW-ARM(v8x)\Flash\Obj\lv_draw.o"
#        "D:\Ls_Monitor_Lower\Xian_Template\EW-ARM(v8x)\Flash\Obj\lv_draw_arc.o"
#        "D:\Ls_Monitor_Lower\Xian_Template\EW-ARM(v8x)\Flash\Obj\lv_draw_img.o"
#        "D:\Ls_Monitor_Lower\Xian_Template\EW-ARM(v8x)\Flash\Obj\lv_draw_label.o"
#        "D:\Ls_Monitor_Lower\Xian_Template\EW-ARM(v8x)\Flash\Obj\lv_draw_layer.o"
#        "D:\Ls_Monitor_Lower\Xian_Template\EW-ARM(v8x)\Flash\Obj\lv_draw_line.o"
#        "D:\Ls_Monitor_Lower\Xian_Template\EW-ARM(v8x)\Flash\Obj\lv_draw_mask.o"
#        "D:\Ls_Monitor_Lower\Xian_Template\EW-ARM(v8x)\Flash\Obj\lv_draw_rect.o"
#        "D:\Ls_Monitor_Lower\Xian_Template\EW-ARM(v8x)\Flash\Obj\lv_draw_sw.o"
#        "D:\Ls_Monitor_Lower\Xian_Template\EW-ARM(v8x)\Flash\Obj\lv_draw_sw_arc.o"
#        "D:\Ls_Monitor_Lower\Xian_Template\EW-ARM(v8x)\Flash\Obj\lv_draw_sw_blend.o"
#        "D:\Ls_Monitor_Lower\Xian_Template\EW-ARM(v8x)\Flash\Obj\lv_draw_sw_dither.o"
#        "D:\Ls_Monitor_Lower\Xian_Template\EW-ARM(v8x)\Flash\Obj\lv_draw_sw_gradient.o"
#        "D:\Ls_Monitor_Lower\Xian_Template\EW-ARM(v8x)\Flash\Obj\lv_draw_sw_img.o"
#        "D:\Ls_Monitor_Lower\Xian_Template\EW-ARM(v8x)\Flash\Obj\lv_draw_sw_layer.o"
#        "D:\Ls_Monitor_Lower\Xian_Template\EW-ARM(v8x)\Flash\Obj\lv_draw_sw_letter.o"
#        "D:\Ls_Monitor_Lower\Xian_Template\EW-ARM(v8x)\Flash\Obj\lv_draw_sw_line.o"
#        "D:\Ls_Monitor_Lower\Xian_Template\EW-ARM(v8x)\Flash\Obj\lv_draw_sw_polygon.o"
#        "D:\Ls_Monitor_Lower\Xian_Template\EW-ARM(v8x)\Flash\Obj\lv_draw_sw_rect.o"
#        "D:\Ls_Monitor_Lower\Xian_Template\EW-ARM(v8x)\Flash\Obj\lv_draw_sw_transform.o"
#        "D:\Ls_Monitor_Lower\Xian_Template\EW-ARM(v8x)\Flash\Obj\lv_draw_transform.o"
#        "D:\Ls_Monitor_Lower\Xian_Template\EW-ARM(v8x)\Flash\Obj\lv_draw_triangle.o"
#        "D:\Ls_Monitor_Lower\Xian_Template\EW-ARM(v8x)\Flash\Obj\lv_dropdown.o"
#        "D:\Ls_Monitor_Lower\Xian_Template\EW-ARM(v8x)\Flash\Obj\lv_event.o"
#        "D:\Ls_Monitor_Lower\Xian_Template\EW-ARM(v8x)\Flash\Obj\lv_extra.o"
#        "D:\Ls_Monitor_Lower\Xian_Template\EW-ARM(v8x)\Flash\Obj\lv_flex.o"
#        "D:\Ls_Monitor_Lower\Xian_Template\EW-ARM(v8x)\Flash\Obj\lv_font.o"
#        "D:\Ls_Monitor_Lower\Xian_Template\EW-ARM(v8x)\Flash\Obj\lv_font_dejavu_16_persian_hebrew.o"
#        "D:\Ls_Monitor_Lower\Xian_Template\EW-ARM(v8x)\Flash\Obj\lv_font_fmt_txt.o"
#        "D:\Ls_Monitor_Lower\Xian_Template\EW-ARM(v8x)\Flash\Obj\lv_font_loader.o"
#        "D:\Ls_Monitor_Lower\Xian_Template\EW-ARM(v8x)\Flash\Obj\lv_font_montserrat_10.o"
#        "D:\Ls_Monitor_Lower\Xian_Template\EW-ARM(v8x)\Flash\Obj\lv_font_montserrat_12.o"
#        "D:\Ls_Monitor_Lower\Xian_Template\EW-ARM(v8x)\Flash\Obj\lv_font_montserrat_12_subpx.o"
#        "D:\Ls_Monitor_Lower\Xian_Template\EW-ARM(v8x)\Flash\Obj\lv_font_montserrat_14.o"
#        "D:\Ls_Monitor_Lower\Xian_Template\EW-ARM(v8x)\Flash\Obj\lv_font_montserrat_16.o"
#        "D:\Ls_Monitor_Lower\Xian_Template\EW-ARM(v8x)\Flash\Obj\lv_font_montserrat_24.o"
#        "D:\Ls_Monitor_Lower\Xian_Template\EW-ARM(v8x)\Flash\Obj\lv_font_montserrat_8.o"
#        "D:\Ls_Monitor_Lower\Xian_Template\EW-ARM(v8x)\Flash\Obj\lv_font_simsun_16_cjk.o"
#        "D:\Ls_Monitor_Lower\Xian_Template\EW-ARM(v8x)\Flash\Obj\lv_font_unscii_16.o"
#        "D:\Ls_Monitor_Lower\Xian_Template\EW-ARM(v8x)\Flash\Obj\lv_font_unscii_8.o"
#        "D:\Ls_Monitor_Lower\Xian_Template\EW-ARM(v8x)\Flash\Obj\lv_fragment.o"
#        "D:\Ls_Monitor_Lower\Xian_Template\EW-ARM(v8x)\Flash\Obj\lv_fragment_manager.o"
#        "D:\Ls_Monitor_Lower\Xian_Template\EW-ARM(v8x)\Flash\Obj\lv_fs.o"
#        "D:\Ls_Monitor_Lower\Xian_Template\EW-ARM(v8x)\Flash\Obj\lv_fs_fatfs.o"
#        "D:\Ls_Monitor_Lower\Xian_Template\EW-ARM(v8x)\Flash\Obj\lv_gc.o"
#        "D:\Ls_Monitor_Lower\Xian_Template\EW-ARM(v8x)\Flash\Obj\lv_grid.o"
#        "D:\Ls_Monitor_Lower\Xian_Template\EW-ARM(v8x)\Flash\Obj\lv_gridnav.o"
#        "D:\Ls_Monitor_Lower\Xian_Template\EW-ARM(v8x)\Flash\Obj\lv_group.o"
#        "D:\Ls_Monitor_Lower\Xian_Template\EW-ARM(v8x)\Flash\Obj\lv_hal_disp.o"
#        "D:\Ls_Monitor_Lower\Xian_Template\EW-ARM(v8x)\Flash\Obj\lv_hal_indev.o"
#        "D:\Ls_Monitor_Lower\Xian_Template\EW-ARM(v8x)\Flash\Obj\lv_hal_tick.o"
#        "D:\Ls_Monitor_Lower\Xian_Template\EW-ARM(v8x)\Flash\Obj\lv_ime_pinyin.o"
#        "D:\Ls_Monitor_Lower\Xian_Template\EW-ARM(v8x)\Flash\Obj\lv_img.o"
#        "D:\Ls_Monitor_Lower\Xian_Template\EW-ARM(v8x)\Flash\Obj\lv_img_buf.o"
#        "D:\Ls_Monitor_Lower\Xian_Template\EW-ARM(v8x)\Flash\Obj\lv_img_cache.o"
#        "D:\Ls_Monitor_Lower\Xian_Template\EW-ARM(v8x)\Flash\Obj\lv_img_decoder.o"
#        "D:\Ls_Monitor_Lower\Xian_Template\EW-ARM(v8x)\Flash\Obj\lv_imgbtn.o"
#        "D:\Ls_Monitor_Lower\Xian_Template\EW-ARM(v8x)\Flash\Obj\lv_imgfont.o"
#        "D:\Ls_Monitor_Lower\Xian_Template\EW-ARM(v8x)\Flash\Obj\lv_indev.o"
#        "D:\Ls_Monitor_Lower\Xian_Template\EW-ARM(v8x)\Flash\Obj\lv_indev_scroll.o"
#        "D:\Ls_Monitor_Lower\Xian_Template\EW-ARM(v8x)\Flash\Obj\lv_keyboard.o"
#        "D:\Ls_Monitor_Lower\Xian_Template\EW-ARM(v8x)\Flash\Obj\lv_label.o"
#        "D:\Ls_Monitor_Lower\Xian_Template\EW-ARM(v8x)\Flash\Obj\lv_led.o"
#        "D:\Ls_Monitor_Lower\Xian_Template\EW-ARM(v8x)\Flash\Obj\lv_line.o"
#        "D:\Ls_Monitor_Lower\Xian_Template\EW-ARM(v8x)\Flash\Obj\lv_list.o"
#        "D:\Ls_Monitor_Lower\Xian_Template\EW-ARM(v8x)\Flash\Obj\lv_ll.o"
#        "D:\Ls_Monitor_Lower\Xian_Template\EW-ARM(v8x)\Flash\Obj\lv_log.o"
#        "D:\Ls_Monitor_Lower\Xian_Template\EW-ARM(v8x)\Flash\Obj\lv_lru.o"
#        "D:\Ls_Monitor_Lower\Xian_Template\EW-ARM(v8x)\Flash\Obj\lv_math.o"
#        "D:\Ls_Monitor_Lower\Xian_Template\EW-ARM(v8x)\Flash\Obj\lv_mem.o"
#        "D:\Ls_Monitor_Lower\Xian_Template\EW-ARM(v8x)\Flash\Obj\lv_menu.o"
#        "D:\Ls_Monitor_Lower\Xian_Template\EW-ARM(v8x)\Flash\Obj\lv_meter.o"
#        "D:\Ls_Monitor_Lower\Xian_Template\EW-ARM(v8x)\Flash\Obj\lv_monkey.o"
#        "D:\Ls_Monitor_Lower\Xian_Template\EW-ARM(v8x)\Flash\Obj\lv_msg.o"
#        "D:\Ls_Monitor_Lower\Xian_Template\EW-ARM(v8x)\Flash\Obj\lv_msgbox.o"
#        "D:\Ls_Monitor_Lower\Xian_Template\EW-ARM(v8x)\Flash\Obj\lv_obj.o"
#        "D:\Ls_Monitor_Lower\Xian_Template\EW-ARM(v8x)\Flash\Obj\lv_obj_class.o"
#        "D:\Ls_Monitor_Lower\Xian_Template\EW-ARM(v8x)\Flash\Obj\lv_obj_draw.o"
#        "D:\Ls_Monitor_Lower\Xian_Template\EW-ARM(v8x)\Flash\Obj\lv_obj_pos.o"
#        "D:\Ls_Monitor_Lower\Xian_Template\EW-ARM(v8x)\Flash\Obj\lv_obj_scroll.o"
#        "D:\Ls_Monitor_Lower\Xian_Template\EW-ARM(v8x)\Flash\Obj\lv_obj_style.o"
#        "D:\Ls_Monitor_Lower\Xian_Template\EW-ARM(v8x)\Flash\Obj\lv_obj_style_gen.o"
#        "D:\Ls_Monitor_Lower\Xian_Template\EW-ARM(v8x)\Flash\Obj\lv_obj_tree.o"
#        "D:\Ls_Monitor_Lower\Xian_Template\EW-ARM(v8x)\Flash\Obj\lv_objx_templ.o"
#        "D:\Ls_Monitor_Lower\Xian_Template\EW-ARM(v8x)\Flash\Obj\lv_port_disp_template.o"
#        "D:\Ls_Monitor_Lower\Xian_Template\EW-ARM(v8x)\Flash\Obj\lv_port_indev_template.o"
#        "D:\Ls_Monitor_Lower\Xian_Template\EW-ARM(v8x)\Flash\Obj\lv_printf.o"
#        "D:\Ls_Monitor_Lower\Xian_Template\EW-ARM(v8x)\Flash\Obj\lv_refr.o"
#        "D:\Ls_Monitor_Lower\Xian_Template\EW-ARM(v8x)\Flash\Obj\lv_roller.o"
#        "D:\Ls_Monitor_Lower\Xian_Template\EW-ARM(v8x)\Flash\Obj\lv_slider.o"
#        "D:\Ls_Monitor_Lower\Xian_Template\EW-ARM(v8x)\Flash\Obj\lv_snapshot.o"
#        "D:\Ls_Monitor_Lower\Xian_Template\EW-ARM(v8x)\Flash\Obj\lv_span.o"
#        "D:\Ls_Monitor_Lower\Xian_Template\EW-ARM(v8x)\Flash\Obj\lv_spinbox.o"
#        "D:\Ls_Monitor_Lower\Xian_Template\EW-ARM(v8x)\Flash\Obj\lv_spinner.o"
#        "D:\Ls_Monitor_Lower\Xian_Template\EW-ARM(v8x)\Flash\Obj\lv_style.o"
#        "D:\Ls_Monitor_Lower\Xian_Template\EW-ARM(v8x)\Flash\Obj\lv_style_gen.o"
#        "D:\Ls_Monitor_Lower\Xian_Template\EW-ARM(v8x)\Flash\Obj\lv_switch.o"
#        "D:\Ls_Monitor_Lower\Xian_Template\EW-ARM(v8x)\Flash\Obj\lv_table.o"
#        "D:\Ls_Monitor_Lower\Xian_Template\EW-ARM(v8x)\Flash\Obj\lv_tabview.o"
#        "D:\Ls_Monitor_Lower\Xian_Template\EW-ARM(v8x)\Flash\Obj\lv_templ.o"
#        "D:\Ls_Monitor_Lower\Xian_Template\EW-ARM(v8x)\Flash\Obj\lv_textarea.o"
#        "D:\Ls_Monitor_Lower\Xian_Template\EW-ARM(v8x)\Flash\Obj\lv_theme.o"
#        "D:\Ls_Monitor_Lower\Xian_Template\EW-ARM(v8x)\Flash\Obj\lv_theme_basic.o"
#        "D:\Ls_Monitor_Lower\Xian_Template\EW-ARM(v8x)\Flash\Obj\lv_theme_default.o"
#        "D:\Ls_Monitor_Lower\Xian_Template\EW-ARM(v8x)\Flash\Obj\lv_theme_mono.o"
#        "D:\Ls_Monitor_Lower\Xian_Template\EW-ARM(v8x)\Flash\Obj\lv_tileview.o"
#        "D:\Ls_Monitor_Lower\Xian_Template\EW-ARM(v8x)\Flash\Obj\lv_timer.o"
#        "D:\Ls_Monitor_Lower\Xian_Template\EW-ARM(v8x)\Flash\Obj\lv_tlsf.o"
#        "D:\Ls_Monitor_Lower\Xian_Template\EW-ARM(v8x)\Flash\Obj\lv_txt.o"
#        "D:\Ls_Monitor_Lower\Xian_Template\EW-ARM(v8x)\Flash\Obj\lv_txt_ap.o"
#        "D:\Ls_Monitor_Lower\Xian_Template\EW-ARM(v8x)\Flash\Obj\lv_utils.o"
#        "D:\Ls_Monitor_Lower\Xian_Template\EW-ARM(v8x)\Flash\Obj\lv_win.o"
#        "D:\Ls_Monitor_Lower\Xian_Template\EW-ARM(v8x)\Flash\Obj\main.o"
#        "D:\Ls_Monitor_Lower\Xian_Template\EW-ARM(v8x)\Flash\Obj\Monitor.o"
#        "D:\Ls_Monitor_Lower\Xian_Template\EW-ARM(v8x)\Flash\Obj\motor_control_ui.o"
#        "D:\Ls_Monitor_Lower\Xian_Template\EW-ARM(v8x)\Flash\Obj\myFont20.o"
#        "D:\Ls_Monitor_Lower\Xian_Template\EW-ARM(v8x)\Flash\Obj\myFont36.o"
#        "D:\Ls_Monitor_Lower\Xian_Template\EW-ARM(v8x)\Flash\Obj\sd_diskio_dma.o"
#        "D:\Ls_Monitor_Lower\Xian_Template\EW-ARM(v8x)\Flash\Obj\SEGGER_HardFaultHandler.o"
#        "D:\Ls_Monitor_Lower\Xian_Template\EW-ARM(v8x)\Flash\Obj\sensor_ui.o"
#        "D:\Ls_Monitor_Lower\Xian_Template\EW-ARM(v8x)\Flash\Obj\set_up.o"
#        "D:\Ls_Monitor_Lower\Xian_Template\EW-ARM(v8x)\Flash\Obj\startup_stm32f407xx.o"
#        "D:\Ls_Monitor_Lower\Xian_Template\EW-ARM(v8x)\Flash\Obj\stm32f4xx_hal.o"
#        "D:\Ls_Monitor_Lower\Xian_Template\EW-ARM(v8x)\Flash\Obj\stm32f4xx_hal_can.o"
#        "D:\Ls_Monitor_Lower\Xian_Template\EW-ARM(v8x)\Flash\Obj\stm32f4xx_hal_cortex.o"
#        "D:\Ls_Monitor_Lower\Xian_Template\EW-ARM(v8x)\Flash\Obj\stm32f4xx_hal_crc.o"
#        "D:\Ls_Monitor_Lower\Xian_Template\EW-ARM(v8x)\Flash\Obj\stm32f4xx_hal_dma.o"
#        "D:\Ls_Monitor_Lower\Xian_Template\EW-ARM(v8x)\Flash\Obj\stm32f4xx_hal_dma_ex.o"
#        "D:\Ls_Monitor_Lower\Xian_Template\EW-ARM(v8x)\Flash\Obj\stm32f4xx_hal_eth.o"
#        "D:\Ls_Monitor_Lower\Xian_Template\EW-ARM(v8x)\Flash\Obj\stm32f4xx_hal_gpio.o"
#        "D:\Ls_Monitor_Lower\Xian_Template\EW-ARM(v8x)\Flash\Obj\stm32f4xx_hal_i2c.o"
#        "D:\Ls_Monitor_Lower\Xian_Template\EW-ARM(v8x)\Flash\Obj\stm32f4xx_hal_i2c_ex.o"
#        "D:\Ls_Monitor_Lower\Xian_Template\EW-ARM(v8x)\Flash\Obj\stm32f4xx_hal_iwdg.o"
#        "D:\Ls_Monitor_Lower\Xian_Template\EW-ARM(v8x)\Flash\Obj\stm32f4xx_hal_msp.o"
#        "D:\Ls_Monitor_Lower\Xian_Template\EW-ARM(v8x)\Flash\Obj\stm32f4xx_hal_pwr.o"
#        "D:\Ls_Monitor_Lower\Xian_Template\EW-ARM(v8x)\Flash\Obj\stm32f4xx_hal_pwr_ex.o"
#        "D:\Ls_Monitor_Lower\Xian_Template\EW-ARM(v8x)\Flash\Obj\stm32f4xx_hal_rcc.o"
#        "D:\Ls_Monitor_Lower\Xian_Template\EW-ARM(v8x)\Flash\Obj\stm32f4xx_hal_rcc_ex.o"
#        "D:\Ls_Monitor_Lower\Xian_Template\EW-ARM(v8x)\Flash\Obj\stm32f4xx_hal_sd.o"
#        "D:\Ls_Monitor_Lower\Xian_Template\EW-ARM(v8x)\Flash\Obj\stm32f4xx_hal_spi.o"
#        "D:\Ls_Monitor_Lower\Xian_Template\EW-ARM(v8x)\Flash\Obj\stm32f4xx_hal_sram.o"
#        "D:\Ls_Monitor_Lower\Xian_Template\EW-ARM(v8x)\Flash\Obj\stm32f4xx_hal_tim.o"
#        "D:\Ls_Monitor_Lower\Xian_Template\EW-ARM(v8x)\Flash\Obj\stm32f4xx_hal_tim_ex.o"
#        "D:\Ls_Monitor_Lower\Xian_Template\EW-ARM(v8x)\Flash\Obj\stm32f4xx_hal_timebase_tim.o"
#        "D:\Ls_Monitor_Lower\Xian_Template\EW-ARM(v8x)\Flash\Obj\stm32f4xx_hal_uart.o"
#        "D:\Ls_Monitor_Lower\Xian_Template\EW-ARM(v8x)\Flash\Obj\stm32f4xx_it.o"
#        "D:\Ls_Monitor_Lower\Xian_Template\EW-ARM(v8x)\Flash\Obj\stm32f4xx_ll_fsmc.o"
#        "D:\Ls_Monitor_Lower\Xian_Template\EW-ARM(v8x)\Flash\Obj\stm32f4xx_ll_sdmmc.o"
#        "D:\Ls_Monitor_Lower\Xian_Template\EW-ARM(v8x)\Flash\Obj\sys.o"
#        "D:\Ls_Monitor_Lower\Xian_Template\EW-ARM(v8x)\Flash\Obj\syscall.o"
#        "D:\Ls_Monitor_Lower\Xian_Template\EW-ARM(v8x)\Flash\Obj\system_stm32f4xx.o"
#        "D:\Ls_Monitor_Lower\Xian_Template\EW-ARM(v8x)\Flash\Obj\system_task_create.o"
#        "D:\Ls_Monitor_Lower\Xian_Template\EW-ARM(v8x)\Flash\Obj\ticktim.o"
#        "D:\Ls_Monitor_Lower\Xian_Template\EW-ARM(v8x)\Flash\Obj\tx_block_allocate.o"
#        "D:\Ls_Monitor_Lower\Xian_Template\EW-ARM(v8x)\Flash\Obj\tx_block_pool_cleanup.o"
#        "D:\Ls_Monitor_Lower\Xian_Template\EW-ARM(v8x)\Flash\Obj\tx_block_pool_create.o"
#        "D:\Ls_Monitor_Lower\Xian_Template\EW-ARM(v8x)\Flash\Obj\tx_block_pool_delete.o"
#        "D:\Ls_Monitor_Lower\Xian_Template\EW-ARM(v8x)\Flash\Obj\tx_block_pool_info_get.o"
#        "D:\Ls_Monitor_Lower\Xian_Template\EW-ARM(v8x)\Flash\Obj\tx_block_pool_initialize.o"
#        "D:\Ls_Monitor_Lower\Xian_Template\EW-ARM(v8x)\Flash\Obj\tx_block_pool_performance_info_get.o"
#        "D:\Ls_Monitor_Lower\Xian_Template\EW-ARM(v8x)\Flash\Obj\tx_block_pool_performance_system_info_get.o"
#        "D:\Ls_Monitor_Lower\Xian_Template\EW-ARM(v8x)\Flash\Obj\tx_block_pool_prioritize.o"
#        "D:\Ls_Monitor_Lower\Xian_Template\EW-ARM(v8x)\Flash\Obj\tx_block_release.o"
#        "D:\Ls_Monitor_Lower\Xian_Template\EW-ARM(v8x)\Flash\Obj\tx_byte_allocate.o"
#        "D:\Ls_Monitor_Lower\Xian_Template\EW-ARM(v8x)\Flash\Obj\tx_byte_pool_cleanup.o"
#        "D:\Ls_Monitor_Lower\Xian_Template\EW-ARM(v8x)\Flash\Obj\tx_byte_pool_create.o"
#        "D:\Ls_Monitor_Lower\Xian_Template\EW-ARM(v8x)\Flash\Obj\tx_byte_pool_delete.o"
#        "D:\Ls_Monitor_Lower\Xian_Template\EW-ARM(v8x)\Flash\Obj\tx_byte_pool_info_get.o"
#        "D:\Ls_Monitor_Lower\Xian_Template\EW-ARM(v8x)\Flash\Obj\tx_byte_pool_initialize.o"
#        "D:\Ls_Monitor_Lower\Xian_Template\EW-ARM(v8x)\Flash\Obj\tx_byte_pool_performance_info_get.o"
#        "D:\Ls_Monitor_Lower\Xian_Template\EW-ARM(v8x)\Flash\Obj\tx_byte_pool_performance_system_info_get.o"
#        "D:\Ls_Monitor_Lower\Xian_Template\EW-ARM(v8x)\Flash\Obj\tx_byte_pool_prioritize.o"
#        "D:\Ls_Monitor_Lower\Xian_Template\EW-ARM(v8x)\Flash\Obj\tx_byte_pool_search.o"
#        "D:\Ls_Monitor_Lower\Xian_Template\EW-ARM(v8x)\Flash\Obj\tx_byte_release.o"
#        "D:\Ls_Monitor_Lower\Xian_Template\EW-ARM(v8x)\Flash\Obj\tx_event_flags_cleanup.o"
#        "D:\Ls_Monitor_Lower\Xian_Template\EW-ARM(v8x)\Flash\Obj\tx_event_flags_create.o"
#        "D:\Ls_Monitor_Lower\Xian_Template\EW-ARM(v8x)\Flash\Obj\tx_event_flags_delete.o"
#        "D:\Ls_Monitor_Lower\Xian_Template\EW-ARM(v8x)\Flash\Obj\tx_event_flags_get.o"
#        "D:\Ls_Monitor_Lower\Xian_Template\EW-ARM(v8x)\Flash\Obj\tx_event_flags_info_get.o"
#        "D:\Ls_Monitor_Lower\Xian_Template\EW-ARM(v8x)\Flash\Obj\tx_event_flags_initialize.o"
#        "D:\Ls_Monitor_Lower\Xian_Template\EW-ARM(v8x)\Flash\Obj\tx_event_flags_performance_info_get.o"
#        "D:\Ls_Monitor_Lower\Xian_Template\EW-ARM(v8x)\Flash\Obj\tx_event_flags_performance_system_info_get.o"
#        "D:\Ls_Monitor_Lower\Xian_Template\EW-ARM(v8x)\Flash\Obj\tx_event_flags_set.o"
#        "D:\Ls_Monitor_Lower\Xian_Template\EW-ARM(v8x)\Flash\Obj\tx_event_flags_set_notify.o"
#        "D:\Ls_Monitor_Lower\Xian_Template\EW-ARM(v8x)\Flash\Obj\tx_iar.o"
#        "D:\Ls_Monitor_Lower\Xian_Template\EW-ARM(v8x)\Flash\Obj\tx_initialize_high_level.o"
#        "D:\Ls_Monitor_Lower\Xian_Template\EW-ARM(v8x)\Flash\Obj\tx_initialize_kernel_enter.o"
#        "D:\Ls_Monitor_Lower\Xian_Template\EW-ARM(v8x)\Flash\Obj\tx_initialize_kernel_setup.o"
#        "D:\Ls_Monitor_Lower\Xian_Template\EW-ARM(v8x)\Flash\Obj\tx_initialize_low_level.o"
#        "D:\Ls_Monitor_Lower\Xian_Template\EW-ARM(v8x)\Flash\Obj\tx_misra.o"
#        "D:\Ls_Monitor_Lower\Xian_Template\EW-ARM(v8x)\Flash\Obj\tx_mutex_cleanup.o"
#        "D:\Ls_Monitor_Lower\Xian_Template\EW-ARM(v8x)\Flash\Obj\tx_mutex_create.o"
#        "D:\Ls_Monitor_Lower\Xian_Template\EW-ARM(v8x)\Flash\Obj\tx_mutex_delete.o"
#        "D:\Ls_Monitor_Lower\Xian_Template\EW-ARM(v8x)\Flash\Obj\tx_mutex_get.o"
#        "D:\Ls_Monitor_Lower\Xian_Template\EW-ARM(v8x)\Flash\Obj\tx_mutex_info_get.o"
#        "D:\Ls_Monitor_Lower\Xian_Template\EW-ARM(v8x)\Flash\Obj\tx_mutex_initialize.o"
#        "D:\Ls_Monitor_Lower\Xian_Template\EW-ARM(v8x)\Flash\Obj\tx_mutex_performance_info_get.o"
#        "D:\Ls_Monitor_Lower\Xian_Template\EW-ARM(v8x)\Flash\Obj\tx_mutex_performance_system_info_get.o"
#        "D:\Ls_Monitor_Lower\Xian_Template\EW-ARM(v8x)\Flash\Obj\tx_mutex_prioritize.o"
#        "D:\Ls_Monitor_Lower\Xian_Template\EW-ARM(v8x)\Flash\Obj\tx_mutex_priority_change.o"
#        "D:\Ls_Monitor_Lower\Xian_Template\EW-ARM(v8x)\Flash\Obj\tx_mutex_put.o"
#        "D:\Ls_Monitor_Lower\Xian_Template\EW-ARM(v8x)\Flash\Obj\tx_queue_cleanup.o"
#        "D:\Ls_Monitor_Lower\Xian_Template\EW-ARM(v8x)\Flash\Obj\tx_queue_create.o"
#        "D:\Ls_Monitor_Lower\Xian_Template\EW-ARM(v8x)\Flash\Obj\tx_queue_delete.o"
#        "D:\Ls_Monitor_Lower\Xian_Template\EW-ARM(v8x)\Flash\Obj\tx_queue_flush.o"
#        "D:\Ls_Monitor_Lower\Xian_Template\EW-ARM(v8x)\Flash\Obj\tx_queue_front_send.o"
#        "D:\Ls_Monitor_Lower\Xian_Template\EW-ARM(v8x)\Flash\Obj\tx_queue_info_get.o"
#        "D:\Ls_Monitor_Lower\Xian_Template\EW-ARM(v8x)\Flash\Obj\tx_queue_initialize.o"
#        "D:\Ls_Monitor_Lower\Xian_Template\EW-ARM(v8x)\Flash\Obj\tx_queue_performance_info_get.o"
#        "D:\Ls_Monitor_Lower\Xian_Template\EW-ARM(v8x)\Flash\Obj\tx_queue_performance_system_info_get.o"
#        "D:\Ls_Monitor_Lower\Xian_Template\EW-ARM(v8x)\Flash\Obj\tx_queue_prioritize.o"
#        "D:\Ls_Monitor_Lower\Xian_Template\EW-ARM(v8x)\Flash\Obj\tx_queue_receive.o"
#        "D:\Ls_Monitor_Lower\Xian_Template\EW-ARM(v8x)\Flash\Obj\tx_queue_send.o"
#        "D:\Ls_Monitor_Lower\Xian_Template\EW-ARM(v8x)\Flash\Obj\tx_queue_send_notify.o"
#        "D:\Ls_Monitor_Lower\Xian_Template\EW-ARM(v8x)\Flash\Obj\tx_semaphore_ceiling_put.o"
#        "D:\Ls_Monitor_Lower\Xian_Template\EW-ARM(v8x)\Flash\Obj\tx_semaphore_cleanup.o"
#        "D:\Ls_Monitor_Lower\Xian_Template\EW-ARM(v8x)\Flash\Obj\tx_semaphore_create.o"
#        "D:\Ls_Monitor_Lower\Xian_Template\EW-ARM(v8x)\Flash\Obj\tx_semaphore_delete.o"
#        "D:\Ls_Monitor_Lower\Xian_Template\EW-ARM(v8x)\Flash\Obj\tx_semaphore_get.o"
#        "D:\Ls_Monitor_Lower\Xian_Template\EW-ARM(v8x)\Flash\Obj\tx_semaphore_info_get.o"
#        "D:\Ls_Monitor_Lower\Xian_Template\EW-ARM(v8x)\Flash\Obj\tx_semaphore_initialize.o"
#        "D:\Ls_Monitor_Lower\Xian_Template\EW-ARM(v8x)\Flash\Obj\tx_semaphore_performance_info_get.o"
#        "D:\Ls_Monitor_Lower\Xian_Template\EW-ARM(v8x)\Flash\Obj\tx_semaphore_performance_system_info_get.o"
#        "D:\Ls_Monitor_Lower\Xian_Template\EW-ARM(v8x)\Flash\Obj\tx_semaphore_prioritize.o"
#        "D:\Ls_Monitor_Lower\Xian_Template\EW-ARM(v8x)\Flash\Obj\tx_semaphore_put.o"
#        "D:\Ls_Monitor_Lower\Xian_Template\EW-ARM(v8x)\Flash\Obj\tx_semaphore_put_notify.o"
#        "D:\Ls_Monitor_Lower\Xian_Template\EW-ARM(v8x)\Flash\Obj\tx_thread_context_restore.o"
#        "D:\Ls_Monitor_Lower\Xian_Template\EW-ARM(v8x)\Flash\Obj\tx_thread_context_save.o"
#        "D:\Ls_Monitor_Lower\Xian_Template\EW-ARM(v8x)\Flash\Obj\tx_thread_create.o"
#        "D:\Ls_Monitor_Lower\Xian_Template\EW-ARM(v8x)\Flash\Obj\tx_thread_delete.o"
#        "D:\Ls_Monitor_Lower\Xian_Template\EW-ARM(v8x)\Flash\Obj\tx_thread_entry_exit_notify.o"
#        "D:\Ls_Monitor_Lower\Xian_Template\EW-ARM(v8x)\Flash\Obj\tx_thread_identify.o"
#        "D:\Ls_Monitor_Lower\Xian_Template\EW-ARM(v8x)\Flash\Obj\tx_thread_info_get.o"
#        "D:\Ls_Monitor_Lower\Xian_Template\EW-ARM(v8x)\Flash\Obj\tx_thread_initialize.o"
#        "D:\Ls_Monitor_Lower\Xian_Template\EW-ARM(v8x)\Flash\Obj\tx_thread_interrupt_control.o"
#        "D:\Ls_Monitor_Lower\Xian_Template\EW-ARM(v8x)\Flash\Obj\tx_thread_interrupt_disable.o"
#        "D:\Ls_Monitor_Lower\Xian_Template\EW-ARM(v8x)\Flash\Obj\tx_thread_interrupt_restore.o"
#        "D:\Ls_Monitor_Lower\Xian_Template\EW-ARM(v8x)\Flash\Obj\tx_thread_performance_info_get.o"
#        "D:\Ls_Monitor_Lower\Xian_Template\EW-ARM(v8x)\Flash\Obj\tx_thread_performance_system_info_get.o"
#        "D:\Ls_Monitor_Lower\Xian_Template\EW-ARM(v8x)\Flash\Obj\tx_thread_preemption_change.o"
#        "D:\Ls_Monitor_Lower\Xian_Template\EW-ARM(v8x)\Flash\Obj\tx_thread_priority_change.o"
#        "D:\Ls_Monitor_Lower\Xian_Template\EW-ARM(v8x)\Flash\Obj\tx_thread_relinquish.o"
#        "D:\Ls_Monitor_Lower\Xian_Template\EW-ARM(v8x)\Flash\Obj\tx_thread_reset.o"
#        "D:\Ls_Monitor_Lower\Xian_Template\EW-ARM(v8x)\Flash\Obj\tx_thread_resume.o"
#        "D:\Ls_Monitor_Lower\Xian_Template\EW-ARM(v8x)\Flash\Obj\tx_thread_schedule.o"
#        "D:\Ls_Monitor_Lower\Xian_Template\EW-ARM(v8x)\Flash\Obj\tx_thread_shell_entry.o"
#        "D:\Ls_Monitor_Lower\Xian_Template\EW-ARM(v8x)\Flash\Obj\tx_thread_sleep.o"
#        "D:\Ls_Monitor_Lower\Xian_Template\EW-ARM(v8x)\Flash\Obj\tx_thread_stack_analyze.o"
#        "D:\Ls_Monitor_Lower\Xian_Template\EW-ARM(v8x)\Flash\Obj\tx_thread_stack_build.o"
#        "D:\Ls_Monitor_Lower\Xian_Template\EW-ARM(v8x)\Flash\Obj\tx_thread_stack_error_handler.o"
#        "D:\Ls_Monitor_Lower\Xian_Template\EW-ARM(v8x)\Flash\Obj\tx_thread_stack_error_notify.o"
#        "D:\Ls_Monitor_Lower\Xian_Template\EW-ARM(v8x)\Flash\Obj\tx_thread_suspend.o"
#        "D:\Ls_Monitor_Lower\Xian_Template\EW-ARM(v8x)\Flash\Obj\tx_thread_system_preempt_check.o"
#        "D:\Ls_Monitor_Lower\Xian_Template\EW-ARM(v8x)\Flash\Obj\tx_thread_system_resume.o"
#        "D:\Ls_Monitor_Lower\Xian_Template\EW-ARM(v8x)\Flash\Obj\tx_thread_system_return.o"
#        "D:\Ls_Monitor_Lower\Xian_Template\EW-ARM(v8x)\Flash\Obj\tx_thread_system_suspend.o"
#        "D:\Ls_Monitor_Lower\Xian_Template\EW-ARM(v8x)\Flash\Obj\tx_thread_terminate.o"
#        "D:\Ls_Monitor_Lower\Xian_Template\EW-ARM(v8x)\Flash\Obj\tx_thread_time_slice.o"
#        "D:\Ls_Monitor_Lower\Xian_Template\EW-ARM(v8x)\Flash\Obj\tx_thread_time_slice_change.o"
#        "D:\Ls_Monitor_Lower\Xian_Template\EW-ARM(v8x)\Flash\Obj\tx_thread_timeout.o"
#        "D:\Ls_Monitor_Lower\Xian_Template\EW-ARM(v8x)\Flash\Obj\tx_thread_wait_abort.o"
#        "D:\Ls_Monitor_Lower\Xian_Template\EW-ARM(v8x)\Flash\Obj\tx_time_get.o"
#        "D:\Ls_Monitor_Lower\Xian_Template\EW-ARM(v8x)\Flash\Obj\tx_time_set.o"
#        "D:\Ls_Monitor_Lower\Xian_Template\EW-ARM(v8x)\Flash\Obj\tx_timer_activate.o"
#        "D:\Ls_Monitor_Lower\Xian_Template\EW-ARM(v8x)\Flash\Obj\tx_timer_change.o"
#        "D:\Ls_Monitor_Lower\Xian_Template\EW-ARM(v8x)\Flash\Obj\tx_timer_create.o"
#        "D:\Ls_Monitor_Lower\Xian_Template\EW-ARM(v8x)\Flash\Obj\tx_timer_deactivate.o"
#        "D:\Ls_Monitor_Lower\Xian_Template\EW-ARM(v8x)\Flash\Obj\tx_timer_delete.o"
#        "D:\Ls_Monitor_Lower\Xian_Template\EW-ARM(v8x)\Flash\Obj\tx_timer_expiration_process.o"
#        "D:\Ls_Monitor_Lower\Xian_Template\EW-ARM(v8x)\Flash\Obj\tx_timer_info_get.o"
#        "D:\Ls_Monitor_Lower\Xian_Template\EW-ARM(v8x)\Flash\Obj\tx_timer_initialize.o"
#        "D:\Ls_Monitor_Lower\Xian_Template\EW-ARM(v8x)\Flash\Obj\tx_timer_interrupt.o"
#        "D:\Ls_Monitor_Lower\Xian_Template\EW-ARM(v8x)\Flash\Obj\tx_timer_performance_info_get.o"
#        "D:\Ls_Monitor_Lower\Xian_Template\EW-ARM(v8x)\Flash\Obj\tx_timer_performance_system_info_get.o"
#        "D:\Ls_Monitor_Lower\Xian_Template\EW-ARM(v8x)\Flash\Obj\tx_timer_system_activate.o"
#        "D:\Ls_Monitor_Lower\Xian_Template\EW-ARM(v8x)\Flash\Obj\tx_timer_system_deactivate.o"
#        "D:\Ls_Monitor_Lower\Xian_Template\EW-ARM(v8x)\Flash\Obj\tx_timer_thread_entry.o"
#        "D:\Ls_Monitor_Lower\Xian_Template\EW-ARM(v8x)\Flash\Obj\tx_trace_buffer_full_notify.o"
#        "D:\Ls_Monitor_Lower\Xian_Template\EW-ARM(v8x)\Flash\Obj\tx_trace_disable.o"
#        "D:\Ls_Monitor_Lower\Xian_Template\EW-ARM(v8x)\Flash\Obj\tx_trace_enable.o"
#        "D:\Ls_Monitor_Lower\Xian_Template\EW-ARM(v8x)\Flash\Obj\tx_trace_event_filter.o"
#        "D:\Ls_Monitor_Lower\Xian_Template\EW-ARM(v8x)\Flash\Obj\tx_trace_event_unfilter.o"
#        "D:\Ls_Monitor_Lower\Xian_Template\EW-ARM(v8x)\Flash\Obj\tx_trace_initialize.o"
#        "D:\Ls_Monitor_Lower\Xian_Template\EW-ARM(v8x)\Flash\Obj\tx_trace_interrupt_control.o"
#        "D:\Ls_Monitor_Lower\Xian_Template\EW-ARM(v8x)\Flash\Obj\tx_trace_isr_enter_insert.o"
#        "D:\Ls_Monitor_Lower\Xian_Template\EW-ARM(v8x)\Flash\Obj\tx_trace_isr_exit_insert.o"
#        "D:\Ls_Monitor_Lower\Xian_Template\EW-ARM(v8x)\Flash\Obj\tx_trace_object_register.o"
#        "D:\Ls_Monitor_Lower\Xian_Template\EW-ARM(v8x)\Flash\Obj\tx_trace_object_unregister.o"
#        "D:\Ls_Monitor_Lower\Xian_Template\EW-ARM(v8x)\Flash\Obj\tx_trace_user_event_insert.o"
#        "D:\Ls_Monitor_Lower\Xian_Template\EW-ARM(v8x)\Flash\Obj\txe_block_allocate.o"
#        "D:\Ls_Monitor_Lower\Xian_Template\EW-ARM(v8x)\Flash\Obj\txe_block_pool_create.o"
#        "D:\Ls_Monitor_Lower\Xian_Template\EW-ARM(v8x)\Flash\Obj\txe_block_pool_delete.o"
#        "D:\Ls_Monitor_Lower\Xian_Template\EW-ARM(v8x)\Flash\Obj\txe_block_pool_info_get.o"
#        "D:\Ls_Monitor_Lower\Xian_Template\EW-ARM(v8x)\Flash\Obj\txe_block_pool_prioritize.o"
#        "D:\Ls_Monitor_Lower\Xian_Template\EW-ARM(v8x)\Flash\Obj\txe_block_release.o"
#        "D:\Ls_Monitor_Lower\Xian_Template\EW-ARM(v8x)\Flash\Obj\txe_byte_allocate.o"
#        "D:\Ls_Monitor_Lower\Xian_Template\EW-ARM(v8x)\Flash\Obj\txe_byte_pool_create.o"
#        "D:\Ls_Monitor_Lower\Xian_Template\EW-ARM(v8x)\Flash\Obj\txe_byte_pool_delete.o"
#        "D:\Ls_Monitor_Lower\Xian_Template\EW-ARM(v8x)\Flash\Obj\txe_byte_pool_info_get.o"
#        "D:\Ls_Monitor_Lower\Xian_Template\EW-ARM(v8x)\Flash\Obj\txe_byte_pool_prioritize.o"
#        "D:\Ls_Monitor_Lower\Xian_Template\EW-ARM(v8x)\Flash\Obj\txe_byte_release.o"
#        "D:\Ls_Monitor_Lower\Xian_Template\EW-ARM(v8x)\Flash\Obj\txe_event_flags_create.o"
#        "D:\Ls_Monitor_Lower\Xian_Template\EW-ARM(v8x)\Flash\Obj\txe_event_flags_delete.o"
#        "D:\Ls_Monitor_Lower\Xian_Template\EW-ARM(v8x)\Flash\Obj\txe_event_flags_get.o"
#        "D:\Ls_Monitor_Lower\Xian_Template\EW-ARM(v8x)\Flash\Obj\txe_event_flags_info_get.o"
#        "D:\Ls_Monitor_Lower\Xian_Template\EW-ARM(v8x)\Flash\Obj\txe_event_flags_set.o"
#        "D:\Ls_Monitor_Lower\Xian_Template\EW-ARM(v8x)\Flash\Obj\txe_event_flags_set_notify.o"
#        "D:\Ls_Monitor_Lower\Xian_Template\EW-ARM(v8x)\Flash\Obj\txe_mutex_create.o"
#        "D:\Ls_Monitor_Lower\Xian_Template\EW-ARM(v8x)\Flash\Obj\txe_mutex_delete.o"
#        "D:\Ls_Monitor_Lower\Xian_Template\EW-ARM(v8x)\Flash\Obj\txe_mutex_get.o"
#        "D:\Ls_Monitor_Lower\Xian_Template\EW-ARM(v8x)\Flash\Obj\txe_mutex_info_get.o"
#        "D:\Ls_Monitor_Lower\Xian_Template\EW-ARM(v8x)\Flash\Obj\txe_mutex_prioritize.o"
#        "D:\Ls_Monitor_Lower\Xian_Template\EW-ARM(v8x)\Flash\Obj\txe_mutex_put.o"
#        "D:\Ls_Monitor_Lower\Xian_Template\EW-ARM(v8x)\Flash\Obj\txe_queue_create.o"
#        "D:\Ls_Monitor_Lower\Xian_Template\EW-ARM(v8x)\Flash\Obj\txe_queue_delete.o"
#        "D:\Ls_Monitor_Lower\Xian_Template\EW-ARM(v8x)\Flash\Obj\txe_queue_flush.o"
#        "D:\Ls_Monitor_Lower\Xian_Template\EW-ARM(v8x)\Flash\Obj\txe_queue_front_send.o"
#        "D:\Ls_Monitor_Lower\Xian_Template\EW-ARM(v8x)\Flash\Obj\txe_queue_info_get.o"
#        "D:\Ls_Monitor_Lower\Xian_Template\EW-ARM(v8x)\Flash\Obj\txe_queue_prioritize.o"
#        "D:\Ls_Monitor_Lower\Xian_Template\EW-ARM(v8x)\Flash\Obj\txe_queue_receive.o"
#        "D:\Ls_Monitor_Lower\Xian_Template\EW-ARM(v8x)\Flash\Obj\txe_queue_send.o"
#        "D:\Ls_Monitor_Lower\Xian_Template\EW-ARM(v8x)\Flash\Obj\txe_queue_send_notify.o"
#        "D:\Ls_Monitor_Lower\Xian_Template\EW-ARM(v8x)\Flash\Obj\txe_semaphore_ceiling_put.o"
#        "D:\Ls_Monitor_Lower\Xian_Template\EW-ARM(v8x)\Flash\Obj\txe_semaphore_create.o"
#        "D:\Ls_Monitor_Lower\Xian_Template\EW-ARM(v8x)\Flash\Obj\txe_semaphore_delete.o"
#        "D:\Ls_Monitor_Lower\Xian_Template\EW-ARM(v8x)\Flash\Obj\txe_semaphore_get.o"
#        "D:\Ls_Monitor_Lower\Xian_Template\EW-ARM(v8x)\Flash\Obj\txe_semaphore_info_get.o"
#        "D:\Ls_Monitor_Lower\Xian_Template\EW-ARM(v8x)\Flash\Obj\txe_semaphore_prioritize.o"
#        "D:\Ls_Monitor_Lower\Xian_Template\EW-ARM(v8x)\Flash\Obj\txe_semaphore_put.o"
#        "D:\Ls_Monitor_Lower\Xian_Template\EW-ARM(v8x)\Flash\Obj\txe_semaphore_put_notify.o"
#        "D:\Ls_Monitor_Lower\Xian_Template\EW-ARM(v8x)\Flash\Obj\txe_thread_create.o"
#        "D:\Ls_Monitor_Lower\Xian_Template\EW-ARM(v8x)\Flash\Obj\txe_thread_delete.o"
#        "D:\Ls_Monitor_Lower\Xian_Template\EW-ARM(v8x)\Flash\Obj\txe_thread_entry_exit_notify.o"
#        "D:\Ls_Monitor_Lower\Xian_Template\EW-ARM(v8x)\Flash\Obj\txe_thread_info_get.o"
#        "D:\Ls_Monitor_Lower\Xian_Template\EW-ARM(v8x)\Flash\Obj\txe_thread_preemption_change.o"
#        "D:\Ls_Monitor_Lower\Xian_Template\EW-ARM(v8x)\Flash\Obj\txe_thread_priority_change.o"
#        "D:\Ls_Monitor_Lower\Xian_Template\EW-ARM(v8x)\Flash\Obj\txe_thread_relinquish.o"
#        "D:\Ls_Monitor_Lower\Xian_Template\EW-ARM(v8x)\Flash\Obj\txe_thread_reset.o"
#        "D:\Ls_Monitor_Lower\Xian_Template\EW-ARM(v8x)\Flash\Obj\txe_thread_resume.o"
#        "D:\Ls_Monitor_Lower\Xian_Template\EW-ARM(v8x)\Flash\Obj\txe_thread_suspend.o"
#        "D:\Ls_Monitor_Lower\Xian_Template\EW-ARM(v8x)\Flash\Obj\txe_thread_terminate.o"
#        "D:\Ls_Monitor_Lower\Xian_Template\EW-ARM(v8x)\Flash\Obj\txe_thread_time_slice_change.o"
#        "D:\Ls_Monitor_Lower\Xian_Template\EW-ARM(v8x)\Flash\Obj\txe_thread_wait_abort.o"
#        "D:\Ls_Monitor_Lower\Xian_Template\EW-ARM(v8x)\Flash\Obj\txe_timer_activate.o"
#        "D:\Ls_Monitor_Lower\Xian_Template\EW-ARM(v8x)\Flash\Obj\txe_timer_change.o"
#        "D:\Ls_Monitor_Lower\Xian_Template\EW-ARM(v8x)\Flash\Obj\txe_timer_create.o"
#        "D:\Ls_Monitor_Lower\Xian_Template\EW-ARM(v8x)\Flash\Obj\txe_timer_deactivate.o"
#        "D:\Ls_Monitor_Lower\Xian_Template\EW-ARM(v8x)\Flash\Obj\txe_timer_delete.o"
#        "D:\Ls_Monitor_Lower\Xian_Template\EW-ARM(v8x)\Flash\Obj\txe_timer_info_get.o"
#        "D:\Ls_Monitor_Lower\Xian_Template\EW-ARM(v8x)\Flash\Obj\vehicle_status.o"
#        --redirect _Printf=_PrintfFullNoMb --redirect _Scanf=_ScanfFullNoMb
#        --no_out_extension -o
#        "D:\Ls_Monitor_Lower\Xian_Template\EW-ARM(v8x)\Flash\Exe\Run_Xian.out"
#        --map
#        "D:\Ls_Monitor_Lower\Xian_Template\EW-ARM(v8x)\Flash\List\Run_Xian.map"
#        --config
#        "D:\Ls_Monitor_Lower\Xian_Template\EW-ARM(v8x)\stm32f407xx_flash.icf"
#        --semihosting --entry __iar_program_start --vfe --text_out locale)
#
###############################################################################

*******************************************************************************
*** RUNTIME MODEL ATTRIBUTES
***

CppFlavor       = *
__Heap_Handler  = DLMalloc
__SystemLibrary = DLib
__dlib_version  = 6


*******************************************************************************
*** HEAP SELECTION
***

The advanced heap was selected because the application calls memory
allocation functions outside of system library functions, and there
are calls to deallocation functions in the application.


*******************************************************************************
*** PLACEMENT SUMMARY
***

"A0":  place at address 0x800'0000 { ro section .intvec };
"P1":  place in [from 0x800'0000 to 0x80f'ffff] { ro };
define block CSTACK with size = 1K, alignment = 8 { };
define block HEAP with size = 1K, alignment = 8 { };
"P2":  place in [from 0x2000'0000 to 0x2001'ffff] {
          rw, block CSTACK, block HEAP };
"P4":  place in [from 0x6800'0000 to 0x6810'0000] { rw section .EXTERN_SRAM };
initialize by copy { rw };

No sections matched the following patterns:

  rw object myfont36.o             in "P3"
  rw object startup_stm32f407xx.o  in "P3"


  Section            Kind         Address      Size  Object
  -------            ----         -------      ----  ------
"A0":                                         0x188
  .intvec            ro code   0x800'0000     0x188  startup_stm32f407xx.o [1]
                             - 0x800'0188     0x188

"P1":                                      0x8'1097
  .rodata            const     0x800'0188  0x1'5484  cc936.o [1]
  .rodata            const     0x801'560c  0x1'5484  cc936.o [1]
  .rodata            const     0x802'aa90    0x5d4c  lv_font_montserrat_24.o [1]
  .text              ro code   0x803'07dc    0x2db4  lv_theme_default.o [1]
  .text              ro code   0x803'3590     0x316  lv_style_gen.o [1]
  .text              ro code   0x803'38a6      0x3a  zero_init3.o [4]
  .text              ro code   0x803'38e0     0x302  lv_hal_disp.o [1]
  .text              ro code   0x803'3be2      0x1a  xsnprout.o [2]
  .text              ro code   0x803'3bfc     0x30c  lv_color.o [1]
  .text              ro code   0x803'3f08     0x5f4  lv_style.o [1]
  .text              ro code   0x803'44fc     0x62e  lv_mem.o [1]
  .rodata            const     0x803'4b2a       0x2  adjust_pedal.o [1]
  .text              ro code   0x803'4b2c      0x8a  lv_disp.o [1]
  .rodata            const     0x803'4bb6       0x2  adjust_pedal.o [1]
  .text              ro code   0x803'4bb8    0x1388  lv_obj_style.o [1]
  .text              ro code   0x803'5f40     0x418  lv_obj_tree.o [1]
  .text              ro code   0x803'6358    0x10e8  lv_obj.o [1]
  .text              ro code   0x803'7440     0x1e6  lv_ll.o [1]
  .rodata            const     0x803'7626       0x2  adjust_pedal.o [1]
  .text              ro code   0x803'7628     0x25a  lv_timer.o [1]
  .rodata            const     0x803'7882       0x2  adjust_pedal.o [1]
  .text              ro code   0x803'7884    0x15a0  lv_obj_scroll.o [1]
  .text              ro code   0x803'8e24    0x1d84  lv_obj_pos.o [1]
  .text              ro code   0x803'aba8     0xd60  lv_tlsf.o [1]
  .text              ro code   0x803'b908     0x458  lv_event.o [1]
  .text              ro code   0x803'bd60     0xaa4  lv_obj_draw.o [1]
  .text              ro code   0x803'c804     0x4cc  lv_anim.o [1]
  .text              ro code   0x803'ccd0      0xf4  lv_hal_indev.o [1]
  .text              ro code   0x803'cdc4    0x1278  lv_indev.o [1]
  .text              ro code   0x803'e03c     0x248  lv_obj_class.o [1]
  .text              ro code   0x803'e284     0x47c  lv_fs.o [1]
  .text              ro code   0x803'e700     0x4f6  lv_group.o [1]
  .text              ro code   0x803'ebf6      0x10  lv_draw.o [1]
  .rodata            const     0x803'ec06       0x2  lv_btnmatrix.o [1]
  .text              ro code   0x803'ec08    0x157e  lv_refr.o [1]
  .rodata            const     0x804'0186       0x2  lv_draw_sw_letter.o [1]
  .text              ro code   0x804'0188     0xa8a  lv_img_decoder.o [1]
  .text              ro code   0x804'0c12      0x10  lv_extra.o [1]
  .rodata            const     0x804'0c22       0x2  lv_draw_sw_transform.o [1]
  .text              ro code   0x804'0c24     0x6a0  lv_area.o [1]
  .text              ro code   0x804'12c4     0x10a  lv_draw_rect.o [1]
  .rodata            const     0x804'13ce       0x2  lv_img_decoder.o [1]
  .text              ro code   0x804'13d0    0x1ba6  lv_draw_mask.o [1]
  .text              ro code   0x804'2f76      0x20  lv_hal_tick.o [1]
  .rodata            const     0x804'2f96       0x2  lv_keyboard.o [1]
  .text              ro code   0x804'2f98      0x66  ABImemset.o [4]
  .text              ro code   0x804'2ffe     0x1bc  lv_obj_style_gen.o [1]
  .rodata            const     0x804'31ba       0x2  lv_keyboard.o [1]
  .text              ro code   0x804'31bc      0xa6  ABImemcpy.o [4]
  .rodata            const     0x804'3262       0x2  lv_keyboard.o [1]
  .text              ro code   0x804'3264     0x45a  lv_draw_img.o [1]
  .rodata            const     0x804'36be       0x2  lv_keyboard.o [1]
  .text              ro code   0x804'36c0     0x22c  lv_math.o [1]
  .text              ro code   0x804'38ec     0xe00  lv_indev_scroll.o [1]
  .text              ro code   0x804'46ec      0x82  lv_theme.o [1]
  .rodata            const     0x804'476e       0x2  lv_keyboard.o [1]
  .text              ro code   0x804'4770      0x36  strlen.o [4]
  .rodata            const     0x804'47a6       0x2  lv_keyboard.o [1]
  .text              ro code   0x804'47a8     0x3a8  lv_font_fmt_txt.o [1]
  .text              ro code   0x804'4b50    0x15ea  lv_label.o [1]
  .text              ro code   0x804'613a      0xd4  lv_draw_layer.o [1]
  .rodata            const     0x804'620e       0x2  lv_keyboard.o [1]
  .text              ro code   0x804'6210      0x18  strcpy.o [4]
  .text              ro code   0x804'6228      0x12  strcmp.o [4]
  .rodata            const     0x804'623a       0x2  lv_keyboard.o [1]
  .text              ro code   0x804'623c     0xf3c  lv_flex.o [1]
  .text              ro code   0x804'7178     0xc7e  lv_grid.o [1]
  .rodata            const     0x804'7df6       0x2  lv_keyboard.o [1]
  .text              ro code   0x804'7df8     0x238  lv_fs_fatfs.o [1]
  .text              ro code   0x804'8030      0xd0  tx_time_get.o [1]
  .text              ro code   0x804'8100      0x62  lv_img_cache.o [1]
  .rodata            const     0x804'8162       0x2  lv_keyboard.o [1]
  .text              ro code   0x804'8164     0x21e  lv_img_buf.o [1]
  .rodata            const     0x804'8382       0x2  lv_keyboard.o [1]
  .text              ro code   0x804'8384     0x726  lv_draw_label.o [1]
  .text              ro code   0x804'8aaa      0x54  lv_utils.o [1]
  .rodata            const     0x804'8afe       0x2  lv_keyboard.o [1]
  .text              ro code   0x804'8b00     0x8f4  lv_txt.o [1]
  .text              ro code   0x804'93f4      0xee  lv_font.o [1]
  .rodata            const     0x804'94e2       0x2  lv_keyboard.o [1]
  .text              ro code   0x804'94e4      0x50  ff_gen_drv.o [1]
  .text              ro code   0x804'9534      0x28  printf.o [2]
  .text              ro code   0x804'955c    0x23d2  ff.o [1]
  .rodata            const     0x804'b92e       0x2  lv_keyboard.o [1]
  .text              ro code   0x804'b930       0x6  ABImemclr4.o [4]
  .text              ro code   0x804'b936      0x70  lv_draw_line.o [1]
  .rodata            const     0x804'b9a6       0x2  lv_keyboard.o [1]
  .text              ro code   0x804'b9a8    0x1110  lv_printf.o [1]
  .text              ro code   0x804'cab8     0xfc2  xprintffull_nomb.o [2]
  .rodata            const     0x804'da7a       0x2  lv_keyboard.o [1]
  .text              ro code   0x804'da7c      0xb4  diskio.o [1]
  .text              ro code   0x804'db30     0x128  cc936.o [1]
  .text              ro code   0x804'dc58      0x10  syscall.o [1]
  .text              ro code   0x804'dc68      0x32  ABImemset48.o [4]
  .rodata            const     0x804'dc9a       0x2  lv_keyboard.o [1]
  .text              ro code   0x804'dc9c     0x230  I64DivMod.o [4]
  .text              ro code   0x804'decc      0x20  DblCmpEq.o [3]
  .text              ro code   0x804'deec      0x2e  DblCmpLe.o [3]
  .rodata            const     0x804'df1a       0x2  lv_keyboard.o [1]
  .text              ro code   0x804'df1c      0x2e  DblCmpGe.o [3]
  .rodata            const     0x804'df4a       0x2  lv_keyboard.o [1]
  .text              ro code   0x804'df4c      0x3a  DblToS32.o [3]
  .rodata            const     0x804'df86       0x2  lv_keyboard.o [1]
  .text              ro code   0x804'df88      0x22  S32ToDbl.o [3]
  .rodata            const     0x804'dfaa       0x2  lv_keyboard.o [1]
  .text              ro code   0x804'dfac      0xe2  DblSub.o [3]
  .rodata            const     0x804'e08e       0x2  lv_keyboard.o [1]
  .text              ro code   0x804'e090     0x1a2  DblMul.o [3]
  .rodata            const     0x804'e232       0x2  lv_keyboard.o [1]
  .text              ro code   0x804'e234      0x28  DblToU32.o [3]
  .text              ro code   0x804'e25c      0x1a  U32ToDbl.o [3]
  .rodata            const     0x804'e276       0x2  lv_keyboard.o [1]
  .text              ro code   0x804'e278     0x17a  DblAdd.o [3]
  .rodata            const     0x804'e3f2       0x2  lv_keyboard.o [1]
  .text              ro code   0x804'e3f4     0x246  DblDiv.o [3]
  .rodata            const     0x804'e63a       0x2  lv_keyboard.o [1]
  .text              ro code   0x804'e63c      0x16  strchr.o [4]
  .rodata            const     0x804'e652       0x2  lv_keyboard.o [1]
  .text              ro code   0x804'e654      0x40  xfail_s.o [2]
  .text              ro code   0x804'e694      0x58  memchr.o [4]
  .text              ro code   0x804'e6ec      0x70  frexp.o [3]
  .text              ro code   0x804'e75c     0x13a  ldexp.o [3]
  .rodata            const     0x804'e896       0x2  lv_keyboard.o [1]
  .text              ro code   0x804'e898       0x8  xlocale_c.o [2]
  .text              ro code   0x804'e8a0    0x14c4  dlmalloc.o [2]
  .text              ro code   0x804'fd64       0x4  heaptramp0.o [2]
  .text              ro code   0x804'fd68       0x2  I64DivZer.o [4]
  .text              ro code   0x804'fd6a       0x6  abort.o [2]
  .text              ro code   0x804'fd70      0x2c  xgetmemchunk.o [2]
  .text              ro code   0x804'fd9c      0x14  exit.o [5]
  .text              ro code   0x804'fdb0    0x2606  lv_chart.o [1]
  .rodata            const     0x805'23b6       0x2  lv_keyboard.o [1]
  .rodata            const     0x805'23b8    0x2280  lv_font_montserrat_14.o [1]
  .text              ro code   0x805'4638    0x2236  lv_draw_sw_rect.o [1]
  .rodata            const     0x805'686e       0x2  lv_keyboard.o [1]
  .text              ro code   0x805'6870    0x1132  lv_draw_sw_blend.o [1]
  .rodata            const     0x805'79a2       0x2  lv_keyboard.o [1]
  .text              ro code   0x805'79a4     0x502  lv_draw_sw_gradient.o [1]
  .rodata            const     0x805'7ea6       0x2  lv_keyboard.o [1]
  .text              ro code   0x805'7ea8    0x1578  lv_btnmatrix.o [1]
  .text              ro code   0x805'9420    0x1474  bsp_lcd.o [1]
  .text              ro code   0x805'a894     0x248  stm32f4xx_hal_gpio.o [1]
  .text              ro code   0x805'aadc      0x5c  stm32f4xx_hal_sram.o [1]
  .text              ro code   0x805'ab38      0x60  bsp_dwt.o [1]
  .text              ro code   0x805'ab98     0x458  bsp_spi_ads1256.o [1]
  .text              ro code   0x805'aff0      0xe4  stm32f4xx_ll_fsmc.o [1]
  .text              ro code   0x805'b0d4     0x104  stm32f4xx_hal_cortex.o [1]
  .text              ro code   0x805'b1d8    0x1338  lv_textarea.o [1]
  .rodata            const     0x805'c510    0x11c8  lv_font_montserrat_10.o [1]
  .text              ro code   0x805'd6d8    0x10d8  adjust_pedal.o [1]
  .text              ro code   0x805'e7b0     0x4c8  lv_imgbtn.o [1]
  .text              ro code   0x805'ec78     0x618  Monitor.o [1]
  .text              ro code   0x805'f290      0x48  FltToDbl.o [3]
  .text              ro code   0x805'f2d8      0x34  lv_btn.o [1]
  .text              ro code   0x805'f30c     0x448  lv_switch.o [1]
  .text              ro code   0x805'f754     0x4a0  lv_checkbox.o [1]
  .text              ro code   0x805'fbf4     0x278  bsp_iic_bus.o [1]
  .text              ro code   0x805'fe6c      0x68  DblToFlt.o [3]
  .text              ro code   0x805'fed4     0x5f8  bsp_usart_fifo.o [1]
  .text              ro code   0x806'04cc     0x5e4  system_task_create.o [1]
  .text              ro code   0x806'0ab0      0x34  txe_event_flags_set.o [1]
  .text              ro code   0x806'0ae4     0x14c  tx_thread_sleep.o [1]
  .text              ro code   0x806'0c30     0x162  motor_control_ui.o [1]
  .rodata            const     0x806'0d92       0x2  lv_keyboard.o [1]
  .text              ro code   0x806'0d94     0x3fe  about_phone_ui.o [1]
  .rodata            const     0x806'1192       0x2  lv_keyboard.o [1]
  .text              ro code   0x806'1194     0x15a  set_up.o [1]
  .rodata            const     0x806'12ee       0x2  lv_keyboard.o [1]
  .text              ro code   0x806'12f0     0x15e  vehicle_status.o [1]
  .rodata            const     0x806'144e       0x2  lv_keyboard.o [1]
  .text              ro code   0x806'1450     0x15a  cool_control.o [1]
  .rodata            const     0x806'15aa       0x2  lv_keyboard.o [1]
  .text              ro code   0x806'15ac     0x440  battery_box.o [1]
  .text              ro code   0x806'19ec     0x858  sensor_ui.o [1]
  .text              ro code   0x806'2244     0xeb8  lv_meter.o [1]
  .text              ro code   0x806'30fc     0xca0  stm32f4xx_hal_i2c.o [1]
  .text              ro code   0x806'3d9c     0x386  stm32f4xx_hal_uart.o [1]
  .rodata            const     0x806'4122       0x2  lv_keyboard.o [1]
  .text              ro code   0x806'4124     0x15c  txe_thread_create.o [1]
  .text              ro code   0x806'4280      0x10  stm32f4xx_hal.o [1]
  .text              ro code   0x806'4290     0x146  ticktim.o [1]
  .rodata            const     0x806'43d6       0x2  lv_keyboard.o [1]
  .text              ro code   0x806'43d8     0x31a  bsp_key.o [1]
  .rodata            const     0x806'46f2       0x2  lv_keyboard.o [1]
  .text              ro code   0x806'46f4     0x470  bsp_spi_bus.o [1]
  .text              ro code   0x806'4b64      0xd4  bsp_led.o [1]
  .text              ro code   0x806'4c38     0x1b4  bsp_can_bus.o [1]
  .text              ro code   0x806'4dec     0x170  bsp_rotation_sensor.o [1]
  .text              ro code   0x806'4f5c      0x28  bsp_ws2812b.o [1]
  .text              ro code   0x806'4f84     0x834  bsp_tim_pwm.o [1]
  .text              ro code   0x806'57b8     0x27c  bsp_spi_flash.o [1]
  .text              ro code   0x806'5a34     0x148  bsp_sram.o [1]
  .text              ro code   0x806'5b7c      0xb4  lv_port_disp_template.o [1]
  .text              ro code   0x806'5c30      0x98  lv_port_indev_template.o [1]
  .text              ro code   0x806'5cc8      0x70  txe_event_flags_get.o [1]
  .text              ro code   0x806'5d38      0x7c  txe_mutex_get.o [1]
  .text              ro code   0x806'5db4      0x4c  txe_mutex_put.o [1]
  .text              ro code   0x806'5e00      0x3c  vsnprint.o [2]
  .text              ro code   0x806'5e3c      0xcc  txe_mutex_create.o [1]
  .text              ro code   0x806'5f08      0xe8  txe_timer_create.o [1]
  .text              ro code   0x806'5ff0      0xb4  txe_event_flags_create.o [1]
  .text              ro code   0x806'60a4     0x2e4  tx_event_flags_set.o [1]
  .text              ro code   0x806'6388     0x398  tx_thread_system_suspend.o [1]
  .text              ro code   0x806'6720     0x248  lv_line.o [1]
  .text              ro code   0x806'6968     0xab0  lv_img.o [1]
  .text              ro code   0x806'7418     0xaa6  lv_bar.o [1]
  .text              ro code   0x806'7ebe     0x53a  lv_draw_arc.o [1]
  .text              ro code   0x806'83f8     0x204  stm32f4xx_hal_rcc.o [1]
  .text              ro code   0x806'85fc      0x5c  stm32f4xx_hal_timebase_tim.o [1]
  .text              ro code   0x806'8658      0xc0  tx_thread_system_preempt_check.o [1]
  .text              ro code   0x806'8718     0x238  tx_thread_create.o [1]
  .text              ro code   0x806'8950       0x2  ticktim.o [1]
  .rodata            const     0x806'8952       0x2  lv_keyboard.o [1]
  .text              ro code   0x806'8954     0x614  stm32f4xx_hal_spi.o [1]
  .text              ro code   0x806'8f68     0x504  stm32f4xx_hal_dma.o [1]
  .text              ro code   0x806'946c     0x6a0  stm32f4xx_hal_can.o [1]
  .text              ro code   0x806'9b0c     0xa9e  stm32f4xx_hal_tim.o [1]
  .rodata            const     0x806'a5aa       0x2  lv_keyboard.o [1]
  .text              ro code   0x806'a5ac      0x4c  stm32f4xx_hal_tim_ex.o [1]
  .text              ro code   0x806'a5f8     0xa80  bsp_touch.o [1]
  .text              ro code   0x806'b078     0x1c4  tx_event_flags_get.o [1]
  .text              ro code   0x806'b23c     0x1c8  tx_mutex_get.o [1]
  .text              ro code   0x806'b404     0x2d4  tx_mutex_put.o [1]
  .text              ro code   0x806'b6d8     0x134  tx_mutex_create.o [1]
  .text              ro code   0x806'b80c     0x144  tx_timer_create.o [1]
  .text              ro code   0x806'b950     0x124  tx_event_flags_create.o [1]
  .text              ro code   0x806'ba74     0x394  tx_thread_system_resume.o [1]
  .text              ro code   0x806'be08      0x20  tx_thread_stack_error_handler.o [1]
  .text              ro code   0x806'be28      0x80  tx_thread_stack_analyze.o [1]
  .text              ro code   0x806'bea8      0x64  tx_timer_system_activate.o [1]
  .text              ro code   0x806'bf0c      0x44  tx_thread_stack_build.o [1]
  .text              ro code   0x806'bf50     0x11c  tx_trace_object_register.o [1]
  .text              ro code   0x806'c06c       0x2  stm32f4xx_hal_spi.o [1]
  .text              ro code   0x806'c06e       0x2  stm32f4xx_hal_spi.o [1]
  .text              ro code   0x806'c070       0x2  stm32f4xx_hal_spi.o [1]
  .text              ro code   0x806'c072       0x2  stm32f4xx_hal_spi.o [1]
  .text              ro code   0x806'c074       0x2  stm32f4xx_hal_can.o [1]
  .text              ro code   0x806'c076       0x2  stm32f4xx_hal_can.o [1]
  .text              ro code   0x806'c078       0x2  stm32f4xx_hal_can.o [1]
  .text              ro code   0x806'c07a       0x2  stm32f4xx_hal_can.o [1]
  .text              ro code   0x806'c07c       0x2  stm32f4xx_hal_can.o [1]
  .text              ro code   0x806'c07e       0x2  stm32f4xx_hal_can.o [1]
  .text              ro code   0x806'c080       0x2  stm32f4xx_hal_can.o [1]
  .text              ro code   0x806'c082       0x2  stm32f4xx_hal_can.o [1]
  .text              ro code   0x806'c084       0x2  stm32f4xx_hal_can.o [1]
  .text              ro code   0x806'c086       0x2  stm32f4xx_hal_can.o [1]
  .text              ro code   0x806'c088       0x2  stm32f4xx_hal_can.o [1]
  .text              ro code   0x806'c08a       0x2  stm32f4xx_hal_tim.o [1]
  .text              ro code   0x806'c08c       0x2  stm32f4xx_hal_tim.o [1]
  .text              ro code   0x806'c08e       0x2  stm32f4xx_hal_tim.o [1]
  .text              ro code   0x806'c090       0x2  stm32f4xx_hal_tim.o [1]
  .text              ro code   0x806'c092       0x2  stm32f4xx_hal_tim_ex.o [1]
  .text              ro code   0x806'c094       0x2  stm32f4xx_hal_tim.o [1]
  .text              ro code   0x806'c096       0x2  stm32f4xx_hal_tim_ex.o [1]
  .text              ro code   0x806'c098       0x2  stm32f4xx_hal_tim.o [1]
  .text              ro code   0x806'c09a       0x2  stm32f4xx_hal_tim.o [1]
  .text              ro code   0x806'c09c      0xf0  tx_mutex_priority_change.o [1]
  .text              ro code   0x806'c18c     0x168  tx_mutex_prioritize.o [1]
  .text              ro code   0x806'c2f4      0x2e  tx_timer_system_deactivate.o [1]
  .rodata            const     0x806'c322       0x2  lv_keyboard.o [1]
  .text              ro code   0x806'c324     0xfb2  lv_arc.o [1]
  .rodata            const     0x806'd2d6       0x2  lv_keyboard.o [1]
  .text              ro code   0x806'd2d8     0xf9e  lv_dropdown.o [1]
  .text              ro code   0x806'e276     0xf04  lv_draw_sw_arc.o [1]
  .rodata            const     0x806'f17a       0x2  lv_keyboard.o [1]
  .text              ro code   0x806'f17c     0xd6c  stm32f4xx_hal_sd.o [1]
  .text              ro code   0x806'fee8     0x700  stm32f4xx_ll_sdmmc.o [1]
  .text              ro code   0x807'05e8       0x2  stm32f4xx_hal_sd.o [1]
  .rodata            const     0x807'05ea       0x2  lv_keyboard.o [1]
  .text              ro code   0x807'05ec      0xf0  bsp_sdio_sd.o [1]
  .text              ro code   0x807'06dc      0x14  memset.o [4]
  .text              ro code   0x807'06f0     0x17c  bsp_sdio_sd.o [1]
  .text              ro code   0x807'086c       0x2  bsp_sdio_sd.o [1]
  .rodata            const     0x807'086e       0x2  lv_keyboard.o [1]
  .text              ro code   0x807'0870     0x188  sd_diskio_dma.o [1]
  .text              ro code   0x807'09f8     0xd28  lv_colorwheel.o [1]
  .text              ro code   0x807'1720     0xca0  lv_table.o [1]
  .text              ro code   0x807'23c0     0xc02  lv_roller.o [1]
  .rodata            const     0x807'2fc2       0x2  lv_keyboard.o [1]
  .rodata            const     0x807'2fc4     0xbb0  lv_font_montserrat_10.o [1]
  .rodata            const     0x807'3b74     0xbb0  lv_font_montserrat_14.o [1]
  .rodata            const     0x807'4724     0xbb0  lv_font_montserrat_24.o [1]
  .rodata            const     0x807'52d4     0xbb0  lv_font_montserrat_8.o [1]
  .text              ro code   0x807'5e84     0xb7c  lv_slider.o [1]
  .rodata            const     0x807'6a00     0xb58  lv_font_montserrat_8.o [1]
  .text              ro code   0x807'7558     0xa74  lv_draw_sw_transform.o [1]
  .text              ro code   0x807'7fcc     0x9f4  lv_draw_sw_line.o [1]
  .text              ro code   0x807'89c0     0x6a4  lv_draw_sw_img.o [1]
  .text              ro code   0x807'9064      0x38  lv_draw_transform.o [1]
  .text              ro code   0x807'909c     0x514  lv_calendar.o [1]
  .rodata            const     0x807'95b0     0x4f0  lv_font_montserrat_10.o [1]
  .rodata            const     0x807'9aa0     0x4f0  lv_font_montserrat_14.o [1]
  .rodata            const     0x807'9f90     0x4f0  lv_font_montserrat_24.o [1]
  .rodata            const     0x807'a480     0x4f0  lv_font_montserrat_8.o [1]
  .text              ro code   0x807'a970     0x4f0  lv_draw_sw_letter.o [1]
  .text              ro code   0x807'ae60     0x4e0  lv_menu.o [1]
  .text              ro code   0x807'b340     0x488  lv_spinbox.o [1]
  .text              ro code   0x807'b7c8     0x41e  lv_tabview.o [1]
  .rodata            const     0x807'bbe6       0x2  lv_keyboard.o [1]
  .text              ro code   0x807'bbe8     0x3f8  lv_draw_sw_polygon.o [1]
  .text              ro code   0x807'bfe0     0x3c8  lv_led.o [1]
  .text              ro code   0x807'c3a8     0x36c  stm32f4xx_hal_rcc.o [1]
  .text              ro code   0x807'c714     0x350  lv_keyboard.o [1]
  .rodata            const     0x807'ca64     0x268  lv_calendar_header_dropdown.o [1]
  .text              ro code   0x807'cccc     0x24e  lv_draw_sw_layer.o [1]
  .rodata            const     0x807'cf1a       0x2  lv_keyboard.o [1]
  .text              ro code   0x807'cf1c     0x24c  tx_thread_time_slice.o [1]
  .rodata            const     0x807'd168     0x1f4  cc936.o [1]
  .text              ro code   0x807'd35c     0x1ec  lv_calendar_header_arrow.o [1]
  .text              ro code   0x807'd548     0x192  lv_tileview.o [1]
  .rodata            const     0x807'd6da       0x2  lv_keyboard.o [1]
  .text              ro code   0x807'd6dc     0x14c  lv_calendar_header_dropdown.o [1]
  .text              ro code   0x807'd828     0x130  tx_timer_thread_entry.o [1]
  .text              ro code   0x807'd958     0x112  lv_draw_sw.o [1]
  .rodata            const     0x807'da6a       0x2  lv_keyboard.o [1]
  .rodata            const     0x807'da6c     0x100  lv_draw_sw_letter.o [1]
  .text              ro code   0x807'db6c      0xe8  tx_timer_interrupt.o [1]
  .text              ro code   0x807'dc54      0x24  tx_timer_expiration_process.o [1]
  .text              ro code   0x807'dc78      0xe0  tx_timer_initialize.o [1]
  .text              ro code   0x807'dd58      0xd4  myFont20.o [1]
  .text              ro code   0x807'de2c      0xd2  lv_spinner.o [1]
  .rodata            const     0x807'defe       0x2  lv_keyboard.o [1]
  .text              ro code   0x807'df00      0xd0  tx_thread_schedule.o [1]
  .text              ro code   0x807'dfd0      0xc8  tx_mutex_cleanup.o [1]
  .rodata            const     0x807'e098      0xc0  lv_color.o [1]
  .rodata            const     0x807'e158      0xbc  cc936.o [1]
  .rodata            const     0x807'e214      0xb8  bsp_touch.o [1]
  .rodata            const     0x807'e2cc      0xb8  lv_math.o [1]
  .rodata            const     0x807'e384      0xb0  lv_keyboard.o [1]
  .rodata            const     0x807'e434      0xb0  lv_keyboard.o [1]
  .rodata            const     0x807'e4e4      0xb0  lv_keyboard.o [1]
  .text              ro code   0x807'e594      0xb0  SEGGER_HardFaultHandler.o [1]
  .text              ro code   0x807'e644      0xb0  sys.o [1]
  .text              ro code   0x807'e6f4      0x38  stm32f4xx_hal.o [1]
  .text              ro code   0x807'e72c       0x2  stm32f4xx_hal_msp.o [1]
  .rodata            const     0x807'e72e       0x2  lv_keyboard.o [1]
  .rodata            const     0x807'e730      0xa0  lv_font_montserrat_10.o [1]
  .rodata            const     0x807'e7d0      0xa0  lv_font_montserrat_10.o [1]
  .rodata            const     0x807'e870      0xa0  lv_font_montserrat_14.o [1]
  .rodata            const     0x807'e910      0xa0  lv_font_montserrat_14.o [1]
  .rodata            const     0x807'e9b0      0xa0  lv_font_montserrat_24.o [1]
  .rodata            const     0x807'ea50      0xa0  lv_font_montserrat_24.o [1]
  .rodata            const     0x807'eaf0      0xa0  lv_font_montserrat_8.o [1]
  .rodata            const     0x807'eb90      0xa0  lv_font_montserrat_8.o [1]
  .rodata            const     0x807'ec30      0x98  lv_color.o [1]
  .text              ro code   0x807'ecc8      0x98  tx_thread_initialize.o [1]
  .text              ro code   0x807'ed60      0x90  tx_event_flags_cleanup.o [1]
  .text              ro code   0x807'edf0      0x88  tx_initialize_high_level.o [1]
  .text              ro code   0x807'ee78      0x40  tx_trace_initialize.o [1]
  .text              ro code   0x807'eeb8      0x84  tx_thread_shell_entry.o [1]
  .text              ro code   0x807'ef3c      0x80  lv_win.o [1]
  .rodata            const     0x807'efbc      0x7c  about_phone_ui.o [1]
  .rodata            const     0x807'f038      0x7c  lv_font_montserrat_10.o [1]
  .rodata            const     0x807'f0b4      0x7c  lv_font_montserrat_14.o [1]
  .rodata            const     0x807'f130      0x7c  lv_font_montserrat_24.o [1]
  .rodata            const     0x807'f1ac      0x7c  lv_font_montserrat_8.o [1]
  .text              ro code   0x807'f228      0x78  lz77_init_single.o [4]
  .text              ro code   0x807'f2a0      0x74  tx_initialize_low_level.o [1]
  .rodata            const     0x807'f314      0x70  lv_style.o [1]
  .text              ro code   0x807'f384      0x60  system_stm32f4xx.o [1]
  .rodata            const     0x807'f3e4      0x54  lv_keyboard.o [1]
  .rodata            const     0x807'f438      0x50  lv_keyboard.o [1]
  .rodata            const     0x807'f488      0x50  lv_keyboard.o [1]
  .rodata            const     0x807'f4d8      0x50  lv_keyboard.o [1]
  .rodata            const     0x807'f528      0x50  lv_printf.o [1]
  .rodata            const     0x807'f578      0x48  bsp_rotation_sensor.o [1]
  .rodata            const     0x807'f5c0      0x48  bsp_usart_fifo.o [1]
  .text              ro code   0x807'f608      0x48  tx_initialize_kernel_enter.o [1]
  .rodata            const     0x807'f650      0x44  lv_fs_fatfs.o [1]
  .rodata            const     0x807'f694      0x44  system_task_create.o [1]
  .rodata            const     0x807'f6d8      0x40  bsp_tim_pwm.o [1]
  .rodata            const     0x807'f718      0x40  lv_fs_fatfs.o [1]
  .rodata            const     0x807'f758      0x40  lv_fs_fatfs.o [1]
  .rodata            const     0x807'f798      0x3c  bsp_spi_bus.o [1]
  .rodata            const     0x807'f7d4      0x3c  system_task_create.o [1]
  .rodata            const     0x807'f810      0x3c  system_task_create.o [1]
  .rodata            const     0x807'f84c      0x38  about_phone_ui.o [1]
  .rodata            const     0x807'f884      0x38  lv_fs_fatfs.o [1]
  .rodata            const     0x807'f8bc      0x38  lv_fs_fatfs.o [1]
  .text              ro code   0x807'f8f4      0x38  tx_thread_timeout.o [1]
  .rodata            const     0x807'f92c      0x34  adjust_pedal.o [1]
  .rodata            const     0x807'f960      0x34  adjust_pedal.o [1]
  .rodata            const     0x807'f994      0x34  adjust_pedal.o [1]
  .rodata            const     0x807'f9c8      0x34  lv_fs_fatfs.o [1]
  .rodata            const     0x807'f9fc      0x34  lv_fs_fatfs.o [1]
  .rodata            const     0x807'fa30      0x30  about_phone_ui.o [1]
  .rodata            const     0x807'fa60      0x30  about_phone_ui.o [1]
  .rodata            const     0x807'fa90      0x30  bsp_rotation_sensor.o [1]
  .rodata            const     0x807'fac0      0x30  bsp_spi_bus.o [1]
  .rodata            const     0x807'faf0      0x30  bsp_tim_pwm.o [1]
  .rodata            const     0x807'fb20      0x30  bsp_usart_fifo.o [1]
  .rodata            const     0x807'fb50      0x30  lv_fs_fatfs.o [1]
  .rodata            const     0x807'fb80      0x30  lv_roller.o [1]
  .rodata            const     0x807'fbb0      0x30  system_task_create.o [1]
  .rodata            const     0x807'fbe0      0x2c  about_phone_ui.o [1]
  .rodata            const     0x807'fc0c      0x2c  about_phone_ui.o [1]
  .rodata            const     0x807'fc38      0x2c  bsp_spi_bus.o [1]
  .rodata            const     0x807'fc64      0x2c  lv_fs_fatfs.o [1]
  .rodata            const     0x807'fc90      0x2c  lv_fs_fatfs.o [1]
  .rodata            const     0x807'fcbc      0x28  about_phone_ui.o [1]
  .rodata            const     0x807'fce4      0x28  lv_color.o [1]
  .rodata            const     0x807'fd0c      0x28  lv_font_montserrat_10.o [1]
  .rodata            const     0x807'fd34      0x28  lv_font_montserrat_14.o [1]
  .rodata            const     0x807'fd5c      0x28  lv_font_montserrat_24.o [1]
  .rodata            const     0x807'fd84      0x28  lv_font_montserrat_8.o [1]
  .rodata            const     0x807'fdac      0x28  lv_fs_fatfs.o [1]
  .text              ro code   0x807'fdd4      0x28  data_init.o [4]
  .rodata            const     0x807'fdfc      0x24  bsp_spi_ads1256.o [1]
  .rodata            const     0x807'fe20      0x24  lv_calendar_header_dropdown.o [1]
  .rodata            const     0x807'fe44      0x24  lv_draw_sw_line.o [1]
  .rodata            const     0x807'fe68      0x24  lv_fs_fatfs.o [1]
  .rodata            const     0x807'fe8c      0x24  lv_fs_fatfs.o [1]
  .rodata            const     0x807'feb0      0x24  lv_fs_fatfs.o [1]
  .rodata            const     0x807'fed4      0x24  lv_fs_fatfs.o [1]
  .rodata            const     0x807'fef8      0x24  lv_keyboard.o [1]
  .rodata            const     0x807'ff1c      0x24  lv_refr.o [1]
  .text              ro code   0x807'ff40      0x22  fpinit_M.o [3]
  .iar.init_table    const     0x807'ff64      0x28  - Linker created -
  .rodata            const     0x807'ff8c       0x2  lv_keyboard.o [1]
  .rodata            const     0x807'ff90      0x20  about_phone_ui.o [1]
  .rodata            const     0x807'ffb0      0x20  adjust_pedal.o [1]
  .rodata            const     0x807'ffd0      0x20  lv_fs_fatfs.o [1]
  .rodata            const     0x807'fff0      0x20  lv_fs_fatfs.o [1]
  .rodata            const     0x808'0010      0x20  lv_fs_fatfs.o [1]
  .rodata            const     0x808'0030      0x20  lv_fs_fatfs.o [1]
  .rodata            const     0x808'0050      0x20  motor_control_ui.o [1]
  .rodata            const     0x808'0070      0x20  vehicle_status.o [1]
  .text              ro code   0x808'0090      0x1e  main.o [1]
  .rodata            const     0x808'00ae       0x2  lv_keyboard.o [1]
  .text              ro code   0x808'00b0      0x10  stm32f4xx_hal.o [1]
  .text              ro code   0x808'00c0      0x1e  cmain.o [4]
  .text              ro code   0x808'00de       0x4  low_level_init.o [2]
  .text              ro code   0x808'00e2       0x4  exit.o [2]
  .rodata            const     0x808'00e6       0x2  lv_keyboard.o [1]
  .text              ro code   0x808'00e8       0xa  cexit.o [4]
  .rodata            const     0x808'00f2       0x2  lv_keyboard.o [1]
  .rodata            const     0x808'00f4      0x1c  about_phone_ui.o [1]
  .rodata            const     0x808'0110      0x1c  adjust_pedal.o [1]
  .rodata            const     0x808'012c      0x1c  adjust_pedal.o [1]
  .rodata            const     0x808'0148      0x1c  battery_box.o [1]
  .rodata            const     0x808'0164      0x1c  battery_box.o [1]
  .rodata            const     0x808'0180      0x1c  battery_box.o [1]
  .rodata            const     0x808'019c      0x1c  battery_box.o [1]
  .rodata            const     0x808'01b8      0x1c  battery_box.o [1]
  .rodata            const     0x808'01d4      0x1c  cool_control.o [1]
  .rodata            const     0x808'01f0      0x1c  lv_arc.o [1]
  .rodata            const     0x808'020c      0x1c  lv_bar.o [1]
  .rodata            const     0x808'0228      0x1c  lv_btn.o [1]
  .rodata            const     0x808'0244      0x1c  lv_btnmatrix.o [1]
  .rodata            const     0x808'0260      0x1c  lv_calendar.o [1]
  .rodata            const     0x808'027c      0x1c  lv_calendar_header_arrow.o [1]
  .rodata            const     0x808'0298      0x1c  lv_calendar_header_dropdown.o [1]
  .rodata            const     0x808'02b4      0x1c  lv_chart.o [1]
  .rodata            const     0x808'02d0      0x1c  lv_checkbox.o [1]
  .rodata            const     0x808'02ec      0x1c  lv_colorwheel.o [1]
  .rodata            const     0x808'0308      0x1c  lv_dropdown.o [1]
  .rodata            const     0x808'0324      0x1c  lv_dropdown.o [1]
  .rodata            const     0x808'0340      0x1c  lv_dropdown.o [1]
  .rodata            const     0x808'035c      0x1c  lv_font_montserrat_10.o [1]
  .rodata            const     0x808'0378      0x1c  lv_font_montserrat_14.o [1]
  .rodata            const     0x808'0394      0x1c  lv_font_montserrat_24.o [1]
  .rodata            const     0x808'03b0      0x1c  lv_font_montserrat_8.o [1]
  .rodata            const     0x808'03cc      0x1c  lv_fs_fatfs.o [1]
  .rodata            const     0x808'03e8      0x1c  lv_img.o [1]
  .rodata            const     0x808'0404      0x1c  lv_imgbtn.o [1]
  .rodata            const     0x808'0420      0x1c  lv_keyboard.o [1]
  .rodata            const     0x808'043c      0x1c  lv_label.o [1]
  .rodata            const     0x808'0458      0x1c  lv_led.o [1]
  .rodata            const     0x808'0474      0x1c  lv_line.o [1]
  .rodata            const     0x808'0490      0x1c  lv_list.o [1]
  .rodata            const     0x808'04ac      0x1c  lv_list.o [1]
  .rodata            const     0x808'04c8      0x1c  lv_list.o [1]
  .rodata            const     0x808'04e4      0x1c  lv_menu.o [1]
  .rodata            const     0x808'0500      0x1c  lv_menu.o [1]
  .rodata            const     0x808'051c      0x1c  lv_menu.o [1]
  .rodata            const     0x808'0538      0x1c  lv_menu.o [1]
  .rodata            const     0x808'0554      0x1c  lv_menu.o [1]
  .rodata            const     0x808'0570      0x1c  lv_menu.o [1]
  .rodata            const     0x808'058c      0x1c  lv_menu.o [1]
  .rodata            const     0x808'05a8      0x1c  lv_menu.o [1]
  .rodata            const     0x808'05c4      0x1c  lv_menu.o [1]
  .rodata            const     0x808'05e0      0x1c  lv_meter.o [1]
  .rodata            const     0x808'05fc      0x1c  lv_msgbox.o [1]
  .rodata            const     0x808'0618      0x1c  lv_msgbox.o [1]
  .rodata            const     0x808'0634      0x1c  lv_obj.o [1]
  .rodata            const     0x808'0650      0x1c  lv_roller.o [1]
  .rodata            const     0x808'066c      0x1c  lv_roller.o [1]
  .rodata            const     0x808'0688      0x1c  lv_slider.o [1]
  .rodata            const     0x808'06a4      0x1c  lv_spinbox.o [1]
  .rodata            const     0x808'06c0      0x1c  lv_spinner.o [1]
  .rodata            const     0x808'06dc      0x1c  lv_switch.o [1]
  .rodata            const     0x808'06f8      0x1c  lv_table.o [1]
  .rodata            const     0x808'0714      0x1c  lv_tabview.o [1]
  .rodata            const     0x808'0730      0x1c  lv_textarea.o [1]
  .rodata            const     0x808'074c      0x1c  lv_tileview.o [1]
  .rodata            const     0x808'0768      0x1c  lv_tileview.o [1]
  .rodata            const     0x808'0784      0x1c  lv_win.o [1]
  .rodata            const     0x808'07a0      0x1c  myFont20.o [1]
  .rodata            const     0x808'07bc      0x1c  system_task_create.o [1]
  .rodata            const     0x808'07d8      0x1c  system_task_create.o [1]
  .text              ro code   0x808'07f4      0x1c  cstartup_M.o [4]
  .rodata            const     0x808'0810      0x18  adjust_pedal.o [1]
  .rodata            const     0x808'0828      0x18  adjust_pedal.o [1]
  .rodata            const     0x808'0840      0x18  adjust_pedal.o [1]
  .rodata            const     0x808'0858      0x18  adjust_pedal.o [1]
  .rodata            const     0x808'0870      0x18  adjust_pedal.o [1]
  .rodata            const     0x808'0888      0x18  adjust_pedal.o [1]
  .rodata            const     0x808'08a0      0x18  bsp_can_bus.o [1]
  .rodata            const     0x808'08b8      0x18  lv_font_montserrat_10.o [1]
  .rodata            const     0x808'08d0      0x18  lv_font_montserrat_14.o [1]
  .rodata            const     0x808'08e8      0x18  lv_font_montserrat_24.o [1]
  .rodata            const     0x808'0900      0x18  lv_font_montserrat_8.o [1]
  .rodata            const     0x808'0918      0x18  lv_fs_fatfs.o [1]
  .rodata            const     0x808'0930      0x18  lv_theme_default.o [1]
  .rodata            const     0x808'0948      0x18  Monitor.o [1]
  .rodata            const     0x808'0960      0x18  motor_control_ui.o [1]
  .rodata            const     0x808'0978      0x18  sensor_ui.o [1]
  .rodata            const     0x808'0990      0x18  set_up.o [1]
  .rodata            const     0x808'09a8      0x18  system_task_create.o [1]
  .text              ro code   0x808'09c0      0x16  xprout.o [2]
  .rodata            const     0x808'09d6       0x2  lv_keyboard.o [1]
  .text              ro code   0x808'09d8       0xc  putchar.o [2]
  .rodata            const     0x808'09e4      0x14  adjust_pedal.o [1]
  .rodata            const     0x808'09f8      0x14  adjust_pedal.o [1]
  .rodata            const     0x808'0a0c      0x14  battery_box.o [1]
  .rodata            const     0x808'0a20      0x14  bsp_touch.o [1]
  .rodata            const     0x808'0a34      0x14  bsp_touch.o [1]
  .rodata            const     0x808'0a48      0x14  sd_diskio_dma.o [1]
  .rodata            const     0x808'0a5c      0x14  sensor_ui.o [1]
  .rodata            const     0x808'0a70      0x14  system_task_create.o [1]
  .rodata            const     0x808'0a84      0x14  tx_timer_initialize.o [1]
  .text              ro code   0x808'0a98      0x12  HardFaultHandler.o [1]
  .rodata            const     0x808'0aaa       0x2  lv_keyboard.o [1]
  .rodata            const     0x808'0aac      0x10  about_phone_ui.o [1]
  .rodata            const     0x808'0abc      0x10  adjust_pedal.o [1]
  .rodata            const     0x808'0acc      0x10  bsp_key.o [1]
  .rodata            const     0x808'0adc      0x10  bsp_spi_ads1256.o [1]
  .rodata            const     0x808'0aec      0x10  bsp_spi_flash.o [1]
  .rodata            const     0x808'0afc      0x10  bsp_tim_pwm.o [1]
  .rodata            const     0x808'0b0c      0x10  bsp_touch.o [1]
  .rodata            const     0x808'0b1c      0x10  cool_control.o [1]
  .rodata            const     0x808'0b2c      0x10  ff.o [1]
  .rodata            const     0x808'0b3c      0x10  lv_draw_sw_letter.o [1]
  .rodata            const     0x808'0b4c      0x10  lv_font_montserrat_10.o [1]
  .rodata            const     0x808'0b5c      0x10  lv_font_montserrat_14.o [1]
  .rodata            const     0x808'0b6c      0x10  lv_font_montserrat_24.o [1]
  .rodata            const     0x808'0b7c      0x10  lv_font_montserrat_8.o [1]
  .rodata            const     0x808'0b8c      0x10  lv_fs_fatfs.o [1]
  .rodata            const     0x808'0b9c      0x10  lv_img_decoder.o [1]
  .rodata            const     0x808'0bac      0x10  lv_refr.o [1]
  .rodata            const     0x808'0bbc      0x10  system_stm32f4xx.o [1]
  .rodata            const     0x808'0bcc      0x10  system_task_create.o [1]
  .rodata            const     0x808'0bdc      0x10  system_task_create.o [1]
  .rodata            const     0x808'0bec      0x10  system_task_create.o [1]
  .rodata            const     0x808'0bfc      0x10  system_task_create.o [1]
  .rodata            const     0x808'0c0c      0x10  system_task_create.o [1]
  .rodata            const     0x808'0c1c      0x10  system_task_create.o [1]
  .rodata            const     0x808'0c2c      0x10  system_task_create.o [1]
  .rodata            const     0x808'0c3c      0x10  system_task_create.o [1]
  .rodata            const     0x808'0c4c      0x10  system_task_create.o [1]
  .rodata            const     0x808'0c5c      0x10  system_task_create.o [1]
  .rodata            const     0x808'0c6c      0x10  system_task_create.o [1]
  .rodata            const     0x808'0c7c      0x10  vehicle_status.o [1]
  .text              ro code   0x808'0c8c      0x10  startup_stm32f407xx.o [1]
  .rodata            const     0x808'0c9c       0xc  adjust_pedal.o [1]
  .rodata            const     0x808'0ca8       0xc  adjust_pedal.o [1]
  .rodata            const     0x808'0cb4       0xc  adjust_pedal.o [1]
  .rodata            const     0x808'0cc0       0xc  bsp_lcd.o [1]
  .rodata            const     0x808'0ccc       0xc  bsp_spi_flash.o [1]
  .rodata            const     0x808'0cd8       0xc  bsp_spi_flash.o [1]
  .rodata            const     0x808'0ce4       0xc  bsp_spi_flash.o [1]
  .rodata            const     0x808'0cf0       0xc  bsp_spi_flash.o [1]
  .rodata            const     0x808'0cfc       0xc  bsp_spi_flash.o [1]
  .rodata            const     0x808'0d08       0xc  bsp_touch.o [1]
  .rodata            const     0x808'0d14       0xc  ff.o [1]
  .rodata            const     0x808'0d20       0xc  lv_calendar_header_arrow.o [1]
  .rodata            const     0x808'0d2c       0xc  lv_calendar_header_arrow.o [1]
  .rodata            const     0x808'0d38       0xc  lv_calendar_header_arrow.o [1]
  .rodata            const     0x808'0d44       0xc  lv_calendar_header_arrow.o [1]
  .rodata            const     0x808'0d50       0xc  lv_checkbox.o [1]
  .rodata            const     0x808'0d5c       0xc  Monitor.o [1]
  .rodata            const     0x808'0d68       0xc  set_up.o [1]
  .rodata            const     0x808'0d74       0xc  system_task_create.o [1]
  .rodata            const     0x808'0d80       0xc  system_task_create.o [1]
  .rodata            const     0x808'0d8c       0xc  system_task_create.o [1]
  .rodata            const     0x808'0d98       0xc  system_task_create.o [1]
  .text              ro code   0x808'0da4       0xc  stm32f4xx_it.o [1]
  .rodata            const     0x808'0db0       0x8  adjust_pedal.o [1]
  .rodata            const     0x808'0db8       0x8  adjust_pedal.o [1]
  .rodata            const     0x808'0dc0       0x8  adjust_pedal.o [1]
  .rodata            const     0x808'0dc8       0x8  adjust_pedal.o [1]
  .rodata            const     0x808'0dd0       0x8  bsp_touch.o [1]
  .rodata            const     0x808'0dd8       0x8  ff.o [1]
  .rodata            const     0x808'0de0       0x8  lv_btnmatrix.o [1]
  .rodata            const     0x808'0de8       0x8  lv_btnmatrix.o [1]
  .rodata            const     0x808'0df0       0x8  lv_btnmatrix.o [1]
  .rodata            const     0x808'0df8       0x8  lv_btnmatrix.o [1]
  .rodata            const     0x808'0e00       0x8  lv_btnmatrix.o [1]
  .rodata            const     0x808'0e08       0x8  lv_calendar_header_arrow.o [1]
  .rodata            const     0x808'0e10       0x8  lv_calendar_header_arrow.o [1]
  .rodata            const     0x808'0e18       0x8  lv_calendar_header_arrow.o [1]
  .rodata            const     0x808'0e20       0x8  lv_calendar_header_arrow.o [1]
  .rodata            const     0x808'0e28       0x8  lv_calendar_header_arrow.o [1]
  .rodata            const     0x808'0e30       0x8  lv_calendar_header_arrow.o [1]
  .rodata            const     0x808'0e38       0x8  lv_calendar_header_arrow.o [1]
  .rodata            const     0x808'0e40       0x8  lv_calendar_header_arrow.o [1]
  .rodata            const     0x808'0e48       0x8  lv_draw_img.o [1]
  .rodata            const     0x808'0e50       0x8  lv_draw_sw_polygon.o [1]
  .rodata            const     0x808'0e58       0x8  lv_keyboard.o [1]
  .rodata            const     0x808'0e60       0x8  lv_label.o [1]
  .rodata            const     0x808'0e68       0x8  lv_printf.o [1]
  .rodata            const     0x808'0e70       0x8  lv_printf.o [1]
  .rodata            const     0x808'0e78       0x8  lv_txt.o [1]
  .rodata            const     0x808'0e80       0x8  sensor_ui.o [1]
  .rodata            const     0x808'0e88       0x8  sensor_ui.o [1]
  .rodata            const     0x808'0e90       0x8  stm32f4xx_hal_dma.o [1]
  .rodata            const     0x808'0e98       0x8  system_stm32f4xx.o [1]
  .rodata            const     0x808'0ea0       0x8  xprintffull_nomb.o [2]
  .rodata            const     0x808'0ea8       0x4  adjust_pedal.o [1]
  .rodata            const     0x808'0eac       0x4  adjust_pedal.o [1]
  .rodata            const     0x808'0eb0       0x4  adjust_pedal.o [1]
  .rodata            const     0x808'0eb4       0x4  adjust_pedal.o [1]
  .rodata            const     0x808'0eb8       0x4  lv_calendar.o [1]
  .rodata            const     0x808'0ebc       0x4  lv_calendar.o [1]
  .rodata            const     0x808'0ec0       0x4  lv_calendar.o [1]
  .rodata            const     0x808'0ec4       0x4  lv_calendar.o [1]
  .rodata            const     0x808'0ec8       0x4  lv_calendar.o [1]
  .rodata            const     0x808'0ecc       0x4  lv_calendar.o [1]
  .rodata            const     0x808'0ed0       0x4  lv_calendar.o [1]
  .rodata            const     0x808'0ed4       0x4  lv_calendar_header_arrow.o [1]
  .rodata            const     0x808'0ed8       0x4  lv_draw_sw_letter.o [1]
  .rodata            const     0x808'0edc       0x4  lv_img_decoder.o [1]
  .rodata            const     0x808'0ee0       0x4  lv_keyboard.o [1]
  .rodata            const     0x808'0ee4       0x4  lv_keyboard.o [1]
  .rodata            const     0x808'0ee8       0x4  lv_keyboard.o [1]
  .rodata            const     0x808'0eec       0x4  lv_keyboard.o [1]
  .rodata            const     0x808'0ef0       0x4  lv_keyboard.o [1]
  .rodata            const     0x808'0ef4       0x4  lv_keyboard.o [1]
  .rodata            const     0x808'0ef8       0x4  lv_keyboard.o [1]
  .rodata            const     0x808'0efc       0x4  lv_keyboard.o [1]
  .rodata            const     0x808'0f00       0x4  lv_keyboard.o [1]
  .rodata            const     0x808'0f04       0x4  lv_keyboard.o [1]
  .rodata            const     0x808'0f08       0x4  lv_obj_pos.o [1]
  .rodata            const     0x808'0f0c       0x4  lv_obj_pos.o [1]
  .rodata            const     0x808'0f10       0x4  lv_tlsf.o [1]
  .rodata            const     0x808'0f14       0x4  lv_tlsf.o [1]
  .rodata            const     0x808'0f18       0x4  lv_tlsf.o [1]
  .rodata            const     0x808'0f1c       0x4  lv_tlsf.o [1]
  .rodata            const     0x808'0f20       0x4  lv_tlsf.o [1]
  .rodata            const     0x808'0f24       0x4  lv_tlsf.o [1]
  .text              ro code   0x808'0f28       0x4  startup_stm32f407xx.o [1]
  .text              ro code   0x808'0f2c       0x4  startup_stm32f407xx.o [1]
  .text              ro code   0x808'0f30       0x4  startup_stm32f407xx.o [1]
  .text              ro code   0x808'0f34       0x4  startup_stm32f407xx.o [1]
  .text              ro code   0x808'0f38       0x4  startup_stm32f407xx.o [1]
  .text              ro code   0x808'0f3c       0x4  startup_stm32f407xx.o [1]
  .text              ro code   0x808'0f40       0x4  startup_stm32f407xx.o [1]
  .text              ro code   0x808'0f44       0x4  startup_stm32f407xx.o [1]
  .text              ro code   0x808'0f48       0x4  startup_stm32f407xx.o [1]
  .text              ro code   0x808'0f4c       0x4  startup_stm32f407xx.o [1]
  .text              ro code   0x808'0f50       0x4  startup_stm32f407xx.o [1]
  .text              ro code   0x808'0f54       0x4  startup_stm32f407xx.o [1]
  .text              ro code   0x808'0f58       0x4  startup_stm32f407xx.o [1]
  .text              ro code   0x808'0f5c       0x4  startup_stm32f407xx.o [1]
  .text              ro code   0x808'0f60       0x4  startup_stm32f407xx.o [1]
  .text              ro code   0x808'0f64       0x4  startup_stm32f407xx.o [1]
  .text              ro code   0x808'0f68       0x4  startup_stm32f407xx.o [1]
  .text              ro code   0x808'0f6c       0x4  startup_stm32f407xx.o [1]
  .text              ro code   0x808'0f70       0x4  startup_stm32f407xx.o [1]
  .text              ro code   0x808'0f74       0x4  startup_stm32f407xx.o [1]
  .text              ro code   0x808'0f78       0x4  startup_stm32f407xx.o [1]
  .text              ro code   0x808'0f7c       0x4  startup_stm32f407xx.o [1]
  .text              ro code   0x808'0f80       0x4  startup_stm32f407xx.o [1]
  .text              ro code   0x808'0f84       0x4  startup_stm32f407xx.o [1]
  .text              ro code   0x808'0f88       0x4  startup_stm32f407xx.o [1]
  .text              ro code   0x808'0f8c       0x4  startup_stm32f407xx.o [1]
  .text              ro code   0x808'0f90       0x4  startup_stm32f407xx.o [1]
  .text              ro code   0x808'0f94       0x4  startup_stm32f407xx.o [1]
  .text              ro code   0x808'0f98       0x4  startup_stm32f407xx.o [1]
  .text              ro code   0x808'0f9c       0x4  startup_stm32f407xx.o [1]
  .text              ro code   0x808'0fa0       0x4  startup_stm32f407xx.o [1]
  .text              ro code   0x808'0fa4       0x4  startup_stm32f407xx.o [1]
  .text              ro code   0x808'0fa8       0x4  startup_stm32f407xx.o [1]
  .text              ro code   0x808'0fac       0x4  startup_stm32f407xx.o [1]
  .text              ro code   0x808'0fb0       0x4  startup_stm32f407xx.o [1]
  .text              ro code   0x808'0fb4       0x4  startup_stm32f407xx.o [1]
  .text              ro code   0x808'0fb8       0x4  startup_stm32f407xx.o [1]
  .text              ro code   0x808'0fbc       0x4  startup_stm32f407xx.o [1]
  .text              ro code   0x808'0fc0       0x4  startup_stm32f407xx.o [1]
  .text              ro code   0x808'0fc4       0x4  startup_stm32f407xx.o [1]
  .text              ro code   0x808'0fc8       0x4  startup_stm32f407xx.o [1]
  .text              ro code   0x808'0fcc       0x4  startup_stm32f407xx.o [1]
  .text              ro code   0x808'0fd0       0x4  startup_stm32f407xx.o [1]
  .text              ro code   0x808'0fd4       0x4  startup_stm32f407xx.o [1]
  .text              ro code   0x808'0fd8       0x4  startup_stm32f407xx.o [1]
  .text              ro code   0x808'0fdc       0x4  startup_stm32f407xx.o [1]
  .text              ro code   0x808'0fe0       0x4  startup_stm32f407xx.o [1]
  .text              ro code   0x808'0fe4       0x4  startup_stm32f407xx.o [1]
  .text              ro code   0x808'0fe8       0x4  startup_stm32f407xx.o [1]
  .text              ro code   0x808'0fec       0x4  startup_stm32f407xx.o [1]
  .text              ro code   0x808'0ff0       0x4  startup_stm32f407xx.o [1]
  .text              ro code   0x808'0ff4       0x4  startup_stm32f407xx.o [1]
  .text              ro code   0x808'0ff8       0x4  startup_stm32f407xx.o [1]
  .text              ro code   0x808'0ffc       0x4  startup_stm32f407xx.o [1]
  .text              ro code   0x808'1000       0x4  startup_stm32f407xx.o [1]
  .text              ro code   0x808'1004       0x4  startup_stm32f407xx.o [1]
  .text              ro code   0x808'1008       0x4  startup_stm32f407xx.o [1]
  .text              ro code   0x808'100c       0x4  startup_stm32f407xx.o [1]
  .text              ro code   0x808'1010       0x4  startup_stm32f407xx.o [1]
  .text              ro code   0x808'1014       0x4  startup_stm32f407xx.o [1]
  .text              ro code   0x808'1018       0x4  startup_stm32f407xx.o [1]
  .text              ro code   0x808'101c       0x4  startup_stm32f407xx.o [1]
  .text              ro code   0x808'1020       0x4  startup_stm32f407xx.o [1]
  .text              ro code   0x808'1024       0x4  startup_stm32f407xx.o [1]
  .text              ro code   0x808'1028       0x4  startup_stm32f407xx.o [1]
  .text              ro code   0x808'102c       0x4  startup_stm32f407xx.o [1]
  .text              ro code   0x808'1030       0x4  startup_stm32f407xx.o [1]
  .rodata            const     0x808'1034       0x2  lv_keyboard.o [1]
  .rodata            const     0x808'1036       0x2  lv_keyboard.o [1]
  .rodata            const     0x808'1038       0x2  lv_keyboard.o [1]
  .rodata            const     0x808'103a       0x2  lv_keyboard.o [1]
  .rodata            const     0x808'103c       0x2  lv_keyboard.o [1]
  .rodata            const     0x808'103e       0x2  lv_keyboard.o [1]
  .rodata            const     0x808'1040       0x2  lv_keyboard.o [1]
  .rodata            const     0x808'1042       0x2  lv_keyboard.o [1]
  .rodata            const     0x808'1044       0x2  lv_keyboard.o [1]
  .rodata            const     0x808'1046       0x2  lv_keyboard.o [1]
  .rodata            const     0x808'1048       0x2  lv_keyboard.o [1]
  .rodata            const     0x808'104a       0x2  lv_keyboard.o [1]
  .rodata            const     0x808'104c       0x2  lv_keyboard.o [1]
  .rodata            const     0x808'104e       0x2  lv_keyboard.o [1]
  .rodata            const     0x808'1050       0x2  lv_keyboard.o [1]
  .rodata            const     0x808'1052       0x2  lv_keyboard.o [1]
  .rodata            const     0x808'1054       0x2  lv_keyboard.o [1]
  .rodata            const     0x808'1056       0x2  lv_keyboard.o [1]
  .rodata            const     0x808'1058       0x2  lv_keyboard.o [1]
  .rodata            const     0x808'105a       0x2  lv_keyboard.o [1]
  .rodata            const     0x808'105c       0x2  lv_keyboard.o [1]
  .rodata            const     0x808'105e       0x2  lv_keyboard.o [1]
  .rodata            const     0x808'1060       0x2  lv_keyboard.o [1]
  .rodata            const     0x808'1062       0x2  lv_keyboard.o [1]
  .rodata            const     0x808'1064       0x2  lv_keyboard.o [1]
  .rodata            const     0x808'1066       0x2  lv_keyboard.o [1]
  .rodata            const     0x808'1068       0x2  lv_keyboard.o [1]
  .rodata            const     0x808'106a       0x2  lv_keyboard.o [1]
  .rodata            const     0x808'106c       0x2  lv_keyboard.o [1]
  .rodata            const     0x808'106e       0x2  lv_keyboard.o [1]
  .rodata            const     0x808'1070       0x2  lv_keyboard.o [1]
  .rodata            const     0x808'1072       0x2  lv_textarea.o [1]
  .rodata            const     0x808'1074       0x2  xlocale_c.o [2]
  .rodata            const     0x808'1076       0x1  lv_btnmatrix.o [1]
  .rodata            const     0x808'1077       0x1  lv_keyboard.o [1]
  .rodata            const     0x808'1078       0x1  xlocale_c.o [2]
  .rodata            const     0x808'1079       0x0  zero_init3.o [4]
  .rodata            const     0x808'1079       0x0  lz77_init_single.o [4]
  Initializer bytes  const     0x808'1079     0x1a6  <for P2-1>
                             - 0x808'121f  0x8'1097

"P2", part 1 of 3:                            0x6b3
  P2-1                        0x2000'0000     0x6b3  <Init block>
    .data            inited   0x2000'0000       0x8  about_phone_ui.o [1]
    .data            inited   0x2000'0008      0x24  about_phone_ui.o [1]
    .data            inited   0x2000'002c      0x10  about_phone_ui.o [1]
    .data            inited   0x2000'003c      0x10  about_phone_ui.o [1]
    .data            inited   0x2000'004c       0x8  adjust_pedal.o [1]
    .data            inited   0x2000'0054       0x8  adjust_pedal.o [1]
    .data            inited   0x2000'005c       0x8  battery_box.o [1]
    .data            inited   0x2000'0064     0x420  bsp_tim_pwm.o [1]
    .data            inited   0x2000'0484      0x34  bsp_touch.o [1]
    .data            inited   0x2000'04b8       0x8  cool_control.o [1]
    .data            inited   0x2000'04c0       0x4  lv_area.o [1]
    .data            inited   0x2000'04c4      0x1c  lv_btnmatrix.o [1]
    .data            inited   0x2000'04e0      0x1c  lv_calendar.o [1]
    .data            inited   0x2000'04fc      0x30  lv_calendar_header_arrow.o [1]
    .data            inited   0x2000'052c       0x4  lv_calendar_header_dropdown.o [1]
    .data            inited   0x2000'0530       0x4  lv_calendar_header_dropdown.o [1]
    .data            inited   0x2000'0534      0x50  lv_fs_fatfs.o [1]
    .data            inited   0x2000'0584      0x24  lv_keyboard.o [1]
    .data            inited   0x2000'05a8      0x24  lv_keyboard.o [1]
    .data            inited   0x2000'05cc       0x4  lv_math.o [1]
    .data            inited   0x2000'05d0       0x4  lv_mem.o [1]
    .data            inited   0x2000'05d4       0x4  lv_txt.o [1]
    .data            inited   0x2000'05d8       0x4  lv_txt.o [1]
    .data            inited   0x2000'05dc       0x4  lv_txt.o [1]
    .data            inited   0x2000'05e0       0x4  lv_txt.o [1]
    .data            inited   0x2000'05e4       0x4  lv_txt.o [1]
    .data            inited   0x2000'05e8       0x4  lv_txt.o [1]
    .data            inited   0x2000'05ec       0x4  lv_txt.o [1]
    .data            inited   0x2000'05f0       0x8  Monitor.o [1]
    .data            inited   0x2000'05f8       0x8  motor_control_ui.o [1]
    .data            inited   0x2000'0600       0x8  myFont20.o [1]
    .data            inited   0x2000'0608       0x8  sensor_ui.o [1]
    .data            inited   0x2000'0610       0x8  set_up.o [1]
    .data            inited   0x2000'0618       0x4  system_stm32f4xx.o [1]
    .data            inited   0x2000'061c       0x4  tx_thread_initialize.o [1]
    .data            inited   0x2000'0620       0x8  vehicle_status.o [1]
    .data            inited   0x2000'0628      0x38  xlocale_c.o [2]
    .data            inited   0x2000'0660      0x48  xfiles.o [2]
    .data            inited   0x2000'06a8       0x2  adjust_pedal.o [1]
    .data            inited   0x2000'06aa       0x2  lv_colorwheel.o [1]
    .data            inited   0x2000'06ac       0x2  lv_style.o [1]
    .data            inited   0x2000'06ae       0x1  bsp_touch.o [1]
    .data            inited   0x2000'06af       0x1  bsp_touch.o [1]
    .data            inited   0x2000'06b0       0x1  lv_colorwheel.o [1]
    .data            inited   0x2000'06b1       0x1  lv_obj_style.o [1]
    .data            inited   0x2000'06b2       0x1  sd_diskio_dma.o [1]
                            - 0x2000'06b3     0x6b3

"P2", part 2 of 3:                         0x1'c5c8
  .bss               zero     0x2000'06b4  0x1'4000  lv_mem.o [1]
  .bss               zero     0x2001'46b4    0x1000  bsp_spi_bus.o [1]
  .bss               zero     0x2001'56b4    0x1000  bsp_spi_bus.o [1]
  .bss               zero     0x2001'66b8    0x1000  system_task_create.o [1]
  .bss               zero     0x2001'76b8     0x400  bsp_usart_fifo.o [1]
  .bss               zero     0x2001'7ab8     0x400  bsp_usart_fifo.o [1]
  .bss               zero     0x2001'7eb8     0x400  bsp_usart_fifo.o [1]
  .bss               zero     0x2001'82b8     0x400  bsp_usart_fifo.o [1]
  .bss               zero     0x2001'86b8     0x400  bsp_usart_fifo.o [1]
  .bss               zero     0x2001'8ab8     0x400  bsp_usart_fifo.o [1]
  .bss               zero     0x2001'8eb8     0x400  system_task_create.o [1]
  .bss               zero     0x2001'92b8     0x400  system_task_create.o [1]
  .bss               zero     0x2001'96b8     0x400  system_task_create.o [1]
  .bss               zero     0x2001'9ab8     0x400  system_task_create.o [1]
  .bss               zero     0x2001'9eb8     0x400  system_task_create.o [1]
  .bss               zero     0x2001'a2b8     0x400  system_task_create.o [1]
  .bss               zero     0x2001'a6b8     0x400  system_task_create.o [1]
  .bss               zero     0x2001'aab8     0x400  tx_timer_initialize.o [1]
  .bss               zero     0x2001'aeb8     0x234  lv_fs_fatfs.o [1]
  .bss               zero     0x2001'b0ec     0x1d8  dlmalloc.o [2]
  .bss               zero     0x2001'b2c4     0x17c  myFont20.o [1]
  .bss               zero     0x2001'b440     0x100  lv_draw_sw_letter.o [1]
  .bss               zero     0x2001'b540      0xb4  system_task_create.o [1]
  .bss               zero     0x2001'b5f4      0xb4  system_task_create.o [1]
  .bss               zero     0x2001'b6a8      0xb4  system_task_create.o [1]
  .bss               zero     0x2001'b75c      0xb4  system_task_create.o [1]
  .bss               zero     0x2001'b810      0xb4  system_task_create.o [1]
  .bss               zero     0x2001'b8c4      0xb4  system_task_create.o [1]
  .bss               zero     0x2001'b978      0xb4  system_task_create.o [1]
  .bss               zero     0x2001'ba2c      0xb4  system_task_create.o [1]
  .bss               zero     0x2001'bae0      0xb4  tx_timer_initialize.o [1]
  .bss               zero     0x2001'bb94      0x84  bsp_sdio_sd.o [1]
  .bss               zero     0x2001'bc18      0x80  lv_gc.o [1]
  .bss               zero     0x2001'bc98      0x80  lv_gc.o [1]
  .bss               zero     0x2001'bd18      0x80  tx_thread_initialize.o [1]
  .bss               zero     0x2001'bd98      0x80  tx_timer_initialize.o [1]
  .bss               zero     0x2001'be18      0x70  lv_gc.o [1]
  .bss               zero     0x2001'be88      0x60  bsp_sdio_sd.o [1]
  .bss               zero     0x2001'bee8      0x60  bsp_sdio_sd.o [1]
  .bss               zero     0x2001'bf48      0x60  bsp_spi_bus.o [1]
  .bss               zero     0x2001'bfa8      0x60  bsp_spi_bus.o [1]
  .bss               zero     0x2001'c008      0x60  bsp_tim_pwm.o [1]
  .bss               zero     0x2001'c068      0x58  bsp_spi_bus.o [1]
  .bss               zero     0x2001'c0c0      0x58  bsp_spi_bus.o [1]
  .bss               zero     0x2001'c118      0x54  bsp_iic_bus.o [1]
  .bss               zero     0x2001'c16c      0x50  bsp_lcd.o [1]
  .bss               zero     0x2001'c1bc      0x50  bsp_sram.o [1]
  .bss               zero     0x2001'c20c      0x50  lv_port_disp_template.o [1]
  .bss               zero     0x2001'c25c      0x50  xfiles.o [2]
  .bss               zero     0x2001'c2ac      0x40  bsp_rotation_sensor.o [1]
  .bss               zero     0x2001'c2ec      0x40  bsp_tim_pwm.o [1]
  .bss               zero     0x2001'c32c      0x40  SEGGER_HardFaultHandler.o [1]
  .bss               zero     0x2001'c36c      0x40  ticktim.o [1]
  .bss               zero     0x2001'c3ac      0x34  system_task_create.o [1]
  .bss               zero     0x2001'c3e0      0x34  system_task_create.o [1]
  .bss               zero     0x2001'c414      0x34  system_task_create.o [1]
  .bss               zero     0x2001'c448      0x30  lv_fs_fatfs.o [1]
  .bss               zero     0x2001'c478      0x2c  bsp_usart_fifo.o [1]
  .bss               zero     0x2001'c4a4      0x2c  bsp_usart_fifo.o [1]
  .bss               zero     0x2001'c4d0      0x2c  bsp_usart_fifo.o [1]
  .bss               zero     0x2001'c4fc      0x2c  lv_gc.o [1]
  .bss               zero     0x2001'c528      0x2c  system_task_create.o [1]
  .bss               zero     0x2001'c554      0x28  bsp_can_bus.o [1]
  .bss               zero     0x2001'c57c      0x28  bsp_spi_ads1256.o [1]
  .bss               zero     0x2001'c5a4      0x28  system_task_create.o [1]
  .bss               zero     0x2001'c5cc      0x24  lv_theme_default.o [1]
  .bss               zero     0x2001'c5f0      0x20  bsp_key.o [1]
  .bss               zero     0x2001'c610      0x20  ff.o [1]
  .bss               zero     0x2001'c630      0x20  lv_port_indev_template.o [1]
  .bss               zero     0x2001'c650      0x1c  bsp_can_bus.o [1]
  .bss               zero     0x2001'c66c      0x1c  bsp_spi_flash.o [1]
  .bss               zero     0x2001'c688      0x1c  lv_port_disp_template.o [1]
  .bss               zero     0x2001'c6a4      0x18  lv_refr.o [1]
  .bss               zero     0x2001'c6bc      0x18  dlmalloc.o [2]
  .bss               zero     0x2001'c6d4      0x14  about_phone_ui.o [1]
  .bss               zero     0x2001'c6e8      0x14  adjust_pedal.o [1]
  .bss               zero     0x2001'c6fc      0x14  adjust_pedal.o [1]
  .bss               zero     0x2001'c710      0x14  adjust_pedal.o [1]
  .bss               zero     0x2001'c724      0x14  battery_box.o [1]
  .bss               zero     0x2001'c738      0x14  cool_control.o [1]
  .bss               zero     0x2001'c74c      0x14  lv_theme_default.o [1]
  .bss               zero     0x2001'c760      0x14  lv_theme_default.o [1]
  .bss               zero     0x2001'c774      0x14  Monitor.o [1]
  .bss               zero     0x2001'c788      0x14  motor_control_ui.o [1]
  .bss               zero     0x2001'c79c      0x14  sensor_ui.o [1]
  .bss               zero     0x2001'c7b0      0x14  set_up.o [1]
  .bss               zero     0x2001'c7c4      0x14  vehicle_status.o [1]
  .bss               zero     0x2001'c7d8      0x10  adjust_pedal.o [1]
  .bss               zero     0x2001'c7e8      0x10  bsp_key.o [1]
  .bss               zero     0x2001'c7f8      0x10  bsp_lcd.o [1]
  .bss               zero     0x2001'c808      0x10  ff_gen_drv.o [1]
  FREE_MEM           zero     0x2001'c818      0x10  tx_initialize_low_level.o [1]
  .bss               zero     0x2001'c828       0xc  about_phone_ui.o [1]
  .bss               zero     0x2001'c834       0xc  about_phone_ui.o [1]
  .bss               zero     0x2001'c840       0xc  about_phone_ui.o [1]
  .bss               zero     0x2001'c84c       0xc  adjust_pedal.o [1]
  .bss               zero     0x2001'c858       0xc  adjust_pedal.o [1]
  .bss               zero     0x2001'c864       0xc  adjust_pedal.o [1]
  .bss               zero     0x2001'c870       0xc  adjust_pedal.o [1]
  .bss               zero     0x2001'c87c       0xc  adjust_pedal.o [1]
  .bss               zero     0x2001'c888       0xc  adjust_pedal.o [1]
  .bss               zero     0x2001'c894       0xc  adjust_pedal.o [1]
  .bss               zero     0x2001'c8a0       0xc  adjust_pedal.o [1]
  .bss               zero     0x2001'c8ac       0xc  battery_box.o [1]
  .bss               zero     0x2001'c8b8       0xc  battery_box.o [1]
  .bss               zero     0x2001'c8c4       0xc  battery_box.o [1]
  .bss               zero     0x2001'c8d0       0xc  cool_control.o [1]
  .bss               zero     0x2001'c8dc       0xc  cool_control.o [1]
  .bss               zero     0x2001'c8e8       0xc  cool_control.o [1]
  .bss               zero     0x2001'c8f4       0xc  lv_gc.o [1]
  .bss               zero     0x2001'c900       0xc  lv_gc.o [1]
  .bss               zero     0x2001'c90c       0xc  lv_gc.o [1]
  .bss               zero     0x2001'c918       0xc  lv_gc.o [1]
  .bss               zero     0x2001'c924       0xc  lv_gc.o [1]
  .bss               zero     0x2001'c930       0xc  lv_gc.o [1]
  .bss               zero     0x2001'c93c       0xc  lv_gc.o [1]
  .bss               zero     0x2001'c948       0xc  lv_gc.o [1]
  .bss               zero     0x2001'c954       0xc  Monitor.o [1]
  .bss               zero     0x2001'c960       0xc  Monitor.o [1]
  .bss               zero     0x2001'c96c       0xc  Monitor.o [1]
  .bss               zero     0x2001'c978       0xc  motor_control_ui.o [1]
  .bss               zero     0x2001'c984       0xc  motor_control_ui.o [1]
  .bss               zero     0x2001'c990       0xc  motor_control_ui.o [1]
  .bss               zero     0x2001'c99c       0xc  sensor_ui.o [1]
  .bss               zero     0x2001'c9a8       0xc  sensor_ui.o [1]
  .bss               zero     0x2001'c9b4       0xc  sensor_ui.o [1]
  .bss               zero     0x2001'c9c0       0xc  set_up.o [1]
  .bss               zero     0x2001'c9cc       0xc  set_up.o [1]
  .bss               zero     0x2001'c9d8       0xc  set_up.o [1]
  .bss               zero     0x2001'c9e4       0xc  vehicle_status.o [1]
  .bss               zero     0x2001'c9f0       0xc  vehicle_status.o [1]
  .bss               zero     0x2001'c9fc       0xc  vehicle_status.o [1]
  .bss               zero     0x2001'ca08       0x8  adjust_pedal.o [1]
  .bss               zero     0x2001'ca10       0x8  bsp_can_bus.o [1]
  .bss               zero     0x2001'ca18       0x8  ff.o [1]
  .bss               zero     0x2001'ca20       0x8  lv_font_montserrat_10.o [1]
  .bss               zero     0x2001'ca28       0x8  lv_font_montserrat_14.o [1]
  .bss               zero     0x2001'ca30       0x8  lv_font_montserrat_24.o [1]
  .bss               zero     0x2001'ca38       0x8  lv_font_montserrat_8.o [1]
  .bss               zero     0x2001'ca40       0x8  lv_refr.o [1]
  .bss               zero     0x2001'ca48       0x8  lv_theme_default.o [1]
  .bss               zero     0x2001'ca50       0x8  lv_theme_default.o [1]
  .bss               zero     0x2001'ca58       0x4  adjust_pedal.o [1]
  .bss               zero     0x2001'ca5c       0x4  adjust_pedal.o [1]
  .bss               zero     0x2001'ca60       0x4  adjust_pedal.o [1]
  .bss               zero     0x2001'ca64       0x4  adjust_pedal.o [1]
  .bss               zero     0x2001'ca68       0x4  adjust_pedal.o [1]
  .bss               zero     0x2001'ca6c       0x4  adjust_pedal.o [1]
  .bss               zero     0x2001'ca70       0x4  adjust_pedal.o [1]
  .bss               zero     0x2001'ca74       0x4  bsp_spi_bus.o [1]
  .bss               zero     0x2001'ca78       0x4  bsp_spi_bus.o [1]
  .bss               zero     0x2001'ca7c       0x4  bsp_spi_bus.o [1]
  .bss               zero     0x2001'ca80       0x4  bsp_spi_bus.o [1]
  .bss               zero     0x2001'ca84       0x4  bsp_spi_bus.o [1]
  .bss               zero     0x2001'ca88       0x4  lv_anim.o [1]
  .bss               zero     0x2001'ca8c       0x4  lv_anim.o [1]
  .bss               zero     0x2001'ca90       0x4  lv_area.o [1]
  .bss               zero     0x2001'ca94       0x4  lv_area.o [1]
  .bss               zero     0x2001'ca98       0x4  lv_draw_sw_gradient.o [1]
  .bss               zero     0x2001'ca9c       0x4  lv_draw_sw_gradient.o [1]
  .bss               zero     0x2001'caa0       0x4  lv_draw_sw_letter.o [1]
  .bss               zero     0x2001'caa4       0x4  lv_event.o [1]
  .bss               zero     0x2001'caa8       0x4  lv_gc.o [1]
  .bss               zero     0x2001'caac       0x4  lv_gc.o [1]
  .bss               zero     0x2001'cab0       0x4  lv_gc.o [1]
  .bss               zero     0x2001'cab4       0x4  lv_gc.o [1]
  .bss               zero     0x2001'cab8       0x4  lv_gc.o [1]
  .bss               zero     0x2001'cabc       0x4  lv_group.o [1]
  .bss               zero     0x2001'cac0       0x4  lv_hal_disp.o [1]
  .bss               zero     0x2001'cac4       0x4  lv_indev.o [1]
  .bss               zero     0x2001'cac8       0x4  lv_indev.o [1]
  .bss               zero     0x2001'cacc       0x4  lv_mem.o [1]
  .bss               zero     0x2001'cad0       0x4  lv_mem.o [1]
  .bss               zero     0x2001'cad4       0x4  lv_mem.o [1]
  .bss               zero     0x2001'cad8       0x4  lv_obj.o [1]
  .bss               zero     0x2001'cadc       0x4  lv_obj_pos.o [1]
  .bss               zero     0x2001'cae0       0x4  lv_port_indev_template.o [1]
  .bss               zero     0x2001'cae4       0x4  lv_refr.o [1]
  .bss               zero     0x2001'cae8       0x4  lv_refr.o [1]
  .bss               zero     0x2001'caec       0x4  lv_spinner.o [1]
  .bss               zero     0x2001'caf0       0x4  lv_spinner.o [1]
  .bss               zero     0x2001'caf4       0x4  lv_style.o [1]
  .bss               zero     0x2001'caf8       0x4  lv_textarea.o [1]
  .bss               zero     0x2001'cafc       0x4  lv_theme_default.o [1]
  .bss               zero     0x2001'cb00       0x4  lv_tileview.o [1]
  .bss               zero     0x2001'cb04       0x4  lv_tileview.o [1]
  .bss               zero     0x2001'cb08       0x4  lv_timer.o [1]
  .bss               zero     0x2001'cb0c       0x4  lv_timer.o [1]
  .bss               zero     0x2001'cb10       0x4  lv_timer.o [1]
  .bss               zero     0x2001'cb14       0x4  Monitor.o [1]
  .bss               zero     0x2001'cb18       0x4  sd_diskio_dma.o [1]
  .bss               zero     0x2001'cb1c       0x4  sd_diskio_dma.o [1]
  .bss               zero     0x2001'cb20       0x4  SEGGER_HardFaultHandler.o [1]
  .bss               zero     0x2001'cb24       0x4  sensor_ui.o [1]
  .bss               zero     0x2001'cb28       0x4  sensor_ui.o [1]
  .bss               zero     0x2001'cb2c       0x4  sensor_ui.o [1]
  .bss               zero     0x2001'cb30       0x4  sensor_ui.o [1]
  .bss               zero     0x2001'cb34       0x4  sensor_ui.o [1]
  .bss               zero     0x2001'cb38       0x4  sensor_ui.o [1]
  .bss               zero     0x2001'cb3c       0x4  sensor_ui.o [1]
  .bss               zero     0x2001'cb40       0x4  sensor_ui.o [1]
  .bss               zero     0x2001'cb44       0x4  sensor_ui.o [1]
  .bss               zero     0x2001'cb48       0x4  stm32f4xx_hal_timebase_tim.o [1]
  .bss               zero     0x2001'cb4c       0x4  system_task_create.o [1]
  .bss               zero     0x2001'cb50       0x4  system_task_create.o [1]
  .bss               zero     0x2001'cb54       0x4  system_task_create.o [1]
  .bss               zero     0x2001'cb58       0x4  system_task_create.o [1]
  .bss               zero     0x2001'cb5c       0x4  ticktim.o [1]
  .bss               zero     0x2001'cb60       0x4  tx_initialize_high_level.o [1]
  .bss               zero     0x2001'cb64       0x4  tx_initialize_high_level.o [1]
  .bss               zero     0x2001'cb68       0x4  tx_initialize_high_level.o [1]
  .bss               zero     0x2001'cb6c       0x4  tx_initialize_high_level.o [1]
  .bss               zero     0x2001'cb70       0x4  tx_initialize_high_level.o [1]
  .bss               zero     0x2001'cb74       0x4  tx_initialize_high_level.o [1]
  .bss               zero     0x2001'cb78       0x4  tx_initialize_high_level.o [1]
  .bss               zero     0x2001'cb7c       0x4  tx_initialize_high_level.o [1]
  .bss               zero     0x2001'cb80       0x4  tx_initialize_high_level.o [1]
  .bss               zero     0x2001'cb84       0x4  tx_initialize_high_level.o [1]
  .bss               zero     0x2001'cb88       0x4  tx_initialize_high_level.o [1]
  .bss               zero     0x2001'cb8c       0x4  tx_initialize_high_level.o [1]
  .bss               zero     0x2001'cb90       0x4  tx_initialize_high_level.o [1]
  .bss               zero     0x2001'cb94       0x4  tx_thread_initialize.o [1]
  .bss               zero     0x2001'cb98       0x4  tx_thread_initialize.o [1]
  .bss               zero     0x2001'cb9c       0x4  tx_thread_initialize.o [1]
  .bss               zero     0x2001'cba0       0x4  tx_thread_initialize.o [1]
  .bss               zero     0x2001'cba4       0x4  tx_thread_initialize.o [1]
  .bss               zero     0x2001'cba8       0x4  tx_thread_initialize.o [1]
  .bss               zero     0x2001'cbac       0x4  tx_thread_initialize.o [1]
  .bss               zero     0x2001'cbb0       0x4  tx_thread_initialize.o [1]
  .bss               zero     0x2001'cbb4       0x4  tx_thread_initialize.o [1]
  .bss               zero     0x2001'cbb8       0x4  tx_thread_initialize.o [1]
  .bss               zero     0x2001'cbbc       0x4  tx_thread_initialize.o [1]
  .bss               zero     0x2001'cbc0       0x4  tx_thread_initialize.o [1]
  .bss               zero     0x2001'cbc4       0x4  tx_timer_initialize.o [1]
  .bss               zero     0x2001'cbc8       0x4  tx_timer_initialize.o [1]
  .bss               zero     0x2001'cbcc       0x4  tx_timer_initialize.o [1]
  .bss               zero     0x2001'cbd0       0x4  tx_timer_initialize.o [1]
  .bss               zero     0x2001'cbd4       0x4  tx_timer_initialize.o [1]
  .bss               zero     0x2001'cbd8       0x4  tx_timer_initialize.o [1]
  .bss               zero     0x2001'cbdc       0x4  tx_timer_initialize.o [1]
  .bss               zero     0x2001'cbe0       0x4  tx_timer_initialize.o [1]
  .bss               zero     0x2001'cbe4       0x4  tx_timer_initialize.o [1]
  .bss               zero     0x2001'cbe8       0x4  tx_timer_initialize.o [1]
  .bss               zero     0x2001'cbec       0x4  tx_timer_initialize.o [1]
  .bss               zero     0x2001'cbf0       0x4  tx_timer_initialize.o [1]
  .bss               zero     0x2001'cbf4       0x4  tx_timer_initialize.o [1]
  .bss               zero     0x2001'cbf8       0x4  tx_trace_initialize.o [1]
  .bss               zero     0x2001'cbfc       0x4  tx_trace_initialize.o [1]
  .bss               zero     0x2001'cc00       0x4  tx_trace_initialize.o [1]
  .bss               zero     0x2001'cc04       0x4  tx_trace_initialize.o [1]
  .bss               zero     0x2001'cc08       0x4  tx_trace_initialize.o [1]
  .bss               zero     0x2001'cc0c       0x4  tx_trace_initialize.o [1]
  .bss               zero     0x2001'cc10       0x4  tx_trace_initialize.o [1]
  .bss               zero     0x2001'cc14       0x4  tx_trace_initialize.o [1]
  .bss               zero     0x2001'cc18       0x4  tx_trace_initialize.o [1]
  .bss               zero     0x2001'cc1c       0x4  tx_trace_initialize.o [1]
  .bss               zero     0x2001'cc20       0x4  tx_trace_initialize.o [1]
  .bss               zero     0x2001'cc24       0x4  xfail_s.o [2]
  .bss               zero     0x2001'cc28       0x4  xgetmemchunk.o [2]
  .bss               zero     0x2001'cc2c       0x2  ff.o [1]
  .bss               zero     0x2001'cc2e       0x2  lv_colorwheel.o [1]
  .bss               zero     0x2001'cc30       0x2  lv_flex.o [1]
  .bss               zero     0x2001'cc32       0x2  lv_flex.o [1]
  .bss               zero     0x2001'cc34       0x2  lv_flex.o [1]
  .bss               zero     0x2001'cc36       0x2  lv_flex.o [1]
  .bss               zero     0x2001'cc38       0x2  lv_flex.o [1]
  .bss               zero     0x2001'cc3a       0x2  lv_flex.o [1]
  .bss               zero     0x2001'cc3c       0x2  lv_grid.o [1]
  .bss               zero     0x2001'cc3e       0x2  lv_grid.o [1]
  .bss               zero     0x2001'cc40       0x2  lv_grid.o [1]
  .bss               zero     0x2001'cc42       0x2  lv_grid.o [1]
  .bss               zero     0x2001'cc44       0x2  lv_grid.o [1]
  .bss               zero     0x2001'cc46       0x2  lv_grid.o [1]
  .bss               zero     0x2001'cc48       0x2  lv_grid.o [1]
  .bss               zero     0x2001'cc4a       0x2  lv_grid.o [1]
  .bss               zero     0x2001'cc4c       0x2  lv_grid.o [1]
  .bss               zero     0x2001'cc4e       0x2  lv_grid.o [1]
  .bss               zero     0x2001'cc50       0x2  lv_grid.o [1]
  .bss               zero     0x2001'cc52       0x2  lv_port_indev_template.o [1]
  .bss               zero     0x2001'cc54       0x2  lv_port_indev_template.o [1]
  .bss               zero     0x2001'cc56       0x2  lv_tabview.o [1]
  .bss               zero     0x2001'cc58       0x2  lv_theme_default.o [1]
  .bss               zero     0x2001'cc5a       0x2  lv_theme_default.o [1]
  .bss               zero     0x2001'cc5c       0x2  lv_theme_default.o [1]
  .bss               zero     0x2001'cc5e       0x2  lv_theme_default.o [1]
  .bss               zero     0x2001'cc60       0x2  lv_win.o [1]
  .bss               zero     0x2001'cc62       0x1  bsp_rotation_sensor.o [1]
  .bss               zero     0x2001'cc63       0x1  bsp_spi_bus.o [1]
  .bss               zero     0x2001'cc64       0x1  bsp_touch.o [1]
  .bss               zero     0x2001'cc65       0x1  lv_anim.o [1]
  .bss               zero     0x2001'cc66       0x1  lv_anim.o [1]
  .bss               zero     0x2001'cc67       0x1  lv_colorwheel.o [1]
  .bss               zero     0x2001'cc68       0x1  lv_colorwheel.o [1]
  .bss               zero     0x2001'cc69       0x1  lv_colorwheel.o [1]
  .bss               zero     0x2001'cc6a       0x1  lv_draw_sw_gradient.o [1]
  .bss               zero     0x2001'cc6b       0x1  lv_draw_sw_letter.o [1]
  .bss               zero     0x2001'cc6c       0x1  lv_indev.o [1]
  .bss               zero     0x2001'cc6d       0x1  lv_obj.o [1]
  .bss               zero     0x2001'cc6e       0x1  lv_obj_pos.o [1]
  .bss               zero     0x2001'cc6f       0x1  lv_tabview.o [1]
  .bss               zero     0x2001'cc70       0x1  lv_theme_default.o [1]
  .bss               zero     0x2001'cc71       0x1  lv_theme_default.o [1]
  .bss               zero     0x2001'cc72       0x1  lv_tileview.o [1]
  .bss               zero     0x2001'cc73       0x1  lv_timer.o [1]
  .bss               zero     0x2001'cc74       0x1  lv_timer.o [1]
  .bss               zero     0x2001'cc75       0x1  lv_timer.o [1]
  .bss               zero     0x2001'cc76       0x1  lv_timer.o [1]
  .bss               zero     0x2001'cc77       0x1  lv_timer.o [1]
  .bss               zero     0x2001'cc78       0x1  system_task_create.o [1]
  .bss               zero     0x2001'cc79       0x1  ticktim.o [1]
  .bss               zero     0x2001'cc7a       0x1  ticktim.o [1]
  .bss               zero     0x2001'cc7b       0x1  ticktim.o [1]
                            - 0x2001'cc7c  0x1'c5c8

"P2", part 3 of 3:                            0x800
  CSTACK                      0x2001'cc80     0x400  <Block>
    CSTACK           uninit   0x2001'cc80     0x400  <Block tail>
  HEAP                        0x2001'd080     0x400  <Block>
    HEAP             uninit   0x2001'd080     0x400  <Block tail>
                            - 0x2001'd480     0x800

"P4":                                      0xb'b800
  .EXTERN_SRAM       zero     0x6800'0000  0xb'b800  lv_port_disp_template.o [1]
                            - 0x680b'b800  0xb'b800

Unused ranges:

         From           To      Size
         ----           --      ----
   0x808'121f   0x80f'ffff  0x7'ede1
  0x2000'06b3  0x2000'06b3       0x1
  0x2001'cc7c  0x2001'cc7f       0x4
  0x2001'd480  0x2001'ffff    0x2b80
  0x680b'b800  0x6810'0000  0x4'4801


*******************************************************************************
*** INIT TABLE
***

          Address      Size
          -------      ----
Zero (__iar_zero_init3)
    2 destination ranges, total size 0xd'7dc8:
          0x2000'06b4  0x1'c5c8
          0x6800'0000  0xb'b800

Copy/lz77 (__iar_lz77_init_single3)
    1 source range, total size 0x1a6 (24% of destination):
           0x808'1079     0x1a6
    1 destination range, total size 0x6b3:
          0x2000'0000     0x6b3



*******************************************************************************
*** MODULE SUMMARY
***

    Module                            ro code  ro data  rw data
    ------                            -------  -------  -------
command line/config:
    -----------------------------------------------------------
    Total:

D:\Ls_Monitor_Lower\Xian_Template\EW-ARM(v8x)\Flash\Obj: [1]
    HardFaultHandler.o                     18
    Monitor.o                           1'560       37       68
    SEGGER_HardFaultHandler.o             176                68
    about_phone_ui.o                    1'022      498      132
    adjust_pedal.o                      4'312      540      226
    battery_box.o                       1'088      162       64
    bsp_can_bus.o                         436       24       76
    bsp_dwt.o                              96
    bsp_iic_bus.o                         632                84
    bsp_key.o                             794       16       48
    bsp_lcd.o                           5'236       12       96
    bsp_led.o                             212
    bsp_rotation_sensor.o                 368      120       65
    bsp_sdio_sd.o                         622               324
    bsp_spi_ads1256.o                   1'112       52       40
    bsp_spi_bus.o                       1'136      152    8'581
    bsp_spi_flash.o                       636       76       28
    bsp_sram.o                            328                80
    bsp_tim_pwm.o                       2'100      388    1'216
    bsp_touch.o                         2'688      274       55
    bsp_usart_fifo.o                    1'528      120    6'276
    bsp_ws2812b.o                          40
    cc936.o                               296  175'032
    cool_control.o                        346       46       64
    diskio.o                              180
    ff.o                                9'170       36       42
    ff_gen_drv.o                           80                16
    lv_anim.o                           1'228                10
    lv_arc.o                            4'018       28
    lv_area.o                           1'696        1       12
    lv_bar.o                            2'726       28
    lv_btn.o                               52       28
    lv_btnmatrix.o                      5'496       78       28
    lv_calendar.o                       1'300       62       28
    lv_calendar_header_arrow.o            492      156       48
    lv_calendar_header_dropdown.o         332      682        8
    lv_chart.o                          9'734       28
    lv_checkbox.o                       1'184       40
    lv_color.o                            780      384
    lv_colorwheel.o                     3'368       29        8
    lv_disp.o                             138
    lv_draw.o                              16
    lv_draw_arc.o                       1'338
    lv_draw_img.o                       1'114        8
    lv_draw_label.o                     1'830
    lv_draw_layer.o                       212
    lv_draw_line.o                        112
    lv_draw_mask.o                      7'078
    lv_draw_rect.o                        266
    lv_draw_sw.o                          274
    lv_draw_sw_arc.o                    3'844
    lv_draw_sw_blend.o                  4'402
    lv_draw_sw_gradient.o               1'282                 9
    lv_draw_sw_img.o                    1'700
    lv_draw_sw_layer.o                    590
    lv_draw_sw_letter.o                 1'264      278      261
    lv_draw_sw_line.o                   2'548       36
    lv_draw_sw_polygon.o                1'016        8
    lv_draw_sw_rect.o                   8'758
    lv_draw_sw_transform.o              2'676        2
    lv_draw_transform.o                    56
    lv_dropdown.o                       3'998       84
    lv_event.o                          1'112                 4
    lv_extra.o                             16
    lv_flex.o                           3'900                12
    lv_font.o                             238
    lv_font_fmt_txt.o                     936
    lv_font_montserrat_10.o                      9'360        8
    lv_font_montserrat_14.o                     13'640        8
    lv_font_montserrat_24.o                     28'692        8
    lv_font_montserrat_8.o                       7'712        8
    lv_fs.o                             1'148
    lv_fs_fatfs.o                         568      948      692
    lv_gc.o                                                 528
    lv_grid.o                           3'198                22
    lv_group.o                          1'270                 4
    lv_hal_disp.o                         770                 4
    lv_hal_indev.o                        244
    lv_hal_tick.o                          32
    lv_img.o                            2'736       28
    lv_img_buf.o                          542
    lv_img_cache.o                         98
    lv_img_decoder.o                    2'698       22
    lv_imgbtn.o                         1'224       28
    lv_indev.o                          4'728                 9
    lv_indev_scroll.o                   3'584
    lv_keyboard.o                         848    1'165       72
    lv_label.o                          5'610       36
    lv_led.o                              968       28
    lv_line.o                             584       28
    lv_list.o                                       84
    lv_ll.o                               486
    lv_math.o                             556      185        4
    lv_mem.o                            1'582        1   81'936
    lv_menu.o                           1'248      252
    lv_meter.o                          3'768       28
    lv_msgbox.o                                     56
    lv_obj.o                            4'328       28        5
    lv_obj_class.o                        584
    lv_obj_draw.o                       2'724
    lv_obj_pos.o                        7'556        8        5
    lv_obj_scroll.o                     5'536
    lv_obj_style.o                      5'000                 1
    lv_obj_style_gen.o                    444
    lv_obj_tree.o                       1'048
    lv_port_disp_template.o               180           768'108
    lv_port_indev_template.o              152                40
    lv_printf.o                         4'368       96
    lv_refr.o                           5'502       52       40
    lv_roller.o                         3'074      104
    lv_slider.o                         2'940       28
    lv_spinbox.o                        1'160       28
    lv_spinner.o                          210       28        8
    lv_style.o                          1'524      112        6
    lv_style_gen.o                        790
    lv_switch.o                         1'096       28
    lv_table.o                          3'232       28
    lv_tabview.o                        1'054       28        3
    lv_textarea.o                       4'920       30        4
    lv_theme.o                            130
    lv_theme_default.o                 11'700       24      106
    lv_tileview.o                         402       56        9
    lv_timer.o                            602                17
    lv_tlsf.o                           3'424       24
    lv_txt.o                            2'292       15       28
    lv_utils.o                             84
    lv_win.o                              128       28        2
    main.o                                 30
    motor_control_ui.o                    354       58       64
    myFont20.o                            212       30      388
    sd_diskio_dma.o                       392       21        9
    sensor_ui.o                         2'136       62      100
    set_up.o                              346       38       64
    startup_stm32f407xx.o                 676
    stm32f4xx_hal.o                        88
    stm32f4xx_hal_can.o                 1'718
    stm32f4xx_hal_cortex.o                260
    stm32f4xx_hal_dma.o                 1'284        8
    stm32f4xx_hal_gpio.o                  584
    stm32f4xx_hal_i2c.o                 3'232
    stm32f4xx_hal_msp.o                     2
    stm32f4xx_hal_rcc.o                 1'392
    stm32f4xx_hal_sd.o                  3'438
    stm32f4xx_hal_spi.o                 1'564
    stm32f4xx_hal_sram.o                   92
    stm32f4xx_hal_tim.o                 2'732
    stm32f4xx_hal_tim_ex.o                 80
    stm32f4xx_hal_timebase_tim.o           92                 4
    stm32f4xx_hal_uart.o                  902
    stm32f4xx_it.o                         12
    stm32f4xx_ll_fsmc.o                   228
    stm32f4xx_ll_sdmmc.o                1'792
    sys.o                                 176
    syscall.o                              16
    system_stm32f4xx.o                     96       25        4
    system_task_create.o                1'508      560   12'961
    ticktim.o                             328                71
    tx_event_flags_cleanup.o              144
    tx_event_flags_create.o               292
    tx_event_flags_get.o                  452
    tx_event_flags_set.o                  740
    tx_initialize_high_level.o            136                52
    tx_initialize_kernel_enter.o           72
    tx_initialize_low_level.o             116                16
    tx_mutex_cleanup.o                    200
    tx_mutex_create.o                     308
    tx_mutex_get.o                        456
    tx_mutex_prioritize.o                 360
    tx_mutex_priority_change.o            240
    tx_mutex_put.o                        724
    tx_thread_create.o                    568
    tx_thread_initialize.o                152        1      180
    tx_thread_schedule.o                  208
    tx_thread_shell_entry.o               132
    tx_thread_sleep.o                     332
    tx_thread_stack_analyze.o             128
    tx_thread_stack_build.o                68
    tx_thread_stack_error_handler.o        32
    tx_thread_system_preempt_check.o      192
    tx_thread_system_resume.o             916
    tx_thread_system_suspend.o            920
    tx_thread_time_slice.o                588
    tx_thread_timeout.o                    56
    tx_time_get.o                         208
    tx_timer_create.o                     324
    tx_timer_expiration_process.o          36
    tx_timer_initialize.o                 224       20    1'384
    tx_timer_interrupt.o                  232
    tx_timer_system_activate.o            100
    tx_timer_system_deactivate.o           46
    tx_timer_thread_entry.o               304
    tx_trace_initialize.o                  64                44
    tx_trace_object_register.o            284
    txe_event_flags_create.o              180
    txe_event_flags_get.o                 112
    txe_event_flags_set.o                  52
    txe_mutex_create.o                    204
    txe_mutex_get.o                       124
    txe_mutex_put.o                        76
    txe_thread_create.o                   348
    txe_timer_create.o                    232
    vehicle_status.o                      350       50       64
    -----------------------------------------------------------
    Total:                            271'800  243'456  885'167

dl7M_tlf.a: [2]
    abort.o                                 6
    dlmalloc.o                          5'316               496
    exit.o                                  4
    heaptramp0.o                            4
    low_level_init.o                        4
    printf.o                               40
    putchar.o                              12
    vsnprint.o                             60
    xfail_s.o                              64                 4
    xfiles.o                                        18      152
    xgetmemchunk.o                         44                 4
    xlocale_c.o                             8       17       56
    xprintffull_nomb.o                  4'034        8
    xprout.o                               22
    xsnprout.o                             26
    -----------------------------------------------------------
    Total:                              9'644       43      712

m7M_tls.a: [3]
    DblAdd.o                              378
    DblCmpEq.o                             32
    DblCmpGe.o                             46
    DblCmpLe.o                             46
    DblDiv.o                              582
    DblMul.o                              418
    DblSub.o                              226
    DblToFlt.o                            104
    DblToS32.o                             58
    DblToU32.o                             40
    FltToDbl.o                             72
    S32ToDbl.o                             34
    U32ToDbl.o                             26
    fpinit_M.o                             34
    frexp.o                               112
    ldexp.o                               314
    -----------------------------------------------------------
    Total:                              2'522

rt7M_tl.a: [4]
    ABImemclr4.o                            6
    ABImemcpy.o                           166
    ABImemset.o                           102
    ABImemset48.o                          50
    I64DivMod.o                           560
    I64DivZer.o                             2
    cexit.o                                10
    cmain.o                                30
    cstartup_M.o                           28
    data_init.o                            40
    lz77_init_single.o                    120
    memchr.o                               88
    memset.o                               20
    strchr.o                               22
    strcmp.o                               18
    strcpy.o                               24
    strlen.o                               54
    zero_init3.o                           58
    -----------------------------------------------------------
    Total:                              1'398

shb_l.a: [5]
    exit.o                                 20
    -----------------------------------------------------------
    Total:                                 20

    Gaps                                             4        4
    Linker created                                  40    2'048
---------------------------------------------------------------
    Grand Total:                      285'384  243'543  887'931


*******************************************************************************
*** ENTRY LIST
***

Entry                       Address      Size  Type      Object
-----                       -------      ----  ----      ------
.iar.init_table$$Base    0x807'ff64             --   Gb  - Linker created -
.iar.init_table$$Limit   0x807'ff8c             --   Gb  - Linker created -
?main                    0x808'00c1            Code  Gb  cmain.o [4]
ADS1256_CfgADC           0x805'acd1      0x70  Code  Gb  bsp_spi_ads1256.o [1]
ADS1256_DelayDATA        0x805'ad63       0xa  Code  Lc  bsp_spi_ads1256.o [1]
ADS1256_DelaySCLK        0x805'ad41      0x22  Code  Lc  bsp_spi_ads1256.o [1]
ADS1256_ISR              0x805'af37      0x60  Code  Gb  bsp_spi_ads1256.o [1]
ADS1256_ReadData         0x805'ae8b      0x3c  Code  Lc  bsp_spi_ads1256.o [1]
ADS1256_Recive8Bit       0x805'add1      0x3c  Code  Lc  bsp_spi_ads1256.o [1]
ADS1256_ResetHard        0x805'ad6d      0x1c  Code  Lc  bsp_spi_ads1256.o [1]
ADS1256_Send8Bit         0x805'ad89      0x48  Code  Lc  bsp_spi_ads1256.o [1]
ADS1256_SetChannal       0x805'ae4d      0x1c  Code  Lc  bsp_spi_ads1256.o [1]
ADS1256_StartScan        0x805'aec7      0x66  Code  Gb  bsp_spi_ads1256.o [1]
ADS1256_StopScan         0x805'af2d       0xa  Code  Gb  bsp_spi_ads1256.o [1]
ADS1256_WaitDRDY         0x805'ae69      0x22  Code  Lc  bsp_spi_ads1256.o [1]
ADS1256_WriteCmd         0x805'ae37      0x16  Code  Lc  bsp_spi_ads1256.o [1]
ADS1256_WriteReg         0x805'ae0d      0x2a  Code  Lc  bsp_spi_ads1256.o [1]
AHBPrescTable            0x808'0bbc      0x10  Data  Gb  system_stm32f4xx.o [1]
APBPrescTable            0x808'0e98       0x8  Data  Gb  system_stm32f4xx.o [1]
About_Phone_In_Ui        0x806'0eb9     0x268  Code  Lc  about_phone_ui.o [1]
About_Phone_In_Ui::about_lines1
                        0x2000'0008      0x24  Data  Lc  about_phone_ui.o [1]
About_Phone_In_Ui::about_lines2
                        0x2000'002c      0x10  Data  Lc  about_phone_ui.o [1]
About_Phone_In_Ui::about_lines3
                        0x2000'003c      0x10  Data  Lc  about_phone_ui.o [1]
About_Phone_Ui           0x806'0ddf      0xbc  Code  Gb  about_phone_ui.o [1]
About_Phone_Ui::style_def
                        0x2001'c834       0xc  Data  Lc  about_phone_ui.o [1]
About_Phone_Ui::style_pr
                        0x2001'c840       0xc  Data  Lc  about_phone_ui.o [1]
About_Phone_Ui::tr      0x2001'c6d4      0x14  Data  Lc  about_phone_ui.o [1]
About_Phone_Ui::tr_prop
                        0x2000'0000       0x8  Data  Lc  about_phone_ui.o [1]
Adjust_Pedal_In_Ui       0x805'd827     0x778  Code  Lc  adjust_pedal.o [1]
Adjust_Pedal_In_Ui::props
                        0x2000'0054       0x8  Data  Lc  adjust_pedal.o [1]
Adjust_Pedal_In_Ui::style_def
                        0x2001'c888       0xc  Data  Lc  adjust_pedal.o [1]
Adjust_Pedal_In_Ui::style_pr
                        0x2001'c894       0xc  Data  Lc  adjust_pedal.o [1]
Adjust_Pedal_In_Ui::style_warning
                        0x2001'c8a0       0xc  Data  Lc  adjust_pedal.o [1]
Adjust_Pedal_In_Ui::transition_dsc_def
                        0x2001'c6fc      0x14  Data  Lc  adjust_pedal.o [1]
Adjust_Pedal_In_Ui::transition_dsc_pr
                        0x2001'c710      0x14  Data  Lc  adjust_pedal.o [1]
Adjust_Pedal_Ui          0x805'd73d      0xca  Code  Gb  adjust_pedal.o [1]
Adjust_Pedal_Ui::s_style_common
                        0x2001'c864       0xc  Data  Lc  adjust_pedal.o [1]
Adjust_Pedal_Ui::style_def
                        0x2001'c870       0xc  Data  Lc  adjust_pedal.o [1]
Adjust_Pedal_Ui::style_pr
                        0x2001'c87c       0xc  Data  Lc  adjust_pedal.o [1]
Adjust_Pedal_Ui::tr     0x2001'c6e8      0x14  Data  Lc  adjust_pedal.o [1]
Adjust_Pedal_Ui::tr_prop
                        0x2000'004c       0x8  Data  Lc  adjust_pedal.o [1]
AppLCDSemp              0x2001'c3e0      0x34  Data  Gb  system_task_create.o [1]
AppObjCreate             0x806'0987      0x48  Code  Lc  system_task_create.o [1]
AppPrintfSemp           0x2001'c3ac      0x34  Data  Gb  system_task_create.o [1]
AppTaskCOM               0x806'08a9      0x1c  Code  Lc  system_task_create.o [1]
AppTaskCOMStk           0x2001'92b8     0x400  Data  Lc  system_task_create.o [1]
AppTaskCOMTCB           0x2001'b5f4      0xb4  Data  Lc  system_task_create.o [1]
AppTaskCreate            0x806'059f     0x102  Code  Lc  system_task_create.o [1]
AppTaskIDLE              0x806'0791      0x14  Code  Lc  system_task_create.o [1]
AppTaskIdleStk          0x2001'9ab8     0x400  Data  Lc  system_task_create.o [1]
AppTaskIdleTCB          0x2001'b75c      0xb4  Data  Lc  system_task_create.o [1]
AppTaskMsgPro            0x806'07a5      0x36  Code  Lc  system_task_create.o [1]
AppTaskMsgProStk        0x2001'a6b8     0x400  Data  Lc  system_task_create.o [1]
AppTaskMsgProTCB        0x2001'ba2c      0xb4  Data  Lc  system_task_create.o [1]
AppTaskREADADC           0x806'081d      0x16  Code  Lc  system_task_create.o [1]
AppTaskReadAdcStk       0x2001'a2b8     0x400  Data  Lc  system_task_create.o [1]
AppTaskReadAdcTCB       0x2001'b8c4      0xb4  Data  Lc  system_task_create.o [1]
AppTaskStart             0x806'06a1      0x7e  Code  Lc  system_task_create.o [1]
AppTaskStartStk         0x2001'8eb8     0x400  Data  Lc  system_task_create.o [1]
AppTaskStartTCB         0x2001'b540      0xb4  Data  Lc  system_task_create.o [1]
AppTaskStat              0x806'0721      0x70  Code  Lc  system_task_create.o [1]
AppTaskStatStk          0x2001'9eb8     0x400  Data  Lc  system_task_create.o [1]
AppTaskStatTCB          0x2001'b810      0xb4  Data  Lc  system_task_create.o [1]
AppTaskTFTLCD            0x806'07dd      0x40  Code  Lc  system_task_create.o [1]
AppTaskTFTLCDStk        0x2001'66b8    0x1000  Data  Lc  system_task_create.o [1]
AppTaskTFTLCDTCB        0x2001'b978      0xb4  Data  Lc  system_task_create.o [1]
AppTaskUserIF            0x806'0835      0x74  Code  Lc  system_task_create.o [1]
AppTaskUserIFStk        0x2001'96b8     0x400  Data  Lc  system_task_create.o [1]
AppTaskUserIFTCB        0x2001'b6a8      0xb4  Data  Lc  system_task_create.o [1]
AppTimer                0x2001'c528      0x2c  Data  Gb  system_task_create.o [1]
App_Common_Init          0x805'f081     0x1ca  Code  Gb  Monitor.o [1]
App_Common_Init::props  0x2000'05f0       0x8  Data  Lc  Monitor.o [1]
App_Common_Init::style  0x2001'c960       0xc  Data  Lc  Monitor.o [1]
App_Common_Init::style_pr
                        0x2001'c96c       0xc  Data  Lc  Monitor.o [1]
App_Common_Init::trans  0x2001'c774      0x14  Data  Lc  Monitor.o [1]
App_I2C_EE_BufferWrite   0x806'08f9      0x2a  Code  Gb  system_task_create.o [1]
App_PowerDownSave       0x2001'c414      0x34  Data  Gb  system_task_create.o [1]
App_Printf               0x806'08c5      0x34  Code  Gb  system_task_create.o [1]
App_btn_Back_Cb          0x806'1175      0x1e  Code  Lc  about_phone_ui.o [1]
App_btn_Back_Cb          0x805'dfa1      0x2c  Code  Lc  adjust_pedal.o [1]
App_btn_Back_Cb          0x806'1739      0x1e  Code  Lc  battery_box.o [1]
App_btn_Back_Cb          0x806'158d      0x1e  Code  Lc  cool_control.o [1]
App_btn_Back_Cb          0x806'0d75      0x1e  Code  Lc  motor_control_ui.o [1]
App_btn_Back_Cb          0x806'1b2d      0x2c  Code  Lc  sensor_ui.o [1]
App_btn_Back_Cb          0x806'12d1      0x1e  Code  Lc  set_up.o [1]
App_btn_Back_Cb          0x806'1431      0x1e  Code  Lc  vehicle_status.o [1]
BSP_SD_GetCardInfo       0x807'068f       0xc  Code  Gb  bsp_sdio_sd.o [1]
BSP_SD_GetCardState      0x807'0679      0x16  Code  Gb  bsp_sdio_sd.o [1]
BSP_SD_Init              0x807'05ed      0x58  Code  Gb  bsp_sdio_sd.o [1]
BSP_SD_MspInit::dmaRxHandle
                        0x2001'be88      0x60  Data  Lc  bsp_sdio_sd.o [1]
BSP_SD_MspInit::dmaTxHandle
                        0x2001'bee8      0x60  Data  Lc  bsp_sdio_sd.o [1]
BSP_SD_ReadBlocks_DMA    0x807'0645      0x1a  Code  Gb  bsp_sdio_sd.o [1]
BSP_SD_ReadCpltCallback
                         0x807'09e3       0x8  Code  Gb  sd_diskio_dma.o [1]
BSP_SD_WriteBlocks_DMA   0x807'065f      0x1a  Code  Gb  bsp_sdio_sd.o [1]
BSP_SD_WriteCpltCallback
                         0x807'09db       0x8  Code  Gb  sd_diskio_dma.o [1]
Battery_Box_In_Ui        0x806'1757     0x25c  Code  Lc  battery_box.o [1]
Battery_Box_Ui           0x806'1663      0xba  Code  Gb  battery_box.o [1]
Battery_Box_Ui::style_def
                        0x2001'c8b8       0xc  Data  Lc  battery_box.o [1]
Battery_Box_Ui::style_pr
                        0x2001'c8c4       0xc  Data  Lc  battery_box.o [1]
Battery_Box_Ui::tr      0x2001'c724      0x14  Data  Lc  battery_box.o [1]
Battery_Box_Ui::tr_prop
                        0x2000'005c       0x8  Data  Lc  battery_box.o [1]
BusFault_Handler         0x808'0da9       0x2  Code  Gb  stm32f4xx_it.o [1]
CAN1_RX0_IRQHandler      0x806'4db3      0x18  Code  Gb  bsp_can_bus.o [1]
CMD_RDX                 0x2000'06ae       0x1  Data  Gb  bsp_touch.o [1]
CMD_RDY                 0x2000'06af       0x1  Data  Gb  bsp_touch.o [1]
CSTACK$$Base            0x2001'cc80             --   Gb  - Linker created -
CSTACK$$Limit           0x2001'd080             --   Gb  - Linker created -
CT_Delay                 0x806'a96d       0xa  Code  Gb  bsp_touch.o [1]
CT_IIC_Ack               0x806'aaab      0x3c  Code  Gb  bsp_touch.o [1]
CT_IIC_Init              0x806'a977      0x72  Code  Gb  bsp_touch.o [1]
CT_IIC_NAck              0x806'aae7      0x3c  Code  Gb  bsp_touch.o [1]
CT_IIC_Read_Byte         0x806'ab77      0x5e  Code  Gb  bsp_touch.o [1]
CT_IIC_Send_Byte         0x806'ab23      0x54  Code  Gb  bsp_touch.o [1]
CT_IIC_Start             0x806'a9e9      0x3a  Code  Gb  bsp_touch.o [1]
CT_IIC_Stop              0x806'aa23      0x36  Code  Gb  bsp_touch.o [1]
CT_IIC_Wait_Ack          0x806'aa59      0x52  Code  Gb  bsp_touch.o [1]
ComToUart                0x806'01c5      0x34  Code  Gb  bsp_usart_fifo.o [1]
Cool_Control_Ui          0x806'149b      0xba  Code  Gb  cool_control.o [1]
Cool_Control_Ui::style_def
                        0x2001'c8dc       0xc  Data  Lc  cool_control.o [1]
Cool_Control_Ui::style_pr
                        0x2001'c8e8       0xc  Data  Lc  cool_control.o [1]
Cool_Control_Ui::tr     0x2001'c738      0x14  Data  Lc  cool_control.o [1]
Cool_Control_Ui::tr_prop
                        0x2000'04b8       0x8  Data  Lc  cool_control.o [1]
DMA1_Stream4_IRQHandler
                         0x806'54af       0xc  Code  Gb  bsp_tim_pwm.o [1]
DMA2_Stream0_IRQHandler
                         0x806'4a69       0xc  Code  Gb  bsp_spi_bus.o [1]
DMA2_Stream3_IRQHandler
                         0x807'06c9       0xc  Code  Gb  bsp_sdio_sd.o [1]
DMA2_Stream5_IRQHandler
                         0x806'4a75       0xc  Code  Gb  bsp_spi_bus.o [1]
DMA2_Stream6_IRQHandler
                         0x807'06bd       0xc  Code  Gb  bsp_sdio_sd.o [1]
DMA_CalcBaseAndBitshift
                         0x806'93a9      0x30  Code  Lc  stm32f4xx_hal_dma.o [1]
DMA_CalcBaseAndBitshift::flagBitshiftOffset
                         0x808'0e90       0x8  Data  Lc  stm32f4xx_hal_dma.o [1]
DMA_CheckFifoParam       0x806'93e5      0x88  Code  Lc  stm32f4xx_hal_dma.o [1]
DMA_SetConfig            0x806'937b      0x2e  Code  Lc  stm32f4xx_hal_dma.o [1]
DebugMon_Handler         0x808'0daf       0x2  Code  Gb  stm32f4xx_it.o [1]
DispTaskInfo             0x806'0923      0x5e  Code  Lc  system_task_create.o [1]
DriverX_Pos             0x2001'c7d8      0x10  Data  Gb  adjust_pedal.o [1]
Driverpos1_Label_Cb      0x805'e475      0x38  Code  Lc  adjust_pedal.o [1]
Driverpos2_Label_Cb      0x805'e4c1      0x38  Code  Lc  adjust_pedal.o [1]
Driverpos3_Label_Cb      0x805'e501      0x38  Code  Lc  adjust_pedal.o [1]
EXTI9_5_IRQHandler       0x805'afd9       0xa  Code  Gb  bsp_spi_ads1256.o [1]
EventGroup              0x2001'c5a4      0x28  Data  Gb  system_task_create.o [1]
FATFS_LinkDriver         0x804'9527       0xa  Code  Gb  ff_gen_drv.o [1]
FATFS_LinkDriverEx       0x804'94e5      0x42  Code  Gb  ff_gen_drv.o [1]
FR_Table                0x2000'0534      0x50  Data  Lc  lv_fs_fatfs.o [1]
FSMC_NORSRAM_Extended_Timing_Init
                         0x805'b08d      0x40  Code  Gb  stm32f4xx_ll_fsmc.o [1]
FSMC_NORSRAM_Init        0x805'aff1      0x58  Code  Gb  stm32f4xx_ll_fsmc.o [1]
FSMC_NORSRAM_Timing_Init
                         0x805'b049      0x44  Code  Gb  stm32f4xx_ll_fsmc.o [1]
FatFs                   0x2001'ca18       0x8  Data  Lc  ff.o [1]
Files                   0x2001'c610      0x20  Data  Lc  ff.o [1]
Forward_Btn_Cb           0x805'e0fd      0x80  Code  Lc  adjust_pedal.o [1]
Fsid                    0x2001'cc2c       0x2  Data  Lc  ff.o [1]
GT9147_CFG_TBL           0x807'e214      0xb8  Data  Gb  bsp_touch.o [1]
GT9147_Init              0x806'ad0f     0x124  Code  Gb  bsp_touch.o [1]
GT9147_RD_Reg            0x806'ac97      0x78  Code  Gb  bsp_touch.o [1]
GT9147_Scan              0x806'ae35     0x1ea  Code  Gb  bsp_touch.o [1]
GT9147_Scan::t          0x2001'cc64       0x1  Data  Lc  bsp_touch.o [1]
GT9147_Send_Cfg          0x806'abd5      0x5a  Code  Gb  bsp_touch.o [1]
GT9147_TPX_TBL           0x808'0d08       0xc  Data  Gb  bsp_touch.o [1]
GT9147_WR_Reg            0x806'ac2f      0x68  Code  Gb  bsp_touch.o [1]
Gui_Monitor_App          0x805'ed53      0x5e  Code  Gb  Monitor.o [1]
HAL_CAN_ActivateNotification
                         0x806'98b1      0x2c  Code  Gb  stm32f4xx_hal_can.o [1]
HAL_CAN_ConfigFilter     0x806'95d9     0x124  Code  Gb  stm32f4xx_hal_can.o [1]
HAL_CAN_GetRxMessage     0x806'975d     0x154  Code  Gb  stm32f4xx_hal_can.o [1]
HAL_CAN_IRQHandler       0x806'98dd     0x230  Code  Gb  stm32f4xx_hal_can.o [1]
HAL_CAN_Init             0x806'946d     0x16c  Code  Gb  stm32f4xx_hal_can.o [1]
HAL_CAN_MspInit          0x806'4d0b      0x9c  Code  Gb  bsp_can_bus.o [1]
HAL_CAN_RxFifo0FullCallback
                         0x806'4da7       0xa  Code  Gb  bsp_can_bus.o [1]
HAL_CAN_RxFifo0MsgPendingCallback
                         0x806'4db1       0x2  Code  Gb  bsp_can_bus.o [1]
HAL_CAN_Start            0x806'96fd      0x5c  Code  Gb  stm32f4xx_hal_can.o [1]
HAL_DMA_Abort_IT         0x806'914b      0x26  Code  Gb  stm32f4xx_hal_dma.o [1]
HAL_DMA_DeInit           0x806'9049      0x82  Code  Gb  stm32f4xx_hal_dma.o [1]
HAL_DMA_IRQHandler       0x806'9171     0x20a  Code  Gb  stm32f4xx_hal_dma.o [1]
HAL_DMA_Init             0x806'8f69      0xe0  Code  Gb  stm32f4xx_hal_dma.o [1]
HAL_DMA_Start_IT         0x806'90cb      0x80  Code  Gb  stm32f4xx_hal_dma.o [1]
HAL_Delay                0x806'85fd       0x8  Code  Gb  stm32f4xx_hal_timebase_tim.o [1]
HAL_GPIO_EXTI_Callback   0x805'afe3       0xe  Code  Gb  bsp_spi_ads1256.o [1]
HAL_GPIO_EXTI_IRQHandler
                         0x805'aa85      0x1c  Code  Gb  stm32f4xx_hal_gpio.o [1]
HAL_GPIO_Init            0x805'a895     0x1dc  Code  Gb  stm32f4xx_hal_gpio.o [1]
HAL_GPIO_WritePin        0x805'aa71      0x14  Code  Gb  stm32f4xx_hal_gpio.o [1]
HAL_GetREVID             0x807'e71d       0x8  Code  Gb  stm32f4xx_hal.o [1]
HAL_GetTick              0x806'8609      0x42  Code  Gb  stm32f4xx_hal_timebase_tim.o [1]
HAL_GetTick::ticks      0x2001'cb48       0x4  Data  Lc  stm32f4xx_hal_timebase_tim.o [1]
HAL_I2C_GetState         0x806'38d1       0x6  Code  Gb  stm32f4xx_hal_i2c.o [1]
HAL_I2C_Init             0x806'30fd     0x1b8  Code  Gb  stm32f4xx_hal_i2c.o [1]
HAL_I2C_IsDeviceReady    0x806'372d     0x198  Code  Gb  stm32f4xx_hal_i2c.o [1]
HAL_I2C_Mem_Read         0x806'3435     0x2f6  Code  Gb  stm32f4xx_hal_i2c.o [1]
HAL_I2C_Mem_Write        0x806'32cd     0x168  Code  Gb  stm32f4xx_hal_i2c.o [1]
HAL_I2C_MspInit          0x805'fc33      0x92  Code  Gb  bsp_iic_bus.o [1]
HAL_Init                 0x807'e6f5      0x28  Code  Gb  stm32f4xx_hal.o [1]
HAL_InitTick             0x806'8605       0x4  Code  Gb  stm32f4xx_hal_timebase_tim.o [1]
HAL_MspInit              0x807'e72d       0x2  Code  Gb  stm32f4xx_hal_msp.o [1]
HAL_NVIC_DisableIRQ      0x805'b1b5       0xa  Code  Gb  stm32f4xx_hal_cortex.o [1]
HAL_NVIC_EnableIRQ       0x805'b1ab       0xa  Code  Gb  stm32f4xx_hal_cortex.o [1]
HAL_NVIC_SetPriority     0x805'b189      0x22  Code  Gb  stm32f4xx_hal_cortex.o [1]
HAL_NVIC_SetPriorityGrouping
                         0x805'b181       0x8  Code  Gb  stm32f4xx_hal_cortex.o [1]
HAL_RCC_ClockConfig      0x806'83f9     0x138  Code  Gb  stm32f4xx_hal_rcc.o [1]
HAL_RCC_GetHCLKFreq      0x806'8531       0x6  Code  Gb  stm32f4xx_hal_rcc.o [1]
HAL_RCC_GetPCLK1Freq     0x806'8537      0x16  Code  Gb  stm32f4xx_hal_rcc.o [1]
HAL_RCC_GetPCLK2Freq     0x806'854d      0x16  Code  Gb  stm32f4xx_hal_rcc.o [1]
HAL_RCC_OscConfig        0x807'c3a9     0x36c  Code  Wk  stm32f4xx_hal_rcc.o [1]
HAL_ResumeTick           0x806'4281      0x10  Code  Wk  stm32f4xx_hal.o [1]
HAL_SD_AbortCallback     0x807'069b       0x8  Code  Gb  bsp_sdio_sd.o [1]
HAL_SD_ConfigWideBusOperation
                         0x806'f8b1      0xac  Code  Gb  stm32f4xx_hal_sd.o [1]
HAL_SD_GetCardCSD        0x806'f66d     0x220  Code  Gb  stm32f4xx_hal_sd.o [1]
HAL_SD_GetCardInfo       0x806'f88d      0x24  Code  Gb  stm32f4xx_hal_sd.o [1]
HAL_SD_GetCardState      0x806'f95d      0x2a  Code  Gb  stm32f4xx_hal_sd.o [1]
HAL_SD_IRQHandler        0x806'f48f     0x1ce  Code  Gb  stm32f4xx_hal_sd.o [1]
HAL_SD_Init              0x806'f17d      0x3c  Code  Gb  stm32f4xx_hal_sd.o [1]
HAL_SD_InitCard          0x806'f1b9      0x86  Code  Gb  stm32f4xx_hal_sd.o [1]
HAL_SD_ReadBlocks_DMA    0x806'f23f     0x12a  Code  Gb  stm32f4xx_hal_sd.o [1]
HAL_SD_RxCpltCallback    0x807'06ab       0x8  Code  Gb  bsp_sdio_sd.o [1]
HAL_SD_TxCpltCallback    0x807'06a3       0x8  Code  Gb  bsp_sdio_sd.o [1]
HAL_SD_WriteBlocks_DMA   0x806'f369     0x126  Code  Gb  stm32f4xx_hal_sd.o [1]
HAL_SPI_DeInit           0x806'89f3      0x38  Code  Gb  stm32f4xx_hal_spi.o [1]
HAL_SPI_ErrorCallback    0x806'4a51       0x8  Code  Gb  bsp_spi_bus.o [1]
HAL_SPI_IRQHandler       0x806'8ba1     0x126  Code  Gb  stm32f4xx_hal_spi.o [1]
HAL_SPI_Init             0x806'8955      0x9e  Code  Gb  stm32f4xx_hal_spi.o [1]
HAL_SPI_MspInit          0x806'47ab     0x264  Code  Gb  bsp_spi_bus.o [1]
HAL_SPI_TransmitReceive_DMA
                         0x806'8a2b     0x176  Code  Gb  stm32f4xx_hal_spi.o [1]
HAL_SPI_TxRxCpltCallback
                         0x806'4a49       0x8  Code  Gb  bsp_spi_bus.o [1]
HAL_SRAM_Init            0x805'aadd      0x5c  Code  Gb  stm32f4xx_hal_sram.o [1]
HAL_SRAM_MspInit         0x805'94bf      0xbe  Code  Gb  bsp_lcd.o [1]
HAL_SuspendTick          0x808'00b1      0x10  Code  Wk  stm32f4xx_hal.o [1]
HAL_TIMEx_BreakCallback
                         0x806'c093       0x2  Code  Wk  stm32f4xx_hal_tim_ex.o [1]
HAL_TIMEx_CommutCallback
                         0x806'c097       0x2  Code  Wk  stm32f4xx_hal_tim_ex.o [1]
HAL_TIMEx_MasterConfigSynchronization
                         0x806'a5ad      0x4c  Code  Gb  stm32f4xx_hal_tim_ex.o [1]
HAL_TIM_Base_Init        0x806'9b0d      0x38  Code  Gb  stm32f4xx_hal_tim.o [1]
HAL_TIM_Base_MspInit     0x806'4ed3      0x6c  Code  Gb  bsp_rotation_sensor.o [1]
HAL_TIM_Base_Start       0x806'9b45      0x28  Code  Gb  stm32f4xx_hal_tim.o [1]
HAL_TIM_ConfigClockSource
                         0x806'a123      0xe8  Code  Gb  stm32f4xx_hal_tim.o [1]
HAL_TIM_IRQHandler       0x806'9eb1     0x176  Code  Gb  stm32f4xx_hal_tim.o [1]
HAL_TIM_PWM_ConfigChannel
                         0x806'a027      0xfc  Code  Gb  stm32f4xx_hal_tim.o [1]
HAL_TIM_PWM_DeInit       0x806'9ba5      0x44  Code  Gb  stm32f4xx_hal_tim.o [1]
HAL_TIM_PWM_Init         0x806'9b6d      0x38  Code  Gb  stm32f4xx_hal_tim.o [1]
HAL_TIM_PWM_PulseFinishedCallback
                         0x806'53df       0xe  Code  Gb  bsp_tim_pwm.o [1]
HAL_TIM_PWM_Start        0x806'9be9      0x54  Code  Gb  stm32f4xx_hal_tim.o [1]
HAL_TIM_PWM_Start_DMA    0x806'9c3d     0x17c  Code  Gb  stm32f4xx_hal_tim.o [1]
HAL_TIM_PWM_Stop_DMA     0x806'9db9      0xe2  Code  Gb  stm32f4xx_hal_tim.o [1]
HAL_TIM_PeriodElapsedCallback
                         0x806'4ec9       0xa  Code  Gb  bsp_rotation_sensor.o [1]
HAL_UART_Init            0x806'3d9d      0x76  Code  Gb  stm32f4xx_hal_uart.o [1]
HEAP$$Base              0x2001'd080             --   Gb  - Linker created -
HEAP$$Limit             0x2001'd480             --   Gb  - Linker created -
HardFaultHandler         0x807'e595      0xb0  Code  Gb  SEGGER_HardFaultHandler.o [1]
HardFaultRegs           0x2001'c32c      0x40  Data  Lc  SEGGER_HardFaultHandler.o [1]
HardFault_Handler        0x808'0a99            Code  Gb  HardFaultHandler.o [1]
I2C_EE_BufferRead        0x805'fcc5      0x24  Code  Gb  bsp_iic_bus.o [1]
I2C_EE_BufferWrite       0x805'fd3b     0x118  Code  Gb  bsp_iic_bus.o [1]
I2C_EE_PageWrite         0x805'fce9      0x52  Code  Gb  bsp_iic_bus.o [1]
I2C_IsAcknowledgeFailed
                         0x806'3d67      0x36  Code  Lc  stm32f4xx_hal_i2c.o [1]
I2C_Mode_Config          0x805'fbfd      0x36  Code  Lc  bsp_iic_bus.o [1]
I2C_RequestMemoryRead    0x806'39ad     0x150  Code  Lc  stm32f4xx_hal_i2c.o [1]
I2C_RequestMemoryWrite   0x806'38d7      0xd6  Code  Lc  stm32f4xx_hal_i2c.o [1]
I2C_WaitOnBTFFlagUntilTimeout
                         0x806'3c9d      0x58  Code  Lc  stm32f4xx_hal_i2c.o [1]
I2C_WaitOnFlagUntilTimeout
                         0x806'3b01      0x8a  Code  Lc  stm32f4xx_hal_i2c.o [1]
I2C_WaitOnMasterAddressFlagUntilTimeout
                         0x806'3b8b      0xba  Code  Lc  stm32f4xx_hal_i2c.o [1]
I2C_WaitOnRXNEFlagUntilTimeout
                         0x806'3cf5      0x72  Code  Lc  stm32f4xx_hal_i2c.o [1]
I2C_WaitOnTXEFlagUntilTimeout
                         0x806'3c45      0x58  Code  Lc  stm32f4xx_hal_i2c.o [1]
Imgbtn_MC_cb             0x806'0e9d      0x1c  Code  Lc  about_phone_ui.o [1]
Imgbtn_MC_cb             0x805'd809      0x1e  Code  Lc  adjust_pedal.o [1]
Imgbtn_MC_cb             0x806'171d      0x1c  Code  Lc  battery_box.o [1]
Imgbtn_MC_cb             0x806'1555      0x18  Code  Lc  cool_control.o [1]
Imgbtn_MC_cb             0x806'0d35      0x1c  Code  Lc  motor_control_ui.o [1]
Imgbtn_MC_cb             0x806'1b59      0x1e  Code  Lc  sensor_ui.o [1]
Imgbtn_MC_cb             0x806'1299      0x18  Code  Lc  set_up.o [1]
Imgbtn_MC_cb             0x806'13f9      0x18  Code  Lc  vehicle_status.o [1]
InitHardUart             0x805'ffb3     0x212  Code  Lc  bsp_usart_fifo.o [1]
IsKeyDownFunc            0x806'442b      0x6a  Code  Lc  bsp_key.o [1]
KeyPinActive             0x806'43d9      0x52  Code  Lc  bsp_key.o [1]
LCD_Clear                0x805'a797      0x2e  Code  Gb  bsp_lcd.o [1]
LCD_Display_Dir          0x805'a60d      0x7c  Code  Gb  bsp_lcd.o [1]
LCD_RD_DATA              0x805'943d      0x12  Code  Gb  bsp_lcd.o [1]
LCD_Scan_Dir             0x805'a689     0x10e  Code  Gb  bsp_lcd.o [1]
LCD_SetCursor            0x805'9463      0x5c  Code  Gb  bsp_lcd.o [1]
LCD_Set_Window           0x805'a7c5      0xc0  Code  Gb  bsp_lcd.o [1]
LCD_WR_DATA              0x805'942f       0xe  Code  Gb  bsp_lcd.o [1]
LCD_WR_REG               0x805'9421       0xe  Code  Gb  bsp_lcd.o [1]
LCD_WriteRAM_Prepare     0x805'9459       0xa  Code  Gb  bsp_lcd.o [1]
LCD_WriteReg             0x805'944f       0xa  Code  Gb  bsp_lcd.o [1]
LV_LAYOUT_FLEX          0x2001'cc30       0x2  Data  Gb  lv_flex.o [1]
LV_LAYOUT_GRID          0x2001'cc3c       0x2  Data  Gb  lv_grid.o [1]
LV_STYLE_FLEX_CROSS_PLACE
                        0x2001'cc36       0x2  Data  Gb  lv_flex.o [1]
LV_STYLE_FLEX_FLOW      0x2001'cc32       0x2  Data  Gb  lv_flex.o [1]
LV_STYLE_FLEX_GROW      0x2001'cc3a       0x2  Data  Gb  lv_flex.o [1]
LV_STYLE_FLEX_MAIN_PLACE
                        0x2001'cc34       0x2  Data  Gb  lv_flex.o [1]
LV_STYLE_FLEX_TRACK_PLACE
                        0x2001'cc38       0x2  Data  Gb  lv_flex.o [1]
LV_STYLE_GRID_CELL_COLUMN_POS
                        0x2001'cc46       0x2  Data  Gb  lv_grid.o [1]
LV_STYLE_GRID_CELL_COLUMN_SPAN
                        0x2001'cc48       0x2  Data  Gb  lv_grid.o [1]
LV_STYLE_GRID_CELL_ROW_POS
                        0x2001'cc4c       0x2  Data  Gb  lv_grid.o [1]
LV_STYLE_GRID_CELL_ROW_SPAN
                        0x2001'cc4e       0x2  Data  Gb  lv_grid.o [1]
LV_STYLE_GRID_CELL_X_ALIGN
                        0x2001'cc4a       0x2  Data  Gb  lv_grid.o [1]
LV_STYLE_GRID_CELL_Y_ALIGN
                        0x2001'cc50       0x2  Data  Gb  lv_grid.o [1]
LV_STYLE_GRID_COLUMN_ALIGN
                        0x2001'cc40       0x2  Data  Gb  lv_grid.o [1]
LV_STYLE_GRID_COLUMN_DSC_ARRAY
                        0x2001'cc3e       0x2  Data  Gb  lv_grid.o [1]
LV_STYLE_GRID_ROW_ALIGN
                        0x2001'cc44       0x2  Data  Gb  lv_grid.o [1]
LV_STYLE_GRID_ROW_DSC_ARRAY
                        0x2001'cc42       0x2  Data  Gb  lv_grid.o [1]
LfnOfs                   0x808'0b2c      0x10  Data  Lc  ff.o [1]
MX_DMA_Init              0x806'53ed      0xc2  Code  Gb  bsp_tim_pwm.o [1]
MemManage_Handler        0x808'0da7       0x2  Code  Gb  stm32f4xx_it.o [1]
Monitor_Main_Style       0x805'edb1      0x84  Code  Lc  Monitor.o [1]
Monitor_Main_Style::style_speed_meter
                        0x2001'c954       0xc  Data  Lc  Monitor.o [1]
Monitor_Main_label       0x805'f051      0x28  Code  Lc  Monitor.o [1]
Monitor_Speed_Meter     0x2001'cb14       0x4  Data  Lc  Monitor.o [1]
Motor_Control_In_Ui      0x806'0d71       0x2  Code  Lc  motor_control_ui.o [1]
Motor_Control_Ui         0x806'0c7b      0xba  Code  Gb  motor_control_ui.o [1]
Motor_Control_Ui::style_def
                        0x2001'c984       0xc  Data  Lc  motor_control_ui.o [1]
Motor_Control_Ui::style_pr
                        0x2001'c990       0xc  Data  Lc  motor_control_ui.o [1]
Motor_Control_Ui::tr    0x2001'c788      0x14  Data  Lc  motor_control_ui.o [1]
Motor_Control_Ui::tr_prop
                        0x2000'05f8       0x8  Data  Lc  motor_control_ui.o [1]
NMI_Handler              0x808'0da5       0x2  Code  Gb  stm32f4xx_it.o [1]
NVIC_DisableIRQ          0x805'b10d      0x14  Code  Lc  stm32f4xx_hal_cortex.o [1]
NVIC_EnableIRQ           0x805'b0f9      0x14  Code  Lc  stm32f4xx_hal_cortex.o [1]
NVIC_EncodePriority      0x805'b145      0x3c  Code  Lc  stm32f4xx_hal_cortex.o [1]
NVIC_GetPriorityGrouping
                         0x805'b0ef       0xa  Code  Lc  stm32f4xx_hal_cortex.o [1]
NVIC_SetPriority         0x805'b121      0x24  Code  Lc  stm32f4xx_hal_cortex.o [1]
NVIC_SetPriorityGrouping
                         0x805'b0d5      0x1a  Code  Lc  stm32f4xx_hal_cortex.o [1]
NumberConuts            0x2001'ca08       0x8  Data  Lc  adjust_pedal.o [1]
OSCPUUsage              0x2001'cb50       0x4  Data  Gb  system_task_create.o [1]
OSIdleCtr               0x2001'cb4c       0x4  Data  Gb  system_task_create.o [1]
OSIdleCtrMax            0x2001'cb54       0x4  Data  Gb  system_task_create.o [1]
OSIdleCtrRun            0x2001'cb58       0x4  Data  Gb  system_task_create.o [1]
OSStatInit               0x806'04cd      0x34  Code  Lc  system_task_create.o [1]
OSStatRdy               0x2001'cc78       0x1  Data  Gb  system_task_create.o [1]
PendSV_Handler           0x807'df2d            Code  Gb  tx_thread_schedule.o [1]
Pos_Label_Cb             0x805'dfcd      0xc6  Code  Lc  adjust_pedal.o [1]
Radio_Btn_Cb             0x805'e1fd     0x190  Code  Lc  adjust_pedal.o [1]
ReadStatus              0x2001'cb1c       0x4  Data  Lc  sd_diskio_dma.o [1]
Realtime_MotorPos_Cb     0x805'e565     0x1b2  Code  Lc  adjust_pedal.o [1]
Realtime_MotorPos_Cb::Postition
                        0x2000'06a8       0x2  Data  Lc  adjust_pedal.o [1]
Realtime_Motorpos_timer
                        0x2001'ca70       0x4  Data  Lc  adjust_pedal.o [1]
Realtime_Sensor_timer   0x2001'cb24       0x4  Data  Lc  sensor_ui.o [1]
Record_Btn_Cb            0x805'e3a9      0xbc  Code  Lc  adjust_pedal.o [1]
Region$$Table$$Base      0x807'ff64             --   Gb  - Linker created -
Region$$Table$$Limit     0x807'ff8c             --   Gb  - Linker created -
Reverse_Btn_Cb           0x805'e17d      0x80  Code  Lc  adjust_pedal.o [1]
SDIO_ConfigData          0x806'ff79      0x2c  Code  Gb  stm32f4xx_ll_sdmmc.o [1]
SDIO_GetCommandResponse
                         0x806'ff5f       0x6  Code  Gb  stm32f4xx_ll_sdmmc.o [1]
SDIO_GetPowerState       0x806'ff2f       0x8  Code  Gb  stm32f4xx_ll_sdmmc.o [1]
SDIO_GetResponse         0x806'ff65      0x14  Code  Gb  stm32f4xx_ll_sdmmc.o [1]
SDIO_IRQHandler          0x807'06b3       0xa  Code  Gb  bsp_sdio_sd.o [1]
SDIO_Init                0x806'fee9      0x2e  Code  Gb  stm32f4xx_ll_sdmmc.o [1]
SDIO_PowerState_ON       0x806'ff27       0x8  Code  Gb  stm32f4xx_ll_sdmmc.o [1]
SDIO_ReadFIFO            0x806'ff17       0x6  Code  Gb  stm32f4xx_ll_sdmmc.o [1]
SDIO_SendCommand         0x806'ff37      0x28  Code  Gb  stm32f4xx_ll_sdmmc.o [1]
SDIO_WriteFIFO           0x806'ff1d       0xa  Code  Gb  stm32f4xx_ll_sdmmc.o [1]
SDMMC_CmdAppCommand      0x807'0175      0x34  Code  Gb  stm32f4xx_ll_sdmmc.o [1]
SDMMC_CmdAppOperCommand
                         0x807'01a9      0x34  Code  Gb  stm32f4xx_ll_sdmmc.o [1]
SDMMC_CmdBlockLength     0x806'ffa5      0x34  Code  Gb  stm32f4xx_ll_sdmmc.o [1]
SDMMC_CmdBusWidth        0x807'01dd      0x34  Code  Gb  stm32f4xx_ll_sdmmc.o [1]
SDMMC_CmdGoIdleState     0x807'0113      0x30  Code  Gb  stm32f4xx_ll_sdmmc.o [1]
SDMMC_CmdOperCond        0x807'0143      0x32  Code  Gb  stm32f4xx_ll_sdmmc.o [1]
SDMMC_CmdReadMultiBlock
                         0x807'000d      0x34  Code  Gb  stm32f4xx_ll_sdmmc.o [1]
SDMMC_CmdReadSingleBlock
                         0x806'ffd9      0x34  Code  Gb  stm32f4xx_ll_sdmmc.o [1]
SDMMC_CmdSelDesel        0x807'00df      0x34  Code  Gb  stm32f4xx_ll_sdmmc.o [1]
SDMMC_CmdSendCID         0x807'0247      0x30  Code  Gb  stm32f4xx_ll_sdmmc.o [1]
SDMMC_CmdSendCSD         0x807'0277      0x2e  Code  Gb  stm32f4xx_ll_sdmmc.o [1]
SDMMC_CmdSendSCR         0x807'0211      0x36  Code  Gb  stm32f4xx_ll_sdmmc.o [1]
SDMMC_CmdSendStatus      0x807'02db      0x34  Code  Gb  stm32f4xx_ll_sdmmc.o [1]
SDMMC_CmdSetRelAdd       0x807'02a5      0x36  Code  Gb  stm32f4xx_ll_sdmmc.o [1]
SDMMC_CmdStopTransfer    0x807'00a9      0x36  Code  Gb  stm32f4xx_ll_sdmmc.o [1]
SDMMC_CmdWriteMultiBlock
                         0x807'0075      0x34  Code  Gb  stm32f4xx_ll_sdmmc.o [1]
SDMMC_CmdWriteSingleBlock
                         0x807'0041      0x34  Code  Gb  stm32f4xx_ll_sdmmc.o [1]
SDMMC_GetCmdError        0x807'030f      0x32  Code  Lc  stm32f4xx_ll_sdmmc.o [1]
SDMMC_GetCmdResp1        0x807'0341     0x126  Code  Lc  stm32f4xx_ll_sdmmc.o [1]
SDMMC_GetCmdResp2        0x807'0467      0x50  Code  Lc  stm32f4xx_ll_sdmmc.o [1]
SDMMC_GetCmdResp3        0x807'04b7      0x42  Code  Lc  stm32f4xx_ll_sdmmc.o [1]
SDMMC_GetCmdResp6        0x807'04f9      0x94  Code  Lc  stm32f4xx_ll_sdmmc.o [1]
SDMMC_GetCmdResp7        0x807'058d      0x46  Code  Lc  stm32f4xx_ll_sdmmc.o [1]
SD_CheckStatus           0x807'0871      0x1c  Code  Lc  sd_diskio_dma.o [1]
SD_DMAError              0x806'f9dd      0x5e  Code  Lc  stm32f4xx_hal_sd.o [1]
SD_DMAReceiveCplt        0x806'f999      0x44  Code  Lc  stm32f4xx_hal_sd.o [1]
SD_DMARxAbort            0x806'fa91      0x54  Code  Lc  stm32f4xx_hal_sd.o [1]
SD_DMATransmitCplt       0x806'f989      0x10  Code  Lc  stm32f4xx_hal_sd.o [1]
SD_DMATxAbort            0x806'fa3d      0x54  Code  Lc  stm32f4xx_hal_sd.o [1]
SD_Driver                0x808'0a48      0x14  Data  Gb  sd_diskio_dma.o [1]
SD_FindSCR               0x806'fd7f     0x11c  Code  Lc  stm32f4xx_hal_sd.o [1]
SD_InitCard              0x806'fae5      0xea  Code  Lc  stm32f4xx_hal_sd.o [1]
SD_PowerON               0x806'fbcf      0xd2  Code  Lc  stm32f4xx_hal_sd.o [1]
SD_Read_IT               0x806'fe9b      0x26  Code  Lc  stm32f4xx_hal_sd.o [1]
SD_SendStatus            0x806'fca1      0x2e  Code  Lc  stm32f4xx_hal_sd.o [1]
SD_WideBus_Disable       0x806'fd27      0x58  Code  Lc  stm32f4xx_hal_sd.o [1]
SD_WideBus_Enable        0x806'fccf      0x58  Code  Lc  stm32f4xx_hal_sd.o [1]
SD_Write_IT              0x806'fec1      0x26  Code  Lc  stm32f4xx_hal_sd.o [1]
SD_initialize            0x807'088d      0x1e  Code  Gb  sd_diskio_dma.o [1]
SD_ioctl                 0x807'097d      0x5e  Code  Gb  sd_diskio_dma.o [1]
SD_read                  0x807'08b5      0x64  Code  Gb  sd_diskio_dma.o [1]
SD_status                0x807'08ab       0xa  Code  Gb  sd_diskio_dma.o [1]
SD_write                 0x807'0919      0x64  Code  Gb  sd_diskio_dma.o [1]
SPI1_IRQHandler          0x806'4a81       0xa  Code  Gb  bsp_spi_bus.o [1]
SPI_DMAAbortOnError      0x806'8e45      0x12  Code  Lc  stm32f4xx_hal_spi.o [1]
SPI_DMAError             0x806'8e21      0x24  Code  Lc  stm32f4xx_hal_spi.o [1]
SPI_DMAHalfReceiveCplt   0x806'8e09       0xa  Code  Lc  stm32f4xx_hal_spi.o [1]
SPI_DMAHalfTransmitReceiveCplt
                         0x806'8e15       0xa  Code  Lc  stm32f4xx_hal_spi.o [1]
SPI_DMAReceiveCplt       0x806'8cc9      0x9c  Code  Lc  stm32f4xx_hal_spi.o [1]
SPI_DMATransmitReceiveCplt
                         0x806'8d65      0xa4  Code  Lc  stm32f4xx_hal_spi.o [1]
SPI_EndRxTransaction     0x806'8ef9      0x4a  Code  Lc  stm32f4xx_hal_spi.o [1]
SPI_EndRxTxTransaction   0x806'8f43      0x26  Code  Lc  stm32f4xx_hal_spi.o [1]
SPI_WaitFlagStateUntilTimeout
                         0x806'8e59      0xa0  Code  Lc  stm32f4xx_hal_spi.o [1]
SRAM_Handler            0x2001'c1bc      0x50  Data  Gb  bsp_sram.o [1]
SVC_Handler              0x808'0dad       0x2  Code  Gb  stm32f4xx_it.o [1]
Sensor_In_Ui             0x806'1ca5     0x450  Code  Lc  sensor_ui.o [1]
Sensor_Ui                0x806'1a67      0xc6  Code  Gb  sensor_ui.o [1]
Sensor_Ui::style_def    0x2001'c9a8       0xc  Data  Lc  sensor_ui.o [1]
Sensor_Ui::style_pr     0x2001'c9b4       0xc  Data  Lc  sensor_ui.o [1]
Sensor_Ui::tr           0x2001'c79c      0x14  Data  Lc  sensor_ui.o [1]
Sensor_Ui::tr_prop      0x2000'0608       0x8  Data  Lc  sensor_ui.o [1]
Set_Up_Ui                0x806'11df      0xba  Code  Gb  set_up.o [1]
Set_Up_Ui::style_def    0x2001'c9cc       0xc  Data  Lc  set_up.o [1]
Set_Up_Ui::style_pr     0x2001'c9d8       0xc  Data  Lc  set_up.o [1]
Set_Up_Ui::tr           0x2001'c7b0      0x14  Data  Lc  set_up.o [1]
Set_Up_Ui::tr_prop      0x2000'0610       0x8  Data  Lc  set_up.o [1]
Shild_Sw_Cb              0x805'e095      0x68  Code  Lc  adjust_pedal.o [1]
Stat                    0x2000'06b2       0x1  Data  Lc  sd_diskio_dma.o [1]
Stm32_Clock_Init         0x807'e645      0xb0  Code  Gb  sys.o [1]
SysTick_Handler          0x807'f2e7            Code  Gb  tx_initialize_low_level.o [1]
SysTick_ISR              0x806'430f      0xb2  Code  Gb  ticktim.o [1]
SysTick_ISR::s_count10ms
                        0x2001'cc7a       0x1  Data  Lc  ticktim.o [1]
SysTick_ISR::s_count50ms
                        0x2001'cc7b       0x1  Data  Lc  ticktim.o [1]
SystemCoreClock         0x2000'0618       0x4  Data  Gb  system_stm32f4xx.o [1]
SystemInit               0x807'f385      0x40  Code  Gb  system_stm32f4xx.o [1]
TFTSRAM_Handler         0x2001'c16c      0x50  Data  Gb  bsp_lcd.o [1]
TIM2_IRQHandler          0x806'4ea7      0x22  Code  Gb  bsp_rotation_sensor.o [1]
TIM3_IRQHandler          0x806'54bb       0xc  Code  Gb  bsp_tim_pwm.o [1]
TIM_Base_SetConfig       0x806'a2a5      0xba  Code  Gb  stm32f4xx_hal_tim.o [1]
TIM_CCxChannelCmd        0x806'a585      0x26  Code  Gb  stm32f4xx_hal_tim.o [1]
TIM_DMADelayPulseCplt    0x806'a21d      0x44  Code  Gb  stm32f4xx_hal_tim.o [1]
TIM_DMADelayPulseHalfCplt
                         0x806'a261      0x44  Code  Gb  stm32f4xx_hal_tim.o [1]
TIM_DMAError             0x806'a20d      0x10  Code  Gb  stm32f4xx_hal_tim.o [1]
TIM_ETR_SetConfig        0x806'a56f      0x16  Code  Gb  stm32f4xx_hal_tim.o [1]
TIM_ITRx_SetConfig       0x806'a55f      0x10  Code  Lc  stm32f4xx_hal_tim.o [1]
TIM_OC1_SetConfig        0x806'a35f      0x64  Code  Lc  stm32f4xx_hal_tim.o [1]
TIM_OC2_SetConfig        0x806'a3c3      0x6e  Code  Gb  stm32f4xx_hal_tim.o [1]
TIM_OC3_SetConfig        0x806'a431      0x6c  Code  Lc  stm32f4xx_hal_tim.o [1]
TIM_OC4_SetConfig        0x806'a49d      0x4c  Code  Lc  stm32f4xx_hal_tim.o [1]
TIM_TI1_ConfigInputStage
                         0x806'a515      0x24  Code  Lc  stm32f4xx_hal_tim.o [1]
TIM_TI2_ConfigInputStage
                         0x806'a539      0x26  Code  Lc  stm32f4xx_hal_tim.o [1]
TP_Init                  0x806'a6b3      0x4a  Code  Gb  bsp_touch.o [1]
TP_Read_AD               0x806'a639      0x7a  Code  Gb  bsp_touch.o [1]
TP_Read_XOY              0x806'a6fd      0xa0  Code  Gb  bsp_touch.o [1]
TP_Read_XY               0x806'a79d      0x24  Code  Gb  bsp_touch.o [1]
TP_Read_XY2              0x806'a7c1      0xc6  Code  Gb  bsp_touch.o [1]
TP_Scan                  0x806'a887      0xda  Code  Gb  bsp_touch.o [1]
TP_Write_Byte            0x806'a5f9      0x40  Code  Gb  bsp_touch.o [1]
TimerCallback            0x806'0985       0x2  Code  Gb  system_task_create.o [1]
UART_SetConfig           0x806'3e13     0x302  Code  Lc  stm32f4xx_hal_uart.o [1]
USART1_IRQHandler        0x806'031b       0xa  Code  Gb  bsp_usart_fifo.o [1]
USART2_IRQHandler        0x806'0325       0xa  Code  Gb  bsp_usart_fifo.o [1]
USART3_IRQHandler        0x806'032f       0xa  Code  Gb  bsp_usart_fifo.o [1]
UartGetChar              0x806'0457      0x48  Code  Lc  bsp_usart_fifo.o [1]
UartIRQ                  0x806'022f      0xec  Code  Lc  bsp_usart_fifo.o [1]
UartSend                 0x806'0391      0x8e  Code  Lc  bsp_usart_fifo.o [1]
UartVarInit              0x805'fee1      0xd2  Code  Lc  bsp_usart_fifo.o [1]
UsageFault_Handler       0x808'0dab       0x2  Code  Gb  stm32f4xx_it.o [1]
Vehicle_Status_Ui        0x806'133b      0xbc  Code  Gb  vehicle_status.o [1]
Vehicle_Status_Ui::style_def
                        0x2001'c9f0       0xc  Data  Lc  vehicle_status.o [1]
Vehicle_Status_Ui::style_pr
                        0x2001'c9fc       0xc  Data  Lc  vehicle_status.o [1]
Vehicle_Status_Ui::tr   0x2001'c7c4      0x14  Data  Lc  vehicle_status.o [1]
Vehicle_Status_Ui::tr_prop
                        0x2000'0620       0x8  Data  Lc  vehicle_status.o [1]
WriteStatus             0x2001'cb18       0x4  Data  Lc  sd_diskio_dma.o [1]
Zero_Btn_Cb              0x805'e465       0xa  Code  Lc  adjust_pedal.o [1]
_Continue               0x2001'cb20       0x4  Data  Lc  SEGGER_HardFaultHandler.o [1]
_LitobFullNoMb           0x804'd875     0x10a  Code  Lc  xprintffull_nomb.o [2]
_Locale_lconv           0x2000'0628      0x38  Data  Lc  xlocale_c.o [2]
_PrintfFullNoMb          0x804'cab9     0xd98  Code  Gb  xprintffull_nomb.o [2]
_Prout                   0x808'09c1      0x16  Code  Gb  xprout.o [2]
_PutcharFullNoMb         0x804'd9e5      0x20  Code  Lc  xprintffull_nomb.o [2]
_PutcharsFullNoMb        0x804'da05      0x2e  Code  Lc  xprintffull_nomb.o [2]
_SNProut                 0x803'3be3      0x1a  Code  Gb  xsnprout.o [2]
__aeabi_cdcmpeq          0x804'decd            Code  Gb  DblCmpEq.o [3]
__aeabi_cdcmple          0x804'deed            Code  Gb  DblCmpLe.o [3]
__aeabi_cdrcmple         0x804'df1d            Code  Gb  DblCmpGe.o [3]
__aeabi_d2f              0x805'fe6d            Code  Gb  DblToFlt.o [3]
__aeabi_d2iz             0x804'df4d            Code  Gb  DblToS32.o [3]
__aeabi_d2uiz            0x804'e235            Code  Gb  DblToU32.o [3]
__aeabi_dadd             0x804'e279            Code  Gb  DblAdd.o [3]
__aeabi_ddiv             0x804'e3f5            Code  Gb  DblDiv.o [3]
__aeabi_dmul             0x804'e091            Code  Gb  DblMul.o [3]
__aeabi_dsub             0x804'dfad            Code  Gb  DblSub.o [3]
__aeabi_f2d              0x805'f291            Code  Gb  FltToDbl.o [3]
__aeabi_i2d              0x804'df89            Code  Gb  S32ToDbl.o [3]
__aeabi_ldiv0            0x804'fd69            Code  Gb  I64DivZer.o [4]
__aeabi_memclr4          0x804'b931            Code  Gb  ABImemclr4.o [4]
__aeabi_memcpy           0x804'31bd            Code  Gb  ABImemcpy.o [4]
__aeabi_memcpy4          0x804'31dd            Code  Gb  ABImemcpy.o [4]
__aeabi_memcpy8          0x804'31dd            Code  Gb  ABImemcpy.o [4]
__aeabi_memset           0x804'2f99            Code  Gb  ABImemset.o [4]
__aeabi_ui2d             0x804'e25d            Code  Gb  U32ToDbl.o [3]
__aeabi_uldivmod         0x804'dc9d            Code  Gb  I64DivMod.o [4]
__cmain                  0x808'00c1            Code  Gb  cmain.o [4]
__data_GetMemChunk       0x804'fd71      0x2c  Code  Gb  xgetmemchunk.o [2]
__data_GetMemChunk::start
                        0x2001'cc28       0x4  Data  Lc  xgetmemchunk.o [2]
__exit                   0x804'fd9d      0x14  Code  Gb  exit.o [5]
__g_font_buf            0x2001'b2c4     0x17c  Data  Lc  myFont20.o [1]
__g_xbf_hd              0x2000'0600       0x8  Data  Lc  myFont20.o [1]
__iar_Fail_s             0x804'e655      0x1c  Code  Gb  xfail_s.o [2]
__iar_Memchr             0x804'e695            Code  Gb  memchr.o [4]
__iar_Memset             0x804'2f99            Code  Gb  ABImemset.o [4]
__iar_Memset4_word       0x804'dc69            Code  Gb  ABImemset48.o [4]
__iar_Memset8_word       0x804'dc69            Code  Gb  ABImemset48.o [4]
__iar_Memset_word        0x804'2fa1            Code  Gb  ABImemset.o [4]
__iar_Stdout            0x2000'0660      0x48  Data  Gb  xfiles.o [2]
__iar_Strchr             0x804'e63d            Code  Gb  strchr.o [4]
__iar_dadd               0x804'dfbd            Code  Gb  DblSub.o [3]
__iar_data_init3         0x807'fdd5      0x28  Code  Gb  data_init.o [4]
__iar_dlfree             0x804'f831     0x52c  Code  Gb  dlmalloc.o [2]
__iar_dlmalloc           0x804'e929     0xf08  Code  Gb  dlmalloc.o [2]
__iar_dsub               0x804'e289            Code  Gb  DblAdd.o [3]
__iar_dsubStart          0x804'e29b            Code  Gb  DblAdd.o [3]
__iar_frexp              0x804'e6f9            Code  Gb  frexp.o [3]
__iar_frexpl             0x804'e6f9            Code  Gb  frexp.o [3]
__iar_init_vfp           0x807'ff41            Code  Gb  fpinit_M.o [3]
__iar_ldexp64            0x804'e75d            Code  Gb  ldexp.o [3]
__iar_lz77_init_single3
                         0x807'f229      0x78  Code  Gb  lz77_init_single.o [4]
__iar_program_start      0x808'07f5            Code  Gb  cstartup_M.o [4]
__iar_scalbln64          0x804'e75d            Code  Gb  ldexp.o [3]
__iar_scalbn64           0x804'e75d            Code  Gb  ldexp.o [3]
__iar_softfp___iar_frexp64
                         0x804'e6ed            Code  Gb  frexp.o [3]
__iar_softfp_frexp       0x804'e6ed            Code  Gb  frexp.o [3]
__iar_softfp_frexpl      0x804'e6ed            Code  Gb  frexp.o [3]
__iar_zero_init3         0x803'38a7      0x3a  Code  Gb  zero_init3.o [4]
__low_level_init         0x808'00df       0x4  Code  Gb  low_level_init.o [2]
__tx_PendSVHandler       0x807'df2d            Code  Gb  tx_thread_schedule.o [1]
__tx_SysTickHandler      0x807'f2e7            Code  Gb  tx_initialize_low_level.o [1]
__tx_free_memory_start  0x2001'c818            Data  Gb  tx_initialize_low_level.o [1]
__user_font_get_bitmap   0x807'dd6f      0x52  Code  Lc  myFont20.o [1]
__user_font_get_glyph_dsc
                         0x807'ddc1      0x5e  Code  Lc  myFont20.o [1]
__user_font_getdata      0x807'dd59      0x16  Code  Lc  myFont20.o [1]
__vector_table           0x800'0000            Data  Gb  startup_stm32f407xx.o [1]
_atoi                    0x804'b9dd      0x28  Code  Lc  lv_printf.o [1]
_call_main               0x808'00cd            Code  Gb  cmain.o [4]
_etoa                    0x804'c021     0x386  Code  Lc  lv_printf.o [1]
_exit                    0x808'00e9            Code  Gb  cexit.o [4]
_ftoa                    0x804'bcd9     0x340  Code  Lc  lv_printf.o [1]
_ftoa::pow10             0x807'f528      0x50  Data  Lc  lv_printf.o [1]
_gm_                    0x2001'b0ec     0x1d8  Data  Lc  dlmalloc.o [2]
_is_digit                0x804'b9cb      0x12  Code  Lc  lv_printf.o [1]
_lv_anim_core_init       0x803'c805      0x2c  Code  Gb  lv_anim.o [1]
_lv_anim_ll             0x2001'c924       0xc  Data  Gb  lv_gc.o [1]
_lv_anim_tmr            0x2001'ca8c       0x4  Data  Lc  lv_anim.o [1]
_lv_area_intersect       0x804'0cb9      0x86  Code  Gb  lv_area.o [1]
_lv_area_is_in           0x804'0f5f      0xde  Code  Gb  lv_area.o [1]
_lv_area_is_on           0x804'0f27      0x38  Code  Gb  lv_area.o [1]
_lv_area_is_out          0x804'103d      0xd4  Code  Gb  lv_area.o [1]
_lv_area_is_point_on     0x804'0da5     0x182  Code  Gb  lv_area.o [1]
_lv_area_join            0x804'0d3f      0x66  Code  Gb  lv_area.o [1]
_lv_bpp1_opa_table       0x804'0186       0x2  Data  Gb  lv_draw_sw_letter.o [1]
_lv_bpp2_opa_table       0x808'0ed8       0x4  Data  Gb  lv_draw_sw_letter.o [1]
_lv_bpp4_opa_table       0x808'0b3c      0x10  Data  Gb  lv_draw_sw_letter.o [1]
_lv_bpp8_opa_table       0x807'da6c     0x100  Data  Gb  lv_draw_sw_letter.o [1]
_lv_circle_cache        0x2001'be18      0x70  Data  Gb  lv_gc.o [1]
_lv_disp_ll             0x2001'c900       0xc  Data  Gb  lv_gc.o [1]
_lv_disp_refr_timer      0x803'ef1d     0x2ac  Code  Gb  lv_refr.o [1]
_lv_draw_mask_cleanup    0x804'1567      0x42  Code  Gb  lv_draw_mask.o [1]
_lv_draw_mask_list      0x2001'bc98      0x80  Data  Gb  lv_gc.o [1]
_lv_event_mark_deleted   0x803'b9c7      0x22  Code  Gb  lv_event.o [1]
_lv_font_clean_up_fmt_txt
                         0x804'48a1       0x2  Code  Gb  lv_font_fmt_txt.o [1]
_lv_fs_init              0x803'e285       0xe  Code  Gb  lv_fs.o [1]
_lv_fsdrv_ll            0x2001'c918       0xc  Data  Gb  lv_gc.o [1]
_lv_grad_cache_mem      0x2001'cab4       0x4  Data  Gb  lv_gc.o [1]
_lv_group_init           0x803'e701       0xe  Code  Gb  lv_group.o [1]
_lv_group_ll            0x2001'c930       0xc  Data  Gb  lv_gc.o [1]
_lv_img_buf_get_transformed_area
                         0x804'8165     0x21e  Code  Gb  lv_img_buf.o [1]
_lv_img_cache_open       0x804'8101      0x5a  Code  Gb  lv_img_cache.o [1]
_lv_img_cache_single    0x2001'c4fc      0x2c  Data  Gb  lv_gc.o [1]
_lv_img_decoder_init     0x804'01c7      0x46  Code  Gb  lv_img_decoder.o [1]
_lv_img_decoder_ll      0x2001'c93c       0xc  Data  Gb  lv_gc.o [1]
_lv_indev_ll            0x2001'c90c       0xc  Data  Gb  lv_gc.o [1]
_lv_indev_read           0x803'cd75      0x50  Code  Gb  lv_hal_indev.o [1]
_lv_indev_scroll_handler
                         0x804'3939     0x14a  Code  Gb  lv_indev_scroll.o [1]
_lv_indev_scroll_throw_handler
                         0x804'3a83     0x280  Code  Gb  lv_indev_scroll.o [1]
_lv_inv_area             0x803'edef     0x126  Code  Gb  lv_refr.o [1]
_lv_layout_list         0x2001'caa8       0x4  Data  Gb  lv_gc.o [1]
_lv_ll_clear             0x803'7567      0x30  Code  Gb  lv_ll.o [1]
_lv_ll_get_head          0x803'7597       0xc  Code  Gb  lv_ll.o [1]
_lv_ll_get_len           0x803'75c1      0x20  Code  Gb  lv_ll.o [1]
_lv_ll_get_next          0x803'75af       0xa  Code  Gb  lv_ll.o [1]
_lv_ll_get_prev          0x803'75b9       0x8  Code  Gb  lv_ll.o [1]
_lv_ll_get_tail          0x803'75a3       0xc  Code  Gb  lv_ll.o [1]
_lv_ll_init              0x803'7441      0x12  Code  Gb  lv_ll.o [1]
_lv_ll_ins_head          0x803'7453      0x44  Code  Gb  lv_ll.o [1]
_lv_ll_ins_tail          0x803'7497      0x44  Code  Gb  lv_ll.o [1]
_lv_ll_is_empty          0x803'75e1      0x1c  Code  Gb  lv_ll.o [1]
_lv_ll_remove            0x803'74db      0x8c  Code  Gb  lv_ll.o [1]
_lv_obj_destruct         0x803'e1a9      0x2c  Code  Gb  lv_obj_class.o [1]
_lv_obj_get_ext_draw_size
                         0x803'c7df      0x12  Code  Gb  lv_obj_draw.o [1]
_lv_obj_get_layer_type   0x803'c7f1      0x14  Code  Gb  lv_obj_draw.o [1]
_lv_obj_scroll_by_raw    0x803'809d      0x60  Code  Gb  lv_obj_scroll.o [1]
_lv_obj_style_apply_color_filter
                         0x803'5495      0x46  Code  Gb  lv_obj_style.o [1]
_lv_obj_style_create_transition
                         0x803'5301     0x18a  Code  Gb  lv_obj_style.o [1]
_lv_obj_style_init       0x803'4d39       0xe  Code  Gb  lv_obj_style.o [1]
_lv_obj_style_state_compare
                         0x803'54db     0x2da  Code  Gb  lv_obj_style.o [1]
_lv_obj_style_trans_ll  0x2001'c948       0xc  Data  Gb  lv_gc.o [1]
_lv_refr_get_disp_refreshing
                         0x803'ef15       0x8  Code  Gb  lv_refr.o [1]
_lv_refr_init            0x803'ecd5      0x14  Code  Gb  lv_refr.o [1]
_lv_style_builtin_prop_flag_lookup_table
                         0x807'f314      0x70  Data  Gb  lv_style.o [1]
_lv_style_custom_prop_flag_lookup_table
                        0x2001'cab8       0x4  Data  Gb  lv_gc.o [1]
_lv_style_custom_prop_flag_lookup_table_size
                        0x2001'caf4       0x4  Data  Gb  lv_style.o [1]
_lv_style_get_prop_group
                         0x803'4331      0x12  Code  Gb  lv_style.o [1]
_lv_style_prop_lookup_flags
                         0x803'4343      0x50  Code  Gb  lv_style.o [1]
_lv_theme_default_styles
                        0x2001'cab0       0x4  Data  Gb  lv_gc.o [1]
_lv_timer_act           0x2001'caac       0x4  Data  Gb  lv_gc.o [1]
_lv_timer_core_init      0x803'7629      0x12  Code  Gb  lv_timer.o [1]
_lv_timer_ll            0x2001'c8f4       0xc  Data  Gb  lv_gc.o [1]
_lv_txt_cut              0x804'9013      0x46  Code  Gb  lv_txt.o [1]
_lv_txt_encoded_get_byte_id
                        0x2000'05e4       0x4  Data  Gb  lv_txt.o [1]
_lv_txt_encoded_get_char_id
                        0x2000'05e8       0x4  Data  Gb  lv_txt.o [1]
_lv_txt_encoded_letter_next_2
                         0x804'909b      0x38  Code  Gb  lv_txt.o [1]
_lv_txt_encoded_next    0x2000'05dc       0x4  Data  Gb  lv_txt.o [1]
_lv_txt_encoded_prev    0x2000'05e0       0x4  Data  Gb  lv_txt.o [1]
_lv_txt_encoded_size    0x2000'05d4       0x4  Data  Gb  lv_txt.o [1]
_lv_txt_get_encoded_length
                        0x2000'05ec       0x4  Data  Gb  lv_txt.o [1]
_lv_txt_get_next_line    0x804'8db5     0x130  Code  Gb  lv_txt.o [1]
_lv_txt_ins              0x804'8fbf      0x54  Code  Gb  lv_txt.o [1]
_lv_txt_is_break_char    0x804'8b07      0x3c  Code  Lc  lv_txt.o [1]
_lv_txt_is_cmd           0x804'8f79      0x46  Code  Gb  lv_txt.o [1]
_lv_txt_set_text_vfmt    0x804'9059      0x42  Code  Gb  lv_txt.o [1]
_lv_txt_unicode_to_encoded
                        0x2000'05d8       0x4  Data  Gb  lv_txt.o [1]
_lv_utils_bsearch        0x804'8aab      0x54  Code  Gb  lv_utils.o [1]
_main                    0x808'00d7            Code  Gb  cmain.o [4]
_ntoa_format             0x804'ba73     0x120  Code  Lc  lv_printf.o [1]
_ntoa_long               0x804'bb93      0x92  Code  Lc  lv_printf.o [1]
_ntoa_long_long          0x804'bc25      0xb2  Code  Lc  lv_printf.o [1]
_out_buffer              0x804'b9a9       0x8  Code  Lc  lv_printf.o [1]
_out_null                0x804'b9b1       0x2  Code  Lc  lv_printf.o [1]
_out_rev                 0x804'ba05      0x6e  Code  Lc  lv_printf.o [1]
_strnlen_s               0x804'b9b3      0x18  Code  Lc  lv_printf.o [1]
_tx_block_pool_created_count
                        0x2001'cb84       0x4  Data  Gb  tx_initialize_high_level.o [1]
_tx_block_pool_created_ptr
                        0x2001'cb80       0x4  Data  Gb  tx_initialize_high_level.o [1]
_tx_build_options       0x2001'cbbc       0x4  Data  Gb  tx_thread_initialize.o [1]
_tx_byte_pool_created_count
                        0x2001'cb8c       0x4  Data  Gb  tx_initialize_high_level.o [1]
_tx_byte_pool_created_ptr
                        0x2001'cb88       0x4  Data  Gb  tx_initialize_high_level.o [1]
_tx_event_flags_cleanup
                         0x807'ed61      0x90  Code  Gb  tx_event_flags_cleanup.o [1]
_tx_event_flags_create   0x806'b951     0x124  Code  Gb  tx_event_flags_create.o [1]
_tx_event_flags_created_count
                        0x2001'cb74       0x4  Data  Gb  tx_initialize_high_level.o [1]
_tx_event_flags_created_ptr
                        0x2001'cb70       0x4  Data  Gb  tx_initialize_high_level.o [1]
_tx_event_flags_get      0x806'b079     0x1c4  Code  Gb  tx_event_flags_get.o [1]
_tx_event_flags_set      0x806'60a5     0x2e4  Code  Gb  tx_event_flags_set.o [1]
_tx_initialize_high_level
                         0x807'edf1      0x88  Code  Gb  tx_initialize_high_level.o [1]
_tx_initialize_kernel_enter
                         0x807'f609      0x48  Code  Gb  tx_initialize_kernel_enter.o [1]
_tx_initialize_low_level
                         0x807'f2a1            Code  Gb  tx_initialize_low_level.o [1]
_tx_initialize_unused_memory
                        0x2001'cb90       0x4  Data  Gb  tx_initialize_high_level.o [1]
_tx_mutex_cleanup        0x807'dfd1      0x7a  Code  Gb  tx_mutex_cleanup.o [1]
_tx_mutex_create         0x806'b6d9     0x134  Code  Gb  tx_mutex_create.o [1]
_tx_mutex_created_count
                        0x2001'cb7c       0x4  Data  Gb  tx_initialize_high_level.o [1]
_tx_mutex_created_ptr   0x2001'cb78       0x4  Data  Gb  tx_initialize_high_level.o [1]
_tx_mutex_get            0x806'b23d     0x1c8  Code  Gb  tx_mutex_get.o [1]
_tx_mutex_prioritize     0x806'c18d     0x168  Code  Gb  tx_mutex_prioritize.o [1]
_tx_mutex_priority_change
                         0x806'c09d      0xf0  Code  Gb  tx_mutex_priority_change.o [1]
_tx_mutex_put            0x806'b405     0x2d4  Code  Gb  tx_mutex_put.o [1]
_tx_mutex_thread_release
                         0x807'e04b      0x40  Code  Gb  tx_mutex_cleanup.o [1]
_tx_queue_created_count
                        0x2001'cb6c       0x4  Data  Gb  tx_initialize_high_level.o [1]
_tx_queue_created_ptr   0x2001'cb68       0x4  Data  Gb  tx_initialize_high_level.o [1]
_tx_semaphore_created_count
                        0x2001'cb64       0x4  Data  Gb  tx_initialize_high_level.o [1]
_tx_semaphore_created_ptr
                        0x2001'cb60       0x4  Data  Gb  tx_initialize_high_level.o [1]
_tx_thread_application_stack_error_handler
                        0x2001'cbc0       0x4  Data  Gb  tx_thread_initialize.o [1]
_tx_thread_create        0x806'8719     0x238  Code  Gb  tx_thread_create.o [1]
_tx_thread_created_count
                        0x2001'cba4       0x4  Data  Gb  tx_thread_initialize.o [1]
_tx_thread_created_ptr  0x2001'cba0       0x4  Data  Gb  tx_thread_initialize.o [1]
_tx_thread_current_ptr  0x2001'cb98       0x4  Data  Gb  tx_thread_initialize.o [1]
_tx_thread_execute_ptr  0x2001'cb9c       0x4  Data  Gb  tx_thread_initialize.o [1]
_tx_thread_highest_priority
                        0x2001'cbb0       0x4  Data  Gb  tx_thread_initialize.o [1]
_tx_thread_initialize    0x807'ecc9      0x98  Code  Gb  tx_thread_initialize.o [1]
_tx_thread_mutex_release
                        0x2001'cbb8       0x4  Data  Gb  tx_thread_initialize.o [1]
_tx_thread_preempt_disable
                        0x2001'cbb4       0x4  Data  Gb  tx_thread_initialize.o [1]
_tx_thread_preempted_maps
                        0x2001'cbac       0x4  Data  Gb  tx_thread_initialize.o [1]
_tx_thread_priority_list
                        0x2001'bd18      0x80  Data  Gb  tx_thread_initialize.o [1]
_tx_thread_priority_maps
                        0x2001'cba8       0x4  Data  Gb  tx_thread_initialize.o [1]
_tx_thread_schedule      0x807'df01            Code  Gb  tx_thread_schedule.o [1]
_tx_thread_shell_entry   0x807'eeb9      0x84  Code  Gb  tx_thread_shell_entry.o [1]
_tx_thread_sleep         0x806'0ae5     0x14c  Code  Gb  tx_thread_sleep.o [1]
_tx_thread_stack_analyze
                         0x806'be29      0x80  Code  Gb  tx_thread_stack_analyze.o [1]
_tx_thread_stack_build   0x806'bf0d            Code  Gb  tx_thread_stack_build.o [1]
_tx_thread_stack_error_handler
                         0x806'be09      0x20  Code  Gb  tx_thread_stack_error_handler.o [1]
_tx_thread_system_preempt_check
                         0x806'8675      0x90  Code  Gb  tx_thread_system_preempt_check.o [1]
_tx_thread_system_resume
                         0x806'ba93     0x332  Code  Gb  tx_thread_system_resume.o [1]
_tx_thread_system_return_inline
                         0x806'8659      0x1c  Code  Lc  tx_thread_system_preempt_check.o [1]
_tx_thread_system_return_inline
                         0x806'ba75      0x1e  Code  Lc  tx_thread_system_resume.o [1]
_tx_thread_system_return_inline
                         0x806'6389      0x1e  Code  Lc  tx_thread_system_suspend.o [1]
_tx_thread_system_stack_ptr
                        0x2001'cb94       0x4  Data  Gb  tx_thread_initialize.o [1]
_tx_thread_system_state
                        0x2000'061c       0x4  Data  Gb  tx_thread_initialize.o [1]
_tx_thread_system_suspend
                         0x806'63a7     0x332  Code  Gb  tx_thread_system_suspend.o [1]
_tx_thread_time_slice    0x807'cf1d     0x24c  Code  Gb  tx_thread_time_slice.o [1]
_tx_thread_timeout       0x807'f8f5      0x38  Code  Gb  tx_thread_timeout.o [1]
_tx_time_get             0x804'8031      0xd0  Code  Gb  tx_time_get.o [1]
_tx_timer_create         0x806'b80d     0x144  Code  Gb  tx_timer_create.o [1]
_tx_timer_created_count
                        0x2001'cbe0       0x4  Data  Gb  tx_timer_initialize.o [1]
_tx_timer_created_ptr   0x2001'cbdc       0x4  Data  Gb  tx_timer_initialize.o [1]
_tx_timer_current_ptr   0x2001'cbd4       0x4  Data  Gb  tx_timer_initialize.o [1]
_tx_timer_expiration_process
                         0x807'dc55      0x24  Code  Gb  tx_timer_expiration_process.o [1]
_tx_timer_expired       0x2001'cbd8       0x4  Data  Gb  tx_timer_initialize.o [1]
_tx_timer_expired_time_slice
                        0x2001'cbc8       0x4  Data  Gb  tx_timer_initialize.o [1]
_tx_timer_expired_timer_ptr
                        0x2001'cbe4       0x4  Data  Gb  tx_timer_initialize.o [1]
_tx_timer_initialize     0x807'dc79      0xe0  Code  Gb  tx_timer_initialize.o [1]
_tx_timer_interrupt      0x807'db6d            Code  Gb  tx_timer_interrupt.o [1]
_tx_timer_list          0x2001'bd98      0x80  Data  Gb  tx_timer_initialize.o [1]
_tx_timer_list_end      0x2001'cbd0       0x4  Data  Gb  tx_timer_initialize.o [1]
_tx_timer_list_start    0x2001'cbcc       0x4  Data  Gb  tx_timer_initialize.o [1]
_tx_timer_priority      0x2001'cbf0       0x4  Data  Gb  tx_timer_initialize.o [1]
_tx_timer_stack_size    0x2001'cbec       0x4  Data  Gb  tx_timer_initialize.o [1]
_tx_timer_stack_start   0x2001'cbe8       0x4  Data  Gb  tx_timer_initialize.o [1]
_tx_timer_system_activate
                         0x806'bea9      0x64  Code  Gb  tx_timer_system_activate.o [1]
_tx_timer_system_clock  0x2001'cbc4       0x4  Data  Gb  tx_timer_initialize.o [1]
_tx_timer_system_deactivate
                         0x806'c2f5      0x2e  Code  Gb  tx_timer_system_deactivate.o [1]
_tx_timer_thread        0x2001'bae0      0xb4  Data  Gb  tx_timer_initialize.o [1]
_tx_timer_thread_entry   0x807'd829     0x130  Code  Gb  tx_timer_thread_entry.o [1]
_tx_timer_thread_stack_area
                        0x2001'aab8     0x400  Data  Gb  tx_timer_initialize.o [1]
_tx_timer_time_slice    0x2001'cbf4       0x4  Data  Gb  tx_timer_initialize.o [1]
_tx_trace_available_registry_entries
                        0x2001'cc1c       0x4  Data  Gb  tx_trace_initialize.o [1]
_tx_trace_buffer_current_ptr
                        0x2001'cc0c       0x4  Data  Gb  tx_trace_initialize.o [1]
_tx_trace_buffer_end_ptr
                        0x2001'cc08       0x4  Data  Gb  tx_trace_initialize.o [1]
_tx_trace_buffer_start_ptr
                        0x2001'cc04       0x4  Data  Gb  tx_trace_initialize.o [1]
_tx_trace_event_enable_bits
                        0x2001'cc10       0x4  Data  Gb  tx_trace_initialize.o [1]
_tx_trace_full_notify_function
                        0x2001'cc14       0x4  Data  Gb  tx_trace_initialize.o [1]
_tx_trace_header_ptr    0x2001'cbf8       0x4  Data  Gb  tx_trace_initialize.o [1]
_tx_trace_initialize     0x807'ee79      0x40  Code  Gb  tx_trace_initialize.o [1]
_tx_trace_object_register
                         0x806'bf51     0x11c  Code  Gb  tx_trace_object_register.o [1]
_tx_trace_registry_end_ptr
                        0x2001'cc00       0x4  Data  Gb  tx_trace_initialize.o [1]
_tx_trace_registry_search_start
                        0x2001'cc20       0x4  Data  Gb  tx_trace_initialize.o [1]
_tx_trace_registry_start_ptr
                        0x2001'cbfc       0x4  Data  Gb  tx_trace_initialize.o [1]
_tx_trace_total_registry_entries
                        0x2001'cc18       0x4  Data  Gb  tx_trace_initialize.o [1]
_txe_event_flags_create
                         0x806'5ff1      0xb4  Code  Gb  txe_event_flags_create.o [1]
_txe_event_flags_get     0x806'5cc9      0x70  Code  Gb  txe_event_flags_get.o [1]
_txe_event_flags_set     0x806'0ab1      0x34  Code  Gb  txe_event_flags_set.o [1]
_txe_mutex_create        0x806'5e3d      0xcc  Code  Gb  txe_mutex_create.o [1]
_txe_mutex_get           0x806'5d39      0x7c  Code  Gb  txe_mutex_get.o [1]
_txe_mutex_put           0x806'5db5      0x4c  Code  Gb  txe_mutex_put.o [1]
_txe_thread_create       0x806'4125     0x15c  Code  Gb  txe_thread_create.o [1]
_txe_timer_create        0x806'5f09      0xe8  Code  Gb  txe_timer_create.o [1]
_vsnprintf               0x804'c3bd     0x66c  Code  Lc  lv_printf.o [1]
abort                    0x804'fd6b       0x6  Code  Gb  abort.o [2]
active_index_2          0x2001'ca60       0x4  Data  Lc  adjust_pedal.o [1]
adjust_request_size      0x803'b1cd      0x2a  Code  Lc  lv_tlsf.o [1]
align_down               0x803'b1ab      0x10  Code  Lc  lv_tlsf.o [1]
align_ptr                0x803'b1bb      0x12  Code  Lc  lv_tlsf.o [1]
align_up                 0x803'b199      0x12  Code  Lc  lv_tlsf.o [1]
allocate_btn_areas_and_controls
                         0x805'8f3d      0xb8  Code  Lc  lv_btnmatrix.o [1]
allocate_item            0x805'7b1f     0x122  Code  Lc  lv_draw_sw_gradient.o [1]
analog1                 0x2001'cb28       0x4  Data  Gb  sensor_ui.o [1]
analog2                 0x2001'cb2c       0x4  Data  Gb  sensor_ui.o [1]
analog3                 0x2001'cb30       0x4  Data  Gb  sensor_ui.o [1]
analog4                 0x2001'cb34       0x4  Data  Gb  sensor_ui.o [1]
angle_to_mode_color_fast
                         0x807'1553     0x172  Code  Lc  lv_colorwheel.o [1]
angle_to_mode_color_fast::angle_saved
                        0x2000'06aa       0x2  Data  Lc  lv_colorwheel.o [1]
angle_to_mode_color_fast::h
                        0x2001'cc2e       0x2  Data  Lc  lv_colorwheel.o [1]
angle_to_mode_color_fast::m
                        0x2000'06b0       0x1  Data  Lc  lv_colorwheel.o [1]
angle_to_mode_color_fast::s
                        0x2001'cc68       0x1  Data  Lc  lv_colorwheel.o [1]
angle_to_mode_color_fast::v
                        0x2001'cc69       0x1  Data  Lc  lv_colorwheel.o [1]
anim_list_changed       0x2001'cc65       0x1  Data  Lc  lv_anim.o [1]
anim_mark_list_change    0x803'cc97      0x26  Code  Lc  lv_anim.o [1]
anim_ready_handler       0x803'cbd1      0xc6  Code  Lc  lv_anim.o [1]
anim_run_round          0x2001'cc66       0x1  Data  Lc  lv_anim.o [1]
anim_timer               0x803'cab5     0x11c  Code  Lc  lv_anim.o [1]
apply_theme              0x804'474b      0x24  Code  Lc  lv_theme.o [1]
arc_anim_end_angle       0x807'def5       0xa  Code  Lc  lv_spinner.o [1]
arc_anim_start_angle     0x807'dee9       0xa  Code  Lc  lv_spinner.o [1]
arc_length_param        0x2001'caf0       0x4  Data  Lc  lv_spinner.o [1]
argb_and_rgb_aa          0x807'7b0b     0x40c  Code  Lc  lv_draw_sw_transform.o [1]
argb_no_aa               0x807'7955      0xe2  Code  Lc  lv_draw_sw_transform.o [1]
auto_hide_characters     0x805'c48d      0x54  Code  Lc  lv_textarea.o [1]
block_absorb             0x803'b471      0x30  Code  Lc  lv_tlsf.o [1]
block_can_split          0x803'b3d1      0x18  Code  Lc  lv_tlsf.o [1]
block_from_ptr           0x803'b0ff       0xc  Code  Lc  lv_tlsf.o [1]
block_header_free_bit    0x808'0f10       0x4  Data  Lc  lv_tlsf.o [1]
