###############################################################################
#
# IAR ELF Linker V8.50.9.278/W32 for ARM                  05/May/2025  22:24:31
# Copyright 2007-2020 IAR Systems AB.
#
#    Output file  =
#        K:\Ls_Monitor_Lower\Ls_Monitor_Lower_SW\EW-ARM(v8x)\Flash\Exe\Run_Xian.elf
#    Map file     =
#        K:\Ls_Monitor_Lower\Ls_Monitor_Lower_SW\EW-ARM(v8x)\Flash\List\Run_Xian.map
#    Command line =
#        -f C:\Users\ADMINI~1\AppData\Local\Temp\EW930.tmp
#        ("K:\Ls_Monitor_Lower\Ls_Monitor_Lower_SW\EW-ARM(v8x)\Flash\Obj\about_phone_ui.o"
#        "K:\Ls_Monitor_Lower\Ls_Monitor_Lower_SW\EW-ARM(v8x)\Flash\Obj\adjust_pedal.o"
#        "K:\Ls_Monitor_Lower\Ls_Monitor_Lower_SW\EW-ARM(v8x)\Flash\Obj\ansi.o"
#        "K:\Ls_Monitor_Lower\Ls_Monitor_Lower_SW\EW-ARM(v8x)\Flash\Obj\ansi_port.o"
#        "K:\Ls_Monitor_Lower\Ls_Monitor_Lower_SW\EW-ARM(v8x)\Flash\Obj\battery_box.o"
#        "K:\Ls_Monitor_Lower\Ls_Monitor_Lower_SW\EW-ARM(v8x)\Flash\Obj\bsp_can_bus.o"
#        "K:\Ls_Monitor_Lower\Ls_Monitor_Lower_SW\EW-ARM(v8x)\Flash\Obj\bsp_dwt.o"
#        "K:\Ls_Monitor_Lower\Ls_Monitor_Lower_SW\EW-ARM(v8x)\Flash\Obj\bsp_font.o"
#        "K:\Ls_Monitor_Lower\Ls_Monitor_Lower_SW\EW-ARM(v8x)\Flash\Obj\bsp_iic_bus.o"
#        "K:\Ls_Monitor_Lower\Ls_Monitor_Lower_SW\EW-ARM(v8x)\Flash\Obj\bsp_inkscreen.o"
#        "K:\Ls_Monitor_Lower\Ls_Monitor_Lower_SW\EW-ARM(v8x)\Flash\Obj\bsp_key.o"
#        "K:\Ls_Monitor_Lower\Ls_Monitor_Lower_SW\EW-ARM(v8x)\Flash\Obj\bsp_lcd.o"
#        "K:\Ls_Monitor_Lower\Ls_Monitor_Lower_SW\EW-ARM(v8x)\Flash\Obj\bsp_led.o"
#        "K:\Ls_Monitor_Lower\Ls_Monitor_Lower_SW\EW-ARM(v8x)\Flash\Obj\bsp_mlx90614.o"
#        "K:\Ls_Monitor_Lower\Ls_Monitor_Lower_SW\EW-ARM(v8x)\Flash\Obj\bsp_rotation.o"
#        "K:\Ls_Monitor_Lower\Ls_Monitor_Lower_SW\EW-ARM(v8x)\Flash\Obj\bsp_sdio_sd.o"
#        "K:\Ls_Monitor_Lower\Ls_Monitor_Lower_SW\EW-ARM(v8x)\Flash\Obj\bsp_spi_bus.o"
#        "K:\Ls_Monitor_Lower\Ls_Monitor_Lower_SW\EW-ARM(v8x)\Flash\Obj\bsp_spi_flash.o"
#        "K:\Ls_Monitor_Lower\Ls_Monitor_Lower_SW\EW-ARM(v8x)\Flash\Obj\bsp_spi_flash_demo.o"
#        "K:\Ls_Monitor_Lower\Ls_Monitor_Lower_SW\EW-ARM(v8x)\Flash\Obj\bsp_sram.o"
#        "K:\Ls_Monitor_Lower\Ls_Monitor_Lower_SW\EW-ARM(v8x)\Flash\Obj\bsp_tim_pwm.o"
#        "K:\Ls_Monitor_Lower\Ls_Monitor_Lower_SW\EW-ARM(v8x)\Flash\Obj\bsp_touch.o"
#        "K:\Ls_Monitor_Lower\Ls_Monitor_Lower_SW\EW-ARM(v8x)\Flash\Obj\bsp_usart_fifo.o"
#        "K:\Ls_Monitor_Lower\Ls_Monitor_Lower_SW\EW-ARM(v8x)\Flash\Obj\bsp_ws2812b.o"
#        "K:\Ls_Monitor_Lower\Ls_Monitor_Lower_SW\EW-ARM(v8x)\Flash\Obj\cc936.o"
#        "K:\Ls_Monitor_Lower\Ls_Monitor_Lower_SW\EW-ARM(v8x)\Flash\Obj\cool_control.o"
#        "K:\Ls_Monitor_Lower\Ls_Monitor_Lower_SW\EW-ARM(v8x)\Flash\Obj\diskio.o"
#        "K:\Ls_Monitor_Lower\Ls_Monitor_Lower_SW\EW-ARM(v8x)\Flash\Obj\ff.o"
#        "K:\Ls_Monitor_Lower\Ls_Monitor_Lower_SW\EW-ARM(v8x)\Flash\Obj\ff_gen_drv.o"
#        "K:\Ls_Monitor_Lower\Ls_Monitor_Lower_SW\EW-ARM(v8x)\Flash\Obj\gui_task.o"
#        "K:\Ls_Monitor_Lower\Ls_Monitor_Lower_SW\EW-ARM(v8x)\Flash\Obj\HardFaultHandler.o"
#        "K:\Ls_Monitor_Lower\Ls_Monitor_Lower_SW\EW-ARM(v8x)\Flash\Obj\iwdg.o"
#        "K:\Ls_Monitor_Lower\Ls_Monitor_Lower_SW\EW-ARM(v8x)\Flash\Obj\lv_anim.o"
#        "K:\Ls_Monitor_Lower\Ls_Monitor_Lower_SW\EW-ARM(v8x)\Flash\Obj\lv_anim_timeline.o"
#        "K:\Ls_Monitor_Lower\Ls_Monitor_Lower_SW\EW-ARM(v8x)\Flash\Obj\lv_animimg.o"
#        "K:\Ls_Monitor_Lower\Ls_Monitor_Lower_SW\EW-ARM(v8x)\Flash\Obj\lv_arc.o"
#        "K:\Ls_Monitor_Lower\Ls_Monitor_Lower_SW\EW-ARM(v8x)\Flash\Obj\lv_area.o"
#        "K:\Ls_Monitor_Lower\Ls_Monitor_Lower_SW\EW-ARM(v8x)\Flash\Obj\lv_async.o"
#        "K:\Ls_Monitor_Lower\Ls_Monitor_Lower_SW\EW-ARM(v8x)\Flash\Obj\lv_bar.o"
#        "K:\Ls_Monitor_Lower\Ls_Monitor_Lower_SW\EW-ARM(v8x)\Flash\Obj\lv_bidi.o"
#        "K:\Ls_Monitor_Lower\Ls_Monitor_Lower_SW\EW-ARM(v8x)\Flash\Obj\lv_btn.o"
#        "K:\Ls_Monitor_Lower\Ls_Monitor_Lower_SW\EW-ARM(v8x)\Flash\Obj\lv_btnmatrix.o"
#        "K:\Ls_Monitor_Lower\Ls_Monitor_Lower_SW\EW-ARM(v8x)\Flash\Obj\lv_calendar.o"
#        "K:\Ls_Monitor_Lower\Ls_Monitor_Lower_SW\EW-ARM(v8x)\Flash\Obj\lv_calendar_header_arrow.o"
#        "K:\Ls_Monitor_Lower\Ls_Monitor_Lower_SW\EW-ARM(v8x)\Flash\Obj\lv_calendar_header_dropdown.o"
#        "K:\Ls_Monitor_Lower\Ls_Monitor_Lower_SW\EW-ARM(v8x)\Flash\Obj\lv_canvas.o"
#        "K:\Ls_Monitor_Lower\Ls_Monitor_Lower_SW\EW-ARM(v8x)\Flash\Obj\lv_chart.o"
#        "K:\Ls_Monitor_Lower\Ls_Monitor_Lower_SW\EW-ARM(v8x)\Flash\Obj\lv_checkbox.o"
#        "K:\Ls_Monitor_Lower\Ls_Monitor_Lower_SW\EW-ARM(v8x)\Flash\Obj\lv_color.o"
#        "K:\Ls_Monitor_Lower\Ls_Monitor_Lower_SW\EW-ARM(v8x)\Flash\Obj\lv_colorwheel.o"
#        "K:\Ls_Monitor_Lower\Ls_Monitor_Lower_SW\EW-ARM(v8x)\Flash\Obj\lv_disp.o"
#        "K:\Ls_Monitor_Lower\Ls_Monitor_Lower_SW\EW-ARM(v8x)\Flash\Obj\lv_draw.o"
#        "K:\Ls_Monitor_Lower\Ls_Monitor_Lower_SW\EW-ARM(v8x)\Flash\Obj\lv_draw_arc.o"
#        "K:\Ls_Monitor_Lower\Ls_Monitor_Lower_SW\EW-ARM(v8x)\Flash\Obj\lv_draw_img.o"
#        "K:\Ls_Monitor_Lower\Ls_Monitor_Lower_SW\EW-ARM(v8x)\Flash\Obj\lv_draw_label.o"
#        "K:\Ls_Monitor_Lower\Ls_Monitor_Lower_SW\EW-ARM(v8x)\Flash\Obj\lv_draw_layer.o"
#        "K:\Ls_Monitor_Lower\Ls_Monitor_Lower_SW\EW-ARM(v8x)\Flash\Obj\lv_draw_line.o"
#        "K:\Ls_Monitor_Lower\Ls_Monitor_Lower_SW\EW-ARM(v8x)\Flash\Obj\lv_draw_mask.o"
#        "K:\Ls_Monitor_Lower\Ls_Monitor_Lower_SW\EW-ARM(v8x)\Flash\Obj\lv_draw_rect.o"
#        "K:\Ls_Monitor_Lower\Ls_Monitor_Lower_SW\EW-ARM(v8x)\Flash\Obj\lv_draw_sw.o"
#        "K:\Ls_Monitor_Lower\Ls_Monitor_Lower_SW\EW-ARM(v8x)\Flash\Obj\lv_draw_sw_arc.o"
#        "K:\Ls_Monitor_Lower\Ls_Monitor_Lower_SW\EW-ARM(v8x)\Flash\Obj\lv_draw_sw_blend.o"
#        "K:\Ls_Monitor_Lower\Ls_Monitor_Lower_SW\EW-ARM(v8x)\Flash\Obj\lv_draw_sw_dither.o"
#        "K:\Ls_Monitor_Lower\Ls_Monitor_Lower_SW\EW-ARM(v8x)\Flash\Obj\lv_draw_sw_gradient.o"
#        "K:\Ls_Monitor_Lower\Ls_Monitor_Lower_SW\EW-ARM(v8x)\Flash\Obj\lv_draw_sw_img.o"
#        "K:\Ls_Monitor_Lower\Ls_Monitor_Lower_SW\EW-ARM(v8x)\Flash\Obj\lv_draw_sw_layer.o"
#        "K:\Ls_Monitor_Lower\Ls_Monitor_Lower_SW\EW-ARM(v8x)\Flash\Obj\lv_draw_sw_letter.o"
#        "K:\Ls_Monitor_Lower\Ls_Monitor_Lower_SW\EW-ARM(v8x)\Flash\Obj\lv_draw_sw_line.o"
#        "K:\Ls_Monitor_Lower\Ls_Monitor_Lower_SW\EW-ARM(v8x)\Flash\Obj\lv_draw_sw_polygon.o"
#        "K:\Ls_Monitor_Lower\Ls_Monitor_Lower_SW\EW-ARM(v8x)\Flash\Obj\lv_draw_sw_rect.o"
#        "K:\Ls_Monitor_Lower\Ls_Monitor_Lower_SW\EW-ARM(v8x)\Flash\Obj\lv_draw_sw_transform.o"
#        "K:\Ls_Monitor_Lower\Ls_Monitor_Lower_SW\EW-ARM(v8x)\Flash\Obj\lv_draw_transform.o"
#        "K:\Ls_Monitor_Lower\Ls_Monitor_Lower_SW\EW-ARM(v8x)\Flash\Obj\lv_draw_triangle.o"
#        "K:\Ls_Monitor_Lower\Ls_Monitor_Lower_SW\EW-ARM(v8x)\Flash\Obj\lv_dropdown.o"
#        "K:\Ls_Monitor_Lower\Ls_Monitor_Lower_SW\EW-ARM(v8x)\Flash\Obj\lv_event.o"
#        "K:\Ls_Monitor_Lower\Ls_Monitor_Lower_SW\EW-ARM(v8x)\Flash\Obj\lv_extra.o"
#        "K:\Ls_Monitor_Lower\Ls_Monitor_Lower_SW\EW-ARM(v8x)\Flash\Obj\lv_flex.o"
#        "K:\Ls_Monitor_Lower\Ls_Monitor_Lower_SW\EW-ARM(v8x)\Flash\Obj\lv_font.o"
#        "K:\Ls_Monitor_Lower\Ls_Monitor_Lower_SW\EW-ARM(v8x)\Flash\Obj\lv_font_dejavu_16_persian_hebrew.o"
#        "K:\Ls_Monitor_Lower\Ls_Monitor_Lower_SW\EW-ARM(v8x)\Flash\Obj\lv_font_fmt_txt.o"
#        "K:\Ls_Monitor_Lower\Ls_Monitor_Lower_SW\EW-ARM(v8x)\Flash\Obj\lv_font_loader.o"
#        "K:\Ls_Monitor_Lower\Ls_Monitor_Lower_SW\EW-ARM(v8x)\Flash\Obj\lv_font_montserrat_10.o"
#        "K:\Ls_Monitor_Lower\Ls_Monitor_Lower_SW\EW-ARM(v8x)\Flash\Obj\lv_font_montserrat_12.o"
#        "K:\Ls_Monitor_Lower\Ls_Monitor_Lower_SW\EW-ARM(v8x)\Flash\Obj\lv_font_montserrat_12_subpx.o"
#        "K:\Ls_Monitor_Lower\Ls_Monitor_Lower_SW\EW-ARM(v8x)\Flash\Obj\lv_font_montserrat_14.o"
#        "K:\Ls_Monitor_Lower\Ls_Monitor_Lower_SW\EW-ARM(v8x)\Flash\Obj\lv_font_montserrat_16.o"
#        "K:\Ls_Monitor_Lower\Ls_Monitor_Lower_SW\EW-ARM(v8x)\Flash\Obj\lv_font_montserrat_24.o"
#        "K:\Ls_Monitor_Lower\Ls_Monitor_Lower_SW\EW-ARM(v8x)\Flash\Obj\lv_font_montserrat_8.o"
#        "K:\Ls_Monitor_Lower\Ls_Monitor_Lower_SW\EW-ARM(v8x)\Flash\Obj\lv_font_simsun_16_cjk.o"
#        "K:\Ls_Monitor_Lower\Ls_Monitor_Lower_SW\EW-ARM(v8x)\Flash\Obj\lv_font_unscii_16.o"
#        "K:\Ls_Monitor_Lower\Ls_Monitor_Lower_SW\EW-ARM(v8x)\Flash\Obj\lv_font_unscii_8.o"
#        "K:\Ls_Monitor_Lower\Ls_Monitor_Lower_SW\EW-ARM(v8x)\Flash\Obj\lv_fragment.o"
#        "K:\Ls_Monitor_Lower\Ls_Monitor_Lower_SW\EW-ARM(v8x)\Flash\Obj\lv_fragment_manager.o"
#        "K:\Ls_Monitor_Lower\Ls_Monitor_Lower_SW\EW-ARM(v8x)\Flash\Obj\lv_fs.o"
#        "K:\Ls_Monitor_Lower\Ls_Monitor_Lower_SW\EW-ARM(v8x)\Flash\Obj\lv_fs_fatfs.o"
#        "K:\Ls_Monitor_Lower\Ls_Monitor_Lower_SW\EW-ARM(v8x)\Flash\Obj\lv_gc.o"
#        "K:\Ls_Monitor_Lower\Ls_Monitor_Lower_SW\EW-ARM(v8x)\Flash\Obj\lv_grid.o"
#        "K:\Ls_Monitor_Lower\Ls_Monitor_Lower_SW\EW-ARM(v8x)\Flash\Obj\lv_gridnav.o"
#        "K:\Ls_Monitor_Lower\Ls_Monitor_Lower_SW\EW-ARM(v8x)\Flash\Obj\lv_group.o"
#        "K:\Ls_Monitor_Lower\Ls_Monitor_Lower_SW\EW-ARM(v8x)\Flash\Obj\lv_hal_disp.o"
#        "K:\Ls_Monitor_Lower\Ls_Monitor_Lower_SW\EW-ARM(v8x)\Flash\Obj\lv_hal_indev.o"
#        "K:\Ls_Monitor_Lower\Ls_Monitor_Lower_SW\EW-ARM(v8x)\Flash\Obj\lv_hal_tick.o"
#        "K:\Ls_Monitor_Lower\Ls_Monitor_Lower_SW\EW-ARM(v8x)\Flash\Obj\lv_ime_pinyin.o"
#        "K:\Ls_Monitor_Lower\Ls_Monitor_Lower_SW\EW-ARM(v8x)\Flash\Obj\lv_img.o"
#        "K:\Ls_Monitor_Lower\Ls_Monitor_Lower_SW\EW-ARM(v8x)\Flash\Obj\lv_img_buf.o"
#        "K:\Ls_Monitor_Lower\Ls_Monitor_Lower_SW\EW-ARM(v8x)\Flash\Obj\lv_img_cache.o"
#        "K:\Ls_Monitor_Lower\Ls_Monitor_Lower_SW\EW-ARM(v8x)\Flash\Obj\lv_img_decoder.o"
#        "K:\Ls_Monitor_Lower\Ls_Monitor_Lower_SW\EW-ARM(v8x)\Flash\Obj\lv_imgbtn.o"
#        "K:\Ls_Monitor_Lower\Ls_Monitor_Lower_SW\EW-ARM(v8x)\Flash\Obj\lv_imgfont.o"
#        "K:\Ls_Monitor_Lower\Ls_Monitor_Lower_SW\EW-ARM(v8x)\Flash\Obj\lv_indev.o"
#        "K:\Ls_Monitor_Lower\Ls_Monitor_Lower_SW\EW-ARM(v8x)\Flash\Obj\lv_indev_scroll.o"
#        "K:\Ls_Monitor_Lower\Ls_Monitor_Lower_SW\EW-ARM(v8x)\Flash\Obj\lv_keyboard.o"
#        "K:\Ls_Monitor_Lower\Ls_Monitor_Lower_SW\EW-ARM(v8x)\Flash\Obj\lv_label.o"
#        "K:\Ls_Monitor_Lower\Ls_Monitor_Lower_SW\EW-ARM(v8x)\Flash\Obj\lv_led.o"
#        "K:\Ls_Monitor_Lower\Ls_Monitor_Lower_SW\EW-ARM(v8x)\Flash\Obj\lv_line.o"
#        "K:\Ls_Monitor_Lower\Ls_Monitor_Lower_SW\EW-ARM(v8x)\Flash\Obj\lv_list.o"
#        "K:\Ls_Monitor_Lower\Ls_Monitor_Lower_SW\EW-ARM(v8x)\Flash\Obj\lv_ll.o"
#        "K:\Ls_Monitor_Lower\Ls_Monitor_Lower_SW\EW-ARM(v8x)\Flash\Obj\lv_log.o"
#        "K:\Ls_Monitor_Lower\Ls_Monitor_Lower_SW\EW-ARM(v8x)\Flash\Obj\lv_lru.o"
#        "K:\Ls_Monitor_Lower\Ls_Monitor_Lower_SW\EW-ARM(v8x)\Flash\Obj\lv_math.o"
#        "K:\Ls_Monitor_Lower\Ls_Monitor_Lower_SW\EW-ARM(v8x)\Flash\Obj\lv_mem.o"
#        "K:\Ls_Monitor_Lower\Ls_Monitor_Lower_SW\EW-ARM(v8x)\Flash\Obj\lv_menu.o"
#        "K:\Ls_Monitor_Lower\Ls_Monitor_Lower_SW\EW-ARM(v8x)\Flash\Obj\lv_meter.o"
#        "K:\Ls_Monitor_Lower\Ls_Monitor_Lower_SW\EW-ARM(v8x)\Flash\Obj\lv_monkey.o"
#        "K:\Ls_Monitor_Lower\Ls_Monitor_Lower_SW\EW-ARM(v8x)\Flash\Obj\lv_msg.o"
#        "K:\Ls_Monitor_Lower\Ls_Monitor_Lower_SW\EW-ARM(v8x)\Flash\Obj\lv_msgbox.o"
#        "K:\Ls_Monitor_Lower\Ls_Monitor_Lower_SW\EW-ARM(v8x)\Flash\Obj\lv_obj.o"
#        "K:\Ls_Monitor_Lower\Ls_Monitor_Lower_SW\EW-ARM(v8x)\Flash\Obj\lv_obj_class.o"
#        "K:\Ls_Monitor_Lower\Ls_Monitor_Lower_SW\EW-ARM(v8x)\Flash\Obj\lv_obj_draw.o"
#        "K:\Ls_Monitor_Lower\Ls_Monitor_Lower_SW\EW-ARM(v8x)\Flash\Obj\lv_obj_pos.o"
#        "K:\Ls_Monitor_Lower\Ls_Monitor_Lower_SW\EW-ARM(v8x)\Flash\Obj\lv_obj_scroll.o"
#        "K:\Ls_Monitor_Lower\Ls_Monitor_Lower_SW\EW-ARM(v8x)\Flash\Obj\lv_obj_style.o"
#        "K:\Ls_Monitor_Lower\Ls_Monitor_Lower_SW\EW-ARM(v8x)\Flash\Obj\lv_obj_style_gen.o"
#        "K:\Ls_Monitor_Lower\Ls_Monitor_Lower_SW\EW-ARM(v8x)\Flash\Obj\lv_obj_tree.o"
#        "K:\Ls_Monitor_Lower\Ls_Monitor_Lower_SW\EW-ARM(v8x)\Flash\Obj\lv_objx_templ.o"
#        "K:\Ls_Monitor_Lower\Ls_Monitor_Lower_SW\EW-ARM(v8x)\Flash\Obj\lv_port_disp_template.o"
#        "K:\Ls_Monitor_Lower\Ls_Monitor_Lower_SW\EW-ARM(v8x)\Flash\Obj\lv_port_indev_template.o"
#        "K:\Ls_Monitor_Lower\Ls_Monitor_Lower_SW\EW-ARM(v8x)\Flash\Obj\lv_printf.o"
#        "K:\Ls_Monitor_Lower\Ls_Monitor_Lower_SW\EW-ARM(v8x)\Flash\Obj\lv_refr.o"
#        "K:\Ls_Monitor_Lower\Ls_Monitor_Lower_SW\EW-ARM(v8x)\Flash\Obj\lv_roller.o"
#        "K:\Ls_Monitor_Lower\Ls_Monitor_Lower_SW\EW-ARM(v8x)\Flash\Obj\lv_slider.o"
#        "K:\Ls_Monitor_Lower\Ls_Monitor_Lower_SW\EW-ARM(v8x)\Flash\Obj\lv_snapshot.o"
#        "K:\Ls_Monitor_Lower\Ls_Monitor_Lower_SW\EW-ARM(v8x)\Flash\Obj\lv_span.o"
#        "K:\Ls_Monitor_Lower\Ls_Monitor_Lower_SW\EW-ARM(v8x)\Flash\Obj\lv_spinbox.o"
#        "K:\Ls_Monitor_Lower\Ls_Monitor_Lower_SW\EW-ARM(v8x)\Flash\Obj\lv_spinner.o"
#        "K:\Ls_Monitor_Lower\Ls_Monitor_Lower_SW\EW-ARM(v8x)\Flash\Obj\lv_style.o"
#        "K:\Ls_Monitor_Lower\Ls_Monitor_Lower_SW\EW-ARM(v8x)\Flash\Obj\lv_style_gen.o"
#        "K:\Ls_Monitor_Lower\Ls_Monitor_Lower_SW\EW-ARM(v8x)\Flash\Obj\lv_switch.o"
#        "K:\Ls_Monitor_Lower\Ls_Monitor_Lower_SW\EW-ARM(v8x)\Flash\Obj\lv_table.o"
#        "K:\Ls_Monitor_Lower\Ls_Monitor_Lower_SW\EW-ARM(v8x)\Flash\Obj\lv_tabview.o"
#        "K:\Ls_Monitor_Lower\Ls_Monitor_Lower_SW\EW-ARM(v8x)\Flash\Obj\lv_templ.o"
#        "K:\Ls_Monitor_Lower\Ls_Monitor_Lower_SW\EW-ARM(v8x)\Flash\Obj\lv_textarea.o"
#        "K:\Ls_Monitor_Lower\Ls_Monitor_Lower_SW\EW-ARM(v8x)\Flash\Obj\lv_theme.o"
#        "K:\Ls_Monitor_Lower\Ls_Monitor_Lower_SW\EW-ARM(v8x)\Flash\Obj\lv_theme_basic.o"
#        "K:\Ls_Monitor_Lower\Ls_Monitor_Lower_SW\EW-ARM(v8x)\Flash\Obj\lv_theme_default.o"
#        "K:\Ls_Monitor_Lower\Ls_Monitor_Lower_SW\EW-ARM(v8x)\Flash\Obj\lv_theme_mono.o"
#        "K:\Ls_Monitor_Lower\Ls_Monitor_Lower_SW\EW-ARM(v8x)\Flash\Obj\lv_tileview.o"
#        "K:\Ls_Monitor_Lower\Ls_Monitor_Lower_SW\EW-ARM(v8x)\Flash\Obj\lv_timer.o"
#        "K:\Ls_Monitor_Lower\Ls_Monitor_Lower_SW\EW-ARM(v8x)\Flash\Obj\lv_tlsf.o"
#        "K:\Ls_Monitor_Lower\Ls_Monitor_Lower_SW\EW-ARM(v8x)\Flash\Obj\lv_txt.o"
#        "K:\Ls_Monitor_Lower\Ls_Monitor_Lower_SW\EW-ARM(v8x)\Flash\Obj\lv_txt_ap.o"
#        "K:\Ls_Monitor_Lower\Ls_Monitor_Lower_SW\EW-ARM(v8x)\Flash\Obj\lv_utils.o"
#        "K:\Ls_Monitor_Lower\Ls_Monitor_Lower_SW\EW-ARM(v8x)\Flash\Obj\lv_win.o"
#        "K:\Ls_Monitor_Lower\Ls_Monitor_Lower_SW\EW-ARM(v8x)\Flash\Obj\main.o"
#        "K:\Ls_Monitor_Lower\Ls_Monitor_Lower_SW\EW-ARM(v8x)\Flash\Obj\Monitor.o"
#        "K:\Ls_Monitor_Lower\Ls_Monitor_Lower_SW\EW-ARM(v8x)\Flash\Obj\motor_control_ui.o"
#        "K:\Ls_Monitor_Lower\Ls_Monitor_Lower_SW\EW-ARM(v8x)\Flash\Obj\msg_task.o"
#        "K:\Ls_Monitor_Lower\Ls_Monitor_Lower_SW\EW-ARM(v8x)\Flash\Obj\myFont20.o"
#        "K:\Ls_Monitor_Lower\Ls_Monitor_Lower_SW\EW-ARM(v8x)\Flash\Obj\myFont36.o"
#        "K:\Ls_Monitor_Lower\Ls_Monitor_Lower_SW\EW-ARM(v8x)\Flash\Obj\nr_micro_shell.o"
#        "K:\Ls_Monitor_Lower\Ls_Monitor_Lower_SW\EW-ARM(v8x)\Flash\Obj\sd_diskio_dma.o"
#        "K:\Ls_Monitor_Lower\Ls_Monitor_Lower_SW\EW-ARM(v8x)\Flash\Obj\SEGGER_HardFaultHandler.o"
#        "K:\Ls_Monitor_Lower\Ls_Monitor_Lower_SW\EW-ARM(v8x)\Flash\Obj\sensor_ui.o"
#        "K:\Ls_Monitor_Lower\Ls_Monitor_Lower_SW\EW-ARM(v8x)\Flash\Obj\set_up.o"
#        "K:\Ls_Monitor_Lower\Ls_Monitor_Lower_SW\EW-ARM(v8x)\Flash\Obj\startup_stm32f407xx.o"
#        "K:\Ls_Monitor_Lower\Ls_Monitor_Lower_SW\EW-ARM(v8x)\Flash\Obj\statistic_task.o"
#        "K:\Ls_Monitor_Lower\Ls_Monitor_Lower_SW\EW-ARM(v8x)\Flash\Obj\stm32f4xx_hal.o"
#        "K:\Ls_Monitor_Lower\Ls_Monitor_Lower_SW\EW-ARM(v8x)\Flash\Obj\stm32f4xx_hal_can.o"
#        "K:\Ls_Monitor_Lower\Ls_Monitor_Lower_SW\EW-ARM(v8x)\Flash\Obj\stm32f4xx_hal_cortex.o"
#        "K:\Ls_Monitor_Lower\Ls_Monitor_Lower_SW\EW-ARM(v8x)\Flash\Obj\stm32f4xx_hal_crc.o"
#        "K:\Ls_Monitor_Lower\Ls_Monitor_Lower_SW\EW-ARM(v8x)\Flash\Obj\stm32f4xx_hal_dma.o"
#        "K:\Ls_Monitor_Lower\Ls_Monitor_Lower_SW\EW-ARM(v8x)\Flash\Obj\stm32f4xx_hal_dma_ex.o"
#        "K:\Ls_Monitor_Lower\Ls_Monitor_Lower_SW\EW-ARM(v8x)\Flash\Obj\stm32f4xx_hal_eth.o"
#        "K:\Ls_Monitor_Lower\Ls_Monitor_Lower_SW\EW-ARM(v8x)\Flash\Obj\stm32f4xx_hal_gpio.o"
#        "K:\Ls_Monitor_Lower\Ls_Monitor_Lower_SW\EW-ARM(v8x)\Flash\Obj\stm32f4xx_hal_i2c.o"
#        "K:\Ls_Monitor_Lower\Ls_Monitor_Lower_SW\EW-ARM(v8x)\Flash\Obj\stm32f4xx_hal_i2c_ex.o"
#        "K:\Ls_Monitor_Lower\Ls_Monitor_Lower_SW\EW-ARM(v8x)\Flash\Obj\stm32f4xx_hal_iwdg.o"
#        "K:\Ls_Monitor_Lower\Ls_Monitor_Lower_SW\EW-ARM(v8x)\Flash\Obj\stm32f4xx_hal_msp.o"
#        "K:\Ls_Monitor_Lower\Ls_Monitor_Lower_SW\EW-ARM(v8x)\Flash\Obj\stm32f4xx_hal_pwr.o"
#        "K:\Ls_Monitor_Lower\Ls_Monitor_Lower_SW\EW-ARM(v8x)\Flash\Obj\stm32f4xx_hal_pwr_ex.o"
#        "K:\Ls_Monitor_Lower\Ls_Monitor_Lower_SW\EW-ARM(v8x)\Flash\Obj\stm32f4xx_hal_rcc.o"
#        "K:\Ls_Monitor_Lower\Ls_Monitor_Lower_SW\EW-ARM(v8x)\Flash\Obj\stm32f4xx_hal_rcc_ex.o"
#        "K:\Ls_Monitor_Lower\Ls_Monitor_Lower_SW\EW-ARM(v8x)\Flash\Obj\stm32f4xx_hal_sd.o"
#        "K:\Ls_Monitor_Lower\Ls_Monitor_Lower_SW\EW-ARM(v8x)\Flash\Obj\stm32f4xx_hal_spi.o"
#        "K:\Ls_Monitor_Lower\Ls_Monitor_Lower_SW\EW-ARM(v8x)\Flash\Obj\stm32f4xx_hal_sram.o"
#        "K:\Ls_Monitor_Lower\Ls_Monitor_Lower_SW\EW-ARM(v8x)\Flash\Obj\stm32f4xx_hal_tim.o"
#        "K:\Ls_Monitor_Lower\Ls_Monitor_Lower_SW\EW-ARM(v8x)\Flash\Obj\stm32f4xx_hal_tim_ex.o"
#        "K:\Ls_Monitor_Lower\Ls_Monitor_Lower_SW\EW-ARM(v8x)\Flash\Obj\stm32f4xx_hal_uart.o"
#        "K:\Ls_Monitor_Lower\Ls_Monitor_Lower_SW\EW-ARM(v8x)\Flash\Obj\stm32f4xx_it.o"
#        "K:\Ls_Monitor_Lower\Ls_Monitor_Lower_SW\EW-ARM(v8x)\Flash\Obj\stm32f4xx_ll_fsmc.o"
#        "K:\Ls_Monitor_Lower\Ls_Monitor_Lower_SW\EW-ARM(v8x)\Flash\Obj\stm32f4xx_ll_sdmmc.o"
#        "K:\Ls_Monitor_Lower\Ls_Monitor_Lower_SW\EW-ARM(v8x)\Flash\Obj\sys.o"
#        "K:\Ls_Monitor_Lower\Ls_Monitor_Lower_SW\EW-ARM(v8x)\Flash\Obj\syscall.o"
#        "K:\Ls_Monitor_Lower\Ls_Monitor_Lower_SW\EW-ARM(v8x)\Flash\Obj\system_stm32f4xx.o"
#        "K:\Ls_Monitor_Lower\Ls_Monitor_Lower_SW\EW-ARM(v8x)\Flash\Obj\system_task_create.o"
#        "K:\Ls_Monitor_Lower\Ls_Monitor_Lower_SW\EW-ARM(v8x)\Flash\Obj\ticktim.o"
#        "K:\Ls_Monitor_Lower\Ls_Monitor_Lower_SW\EW-ARM(v8x)\Flash\Obj\tx_block_allocate.o"
#        "K:\Ls_Monitor_Lower\Ls_Monitor_Lower_SW\EW-ARM(v8x)\Flash\Obj\tx_block_pool_cleanup.o"
#        "K:\Ls_Monitor_Lower\Ls_Monitor_Lower_SW\EW-ARM(v8x)\Flash\Obj\tx_block_pool_create.o"
#        "K:\Ls_Monitor_Lower\Ls_Monitor_Lower_SW\EW-ARM(v8x)\Flash\Obj\tx_block_pool_delete.o"
#        "K:\Ls_Monitor_Lower\Ls_Monitor_Lower_SW\EW-ARM(v8x)\Flash\Obj\tx_block_pool_info_get.o"
#        "K:\Ls_Monitor_Lower\Ls_Monitor_Lower_SW\EW-ARM(v8x)\Flash\Obj\tx_block_pool_initialize.o"
#        "K:\Ls_Monitor_Lower\Ls_Monitor_Lower_SW\EW-ARM(v8x)\Flash\Obj\tx_block_pool_performance_info_get.o"
#        "K:\Ls_Monitor_Lower\Ls_Monitor_Lower_SW\EW-ARM(v8x)\Flash\Obj\tx_block_pool_performance_system_info_get.o"
#        "K:\Ls_Monitor_Lower\Ls_Monitor_Lower_SW\EW-ARM(v8x)\Flash\Obj\tx_block_pool_prioritize.o"
#        "K:\Ls_Monitor_Lower\Ls_Monitor_Lower_SW\EW-ARM(v8x)\Flash\Obj\tx_block_release.o"
#        "K:\Ls_Monitor_Lower\Ls_Monitor_Lower_SW\EW-ARM(v8x)\Flash\Obj\tx_byte_allocate.o"
#        "K:\Ls_Monitor_Lower\Ls_Monitor_Lower_SW\EW-ARM(v8x)\Flash\Obj\tx_byte_pool_cleanup.o"
#        "K:\Ls_Monitor_Lower\Ls_Monitor_Lower_SW\EW-ARM(v8x)\Flash\Obj\tx_byte_pool_create.o"
#        "K:\Ls_Monitor_Lower\Ls_Monitor_Lower_SW\EW-ARM(v8x)\Flash\Obj\tx_byte_pool_delete.o"
#        "K:\Ls_Monitor_Lower\Ls_Monitor_Lower_SW\EW-ARM(v8x)\Flash\Obj\tx_byte_pool_info_get.o"
#        "K:\Ls_Monitor_Lower\Ls_Monitor_Lower_SW\EW-ARM(v8x)\Flash\Obj\tx_byte_pool_initialize.o"
#        "K:\Ls_Monitor_Lower\Ls_Monitor_Lower_SW\EW-ARM(v8x)\Flash\Obj\tx_byte_pool_performance_info_get.o"
#        "K:\Ls_Monitor_Lower\Ls_Monitor_Lower_SW\EW-ARM(v8x)\Flash\Obj\tx_byte_pool_performance_system_info_get.o"
#        "K:\Ls_Monitor_Lower\Ls_Monitor_Lower_SW\EW-ARM(v8x)\Flash\Obj\tx_byte_pool_prioritize.o"
#        "K:\Ls_Monitor_Lower\Ls_Monitor_Lower_SW\EW-ARM(v8x)\Flash\Obj\tx_byte_pool_search.o"
#        "K:\Ls_Monitor_Lower\Ls_Monitor_Lower_SW\EW-ARM(v8x)\Flash\Obj\tx_byte_release.o"
#        "K:\Ls_Monitor_Lower\Ls_Monitor_Lower_SW\EW-ARM(v8x)\Flash\Obj\tx_event_flags_cleanup.o"
#        "K:\Ls_Monitor_Lower\Ls_Monitor_Lower_SW\EW-ARM(v8x)\Flash\Obj\tx_event_flags_create.o"
#        "K:\Ls_Monitor_Lower\Ls_Monitor_Lower_SW\EW-ARM(v8x)\Flash\Obj\tx_event_flags_delete.o"
#        "K:\Ls_Monitor_Lower\Ls_Monitor_Lower_SW\EW-ARM(v8x)\Flash\Obj\tx_event_flags_get.o"
#        "K:\Ls_Monitor_Lower\Ls_Monitor_Lower_SW\EW-ARM(v8x)\Flash\Obj\tx_event_flags_info_get.o"
#        "K:\Ls_Monitor_Lower\Ls_Monitor_Lower_SW\EW-ARM(v8x)\Flash\Obj\tx_event_flags_initialize.o"
#        "K:\Ls_Monitor_Lower\Ls_Monitor_Lower_SW\EW-ARM(v8x)\Flash\Obj\tx_event_flags_performance_info_get.o"
#        "K:\Ls_Monitor_Lower\Ls_Monitor_Lower_SW\EW-ARM(v8x)\Flash\Obj\tx_event_flags_performance_system_info_get.o"
#        "K:\Ls_Monitor_Lower\Ls_Monitor_Lower_SW\EW-ARM(v8x)\Flash\Obj\tx_event_flags_set.o"
#        "K:\Ls_Monitor_Lower\Ls_Monitor_Lower_SW\EW-ARM(v8x)\Flash\Obj\tx_event_flags_set_notify.o"
#        "K:\Ls_Monitor_Lower\Ls_Monitor_Lower_SW\EW-ARM(v8x)\Flash\Obj\tx_iar.o"
#        "K:\Ls_Monitor_Lower\Ls_Monitor_Lower_SW\EW-ARM(v8x)\Flash\Obj\tx_initialize_high_level.o"
#        "K:\Ls_Monitor_Lower\Ls_Monitor_Lower_SW\EW-ARM(v8x)\Flash\Obj\tx_initialize_kernel_enter.o"
#        "K:\Ls_Monitor_Lower\Ls_Monitor_Lower_SW\EW-ARM(v8x)\Flash\Obj\tx_initialize_kernel_setup.o"
#        "K:\Ls_Monitor_Lower\Ls_Monitor_Lower_SW\EW-ARM(v8x)\Flash\Obj\tx_initialize_low_level.o"
#        "K:\Ls_Monitor_Lower\Ls_Monitor_Lower_SW\EW-ARM(v8x)\Flash\Obj\tx_misra.o"
#        "K:\Ls_Monitor_Lower\Ls_Monitor_Lower_SW\EW-ARM(v8x)\Flash\Obj\tx_mutex_cleanup.o"
#        "K:\Ls_Monitor_Lower\Ls_Monitor_Lower_SW\EW-ARM(v8x)\Flash\Obj\tx_mutex_create.o"
#        "K:\Ls_Monitor_Lower\Ls_Monitor_Lower_SW\EW-ARM(v8x)\Flash\Obj\tx_mutex_delete.o"
#        "K:\Ls_Monitor_Lower\Ls_Monitor_Lower_SW\EW-ARM(v8x)\Flash\Obj\tx_mutex_get.o"
#        "K:\Ls_Monitor_Lower\Ls_Monitor_Lower_SW\EW-ARM(v8x)\Flash\Obj\tx_mutex_info_get.o"
#        "K:\Ls_Monitor_Lower\Ls_Monitor_Lower_SW\EW-ARM(v8x)\Flash\Obj\tx_mutex_initialize.o"
#        "K:\Ls_Monitor_Lower\Ls_Monitor_Lower_SW\EW-ARM(v8x)\Flash\Obj\tx_mutex_performance_info_get.o"
#        "K:\Ls_Monitor_Lower\Ls_Monitor_Lower_SW\EW-ARM(v8x)\Flash\Obj\tx_mutex_performance_system_info_get.o"
#        "K:\Ls_Monitor_Lower\Ls_Monitor_Lower_SW\EW-ARM(v8x)\Flash\Obj\tx_mutex_prioritize.o"
#        "K:\Ls_Monitor_Lower\Ls_Monitor_Lower_SW\EW-ARM(v8x)\Flash\Obj\tx_mutex_priority_change.o"
#        "K:\Ls_Monitor_Lower\Ls_Monitor_Lower_SW\EW-ARM(v8x)\Flash\Obj\tx_mutex_put.o"
#        "K:\Ls_Monitor_Lower\Ls_Monitor_Lower_SW\EW-ARM(v8x)\Flash\Obj\tx_queue_cleanup.o"
#        "K:\Ls_Monitor_Lower\Ls_Monitor_Lower_SW\EW-ARM(v8x)\Flash\Obj\tx_queue_create.o"
#        "K:\Ls_Monitor_Lower\Ls_Monitor_Lower_SW\EW-ARM(v8x)\Flash\Obj\tx_queue_delete.o"
#        "K:\Ls_Monitor_Lower\Ls_Monitor_Lower_SW\EW-ARM(v8x)\Flash\Obj\tx_queue_flush.o"
#        "K:\Ls_Monitor_Lower\Ls_Monitor_Lower_SW\EW-ARM(v8x)\Flash\Obj\tx_queue_front_send.o"
#        "K:\Ls_Monitor_Lower\Ls_Monitor_Lower_SW\EW-ARM(v8x)\Flash\Obj\tx_queue_info_get.o"
#        "K:\Ls_Monitor_Lower\Ls_Monitor_Lower_SW\EW-ARM(v8x)\Flash\Obj\tx_queue_initialize.o"
#        "K:\Ls_Monitor_Lower\Ls_Monitor_Lower_SW\EW-ARM(v8x)\Flash\Obj\tx_queue_performance_info_get.o"
#        "K:\Ls_Monitor_Lower\Ls_Monitor_Lower_SW\EW-ARM(v8x)\Flash\Obj\tx_queue_performance_system_info_get.o"
#        "K:\Ls_Monitor_Lower\Ls_Monitor_Lower_SW\EW-ARM(v8x)\Flash\Obj\tx_queue_prioritize.o"
#        "K:\Ls_Monitor_Lower\Ls_Monitor_Lower_SW\EW-ARM(v8x)\Flash\Obj\tx_queue_receive.o"
#        "K:\Ls_Monitor_Lower\Ls_Monitor_Lower_SW\EW-ARM(v8x)\Flash\Obj\tx_queue_send.o"
#        "K:\Ls_Monitor_Lower\Ls_Monitor_Lower_SW\EW-ARM(v8x)\Flash\Obj\tx_queue_send_notify.o"
#        "K:\Ls_Monitor_Lower\Ls_Monitor_Lower_SW\EW-ARM(v8x)\Flash\Obj\tx_semaphore_ceiling_put.o"
#        "K:\Ls_Monitor_Lower\Ls_Monitor_Lower_SW\EW-ARM(v8x)\Flash\Obj\tx_semaphore_cleanup.o"
#        "K:\Ls_Monitor_Lower\Ls_Monitor_Lower_SW\EW-ARM(v8x)\Flash\Obj\tx_semaphore_create.o"
#        "K:\Ls_Monitor_Lower\Ls_Monitor_Lower_SW\EW-ARM(v8x)\Flash\Obj\tx_semaphore_delete.o"
#        "K:\Ls_Monitor_Lower\Ls_Monitor_Lower_SW\EW-ARM(v8x)\Flash\Obj\tx_semaphore_get.o"
#        "K:\Ls_Monitor_Lower\Ls_Monitor_Lower_SW\EW-ARM(v8x)\Flash\Obj\tx_semaphore_info_get.o"
#        "K:\Ls_Monitor_Lower\Ls_Monitor_Lower_SW\EW-ARM(v8x)\Flash\Obj\tx_semaphore_initialize.o"
#        "K:\Ls_Monitor_Lower\Ls_Monitor_Lower_SW\EW-ARM(v8x)\Flash\Obj\tx_semaphore_performance_info_get.o"
#        "K:\Ls_Monitor_Lower\Ls_Monitor_Lower_SW\EW-ARM(v8x)\Flash\Obj\tx_semaphore_performance_system_info_get.o"
#        "K:\Ls_Monitor_Lower\Ls_Monitor_Lower_SW\EW-ARM(v8x)\Flash\Obj\tx_semaphore_prioritize.o"
#        "K:\Ls_Monitor_Lower\Ls_Monitor_Lower_SW\EW-ARM(v8x)\Flash\Obj\tx_semaphore_put.o"
#        "K:\Ls_Monitor_Lower\Ls_Monitor_Lower_SW\EW-ARM(v8x)\Flash\Obj\tx_semaphore_put_notify.o"
#        "K:\Ls_Monitor_Lower\Ls_Monitor_Lower_SW\EW-ARM(v8x)\Flash\Obj\tx_thread_context_restore.o"
#        "K:\Ls_Monitor_Lower\Ls_Monitor_Lower_SW\EW-ARM(v8x)\Flash\Obj\tx_thread_context_save.o"
#        "K:\Ls_Monitor_Lower\Ls_Monitor_Lower_SW\EW-ARM(v8x)\Flash\Obj\tx_thread_create.o"
#        "K:\Ls_Monitor_Lower\Ls_Monitor_Lower_SW\EW-ARM(v8x)\Flash\Obj\tx_thread_delete.o"
#        "K:\Ls_Monitor_Lower\Ls_Monitor_Lower_SW\EW-ARM(v8x)\Flash\Obj\tx_thread_entry_exit_notify.o"
#        "K:\Ls_Monitor_Lower\Ls_Monitor_Lower_SW\EW-ARM(v8x)\Flash\Obj\tx_thread_identify.o"
#        "K:\Ls_Monitor_Lower\Ls_Monitor_Lower_SW\EW-ARM(v8x)\Flash\Obj\tx_thread_info_get.o"
#        "K:\Ls_Monitor_Lower\Ls_Monitor_Lower_SW\EW-ARM(v8x)\Flash\Obj\tx_thread_initialize.o"
#        "K:\Ls_Monitor_Lower\Ls_Monitor_Lower_SW\EW-ARM(v8x)\Flash\Obj\tx_thread_interrupt_control.o"
#        "K:\Ls_Monitor_Lower\Ls_Monitor_Lower_SW\EW-ARM(v8x)\Flash\Obj\tx_thread_interrupt_disable.o"
#        "K:\Ls_Monitor_Lower\Ls_Monitor_Lower_SW\EW-ARM(v8x)\Flash\Obj\tx_thread_interrupt_restore.o"
#        "K:\Ls_Monitor_Lower\Ls_Monitor_Lower_SW\EW-ARM(v8x)\Flash\Obj\tx_thread_performance_info_get.o"
#        "K:\Ls_Monitor_Lower\Ls_Monitor_Lower_SW\EW-ARM(v8x)\Flash\Obj\tx_thread_performance_system_info_get.o"
#        "K:\Ls_Monitor_Lower\Ls_Monitor_Lower_SW\EW-ARM(v8x)\Flash\Obj\tx_thread_preemption_change.o"
#        "K:\Ls_Monitor_Lower\Ls_Monitor_Lower_SW\EW-ARM(v8x)\Flash\Obj\tx_thread_priority_change.o"
#        "K:\Ls_Monitor_Lower\Ls_Monitor_Lower_SW\EW-ARM(v8x)\Flash\Obj\tx_thread_relinquish.o"
#        "K:\Ls_Monitor_Lower\Ls_Monitor_Lower_SW\EW-ARM(v8x)\Flash\Obj\tx_thread_reset.o"
#        "K:\Ls_Monitor_Lower\Ls_Monitor_Lower_SW\EW-ARM(v8x)\Flash\Obj\tx_thread_resume.o"
#        "K:\Ls_Monitor_Lower\Ls_Monitor_Lower_SW\EW-ARM(v8x)\Flash\Obj\tx_thread_schedule.o"
#        "K:\Ls_Monitor_Lower\Ls_Monitor_Lower_SW\EW-ARM(v8x)\Flash\Obj\tx_thread_shell_entry.o"
#        "K:\Ls_Monitor_Lower\Ls_Monitor_Lower_SW\EW-ARM(v8x)\Flash\Obj\tx_thread_sleep.o"
#        "K:\Ls_Monitor_Lower\Ls_Monitor_Lower_SW\EW-ARM(v8x)\Flash\Obj\tx_thread_stack_analyze.o"
#        "K:\Ls_Monitor_Lower\Ls_Monitor_Lower_SW\EW-ARM(v8x)\Flash\Obj\tx_thread_stack_build.o"
#        "K:\Ls_Monitor_Lower\Ls_Monitor_Lower_SW\EW-ARM(v8x)\Flash\Obj\tx_thread_stack_error_handler.o"
#        "K:\Ls_Monitor_Lower\Ls_Monitor_Lower_SW\EW-ARM(v8x)\Flash\Obj\tx_thread_stack_error_notify.o"
#        "K:\Ls_Monitor_Lower\Ls_Monitor_Lower_SW\EW-ARM(v8x)\Flash\Obj\tx_thread_suspend.o"
#        "K:\Ls_Monitor_Lower\Ls_Monitor_Lower_SW\EW-ARM(v8x)\Flash\Obj\tx_thread_system_preempt_check.o"
#        "K:\Ls_Monitor_Lower\Ls_Monitor_Lower_SW\EW-ARM(v8x)\Flash\Obj\tx_thread_system_resume.o"
#        "K:\Ls_Monitor_Lower\Ls_Monitor_Lower_SW\EW-ARM(v8x)\Flash\Obj\tx_thread_system_return.o"
#        "K:\Ls_Monitor_Lower\Ls_Monitor_Lower_SW\EW-ARM(v8x)\Flash\Obj\tx_thread_system_suspend.o"
#        "K:\Ls_Monitor_Lower\Ls_Monitor_Lower_SW\EW-ARM(v8x)\Flash\Obj\tx_thread_terminate.o"
#        "K:\Ls_Monitor_Lower\Ls_Monitor_Lower_SW\EW-ARM(v8x)\Flash\Obj\tx_thread_time_slice.o"
#        "K:\Ls_Monitor_Lower\Ls_Monitor_Lower_SW\EW-ARM(v8x)\Flash\Obj\tx_thread_time_slice_change.o"
#        "K:\Ls_Monitor_Lower\Ls_Monitor_Lower_SW\EW-ARM(v8x)\Flash\Obj\tx_thread_timeout.o"
#        "K:\Ls_Monitor_Lower\Ls_Monitor_Lower_SW\EW-ARM(v8x)\Flash\Obj\tx_thread_wait_abort.o"
#        "K:\Ls_Monitor_Lower\Ls_Monitor_Lower_SW\EW-ARM(v8x)\Flash\Obj\tx_time_get.o"
#        "K:\Ls_Monitor_Lower\Ls_Monitor_Lower_SW\EW-ARM(v8x)\Flash\Obj\tx_time_set.o"
#        "K:\Ls_Monitor_Lower\Ls_Monitor_Lower_SW\EW-ARM(v8x)\Flash\Obj\tx_timer_activate.o"
#        "K:\Ls_Monitor_Lower\Ls_Monitor_Lower_SW\EW-ARM(v8x)\Flash\Obj\tx_timer_change.o"
#        "K:\Ls_Monitor_Lower\Ls_Monitor_Lower_SW\EW-ARM(v8x)\Flash\Obj\tx_timer_create.o"
#        "K:\Ls_Monitor_Lower\Ls_Monitor_Lower_SW\EW-ARM(v8x)\Flash\Obj\tx_timer_deactivate.o"
#        "K:\Ls_Monitor_Lower\Ls_Monitor_Lower_SW\EW-ARM(v8x)\Flash\Obj\tx_timer_delete.o"
#        "K:\Ls_Monitor_Lower\Ls_Monitor_Lower_SW\EW-ARM(v8x)\Flash\Obj\tx_timer_expiration_process.o"
#        "K:\Ls_Monitor_Lower\Ls_Monitor_Lower_SW\EW-ARM(v8x)\Flash\Obj\tx_timer_info_get.o"
#        "K:\Ls_Monitor_Lower\Ls_Monitor_Lower_SW\EW-ARM(v8x)\Flash\Obj\tx_timer_initialize.o"
#        "K:\Ls_Monitor_Lower\Ls_Monitor_Lower_SW\EW-ARM(v8x)\Flash\Obj\tx_timer_interrupt.o"
#        "K:\Ls_Monitor_Lower\Ls_Monitor_Lower_SW\EW-ARM(v8x)\Flash\Obj\tx_timer_performance_info_get.o"
#        "K:\Ls_Monitor_Lower\Ls_Monitor_Lower_SW\EW-ARM(v8x)\Flash\Obj\tx_timer_performance_system_info_get.o"
#        "K:\Ls_Monitor_Lower\Ls_Monitor_Lower_SW\EW-ARM(v8x)\Flash\Obj\tx_timer_system_activate.o"
#        "K:\Ls_Monitor_Lower\Ls_Monitor_Lower_SW\EW-ARM(v8x)\Flash\Obj\tx_timer_system_deactivate.o"
#        "K:\Ls_Monitor_Lower\Ls_Monitor_Lower_SW\EW-ARM(v8x)\Flash\Obj\tx_timer_thread_entry.o"
#        "K:\Ls_Monitor_Lower\Ls_Monitor_Lower_SW\EW-ARM(v8x)\Flash\Obj\tx_trace_buffer_full_notify.o"
#        "K:\Ls_Monitor_Lower\Ls_Monitor_Lower_SW\EW-ARM(v8x)\Flash\Obj\tx_trace_disable.o"
#        "K:\Ls_Monitor_Lower\Ls_Monitor_Lower_SW\EW-ARM(v8x)\Flash\Obj\tx_trace_enable.o"
#        "K:\Ls_Monitor_Lower\Ls_Monitor_Lower_SW\EW-ARM(v8x)\Flash\Obj\tx_trace_event_filter.o"
#        "K:\Ls_Monitor_Lower\Ls_Monitor_Lower_SW\EW-ARM(v8x)\Flash\Obj\tx_trace_event_unfilter.o"
#        "K:\Ls_Monitor_Lower\Ls_Monitor_Lower_SW\EW-ARM(v8x)\Flash\Obj\tx_trace_initialize.o"
#        "K:\Ls_Monitor_Lower\Ls_Monitor_Lower_SW\EW-ARM(v8x)\Flash\Obj\tx_trace_interrupt_control.o"
#        "K:\Ls_Monitor_Lower\Ls_Monitor_Lower_SW\EW-ARM(v8x)\Flash\Obj\tx_trace_isr_enter_insert.o"
#        "K:\Ls_Monitor_Lower\Ls_Monitor_Lower_SW\EW-ARM(v8x)\Flash\Obj\tx_trace_isr_exit_insert.o"
#        "K:\Ls_Monitor_Lower\Ls_Monitor_Lower_SW\EW-ARM(v8x)\Flash\Obj\tx_trace_object_register.o"
#        "K:\Ls_Monitor_Lower\Ls_Monitor_Lower_SW\EW-ARM(v8x)\Flash\Obj\tx_trace_object_unregister.o"
#        "K:\Ls_Monitor_Lower\Ls_Monitor_Lower_SW\EW-ARM(v8x)\Flash\Obj\tx_trace_user_event_insert.o"
#        "K:\Ls_Monitor_Lower\Ls_Monitor_Lower_SW\EW-ARM(v8x)\Flash\Obj\txe_block_allocate.o"
#        "K:\Ls_Monitor_Lower\Ls_Monitor_Lower_SW\EW-ARM(v8x)\Flash\Obj\txe_block_pool_create.o"
#        "K:\Ls_Monitor_Lower\Ls_Monitor_Lower_SW\EW-ARM(v8x)\Flash\Obj\txe_block_pool_delete.o"
#        "K:\Ls_Monitor_Lower\Ls_Monitor_Lower_SW\EW-ARM(v8x)\Flash\Obj\txe_block_pool_info_get.o"
#        "K:\Ls_Monitor_Lower\Ls_Monitor_Lower_SW\EW-ARM(v8x)\Flash\Obj\txe_block_pool_prioritize.o"
#        "K:\Ls_Monitor_Lower\Ls_Monitor_Lower_SW\EW-ARM(v8x)\Flash\Obj\txe_block_release.o"
#        "K:\Ls_Monitor_Lower\Ls_Monitor_Lower_SW\EW-ARM(v8x)\Flash\Obj\txe_byte_allocate.o"
#        "K:\Ls_Monitor_Lower\Ls_Monitor_Lower_SW\EW-ARM(v8x)\Flash\Obj\txe_byte_pool_create.o"
#        "K:\Ls_Monitor_Lower\Ls_Monitor_Lower_SW\EW-ARM(v8x)\Flash\Obj\txe_byte_pool_delete.o"
#        "K:\Ls_Monitor_Lower\Ls_Monitor_Lower_SW\EW-ARM(v8x)\Flash\Obj\txe_byte_pool_info_get.o"
#        "K:\Ls_Monitor_Lower\Ls_Monitor_Lower_SW\EW-ARM(v8x)\Flash\Obj\txe_byte_pool_prioritize.o"
#        "K:\Ls_Monitor_Lower\Ls_Monitor_Lower_SW\EW-ARM(v8x)\Flash\Obj\txe_byte_release.o"
#        "K:\Ls_Monitor_Lower\Ls_Monitor_Lower_SW\EW-ARM(v8x)\Flash\Obj\txe_event_flags_create.o"
#        "K:\Ls_Monitor_Lower\Ls_Monitor_Lower_SW\EW-ARM(v8x)\Flash\Obj\txe_event_flags_delete.o"
#        "K:\Ls_Monitor_Lower\Ls_Monitor_Lower_SW\EW-ARM(v8x)\Flash\Obj\txe_event_flags_get.o"
#        "K:\Ls_Monitor_Lower\Ls_Monitor_Lower_SW\EW-ARM(v8x)\Flash\Obj\txe_event_flags_info_get.o"
#        "K:\Ls_Monitor_Lower\Ls_Monitor_Lower_SW\EW-ARM(v8x)\Flash\Obj\txe_event_flags_set.o"
#        "K:\Ls_Monitor_Lower\Ls_Monitor_Lower_SW\EW-ARM(v8x)\Flash\Obj\txe_event_flags_set_notify.o"
#        "K:\Ls_Monitor_Lower\Ls_Monitor_Lower_SW\EW-ARM(v8x)\Flash\Obj\txe_mutex_create.o"
#        "K:\Ls_Monitor_Lower\Ls_Monitor_Lower_SW\EW-ARM(v8x)\Flash\Obj\txe_mutex_delete.o"
#        "K:\Ls_Monitor_Lower\Ls_Monitor_Lower_SW\EW-ARM(v8x)\Flash\Obj\txe_mutex_get.o"
#        "K:\Ls_Monitor_Lower\Ls_Monitor_Lower_SW\EW-ARM(v8x)\Flash\Obj\txe_mutex_info_get.o"
#        "K:\Ls_Monitor_Lower\Ls_Monitor_Lower_SW\EW-ARM(v8x)\Flash\Obj\txe_mutex_prioritize.o"
#        "K:\Ls_Monitor_Lower\Ls_Monitor_Lower_SW\EW-ARM(v8x)\Flash\Obj\txe_mutex_put.o"
#        "K:\Ls_Monitor_Lower\Ls_Monitor_Lower_SW\EW-ARM(v8x)\Flash\Obj\txe_queue_create.o"
#        "K:\Ls_Monitor_Lower\Ls_Monitor_Lower_SW\EW-ARM(v8x)\Flash\Obj\txe_queue_delete.o"
#        "K:\Ls_Monitor_Lower\Ls_Monitor_Lower_SW\EW-ARM(v8x)\Flash\Obj\txe_queue_flush.o"
#        "K:\Ls_Monitor_Lower\Ls_Monitor_Lower_SW\EW-ARM(v8x)\Flash\Obj\txe_queue_front_send.o"
#        "K:\Ls_Monitor_Lower\Ls_Monitor_Lower_SW\EW-ARM(v8x)\Flash\Obj\txe_queue_info_get.o"
#        "K:\Ls_Monitor_Lower\Ls_Monitor_Lower_SW\EW-ARM(v8x)\Flash\Obj\txe_queue_prioritize.o"
#        "K:\Ls_Monitor_Lower\Ls_Monitor_Lower_SW\EW-ARM(v8x)\Flash\Obj\txe_queue_receive.o"
#        "K:\Ls_Monitor_Lower\Ls_Monitor_Lower_SW\EW-ARM(v8x)\Flash\Obj\txe_queue_send.o"
#        "K:\Ls_Monitor_Lower\Ls_Monitor_Lower_SW\EW-ARM(v8x)\Flash\Obj\txe_queue_send_notify.o"
#        "K:\Ls_Monitor_Lower\Ls_Monitor_Lower_SW\EW-ARM(v8x)\Flash\Obj\txe_semaphore_ceiling_put.o"
#        "K:\Ls_Monitor_Lower\Ls_Monitor_Lower_SW\EW-ARM(v8x)\Flash\Obj\txe_semaphore_create.o"
#        "K:\Ls_Monitor_Lower\Ls_Monitor_Lower_SW\EW-ARM(v8x)\Flash\Obj\txe_semaphore_delete.o"
#        "K:\Ls_Monitor_Lower\Ls_Monitor_Lower_SW\EW-ARM(v8x)\Flash\Obj\txe_semaphore_get.o"
#        "K:\Ls_Monitor_Lower\Ls_Monitor_Lower_SW\EW-ARM(v8x)\Flash\Obj\txe_semaphore_info_get.o"
#        "K:\Ls_Monitor_Lower\Ls_Monitor_Lower_SW\EW-ARM(v8x)\Flash\Obj\txe_semaphore_prioritize.o"
#        "K:\Ls_Monitor_Lower\Ls_Monitor_Lower_SW\EW-ARM(v8x)\Flash\Obj\txe_semaphore_put.o"
#        "K:\Ls_Monitor_Lower\Ls_Monitor_Lower_SW\EW-ARM(v8x)\Flash\Obj\txe_semaphore_put_notify.o"
#        "K:\Ls_Monitor_Lower\Ls_Monitor_Lower_SW\EW-ARM(v8x)\Flash\Obj\txe_thread_create.o"
#        "K:\Ls_Monitor_Lower\Ls_Monitor_Lower_SW\EW-ARM(v8x)\Flash\Obj\txe_thread_delete.o"
#        "K:\Ls_Monitor_Lower\Ls_Monitor_Lower_SW\EW-ARM(v8x)\Flash\Obj\txe_thread_entry_exit_notify.o"
#        "K:\Ls_Monitor_Lower\Ls_Monitor_Lower_SW\EW-ARM(v8x)\Flash\Obj\txe_thread_info_get.o"
#        "K:\Ls_Monitor_Lower\Ls_Monitor_Lower_SW\EW-ARM(v8x)\Flash\Obj\txe_thread_preemption_change.o"
#        "K:\Ls_Monitor_Lower\Ls_Monitor_Lower_SW\EW-ARM(v8x)\Flash\Obj\txe_thread_priority_change.o"
#        "K:\Ls_Monitor_Lower\Ls_Monitor_Lower_SW\EW-ARM(v8x)\Flash\Obj\txe_thread_relinquish.o"
#        "K:\Ls_Monitor_Lower\Ls_Monitor_Lower_SW\EW-ARM(v8x)\Flash\Obj\txe_thread_reset.o"
#        "K:\Ls_Monitor_Lower\Ls_Monitor_Lower_SW\EW-ARM(v8x)\Flash\Obj\txe_thread_resume.o"
#        "K:\Ls_Monitor_Lower\Ls_Monitor_Lower_SW\EW-ARM(v8x)\Flash\Obj\txe_thread_suspend.o"
#        "K:\Ls_Monitor_Lower\Ls_Monitor_Lower_SW\EW-ARM(v8x)\Flash\Obj\txe_thread_terminate.o"
#        "K:\Ls_Monitor_Lower\Ls_Monitor_Lower_SW\EW-ARM(v8x)\Flash\Obj\txe_thread_time_slice_change.o"
#        "K:\Ls_Monitor_Lower\Ls_Monitor_Lower_SW\EW-ARM(v8x)\Flash\Obj\txe_thread_wait_abort.o"
#        "K:\Ls_Monitor_Lower\Ls_Monitor_Lower_SW\EW-ARM(v8x)\Flash\Obj\txe_timer_activate.o"
#        "K:\Ls_Monitor_Lower\Ls_Monitor_Lower_SW\EW-ARM(v8x)\Flash\Obj\txe_timer_change.o"
#        "K:\Ls_Monitor_Lower\Ls_Monitor_Lower_SW\EW-ARM(v8x)\Flash\Obj\txe_timer_create.o"
#        "K:\Ls_Monitor_Lower\Ls_Monitor_Lower_SW\EW-ARM(v8x)\Flash\Obj\txe_timer_deactivate.o"
#        "K:\Ls_Monitor_Lower\Ls_Monitor_Lower_SW\EW-ARM(v8x)\Flash\Obj\txe_timer_delete.o"
#        "K:\Ls_Monitor_Lower\Ls_Monitor_Lower_SW\EW-ARM(v8x)\Flash\Obj\txe_timer_info_get.o"
#        "K:\Ls_Monitor_Lower\Ls_Monitor_Lower_SW\EW-ARM(v8x)\Flash\Obj\vehicle_status.o"
#        --redirect _Printf=_PrintfFullNoMb --redirect _Scanf=_ScanfFullNoMb
#        --no_out_extension -o
#        "K:\Ls_Monitor_Lower\Ls_Monitor_Lower_SW\EW-ARM(v8x)\Flash\Exe\Run_Xian.elf"
#        --map
#        "K:\Ls_Monitor_Lower\Ls_Monitor_Lower_SW\EW-ARM(v8x)\Flash\List\Run_Xian.map"
#        --config
#        "K:\Ls_Monitor_Lower\Ls_Monitor_Lower_SW\EW-ARM(v8x)\stm32f407xx_flash.icf"
#        --semihosting --entry __iar_program_start --vfe --text_out locale)
#
###############################################################################

*******************************************************************************
*** RUNTIME MODEL ATTRIBUTES
***

CppFlavor       = *
__Heap_Handler  = DLMalloc
__SystemLibrary = DLib
__dlib_version  = 6


*******************************************************************************
*** HEAP SELECTION
***

The advanced heap was selected because the application calls memory
allocation functions outside of system library functions, and there
are calls to deallocation functions in the application.


*******************************************************************************
*** PLACEMENT SUMMARY
***

"A0":  place at address 0x800'0000 { ro section .intvec };
"P1":  place in [from 0x800'0000 to 0x80f'ffff] { ro };
define block CSTACK with size = 1K, alignment = 8 { };
define block HEAP with size = 1K, alignment = 8 { };
"P2":  place in [from 0x2000'0000 to 0x2001'ffff] {
          rw, block CSTACK, block HEAP };
initialize by copy { rw };

No sections matched the following patterns:

  rw object startup_stm32f407xx.o  in "P3"
  rw section .EXTERN_SRAM          in "P4"


  Section                 Kind         Address    Size  Object
  -------                 ----         -------    ----  ------
"A0":                                            0x188
  .intvec                 ro code   0x800'0000   0x188  startup_stm32f407xx.o [1]
                                  - 0x800'0188   0x188

"P1":                                           0xc4c6
  .text                   ro code   0x800'0188   0xfc2  xprintffull_nomb.o [2]
  .text                   ro code   0x800'114a    0x3a  zero_init3.o [4]
  .text                   ro code   0x800'1184    0x16  strchr.o [4]
  .text                   ro code   0x800'119a    0x1a  xsnprout.o [2]
  .text                   ro code   0x800'11b4    0x40  xfail_s.o [2]
  .text                   ro code   0x800'11f4    0x36  strlen.o [4]
  .rodata                 const     0x800'122a     0x2  xlocale_c.o [2]
  .text                   ro code   0x800'122c    0x58  memchr.o [4]
  .text                   ro code   0x800'1284    0xa6  ABImemcpy.o [4]
  .rodata                 const     0x800'132a     0x2  xlocale_c.o [2]
  .text                   ro code   0x800'132c    0x70  frexp.o [3]
  .text                   ro code   0x800'139c    0x2e  DblCmpLe.o [3]
  .rodata                 const     0x800'13ca     0x1  xlocale_c.o [2]
  .text                   ro code   0x800'13cc    0x2e  DblCmpGe.o [3]
  .text                   ro code   0x800'13fc   0x13a  ldexp.o [3]
  .text                   ro code   0x800'1538    0x3a  DblToS32.o [3]
  .text                   ro code   0x800'1574    0x22  S32ToDbl.o [3]
  .text                   ro code   0x800'1598    0xe2  DblSub.o [3]
  .text                   ro code   0x800'167c   0x246  DblDiv.o [3]
  .text                   ro code   0x800'18c4    0x28  DblToU32.o [3]
  .text                   ro code   0x800'18ec    0x1a  U32ToDbl.o [3]
  .text                   ro code   0x800'1908   0x1a2  DblMul.o [3]
  .text                   ro code   0x800'1aac    0x2c  xlocale_c.o [2]
  .text                   ro code   0x800'1ad8   0x230  I64DivMod.o [4]
  .text                   ro code   0x800'1d08     0x6  abort.o [2]
  .text                   ro code   0x800'1d10   0x16a  DblAdd.o [3]
  .text                   ro code   0x800'1e7c     0x2  I64DivZer.o [4]
  .text                   ro code   0x800'1e80    0x14  exit.o [5]
  .text                   ro code   0x800'1e94   0xa9e  stm32f4xx_hal_tim.o [1]
  .text                   ro code   0x800'2934   0x170  bsp_rotation.o [1]
  .text                   ro code   0x800'2aa4     0x2  stm32f4xx_hal_tim.o [1]
  .text                   ro code   0x800'2aa6     0x2  stm32f4xx_hal_tim.o [1]
  .text                   ro code   0x800'2aa8   0x504  stm32f4xx_hal_dma.o [1]
  .text                   ro code   0x800'2fac     0x2  stm32f4xx_hal_tim.o [1]
  .text                   ro code   0x800'2fae     0x2  stm32f4xx_hal_tim.o [1]
  .text                   ro code   0x800'2fb0   0x834  bsp_tim_pwm.o [1]
  .text                   ro code   0x800'37e4     0x2  stm32f4xx_hal_tim_ex.o [1]
  .text                   ro code   0x800'37e6     0x2  stm32f4xx_hal_tim.o [1]
  .text                   ro code   0x800'37e8     0x2  stm32f4xx_hal_tim_ex.o [1]
  .text                   ro code   0x800'37ea     0x2  stm32f4xx_hal_tim.o [1]
  .text                   ro code   0x800'37ec     0x2  stm32f4xx_hal_tim.o [1]
  .text                   ro code   0x800'37f0    0x66  ABImemset.o [4]
  .text                   ro code   0x800'3858   0x580  msg_task.o [1]
  .text                   ro code   0x800'3dd8    0x4c  stm32f4xx_hal_tim_ex.o [1]
  .text                   ro code   0x800'3e24    0xe0  stm32f4xx_hal_cortex.o [1]
  .text                   ro code   0x800'3f04   0x228  stm32f4xx_hal_gpio.o [1]
  .text                   ro code   0x800'412c    0x7c  bsp_dwt.o [1]
  .text                   ro code   0x800'41a8     0x6  ABImemclr4.o [4]
  .text                   ro code   0x800'41b0   0x14c  tx_thread_sleep.o [1]
  .text                   ro code   0x800'42fc    0x70  txe_event_flags_get.o [1]
  .text                   ro code   0x800'436c   0x312  bsp_key.o [1]
  .text                   ro code   0x800'4680   0x3cc  bsp_usart_fifo.o [1]
  .text                   ro code   0x800'4a4c   0x154  ansi.o [1]
  .text                   ro code   0x800'4ba0   0x5d4  nr_micro_shell.o [1]
  .text                   ro code   0x800'5174    0x12  strcmp.o [4]
  .text                   ro code   0x800'5188   0x84c  bsp_can_bus.o [1]
  .text                   ro code   0x800'59d4    0x3c  vsnprint.o [2]
  .text                   ro code   0x800'5a10    0x7c  txe_mutex_get.o [1]
  .text                   ro code   0x800'5a8c    0x4c  txe_mutex_put.o [1]
  .text                   ro code   0x800'5ad8    0x68  DblToFlt.o [3]
  .text                   ro code   0x800'5b40    0xd0  tx_time_get.o [1]
  .text                   ro code   0x800'5c10    0x32  ABImemset48.o [4]
  .text                   ro code   0x800'5c44   0x398  tx_thread_system_suspend.o [1]
  .text                   ro code   0x800'5fdc   0x1c4  tx_event_flags_get.o [1]
  .text                   ro code   0x800'61a0   0x386  stm32f4xx_hal_uart.o [1]
  .text                   ro code   0x800'6528   0x308  ansi_port.o [1]
  .text                   ro code   0x800'6830    0x14  isalpha.o [2]
  .text                   ro code   0x800'6844    0x18  strcpy.o [4]
  .text                   ro code   0x800'685c    0x2c  strstr.o [2]
  .text                   ro code   0x800'6888   0x7d6  stm32f4xx_hal_can.o [1]
  .text                   ro code   0x800'7060   0x1c8  tx_mutex_get.o [1]
  .text                   ro code   0x800'7228   0x2d4  tx_mutex_put.o [1]
  .text                   ro code   0x800'74fc    0x20  tx_thread_stack_error_handler.o [1]
  .text                   ro code   0x800'751c    0x80  tx_thread_stack_analyze.o [1]
  .text                   ro code   0x800'759c    0x64  tx_timer_system_activate.o [1]
  .text                   ro code   0x800'7600   0x204  stm32f4xx_hal_rcc.o [1]
  .text                   ro code   0x800'7804     0xc  putchar.o [2]
  .text                   ro code   0x800'7810     0x2  stm32f4xx_hal_can.o [1]
  .text                   ro code   0x800'7812     0x2  stm32f4xx_hal_can.o [1]
  .text                   ro code   0x800'7814     0x2  stm32f4xx_hal_can.o [1]
  .text                   ro code   0x800'7816     0x2  stm32f4xx_hal_can.o [1]
  .text                   ro code   0x800'7818     0x2  stm32f4xx_hal_can.o [1]
  .text                   ro code   0x800'781a     0x2  stm32f4xx_hal_can.o [1]
  .text                   ro code   0x800'781c     0x2  stm32f4xx_hal_can.o [1]
  .text                   ro code   0x800'7820    0xf0  tx_mutex_priority_change.o [1]
  .text                   ro code   0x800'7910   0x168  tx_mutex_prioritize.o [1]
  .text                   ro code   0x800'7a78    0xc0  tx_thread_system_preempt_check.o [1]
  .text                   ro code   0x800'7b38   0x394  tx_thread_system_resume.o [1]
  .text                   ro code   0x800'7ecc    0x2e  tx_timer_system_deactivate.o [1]
  .text                   ro code   0x800'7efc   0x454  stm32f4xx_hal_spi.o [1]
  .text                   ro code   0x800'8350   0x2f8  bsp_spi_bus.o [1]
  .text                   ro code   0x800'8648     0x2  stm32f4xx_hal_spi.o [1]
  .text                   ro code   0x800'864c   0x36c  stm32f4xx_hal_rcc.o [1]
  .text                   ro code   0x800'89b8   0x322  stm32f4xx_hal_sd.o [1]
  .text                   ro code   0x800'8cdc   0x1f0  stm32f4xx_ll_sdmmc.o [1]
  .text                   ro code   0x800'8ecc     0x2  stm32f4xx_hal_sd.o [1]
  .text                   ro code   0x800'8ed0    0x40  bsp_sdio_sd.o [1]
  .text                   ro code   0x800'8f10     0x2  bsp_sdio_sd.o [1]
  .text                   ro code   0x800'8f14    0x1c  sd_diskio_dma.o [1]
  .text                   ro code   0x800'8f30   0x290  system_task_create.o [1]
  .text                   ro code   0x800'91c0   0x15c  txe_thread_create.o [1]
  .text                   ro code   0x800'931c   0x14c  statistic_task.o [1]
  .text                   ro code   0x800'9468    0x10  stm32f4xx_hal.o [1]
  .text                   ro code   0x800'9478   0x146  ticktim.o [1]
  .text                   ro code   0x800'95c0    0xe8  bsp_iic_bus.o [1]
  .text                   ro code   0x800'96a8    0xd4  bsp_led.o [1]
  .text                   ro code   0x800'977c    0x28  bsp_ws2812b.o [1]
  .text                   ro code   0x800'97a4   0x1c0  bsp_spi_flash.o [1]
  .text                   ro code   0x800'9964    0xcc  txe_mutex_create.o [1]
  .text                   ro code   0x800'9a30    0xe8  txe_timer_create.o [1]
  .text                   ro code   0x800'9b18    0xb4  txe_event_flags_create.o [1]
  .text                   ro code   0x800'9bcc   0x238  tx_thread_create.o [1]
  .text                   ro code   0x800'9e04    0x48  FltToDbl.o [3]
  .text                   ro code   0x800'9e4c     0x2  ticktim.o [1]
  .text                   ro code   0x800'9e50   0x1d0  stm32f4xx_hal_i2c.o [1]
  .text                   ro code   0x800'a020   0x134  tx_mutex_create.o [1]
  .text                   ro code   0x800'a154   0x144  tx_timer_create.o [1]
  .text                   ro code   0x800'a298   0x124  tx_event_flags_create.o [1]
  .text                   ro code   0x800'a3bc    0x44  tx_thread_stack_build.o [1]
  .text                   ro code   0x800'a400   0x11c  tx_trace_object_register.o [1]
  .text                   ro code   0x800'a51c   0x24c  tx_thread_time_slice.o [1]
  .text                   ro code   0x800'a768   0x130  tx_timer_thread_entry.o [1]
  .text                   ro code   0x800'a898    0xe8  tx_timer_interrupt.o [1]
  .text                   ro code   0x800'a980    0x24  tx_timer_expiration_process.o [1]
  .text                   ro code   0x800'a9a4    0xe0  SEGGER_HardFaultHandler.o [1]
  .text                   ro code   0x800'aa84    0xe0  tx_timer_initialize.o [1]
  .text                   ro code   0x800'ab64    0xd0  tx_thread_schedule.o [1]
  .text                   ro code   0x800'ac34    0xc8  tx_mutex_cleanup.o [1]
  .text                   ro code   0x800'acfc    0xb0  sys.o [1]
  .text                   ro code   0x800'adac    0x38  stm32f4xx_hal.o [1]
  .text                   ro code   0x800'ade4     0x2  stm32f4xx_hal_msp.o [1]
  .text                   ro code   0x800'ade8    0x98  tx_thread_initialize.o [1]
  .text                   ro code   0x800'ae80    0x90  tx_event_flags_cleanup.o [1]
  .text                   ro code   0x800'af10    0x88  tx_initialize_high_level.o [1]
  .text                   ro code   0x800'af98    0x40  tx_trace_initialize.o [1]
  .text                   ro code   0x800'afd8    0x84  tx_thread_shell_entry.o [1]
  .text                   ro code   0x800'b05c    0x78  lz77_init_single.o [4]
  .text                   ro code   0x800'b0d4    0x74  tx_initialize_low_level.o [1]
  .text                   ro code   0x800'b148    0x60  system_stm32f4xx.o [1]
  .rodata                 const     0x800'b1a8    0x50  ansi.o [1]
  .rodata                 const     0x800'b1f8    0x50  statistic_task.o [1]
  .rodata                 const     0x800'b248    0x4c  bsp_usart_fifo.o [1]
  .rodata                 const     0x800'b294    0x48  bsp_rotation.o [1]
  .text                   ro code   0x800'b2dc    0x48  tx_initialize_kernel_enter.o [1]
  .rodata                 const     0x800'b324    0x44  bsp_can_bus.o [1]
  .rodata                 const     0x800'b368    0x44  bsp_spi_bus.o [1]
  .rodata                 const     0x800'b3ac    0x44  bsp_tim_pwm.o [1]
  .rodata                 const     0x800'b3f0    0x44  nr_micro_shell.o [1]
  .rodata                 const     0x800'b434    0x44  nr_micro_shell.o [1]
  .rodata                 const     0x800'b478    0x44  nr_micro_shell.o [1]
  .rodata                 const     0x800'b4bc    0x44  nr_micro_shell.o [1]
  .rodata                 const     0x800'b500    0x44  nr_micro_shell.o [1]
  .rodata                 const     0x800'b544    0x44  nr_micro_shell.o [1]
  .rodata                 const     0x800'b588    0x44  statistic_task.o [1]
  .rodata                 const     0x800'b5cc    0x3c  statistic_task.o [1]
  .text                   ro code   0x800'b608    0x38  tx_thread_timeout.o [1]
  .rodata                 const     0x800'b640    0x34  bsp_can_bus.o [1]
  .rodata                 const     0x800'b674    0x34  bsp_can_bus.o [1]
  .rodata                 const     0x800'b6a8    0x34  bsp_can_bus.o [1]
  .rodata                 const     0x800'b6dc    0x34  bsp_can_bus.o [1]
  .rodata                 const     0x800'b710    0x34  statistic_task.o [1]
  .rodata                 const     0x800'b744    0x30  bsp_can_bus.o [1]
  .rodata                 const     0x800'b774    0x30  bsp_can_bus.o [1]
  .rodata                 const     0x800'b7a4    0x30  bsp_can_bus.o [1]
  .rodata                 const     0x800'b7d4    0x30  bsp_can_bus.o [1]
  .rodata                 const     0x800'b804    0x30  bsp_can_bus.o [1]
  .rodata                 const     0x800'b834    0x30  bsp_can_bus.o [1]
  .rodata                 const     0x800'b864    0x30  bsp_can_bus.o [1]
  .rodata                 const     0x800'b894    0x30  bsp_rotation.o [1]
  .rodata                 const     0x800'b8c4    0x30  bsp_spi_bus.o [1]
  .rodata                 const     0x800'b8f4    0x30  bsp_tim_pwm.o [1]
  .rodata                 const     0x800'b924    0x30  bsp_usart_fifo.o [1]
  .rodata                 const     0x800'b954    0x30  statistic_task.o [1]
  .rodata                 const     0x800'b984    0x2c  bsp_can_bus.o [1]
  .rodata                 const     0x800'b9b0    0x2c  bsp_can_bus.o [1]
  .rodata                 const     0x800'b9dc    0x2c  bsp_can_bus.o [1]
  .rodata                 const     0x800'ba08    0x2c  bsp_can_bus.o [1]
  .rodata                 const     0x800'ba34    0x2c  bsp_can_bus.o [1]
  .rodata                 const     0x800'ba60    0x2c  bsp_can_bus.o [1]
  .rodata                 const     0x800'ba8c    0x2c  bsp_can_bus.o [1]
  .rodata                 const     0x800'bab8    0x2c  bsp_can_bus.o [1]
  .rodata                 const     0x800'bae4    0x2c  bsp_can_bus.o [1]
  .rodata                 const     0x800'bb10    0x2c  bsp_can_bus.o [1]
  .rodata                 const     0x800'bb3c    0x2c  bsp_can_bus.o [1]
  .rodata                 const     0x800'bb68    0x2c  bsp_can_bus.o [1]
  .rodata                 const     0x800'bb94    0x2c  bsp_can_bus.o [1]
  .rodata                 const     0x800'bbc0    0x2c  bsp_can_bus.o [1]
  .rodata                 const     0x800'bbec    0x2c  bsp_can_bus.o [1]
  .rodata                 const     0x800'bc18    0x2c  bsp_can_bus.o [1]
  .rodata                 const     0x800'bc44    0x2c  bsp_spi_bus.o [1]
  .rodata                 const     0x800'bc70    0x2c  msg_task.o [1]
  .rodata                 const     0x800'bc9c    0x2c  msg_task.o [1]
  .rodata                 const     0x800'bcc8    0x2c  SEGGER_HardFaultHandler.o [1]
  .rodata                 const     0x800'bcf4    0x28  msg_task.o [1]
  .rodata                 const     0x800'bd1c    0x28  nr_micro_shell.o [1]
  .text                   ro code   0x800'bd44    0x28  data_init.o [4]
  .rodata                 const     0x800'bd6c    0x24  bsp_can_bus.o [1]
  .rodata                 const     0x800'bd90    0x24  bsp_can_bus.o [1]
  .rodata                 const     0x800'bdb4    0x24  system_task_create.o [1]
  .text                   ro code   0x800'bdd8    0x22  fpinit_M.o [3]
  .iar.init_table         const     0x800'bdfc    0x20  - Linker created -
  .rodata                 const     0x800'be1c    0x20  bsp_can_bus.o [1]
  .rodata                 const     0x800'be3c    0x20  bsp_can_bus.o [1]
  .rodata                 const     0x800'be5c    0x20  bsp_can_bus.o [1]
  .rodata                 const     0x800'be7c    0x20  bsp_can_bus.o [1]
  .rodata                 const     0x800'be9c    0x20  msg_task.o [1]
  .text                   ro code   0x800'bebc    0x1e  main.o [1]
  .text                   ro code   0x800'bedc    0x10  stm32f4xx_hal.o [1]
  .text                   ro code   0x800'beec    0x1e  cmain.o [4]
  .text                   ro code   0x800'bf0a     0x4  low_level_init.o [2]
  .text                   ro code   0x800'bf0e     0x4  exit.o [2]
  .text                   ro code   0x800'bf14     0xa  cexit.o [4]
  .rodata                 const     0x800'bf20    0x1c  bsp_can_bus.o [1]
  .rodata                 const     0x800'bf3c    0x1c  bsp_can_bus.o [1]
  .rodata                 const     0x800'bf58    0x1c  msg_task.o [1]
  .rodata                 const     0x800'bf74    0x1c  msg_task.o [1]
  .rodata                 const     0x800'bf90    0x1c  nr_micro_shell.o [1]
  .rodata                 const     0x800'bfac    0x1c  statistic_task.o [1]
  .text                   ro code   0x800'bfc8    0x1c  cstartup_M.o [4]
  .rodata                 const     0x800'bfe4    0x18  ansi.o [1]
  .rodata                 const     0x800'bffc    0x18  msg_task.o [1]
  .rodata                 const     0x800'c014    0x18  msg_task.o [1]
  .rodata                 const     0x800'c02c    0x18  msg_task.o [1]
  .rodata                 const     0x800'c044    0x18  msg_task.o [1]
  .rodata                 const     0x800'c05c    0x18  msg_task.o [1]
  .rodata                 const     0x800'c074    0x18  msg_task.o [1]
  .rodata                 const     0x800'c08c    0x18  msg_task.o [1]
  .rodata                 const     0x800'c0a4    0x18  msg_task.o [1]
  .rodata                 const     0x800'c0bc    0x18  nr_micro_shell.o [1]
  .rodata                 const     0x800'c0d4    0x14  msg_task.o [1]
  .rodata                 const     0x800'c0e8    0x14  msg_task.o [1]
  .rodata                 const     0x800'c0fc    0x14  msg_task.o [1]
  .rodata                 const     0x800'c110    0x14  msg_task.o [1]
  .rodata                 const     0x800'c124    0x14  msg_task.o [1]
  .rodata                 const     0x800'c138    0x14  msg_task.o [1]
  .rodata                 const     0x800'c14c    0x14  msg_task.o [1]
  .rodata                 const     0x800'c160    0x14  msg_task.o [1]
  .rodata                 const     0x800'c174    0x14  msg_task.o [1]
  .rodata                 const     0x800'c188    0x14  msg_task.o [1]
  .rodata                 const     0x800'c19c    0x14  nr_micro_shell.o [1]
  .rodata                 const     0x800'c1b0    0x14  tx_timer_initialize.o [1]
  .rodata.nr_shell_cmd0.end
                          const     0x800'c1c4    0x14  nr_micro_shell.o [1]
  .rodata.nr_shell_cmd1   const     0x800'c1d8    0x14  msg_task.o [1]
  .rodata.nr_shell_cmd1   const     0x800'c1ec    0x14  msg_task.o [1]
  .rodata.nr_shell_cmd1   const     0x800'c200    0x14  msg_task.o [1]
  .rodata.nr_shell_cmd1   const     0x800'c214    0x14  msg_task.o [1]
  .rodata.nr_shell_cmd1   const     0x800'c228    0x14  msg_task.o [1]
  .rodata.nr_shell_cmd1   const     0x800'c23c    0x14  nr_micro_shell.o [1]
  .rodata.nr_shell_cmd1   const     0x800'c250    0x14  statistic_task.o [1]
  .rodata.nr_shell_cmd1.end
                          const     0x800'c264    0x14  nr_micro_shell.o [1]
  .text                   ro code   0x800'c278    0x12  HardFaultHandler.o [1]
  .rodata                 const     0x800'c28c    0x10  ansi.o [1]
  .rodata                 const     0x800'c29c    0x10  bsp_can_bus.o [1]
  .rodata                 const     0x800'c2ac    0x10  bsp_can_bus.o [1]
  .rodata                 const     0x800'c2bc    0x10  bsp_key.o [1]
  .rodata                 const     0x800'c2cc    0x10  bsp_spi_flash.o [1]
  .rodata                 const     0x800'c2dc    0x10  bsp_tim_pwm.o [1]
  .rodata                 const     0x800'c2ec    0x10  msg_task.o [1]
  .rodata                 const     0x800'c2fc    0x10  msg_task.o [1]
  .rodata                 const     0x800'c30c    0x10  msg_task.o [1]
  .rodata                 const     0x800'c31c    0x10  system_stm32f4xx.o [1]
  .rodata                 const     0x800'c32c    0x10  system_task_create.o [1]
  .rodata                 const     0x800'c33c    0x10  system_task_create.o [1]
  .rodata                 const     0x800'c34c    0x10  system_task_create.o [1]
  .rodata                 const     0x800'c35c    0x10  system_task_create.o [1]
  .rodata                 const     0x800'c36c    0x10  system_task_create.o [1]
  .rodata                 const     0x800'c37c    0x10  system_task_create.o [1]
  .rodata                 const     0x800'c38c    0x10  system_task_create.o [1]
  .text                   ro code   0x800'c39c    0x10  startup_stm32f407xx.o [1]
  .rodata                 const     0x800'c3ac     0xc  bsp_spi_flash.o [1]
  .rodata                 const     0x800'c3b8     0xc  bsp_spi_flash.o [1]
  .rodata                 const     0x800'c3c4     0xc  bsp_spi_flash.o [1]
  .rodata                 const     0x800'c3d0     0xc  bsp_spi_flash.o [1]
  .rodata                 const     0x800'c3dc     0xc  bsp_spi_flash.o [1]
  .rodata                 const     0x800'c3e8     0xc  msg_task.o [1]
  .rodata                 const     0x800'c3f4     0xc  system_task_create.o [1]
  .rodata                 const     0x800'c400     0xc  system_task_create.o [1]
  .rodata                 const     0x800'c40c     0xc  system_task_create.o [1]
  .rodata                 const     0x800'c418     0xc  system_task_create.o [1]
  .rodata                 const     0x800'c424     0xc  system_task_create.o [1]
  .text                   ro code   0x800'c430     0xc  stm32f4xx_it.o [1]
  .rodata                 const     0x800'c43c     0x8  ansi.o [1]
  .rodata                 const     0x800'c444     0x8  ansi_port.o [1]
  .rodata                 const     0x800'c44c     0x8  ansi_port.o [1]
  .rodata                 const     0x800'c454     0x8  ansi_port.o [1]
  .rodata                 const     0x800'c45c     0x8  ansi_port.o [1]
  .rodata                 const     0x800'c464     0x8  ansi_port.o [1]
  .rodata                 const     0x800'c46c     0x8  msg_task.o [1]
  .rodata                 const     0x800'c474     0x8  msg_task.o [1]
  .rodata                 const     0x800'c47c     0x8  msg_task.o [1]
  .rodata                 const     0x800'c484     0x8  msg_task.o [1]
  .rodata                 const     0x800'c48c     0x8  nr_micro_shell.o [1]
  .rodata                 const     0x800'c494     0x8  nr_micro_shell.o [1]
  .rodata                 const     0x800'c49c     0x8  stm32f4xx_hal_dma.o [1]
  .rodata                 const     0x800'c4a4     0x8  system_stm32f4xx.o [1]
  .rodata                 const     0x800'c4ac     0x8  xprintffull_nomb.o [2]
  .text                   ro code   0x800'c4b4     0x4  startup_stm32f407xx.o [1]
  .text                   ro code   0x800'c4b8     0x4  startup_stm32f407xx.o [1]
  .text                   ro code   0x800'c4bc     0x4  startup_stm32f407xx.o [1]
  .text                   ro code   0x800'c4c0     0x4  startup_stm32f407xx.o [1]
  .text                   ro code   0x800'c4c4     0x4  startup_stm32f407xx.o [1]
  .text                   ro code   0x800'c4c8     0x4  startup_stm32f407xx.o [1]
  .text                   ro code   0x800'c4cc     0x4  startup_stm32f407xx.o [1]
  .text                   ro code   0x800'c4d0     0x4  startup_stm32f407xx.o [1]
  .text                   ro code   0x800'c4d4     0x4  startup_stm32f407xx.o [1]
  .text                   ro code   0x800'c4d8     0x4  startup_stm32f407xx.o [1]
  .text                   ro code   0x800'c4dc     0x4  startup_stm32f407xx.o [1]
  .text                   ro code   0x800'c4e0     0x4  startup_stm32f407xx.o [1]
  .text                   ro code   0x800'c4e4     0x4  startup_stm32f407xx.o [1]
  .text                   ro code   0x800'c4e8     0x4  startup_stm32f407xx.o [1]
  .text                   ro code   0x800'c4ec     0x4  startup_stm32f407xx.o [1]
  .text                   ro code   0x800'c4f0     0x4  startup_stm32f407xx.o [1]
  .text                   ro code   0x800'c4f4     0x4  startup_stm32f407xx.o [1]
  .text                   ro code   0x800'c4f8     0x4  startup_stm32f407xx.o [1]
  .text                   ro code   0x800'c4fc     0x4  startup_stm32f407xx.o [1]
  .text                   ro code   0x800'c500     0x4  startup_stm32f407xx.o [1]
  .text                   ro code   0x800'c504     0x4  startup_stm32f407xx.o [1]
  .text                   ro code   0x800'c508     0x4  startup_stm32f407xx.o [1]
  .text                   ro code   0x800'c50c     0x4  startup_stm32f407xx.o [1]
  .text                   ro code   0x800'c510     0x4  startup_stm32f407xx.o [1]
  .text                   ro code   0x800'c514     0x4  startup_stm32f407xx.o [1]
  .text                   ro code   0x800'c518     0x4  startup_stm32f407xx.o [1]
  .text                   ro code   0x800'c51c     0x4  startup_stm32f407xx.o [1]
  .text                   ro code   0x800'c520     0x4  startup_stm32f407xx.o [1]
  .text                   ro code   0x800'c524     0x4  startup_stm32f407xx.o [1]
  .text                   ro code   0x800'c528     0x4  startup_stm32f407xx.o [1]
  .text                   ro code   0x800'c52c     0x4  startup_stm32f407xx.o [1]
  .text                   ro code   0x800'c530     0x4  startup_stm32f407xx.o [1]
  .text                   ro code   0x800'c534     0x4  startup_stm32f407xx.o [1]
  .text                   ro code   0x800'c538     0x4  startup_stm32f407xx.o [1]
  .text                   ro code   0x800'c53c     0x4  startup_stm32f407xx.o [1]
  .text                   ro code   0x800'c540     0x4  startup_stm32f407xx.o [1]
  .text                   ro code   0x800'c544     0x4  startup_stm32f407xx.o [1]
  .text                   ro code   0x800'c548     0x4  startup_stm32f407xx.o [1]
  .text                   ro code   0x800'c54c     0x4  startup_stm32f407xx.o [1]
  .text                   ro code   0x800'c550     0x4  startup_stm32f407xx.o [1]
  .text                   ro code   0x800'c554     0x4  startup_stm32f407xx.o [1]
  .text                   ro code   0x800'c558     0x4  startup_stm32f407xx.o [1]
  .text                   ro code   0x800'c55c     0x4  startup_stm32f407xx.o [1]
  .text                   ro code   0x800'c560     0x4  startup_stm32f407xx.o [1]
  .text                   ro code   0x800'c564     0x4  startup_stm32f407xx.o [1]
  .text                   ro code   0x800'c568     0x4  startup_stm32f407xx.o [1]
  .text                   ro code   0x800'c56c     0x4  startup_stm32f407xx.o [1]
  .text                   ro code   0x800'c570     0x4  startup_stm32f407xx.o [1]
  .text                   ro code   0x800'c574     0x4  startup_stm32f407xx.o [1]
  .text                   ro code   0x800'c578     0x4  startup_stm32f407xx.o [1]
  .text                   ro code   0x800'c57c     0x4  startup_stm32f407xx.o [1]
  .text                   ro code   0x800'c580     0x4  startup_stm32f407xx.o [1]
  .text                   ro code   0x800'c584     0x4  startup_stm32f407xx.o [1]
  .text                   ro code   0x800'c588     0x4  startup_stm32f407xx.o [1]
  .text                   ro code   0x800'c58c     0x4  startup_stm32f407xx.o [1]
  .text                   ro code   0x800'c590     0x4  startup_stm32f407xx.o [1]
  .text                   ro code   0x800'c594     0x4  startup_stm32f407xx.o [1]
  .text                   ro code   0x800'c598     0x4  startup_stm32f407xx.o [1]
  .text                   ro code   0x800'c59c     0x4  startup_stm32f407xx.o [1]
  .text                   ro code   0x800'c5a0     0x4  startup_stm32f407xx.o [1]
  .text                   ro code   0x800'c5a4     0x4  startup_stm32f407xx.o [1]
  .text                   ro code   0x800'c5a8     0x4  startup_stm32f407xx.o [1]
  .text                   ro code   0x800'c5ac     0x4  startup_stm32f407xx.o [1]
  .text                   ro code   0x800'c5b0     0x4  startup_stm32f407xx.o [1]
  .text                   ro code   0x800'c5b4     0x4  startup_stm32f407xx.o [1]
  .text                   ro code   0x800'c5b8     0x4  startup_stm32f407xx.o [1]
  .text                   ro code   0x800'c5bc     0x4  startup_stm32f407xx.o [1]
  .text                   ro code   0x800'c5c0     0x4  startup_stm32f407xx.o [1]
  .text                   ro code   0x800'c5c4     0x4  startup_stm32f407xx.o [1]
  .text                   ro code   0x800'c5c8     0x4  startup_stm32f407xx.o [1]
  .rodata                 const     0x800'c5cc     0x0  zero_init3.o [4]
  .rodata                 const     0x800'c5cc     0x0  lz77_init_single.o [4]
  Initializer bytes       const     0x800'c5cc    0x7f  <for P2-1>
                                  - 0x800'c64b  0xc4c3

"P2", part 1 of 3:                               0x624
  P2-1                             0x2000'0000   0x624  <Init block>
    .data                 inited   0x2000'0000   0x420  bsp_tim_pwm.o [1]
    .data                 inited   0x2000'0420   0x134  nr_micro_shell.o [1]
    .data                 inited   0x2000'0554     0x4  system_stm32f4xx.o [1]
    .data                 inited   0x2000'0558     0x4  tx_thread_initialize.o [1]
    .data                 inited   0x2000'055c    0x48  xfiles.o [2]
    .data                 inited   0x2000'05a4    0x38  xlocale_c.o [2]
    .data                 inited   0x2000'05dc    0x48  xlocale_c.o [2]
                                 - 0x2000'0624   0x624

"P2", part 2 of 3:                              0x5128
  .bss                    zero     0x2000'0624  0x1000  bsp_spi_bus.o [1]
  .bss                    zero     0x2000'1624  0x1000  bsp_spi_bus.o [1]
  .bss                    zero     0x2000'2624   0x400  bsp_usart_fifo.o [1]
  .bss                    zero     0x2000'2a24   0x400  bsp_usart_fifo.o [1]
  .bss                    zero     0x2000'2e28   0x400  msg_task.o [1]
  .bss                    zero     0x2000'3228   0x400  msg_task.o [1]
  .bss                    zero     0x2000'3628   0x400  statistic_task.o [1]
  .bss                    zero     0x2000'3a28   0x400  statistic_task.o [1]
  .bss                    zero     0x2000'3e28   0x400  system_task_create.o [1]
  .bss                    zero     0x2000'4228   0x400  system_task_create.o [1]
  .bss                    zero     0x2000'4628   0x400  tx_timer_initialize.o [1]
  .bss                    zero     0x2000'4a28    0xb4  msg_task.o [1]
  .bss                    zero     0x2000'4adc    0xb4  msg_task.o [1]
  .bss                    zero     0x2000'4b90    0xb4  statistic_task.o [1]
  .bss                    zero     0x2000'4c44    0xb4  statistic_task.o [1]
  .bss                    zero     0x2000'4cf8    0xb4  statistic_task.o [1]
  .bss                    zero     0x2000'4dac    0xb4  system_task_create.o [1]
  .bss                    zero     0x2000'4e60    0xb4  system_task_create.o [1]
  .bss                    zero     0x2000'4f14    0xb4  tx_timer_initialize.o [1]
  .bss                    zero     0x2000'4fc8    0x84  ansi.o [1]
  .bss                    zero     0x2000'504c    0x84  bsp_sdio_sd.o [1]
  .bss                    zero     0x2000'50d0    0x80  tx_thread_initialize.o [1]
  .bss                    zero     0x2000'5150    0x80  tx_timer_initialize.o [1]
  .bss                    zero     0x2000'51d0    0x60  bsp_tim_pwm.o [1]
  .bss                    zero     0x2000'5230    0x58  bsp_spi_bus.o [1]
  .bss                    zero     0x2000'5288    0x58  bsp_spi_bus.o [1]
  .bss                    zero     0x2000'52e0    0x54  bsp_iic_bus.o [1]
  .bss                    zero     0x2000'5334    0x50  xfiles.o [2]
  .bss                    zero     0x2000'5384    0x40  bsp_rotation.o [1]
  .bss                    zero     0x2000'53c4    0x40  bsp_tim_pwm.o [1]
  .bss                    zero     0x2000'5404    0x40  SEGGER_HardFaultHandler.o [1]
  .bss                    zero     0x2000'5444    0x40  ticktim.o [1]
  .bss                    zero     0x2000'5484    0x34  gui_task.o [1]
  .bss                    zero     0x2000'54b8    0x34  msg_task.o [1]
  .bss                    zero     0x2000'54ec    0x30  bsp_key.o [1]
  .bss                    zero     0x2000'551c    0x2c  bsp_usart_fifo.o [1]
  .bss                    zero     0x2000'5548    0x2c  system_task_create.o [1]
  .bss                    zero     0x2000'5574    0x28  bsp_can_bus.o [1]
  .bss                    zero     0x2000'559c    0x28  bsp_can_bus.o [1]
  .bss                    zero     0x2000'55c4    0x28  system_task_create.o [1]
  .bss                    zero     0x2000'55ec    0x1c  bsp_can_bus.o [1]
  .bss                    zero     0x2000'5608    0x1c  bsp_spi_flash.o [1]
  .bss                    zero     0x2000'5624    0x10  bsp_key.o [1]
  FREE_MEM                zero     0x2000'5634    0x10  tx_initialize_low_level.o [1]
  .bss                    zero     0x2000'5644     0x4  bsp_dwt.o [1]
  .bss                    zero     0x2000'5648     0x4  bsp_spi_bus.o [1]
  .bss                    zero     0x2000'564c     0x4  bsp_spi_bus.o [1]
  .bss                    zero     0x2000'5650     0x4  bsp_spi_bus.o [1]
  .bss                    zero     0x2000'5654     0x4  bsp_spi_bus.o [1]
  .bss                    zero     0x2000'5658     0x4  nr_micro_shell.o [1]
  .bss                    zero     0x2000'565c     0x4  sd_diskio_dma.o [1]
  .bss                    zero     0x2000'5660     0x4  sd_diskio_dma.o [1]
  .bss                    zero     0x2000'5664     0x4  SEGGER_HardFaultHandler.o [1]
  .bss                    zero     0x2000'5668     0x4  statistic_task.o [1]
  .bss                    zero     0x2000'566c     0x4  statistic_task.o [1]
  .bss                    zero     0x2000'5670     0x4  statistic_task.o [1]
  .bss                    zero     0x2000'5674     0x4  statistic_task.o [1]
  .bss                    zero     0x2000'5678     0x4  ticktim.o [1]
  .bss                    zero     0x2000'567c     0x4  tx_initialize_high_level.o [1]
  .bss                    zero     0x2000'5680     0x4  tx_initialize_high_level.o [1]
  .bss                    zero     0x2000'5684     0x4  tx_initialize_high_level.o [1]
  .bss                    zero     0x2000'5688     0x4  tx_initialize_high_level.o [1]
  .bss                    zero     0x2000'568c     0x4  tx_initialize_high_level.o [1]
  .bss                    zero     0x2000'5690     0x4  tx_initialize_high_level.o [1]
  .bss                    zero     0x2000'5694     0x4  tx_initialize_high_level.o [1]
  .bss                    zero     0x2000'5698     0x4  tx_initialize_high_level.o [1]
  .bss                    zero     0x2000'569c     0x4  tx_initialize_high_level.o [1]
  .bss                    zero     0x2000'56a0     0x4  tx_initialize_high_level.o [1]
  .bss                    zero     0x2000'56a4     0x4  tx_initialize_high_level.o [1]
  .bss                    zero     0x2000'56a8     0x4  tx_initialize_high_level.o [1]
  .bss                    zero     0x2000'56ac     0x4  tx_initialize_high_level.o [1]
  .bss                    zero     0x2000'56b0     0x4  tx_thread_initialize.o [1]
  .bss                    zero     0x2000'56b4     0x4  tx_thread_initialize.o [1]
  .bss                    zero     0x2000'56b8     0x4  tx_thread_initialize.o [1]
  .bss                    zero     0x2000'56bc     0x4  tx_thread_initialize.o [1]
  .bss                    zero     0x2000'56c0     0x4  tx_thread_initialize.o [1]
  .bss                    zero     0x2000'56c4     0x4  tx_thread_initialize.o [1]
  .bss                    zero     0x2000'56c8     0x4  tx_thread_initialize.o [1]
  .bss                    zero     0x2000'56cc     0x4  tx_thread_initialize.o [1]
  .bss                    zero     0x2000'56d0     0x4  tx_thread_initialize.o [1]
  .bss                    zero     0x2000'56d4     0x4  tx_thread_initialize.o [1]
  .bss                    zero     0x2000'56d8     0x4  tx_thread_initialize.o [1]
  .bss                    zero     0x2000'56dc     0x4  tx_thread_initialize.o [1]
  .bss                    zero     0x2000'56e0     0x4  tx_timer_initialize.o [1]
  .bss                    zero     0x2000'56e4     0x4  tx_timer_initialize.o [1]
  .bss                    zero     0x2000'56e8     0x4  tx_timer_initialize.o [1]
  .bss                    zero     0x2000'56ec     0x4  tx_timer_initialize.o [1]
  .bss                    zero     0x2000'56f0     0x4  tx_timer_initialize.o [1]
  .bss                    zero     0x2000'56f4     0x4  tx_timer_initialize.o [1]
  .bss                    zero     0x2000'56f8     0x4  tx_timer_initialize.o [1]
  .bss                    zero     0x2000'56fc     0x4  tx_timer_initialize.o [1]
  .bss                    zero     0x2000'5700     0x4  tx_timer_initialize.o [1]
  .bss                    zero     0x2000'5704     0x4  tx_timer_initialize.o [1]
  .bss                    zero     0x2000'5708     0x4  tx_timer_initialize.o [1]
  .bss                    zero     0x2000'570c     0x4  tx_timer_initialize.o [1]
  .bss                    zero     0x2000'5710     0x4  tx_timer_initialize.o [1]
  .bss                    zero     0x2000'5714     0x4  tx_trace_initialize.o [1]
  .bss                    zero     0x2000'5718     0x4  tx_trace_initialize.o [1]
  .bss                    zero     0x2000'571c     0x4  tx_trace_initialize.o [1]
  .bss                    zero     0x2000'5720     0x4  tx_trace_initialize.o [1]
  .bss                    zero     0x2000'5724     0x4  tx_trace_initialize.o [1]
  .bss                    zero     0x2000'5728     0x4  tx_trace_initialize.o [1]
  .bss                    zero     0x2000'572c     0x4  tx_trace_initialize.o [1]
  .bss                    zero     0x2000'5730     0x4  tx_trace_initialize.o [1]
  .bss                    zero     0x2000'5734     0x4  tx_trace_initialize.o [1]
  .bss                    zero     0x2000'5738     0x4  tx_trace_initialize.o [1]
  .bss                    zero     0x2000'573c     0x4  tx_trace_initialize.o [1]
  .bss                    zero     0x2000'5740     0x4  xfail_s.o [2]
  .bss                    zero     0x2000'5744     0x1  bsp_rotation.o [1]
  .bss                    zero     0x2000'5745     0x1  bsp_spi_bus.o [1]
  .bss                    zero     0x2000'5746     0x1  statistic_task.o [1]
  .bss                    zero     0x2000'5747     0x1  ticktim.o [1]
  .bss                    zero     0x2000'5748     0x1  ticktim.o [1]
  .bss                    zero     0x2000'5749     0x1  ticktim.o [1]
                                 - 0x2000'574a  0x5126

"P2", part 3 of 3:                               0x400
  CSTACK                           0x2000'5750   0x400  <Block>
    CSTACK                uninit   0x2000'5750   0x400  <Block tail>
                                 - 0x2000'5b50   0x400

Unused ranges:

         From           To      Size
         ----           --      ----
   0x800'c64e   0x80f'ffff  0xf'39b2
  0x2000'574c  0x2000'574f       0x4
  0x2000'5b50  0x2001'ffff  0x1'a4b0


*******************************************************************************
*** INIT TABLE
***

          Address      Size
          -------      ----
Zero (__iar_zero_init3)
    1 destination range, total size 0x5126:
          0x2000'0624  0x5126

Copy/lz77 (__iar_lz77_init_single3)
    1 source range, total size 0x7f (8% of destination):
           0x800'c5cc    0x7f
    1 destination range, total size 0x624:
          0x2000'0000   0x624



*******************************************************************************
*** MODULE SUMMARY
***

    Module                            ro code  ro data  rw data
    ------                            -------  -------  -------
command line/config:
    -----------------------------------------------------------
    Total:

K:\Ls_Monitor_Lower\Ls_Monitor_Lower_SW\EW-ARM(v8x)\Flash\Obj: [1]
    HardFaultHandler.o                     18
    SEGGER_HardFaultHandler.o             224       44       68
    ansi.o                                340      128      132
    ansi_port.o                           776       40
    bsp_can_bus.o                       2'124    1'604      108
    bsp_dwt.o                             124                 4
    bsp_iic_bus.o                         232                84
    bsp_key.o                             786       16       64
    bsp_led.o                             212
    bsp_rotation.o                        368      120       65
    bsp_sdio_sd.o                          66               132
    bsp_spi_bus.o                         760      160    8'385
    bsp_spi_flash.o                       448       76       28
    bsp_tim_pwm.o                       2'100      217    1'216
    bsp_usart_fifo.o                      972      124    2'092
    bsp_ws2812b.o                          40
    gui_task.o                                               52
    main.o                                 30
    msg_task.o                          1'408      800    2'460
    nr_micro_shell.o                    1'492      621      312
    sd_diskio_dma.o                        28                 8
    startup_stm32f407xx.o                 688
    statistic_task.o                      332      356    2'605
    stm32f4xx_hal.o                        88
    stm32f4xx_hal_can.o                 2'020
    stm32f4xx_hal_cortex.o                224
    stm32f4xx_hal_dma.o                 1'284        8
    stm32f4xx_hal_gpio.o                  552
    stm32f4xx_hal_i2c.o                   464
    stm32f4xx_hal_msp.o                     2
    stm32f4xx_hal_rcc.o                 1'392
    stm32f4xx_hal_sd.o                    804
    stm32f4xx_hal_spi.o                 1'110
    stm32f4xx_hal_tim.o                 2'732
    stm32f4xx_hal_tim_ex.o                 80
    stm32f4xx_hal_uart.o                  902
    stm32f4xx_it.o                         12
    stm32f4xx_ll_sdmmc.o                  496
    sys.o                                 176
    system_stm32f4xx.o                     96       24        4
    system_task_create.o                  656      208    2'492
    ticktim.o                             328                71
    tx_event_flags_cleanup.o              144
    tx_event_flags_create.o               292
    tx_event_flags_get.o                  452
    tx_initialize_high_level.o            136                52
    tx_initialize_kernel_enter.o           72
    tx_initialize_low_level.o             116                16
    tx_mutex_cleanup.o                    200
    tx_mutex_create.o                     308
    tx_mutex_get.o                        456
    tx_mutex_prioritize.o                 360
    tx_mutex_priority_change.o            240
    tx_mutex_put.o                        724
    tx_thread_create.o                    568
    tx_thread_initialize.o                152               180
    tx_thread_schedule.o                  208
    tx_thread_shell_entry.o               132
    tx_thread_sleep.o                     332
    tx_thread_stack_analyze.o             128
    tx_thread_stack_build.o                68
    tx_thread_stack_error_handler.o        32
    tx_thread_system_preempt_check.o      192
    tx_thread_system_resume.o             916
    tx_thread_system_suspend.o            920
    tx_thread_time_slice.o                588
    tx_thread_timeout.o                    56
    tx_time_get.o                         208
    tx_timer_create.o                     324
    tx_timer_expiration_process.o          36
    tx_timer_initialize.o                 224       20    1'384
    tx_timer_interrupt.o                  232
    tx_timer_system_activate.o            100
    tx_timer_system_deactivate.o           46
    tx_timer_thread_entry.o               304
    tx_trace_initialize.o                  64                44
    tx_trace_object_register.o            284
    txe_event_flags_create.o              180
    txe_event_flags_get.o                 112
    txe_mutex_create.o                    204
    txe_mutex_get.o                       124
    txe_mutex_put.o                        76
    txe_thread_create.o                   348
    txe_timer_create.o                    232
    -----------------------------------------------------------
    Total:                             37'876    4'566   22'058

dl7M_tlf.a: [2]
    abort.o                                 6
    exit.o                                  4
    isalpha.o                              20
    low_level_init.o                        4
    putchar.o                              12
    strstr.o                               44
    vsnprint.o                             60
    xfail_s.o                              64                 4
    xfiles.o                                         6      152
    xlocale_c.o                            44       16      128
    xprintffull_nomb.o                  4'034        8
    xsnprout.o                             26
    -----------------------------------------------------------
    Total:                              4'318       30      284

m7M_tls.a: [3]
    DblAdd.o                              362
    DblCmpGe.o                             46
    DblCmpLe.o                             46
    DblDiv.o                              582
    DblMul.o                              418
    DblSub.o                              226
    DblToFlt.o                            104
    DblToS32.o                             58
    DblToU32.o                             40
    FltToDbl.o                             72
    S32ToDbl.o                             34
    U32ToDbl.o                             26
    fpinit_M.o                             34
    frexp.o                               112
    ldexp.o                               314
    -----------------------------------------------------------
    Total:                              2'474

rt7M_tl.a: [4]
    ABImemclr4.o                            6
    ABImemcpy.o                           166
    ABImemset.o                           102
    ABImemset48.o                          50
    I64DivMod.o                           560
    I64DivZer.o                             2
    cexit.o                                10
    cmain.o                                30
    cstartup_M.o                           28
    data_init.o                            40
    lz77_init_single.o                    120
    memchr.o                               88
    strchr.o                               22
    strcmp.o                               18
    strcpy.o                               24
    strlen.o                               54
    zero_init3.o                           58
    -----------------------------------------------------------
    Total:                              1'378

shb_l.a: [5]
    exit.o                                 20
    -----------------------------------------------------------
    Total:                                 20

    Gaps                                   63        6        4
    Linker created                                  32    1'024
---------------------------------------------------------------
    Grand Total:                       46'129    4'634   23'370


*******************************************************************************
*** ENTRY LIST
***

Entry                       Address    Size  Type      Object
-----                       -------    ----  ----      ------
.iar.init_table$$Base    0x800'bdfc           --   Gb  - Linker created -
.iar.init_table$$Limit   0x800'be1c           --   Gb  - Linker created -
?main                    0x800'beed          Code  Gb  cmain.o [4]
AHBPrescTable            0x800'c31c    0x10  Data  Gb  system_stm32f4xx.o [1]
APBPrescTable            0x800'c4a4     0x8  Data  Gb  system_stm32f4xx.o [1]
AppLCDSemp              0x2000'5484    0x34  Data  Gb  gui_task.o [1]
AppPrintfSemp           0x2000'54b8    0x34  Data  Gb  msg_task.o [1]
AppSysObjCreate          0x800'90d9    0x46  Code  Lc  system_task_create.o [1]
AppTaskCOM               0x800'90c1    0x16  Code  Lc  system_task_create.o [1]
AppTaskCOMStk           0x2000'3e28   0x400  Data  Lc  system_task_create.o [1]
AppTaskCOMTCB           0x2000'4dac    0xb4  Data  Lc  system_task_create.o [1]
AppTaskCreate            0x800'8fb9    0x88  Code  Lc  system_task_create.o [1]
AppTaskIDLE              0x800'93f5    0x14  Code  Gb  statistic_task.o [1]
AppTaskIdleStk          0x2000'3628   0x400  Data  Gb  statistic_task.o [1]
AppTaskIdleTCB          0x2000'4c44    0xb4  Data  Gb  statistic_task.o [1]
AppTaskMsgPro            0x800'3859    0x38  Code  Gb  msg_task.o [1]
AppTaskMsgProStk        0x2000'3228   0x400  Data  Gb  msg_task.o [1]
AppTaskMsgProTCB        0x2000'4adc    0xb4  Data  Gb  msg_task.o [1]
AppTaskStart             0x800'9041    0x80  Code  Lc  system_task_create.o [1]
AppTaskStartStk         0x2000'4228   0x400  Data  Lc  system_task_create.o [1]
AppTaskStartTCB         0x2000'4b90    0xb4  Data  Gb  statistic_task.o [1]
AppTaskStartTCB         0x2000'4e60    0xb4  Data  Lc  system_task_create.o [1]
AppTaskStat              0x800'9385    0x70  Code  Gb  statistic_task.o [1]
AppTaskStatStk          0x2000'3a28   0x400  Data  Gb  statistic_task.o [1]
AppTaskStatTCB          0x2000'4cf8    0xb4  Data  Gb  statistic_task.o [1]
AppTaskUserIF            0x800'3891    0xcc  Code  Gb  msg_task.o [1]
AppTaskUserIFStk        0x2000'2e28   0x400  Data  Gb  msg_task.o [1]
AppTaskUserIFTCB        0x2000'4a28    0xb4  Data  Gb  msg_task.o [1]
AppTimer                0x2000'5548    0x2c  Data  Gb  system_task_create.o [1]
App_printf               0x800'3a97    0x36  Code  Gb  msg_task.o [1]
BSP_SD_ReadCpltCallback
                         0x800'8f1d     0x8  Code  Gb  sd_diskio_dma.o [1]
BSP_SD_WriteCpltCallback
                         0x800'8f15     0x8  Code  Gb  sd_diskio_dma.o [1]
BusFault_Handler         0x800'c435     0x2  Code  Gb  stm32f4xx_it.o [1]
CAN1_RX0_IRQHandler      0x800'53e9    0x30  Code  Gb  bsp_can_bus.o [1]
CAN1_TX_IRQHandler       0x800'53dd     0xc  Code  Gb  bsp_can_bus.o [1]
CAN2_RX0_IRQHandler      0x800'567b    0x2c  Code  Gb  bsp_can_bus.o [1]
CAN2_TX_IRQHandler       0x800'566f     0xc  Code  Gb  bsp_can_bus.o [1]
CSTACK$$Base            0x2000'5750           --   Gb  - Linker created -
CSTACK$$Limit           0x2000'5b50           --   Gb  - Linker created -
ComToUart                0x800'4789    0x34  Code  Gb  bsp_usart_fifo.o [1]
DMA1_Stream4_IRQHandler
                         0x800'34db     0xc  Code  Gb  bsp_tim_pwm.o [1]
DMA2_Stream3_IRQHandler
                         0x800'8eff     0xc  Code  Gb  bsp_sdio_sd.o [1]
DMA2_Stream6_IRQHandler
                         0x800'8ef3     0xc  Code  Gb  bsp_sdio_sd.o [1]
DMA_CalcBaseAndBitshift
                         0x800'2ee9    0x30  Code  Lc  stm32f4xx_hal_dma.o [1]
DMA_CalcBaseAndBitshift::flagBitshiftOffset
                         0x800'c49c     0x8  Data  Lc  stm32f4xx_hal_dma.o [1]
DMA_CheckFifoParam       0x800'2f25    0x88  Code  Lc  stm32f4xx_hal_dma.o [1]
DMA_SetConfig            0x800'2ebb    0x2e  Code  Lc  stm32f4xx_hal_dma.o [1]
DebugMon_Handler         0x800'c43b     0x2  Code  Gb  stm32f4xx_it.o [1]
DispTaskInfo             0x800'931d    0x5e  Code  Gb  statistic_task.o [1]
DispTaskInfo_Cmd         0x800'937b     0x8  Code  Gb  statistic_task.o [1]
EventGroup              0x2000'55c4    0x28  Data  Gb  system_task_create.o [1]
HAL_CAN_ActivateNotification
                         0x800'6e03    0x2c  Code  Gb  stm32f4xx_hal_can.o [1]
HAL_CAN_AddTxMessage     0x800'6b79   0x10a  Code  Gb  stm32f4xx_hal_can.o [1]
HAL_CAN_ConfigFilter     0x800'69f5   0x124  Code  Gb  stm32f4xx_hal_can.o [1]
HAL_CAN_GetRxMessage     0x800'6caf   0x154  Code  Gb  stm32f4xx_hal_can.o [1]
HAL_CAN_IRQHandler       0x800'6e2f   0x230  Code  Gb  stm32f4xx_hal_can.o [1]
HAL_CAN_Init             0x800'6889   0x16c  Code  Gb  stm32f4xx_hal_can.o [1]
HAL_CAN_IsTxMessagePending
                         0x800'6c83    0x2c  Code  Gb  stm32f4xx_hal_can.o [1]
HAL_CAN_MspInit          0x800'56a7   0x1ba  Code  Gb  bsp_can_bus.o [1]
HAL_CAN_RxFifo0FullCallback
                         0x800'5861    0x1e  Code  Gb  bsp_can_bus.o [1]
HAL_CAN_RxFifo0MsgPendingCallback
                         0x800'587f    0x1e  Code  Gb  bsp_can_bus.o [1]
HAL_CAN_RxFifo1MsgPendingCallback
                         0x800'589d    0x1e  Code  Gb  bsp_can_bus.o [1]
HAL_CAN_Start            0x800'6b19    0x5c  Code  Gb  stm32f4xx_hal_can.o [1]
HAL_CAN_TxMailbox0CompleteCallback
                         0x800'58bb    0x1e  Code  Gb  bsp_can_bus.o [1]
HAL_CAN_TxMailbox1CompleteCallback
                         0x800'58d9    0x1e  Code  Gb  bsp_can_bus.o [1]
HAL_CAN_TxMailbox2CompleteCallback
                         0x800'58f7    0x1e  Code  Gb  bsp_can_bus.o [1]
HAL_DMA_Abort_IT         0x800'2c8b    0x26  Code  Gb  stm32f4xx_hal_dma.o [1]
HAL_DMA_DeInit           0x800'2b89    0x82  Code  Gb  stm32f4xx_hal_dma.o [1]
HAL_DMA_IRQHandler       0x800'2cb1   0x20a  Code  Gb  stm32f4xx_hal_dma.o [1]
HAL_DMA_Init             0x800'2aa9    0xe0  Code  Gb  stm32f4xx_hal_dma.o [1]
HAL_DMA_Start_IT         0x800'2c0b    0x80  Code  Gb  stm32f4xx_hal_dma.o [1]
HAL_GPIO_Init            0x800'3f05   0x1dc  Code  Gb  stm32f4xx_hal_gpio.o [1]
HAL_GPIO_WritePin        0x800'40e1    0x14  Code  Gb  stm32f4xx_hal_gpio.o [1]
HAL_GetREVID             0x800'add5     0x8  Code  Gb  stm32f4xx_hal.o [1]
HAL_GetTick              0x800'414d    0x42  Code  Gb  bsp_dwt.o [1]
HAL_GetTick::ticks      0x2000'5644     0x4  Data  Lc  bsp_dwt.o [1]
HAL_I2C_Init             0x800'9e51   0x1b8  Code  Gb  stm32f4xx_hal_i2c.o [1]
HAL_I2C_MspInit          0x800'95ff    0x92  Code  Gb  bsp_iic_bus.o [1]
HAL_Init                 0x800'adad    0x28  Code  Gb  stm32f4xx_hal.o [1]
HAL_InitTick             0x800'4149     0x4  Code  Gb  bsp_dwt.o [1]
HAL_MspInit              0x800'ade5     0x2  Code  Gb  stm32f4xx_hal_msp.o [1]
HAL_NVIC_EnableIRQ       0x800'3ee7     0xa  Code  Gb  stm32f4xx_hal_cortex.o [1]
HAL_NVIC_SetPriority     0x800'3ec5    0x22  Code  Gb  stm32f4xx_hal_cortex.o [1]
HAL_NVIC_SetPriorityGrouping
                         0x800'3ebd     0x8  Code  Gb  stm32f4xx_hal_cortex.o [1]
HAL_RCC_ClockConfig      0x800'7601   0x138  Code  Gb  stm32f4xx_hal_rcc.o [1]
HAL_RCC_GetHCLKFreq      0x800'7739     0x6  Code  Gb  stm32f4xx_hal_rcc.o [1]
HAL_RCC_GetPCLK1Freq     0x800'773f    0x16  Code  Gb  stm32f4xx_hal_rcc.o [1]
HAL_RCC_GetPCLK2Freq     0x800'7755    0x16  Code  Gb  stm32f4xx_hal_rcc.o [1]
HAL_RCC_OscConfig        0x800'864d   0x36c  Code  Wk  stm32f4xx_hal_rcc.o [1]
HAL_ResumeTick           0x800'9469    0x10  Code  Wk  stm32f4xx_hal.o [1]
HAL_SD_AbortCallback     0x800'8ed1     0x8  Code  Gb  bsp_sdio_sd.o [1]
HAL_SD_GetCardState      0x800'8b8d    0x2a  Code  Gb  stm32f4xx_hal_sd.o [1]
HAL_SD_IRQHandler        0x800'89b9   0x1ce  Code  Gb  stm32f4xx_hal_sd.o [1]
HAL_SD_RxCpltCallback    0x800'8ee1     0x8  Code  Gb  bsp_sdio_sd.o [1]
HAL_SD_TxCpltCallback    0x800'8ed9     0x8  Code  Gb  bsp_sdio_sd.o [1]
HAL_SPI_DeInit           0x800'7f9b    0x38  Code  Gb  stm32f4xx_hal_spi.o [1]
HAL_SPI_Init             0x800'7efd    0x9e  Code  Gb  stm32f4xx_hal_spi.o [1]
HAL_SPI_MspInit          0x800'83ef   0x150  Code  Gb  bsp_spi_bus.o [1]
HAL_SPI_TransmitReceive
                         0x800'7fd3   0x2b8  Code  Gb  stm32f4xx_hal_spi.o [1]
HAL_SuspendTick          0x800'bedd    0x10  Code  Wk  stm32f4xx_hal.o [1]
HAL_TIMEx_BreakCallback
                         0x800'37e5     0x2  Code  Wk  stm32f4xx_hal_tim_ex.o [1]
HAL_TIMEx_CommutCallback
                         0x800'37e9     0x2  Code  Wk  stm32f4xx_hal_tim_ex.o [1]
HAL_TIMEx_MasterConfigSynchronization
                         0x800'3dd9    0x4c  Code  Gb  stm32f4xx_hal_tim_ex.o [1]
HAL_TIM_Base_Init        0x800'1e95    0x38  Code  Gb  stm32f4xx_hal_tim.o [1]
HAL_TIM_Base_MspInit     0x800'2a1b    0x6c  Code  Gb  bsp_rotation.o [1]
HAL_TIM_Base_Start       0x800'1ecd    0x28  Code  Gb  stm32f4xx_hal_tim.o [1]
HAL_TIM_ConfigClockSource
                         0x800'24ab    0xe8  Code  Gb  stm32f4xx_hal_tim.o [1]
HAL_TIM_IRQHandler       0x800'2239   0x176  Code  Gb  stm32f4xx_hal_tim.o [1]
HAL_TIM_PWM_ConfigChannel
                         0x800'23af    0xfc  Code  Gb  stm32f4xx_hal_tim.o [1]
HAL_TIM_PWM_DeInit       0x800'1f2d    0x44  Code  Gb  stm32f4xx_hal_tim.o [1]
HAL_TIM_PWM_Init         0x800'1ef5    0x38  Code  Gb  stm32f4xx_hal_tim.o [1]
HAL_TIM_PWM_PulseFinishedCallback
                         0x800'340b     0xe  Code  Gb  bsp_tim_pwm.o [1]
HAL_TIM_PWM_Start        0x800'1f71    0x54  Code  Gb  stm32f4xx_hal_tim.o [1]
HAL_TIM_PWM_Start_DMA    0x800'1fc5   0x17c  Code  Gb  stm32f4xx_hal_tim.o [1]
HAL_TIM_PWM_Stop_DMA     0x800'2141    0xe2  Code  Gb  stm32f4xx_hal_tim.o [1]
HAL_TIM_PeriodElapsedCallback
                         0x800'2a11     0xa  Code  Gb  bsp_rotation.o [1]
HAL_UART_Init            0x800'61a1    0x76  Code  Gb  stm32f4xx_hal_uart.o [1]
HardFaultHandler         0x800'a9a5    0xe0  Code  Gb  SEGGER_HardFaultHandler.o [1]
HardFaultRegs           0x2000'5404    0x40  Data  Lc  SEGGER_HardFaultHandler.o [1]
HardFault_Handler        0x800'c279          Code  Gb  HardFaultHandler.o [1]
I2C_Mode_Config          0x800'95c9    0x36  Code  Lc  bsp_iic_bus.o [1]
InitHardUart             0x800'46cf    0xba  Code  Lc  bsp_usart_fifo.o [1]
IsKeyDownFunc            0x800'43bf    0x6a  Code  Lc  bsp_key.o [1]
KeyPinActive             0x800'436d    0x52  Code  Lc  bsp_key.o [1]
MX_DMA_Init              0x800'3419    0xc2  Code  Gb  bsp_tim_pwm.o [1]
MemManage_Handler        0x800'c433     0x2  Code  Gb  stm32f4xx_it.o [1]
NMI_Handler              0x800'c431     0x2  Code  Gb  stm32f4xx_it.o [1]
NVIC_EnableIRQ           0x800'3e49    0x14  Code  Lc  stm32f4xx_hal_cortex.o [1]
NVIC_EncodePriority      0x800'3e81    0x3c  Code  Lc  stm32f4xx_hal_cortex.o [1]
NVIC_GetPriorityGrouping
                         0x800'3e3f     0xa  Code  Lc  stm32f4xx_hal_cortex.o [1]
NVIC_SetPriority         0x800'3e5d    0x24  Code  Lc  stm32f4xx_hal_cortex.o [1]
NVIC_SetPriorityGrouping
                         0x800'3e25    0x1a  Code  Lc  stm32f4xx_hal_cortex.o [1]
OSCPUUsage              0x2000'5668     0x4  Data  Gb  statistic_task.o [1]
OSIdleCtr               0x2000'566c     0x4  Data  Gb  statistic_task.o [1]
OSIdleCtrMax            0x2000'5670     0x4  Data  Gb  statistic_task.o [1]
OSIdleCtrRun            0x2000'5674     0x4  Data  Gb  statistic_task.o [1]
OSStatInit               0x800'9409    0x2e  Code  Gb  statistic_task.o [1]
OSStatRdy               0x2000'5746     0x1  Data  Gb  statistic_task.o [1]
PendSV_Handler           0x800'ab91          Code  Gb  tx_thread_schedule.o [1]
ReadStatus              0x2000'5660     0x4  Data  Lc  sd_diskio_dma.o [1]
Region$$Table$$Base      0x800'bdfc           --   Gb  - Linker created -
Region$$Table$$Limit     0x800'be1c           --   Gb  - Linker created -
SDIO_GetCommandResponse
                         0x800'8d15     0x6  Code  Gb  stm32f4xx_ll_sdmmc.o [1]
SDIO_GetResponse         0x800'8d1b    0x14  Code  Gb  stm32f4xx_ll_sdmmc.o [1]
SDIO_IRQHandler          0x800'8ee9     0xa  Code  Gb  bsp_sdio_sd.o [1]
SDIO_ReadFIFO            0x800'8cdd     0x6  Code  Gb  stm32f4xx_ll_sdmmc.o [1]
SDIO_SendCommand         0x800'8ced    0x28  Code  Gb  stm32f4xx_ll_sdmmc.o [1]
SDIO_WriteFIFO           0x800'8ce3     0xa  Code  Gb  stm32f4xx_ll_sdmmc.o [1]
SDMMC_CmdSendStatus      0x800'8d65    0x34  Code  Gb  stm32f4xx_ll_sdmmc.o [1]
SDMMC_CmdStopTransfer    0x800'8d2f    0x36  Code  Gb  stm32f4xx_ll_sdmmc.o [1]
SDMMC_GetCmdResp1        0x800'8d99   0x126  Code  Lc  stm32f4xx_ll_sdmmc.o [1]
SD_DMARxAbort            0x800'8c0d    0x54  Code  Lc  stm32f4xx_hal_sd.o [1]
SD_DMATxAbort            0x800'8bb9    0x54  Code  Lc  stm32f4xx_hal_sd.o [1]
SD_Read_IT               0x800'8c8f    0x26  Code  Lc  stm32f4xx_hal_sd.o [1]
SD_SendStatus            0x800'8c61    0x2e  Code  Lc  stm32f4xx_hal_sd.o [1]
SD_Write_IT              0x800'8cb5    0x26  Code  Lc  stm32f4xx_hal_sd.o [1]
SPI_EndRxTxTransaction   0x800'832b    0x26  Code  Lc  stm32f4xx_hal_spi.o [1]
SPI_WaitFlagStateUntilTimeout
                         0x800'828b    0xa0  Code  Lc  stm32f4xx_hal_spi.o [1]
SVC_Handler              0x800'c439     0x2  Code  Gb  stm32f4xx_it.o [1]
Stm32_Clock_Init         0x800'acfd    0xb0  Code  Gb  sys.o [1]
SysTick_Handler          0x800'b11b          Code  Gb  tx_initialize_low_level.o [1]
SysTick_ISR              0x800'94f7    0xb2  Code  Gb  ticktim.o [1]
SysTick_ISR::s_count10ms
                        0x2000'5748     0x1  Data  Lc  ticktim.o [1]
SysTick_ISR::s_count50ms
                        0x2000'5749     0x1  Data  Lc  ticktim.o [1]
SystemCoreClock         0x2000'0554     0x4  Data  Gb  system_stm32f4xx.o [1]
SystemInit               0x800'b149    0x40  Code  Gb  system_stm32f4xx.o [1]
TIM2_IRQHandler          0x800'29ef    0x22  Code  Gb  bsp_rotation.o [1]
TIM3_IRQHandler          0x800'34e7     0xc  Code  Gb  bsp_tim_pwm.o [1]
TIM_Base_SetConfig       0x800'262d    0xba  Code  Gb  stm32f4xx_hal_tim.o [1]
TIM_CCxChannelCmd        0x800'290d    0x26  Code  Gb  stm32f4xx_hal_tim.o [1]
TIM_DMADelayPulseCplt    0x800'25a5    0x44  Code  Gb  stm32f4xx_hal_tim.o [1]
TIM_DMADelayPulseHalfCplt
                         0x800'25e9    0x44  Code  Gb  stm32f4xx_hal_tim.o [1]
TIM_DMAError             0x800'2595    0x10  Code  Gb  stm32f4xx_hal_tim.o [1]
TIM_ETR_SetConfig        0x800'28f7    0x16  Code  Gb  stm32f4xx_hal_tim.o [1]
TIM_ITRx_SetConfig       0x800'28e7    0x10  Code  Lc  stm32f4xx_hal_tim.o [1]
TIM_OC1_SetConfig        0x800'26e7    0x64  Code  Lc  stm32f4xx_hal_tim.o [1]
TIM_OC2_SetConfig        0x800'274b    0x6e  Code  Gb  stm32f4xx_hal_tim.o [1]
TIM_OC3_SetConfig        0x800'27b9    0x6c  Code  Lc  stm32f4xx_hal_tim.o [1]
TIM_OC4_SetConfig        0x800'2825    0x4c  Code  Lc  stm32f4xx_hal_tim.o [1]
TIM_TI1_ConfigInputStage
                         0x800'289d    0x24  Code  Lc  stm32f4xx_hal_tim.o [1]
TIM_TI2_ConfigInputStage
                         0x800'28c1    0x26  Code  Lc  stm32f4xx_hal_tim.o [1]
TimerCallback            0x800'90d7     0x2  Code  Gb  system_task_create.o [1]
UART_SetConfig           0x800'6217   0x302  Code  Lc  stm32f4xx_hal_uart.o [1]
USART1_IRQHandler        0x800'48df     0xa  Code  Gb  bsp_usart_fifo.o [1]
UartGetChar              0x800'49d7    0x48  Code  Lc  bsp_usart_fifo.o [1]
UartIRQ                  0x800'47f3    0xec  Code  Lc  bsp_usart_fifo.o [1]
UartSend                 0x800'4911    0x8e  Code  Lc  bsp_usart_fifo.o [1]
UartVarInit              0x800'468d    0x42  Code  Lc  bsp_usart_fifo.o [1]
UsageFault_Handler       0x800'c437     0x2  Code  Gb  stm32f4xx_it.o [1]
WriteStatus             0x2000'565c     0x4  Data  Lc  sd_diskio_dma.o [1]
_Continue               0x2000'5664     0x4  Data  Lc  SEGGER_HardFaultHandler.o [1]
_LitobFullNoMb           0x800'0f45   0x10a  Code  Lc  xprintffull_nomb.o [2]
_LocaleC_isalpha         0x800'1ab3     0xc  Code  Gb  xlocale_c.o [2]
_LocaleC_islower         0x800'1aad     0x4  Code  Gb  xlocale_c.o [2]
_LocaleC_isupper         0x800'1ab1     0x2  Code  Gb  xlocale_c.o [2]
_Locale_lconv           0x2000'05a4    0x38  Data  Lc  xlocale_c.o [2]
_PrintfFullNoMb          0x800'0189   0xd98  Code  Gb  xprintffull_nomb.o [2]
_PutcharFullNoMb         0x800'10b5    0x20  Code  Lc  xprintffull_nomb.o [2]
_PutcharsFullNoMb        0x800'10d5    0x2e  Code  Lc  xprintffull_nomb.o [2]
_SNProut                 0x800'119b    0x1a  Code  Gb  xsnprout.o [2]
__aeabi_cdcmple          0x800'139d          Code  Gb  DblCmpLe.o [3]
__aeabi_cdrcmple         0x800'13cd          Code  Gb  DblCmpGe.o [3]
__aeabi_d2f              0x800'5ad9          Code  Gb  DblToFlt.o [3]
__aeabi_d2iz             0x800'1539          Code  Gb  DblToS32.o [3]
__aeabi_d2uiz            0x800'18c5          Code  Gb  DblToU32.o [3]
__aeabi_ddiv             0x800'167d          Code  Gb  DblDiv.o [3]
__aeabi_dmul             0x800'1909          Code  Gb  DblMul.o [3]
__aeabi_dsub             0x800'1599          Code  Gb  DblSub.o [3]
__aeabi_f2d              0x800'9e05          Code  Gb  FltToDbl.o [3]
__aeabi_i2d              0x800'1575          Code  Gb  S32ToDbl.o [3]
__aeabi_ldiv0            0x800'1e7d          Code  Gb  I64DivZer.o [4]
__aeabi_memclr4          0x800'41a9          Code  Gb  ABImemclr4.o [4]
__aeabi_memcpy           0x800'1285          Code  Gb  ABImemcpy.o [4]
__aeabi_memcpy4          0x800'12a5          Code  Gb  ABImemcpy.o [4]
__aeabi_memcpy8          0x800'12a5          Code  Gb  ABImemcpy.o [4]
__aeabi_memset           0x800'37f1          Code  Gb  ABImemset.o [4]
__aeabi_ui2d             0x800'18ed          Code  Gb  U32ToDbl.o [3]
__aeabi_uldivmod         0x800'1ad9          Code  Gb  I64DivMod.o [4]
__cmain                  0x800'beed          Code  Gb  cmain.o [4]
__exit                   0x800'1e81    0x14  Code  Gb  exit.o [5]
__iar_Fail_s             0x800'11b5    0x1c  Code  Gb  xfail_s.o [2]
__iar_Memchr             0x800'122d          Code  Gb  memchr.o [4]
__iar_Memset             0x800'37f1          Code  Gb  ABImemset.o [4]
__iar_Memset4_word       0x800'5c11          Code  Gb  ABImemset48.o [4]
__iar_Memset8_word       0x800'5c11          Code  Gb  ABImemset48.o [4]
__iar_Memset_word        0x800'37f9          Code  Gb  ABImemset.o [4]
__iar_Stdout            0x2000'055c    0x48  Data  Gb  xfiles.o [2]
__iar_Strchr             0x800'1185          Code  Gb  strchr.o [4]
__iar_dadd               0x800'15a9          Code  Gb  DblSub.o [3]
__iar_data_init3         0x800'bd45    0x28  Code  Gb  data_init.o [4]
__iar_dsub               0x800'1d11          Code  Gb  DblAdd.o [3]
__iar_dsubStart          0x800'1d23          Code  Gb  DblAdd.o [3]
__iar_frexp              0x800'1339          Code  Gb  frexp.o [3]
__iar_frexpl             0x800'1339          Code  Gb  frexp.o [3]
__iar_globLocale        0x2000'05dc    0x48  Data  Lc  xlocale_c.o [2]
__iar_global_Locale      0x800'1ac9     0x4  Code  Gb  xlocale_c.o [2]
__iar_init_vfp           0x800'bdd9          Code  Gb  fpinit_M.o [3]
__iar_ldexp64            0x800'13fd          Code  Gb  ldexp.o [3]
__iar_lz77_init_single3
                         0x800'b05d    0x78  Code  Gb  lz77_init_single.o [4]
__iar_program_start      0x800'bfc9          Code  Gb  cstartup_M.o [4]
__iar_scalbln64          0x800'13fd          Code  Gb  ldexp.o [3]
__iar_scalbn64           0x800'13fd          Code  Gb  ldexp.o [3]
__iar_softfp___iar_frexp64
                         0x800'132d          Code  Gb  frexp.o [3]
__iar_softfp_frexp       0x800'132d          Code  Gb  frexp.o [3]
__iar_softfp_frexpl      0x800'132d          Code  Gb  frexp.o [3]
__iar_zero_init3         0x800'114b    0x3a  Code  Gb  zero_init3.o [4]
__low_level_init         0x800'bf0b     0x4  Code  Gb  low_level_init.o [2]
__tx_PendSVHandler       0x800'ab91          Code  Gb  tx_thread_schedule.o [1]
__tx_SysTickHandler      0x800'b11b          Code  Gb  tx_initialize_low_level.o [1]
__tx_free_memory_start  0x2000'5634          Data  Gb  tx_initialize_low_level.o [1]
__vector_table           0x800'0000          Data  Gb  startup_stm32f407xx.o [1]
_call_main               0x800'bef9          Code  Gb  cmain.o [4]
_exit                    0x800'bf15          Code  Gb  cexit.o [4]
_main                    0x800'bf03          Code  Gb  cmain.o [4]
_nr_cmd_can1_send        0x800'c200    0x14  Data  Gb  msg_task.o [1]
_nr_cmd_can2_send        0x800'c214    0x14  Data  Gb  msg_task.o [1]
_nr_cmd_end_             0x800'c264    0x14  Data  Gb  nr_micro_shell.o [1]
_nr_cmd_listcase         0x800'c23c    0x14  Data  Gb  nr_micro_shell.o [1]
_nr_cmd_ls               0x800'c1d8    0x14  Data  Gb  msg_task.o [1]
_nr_cmd_m_printf         0x800'c228    0x14  Data  Gb  msg_task.o [1]
_nr_cmd_start_           0x800'c1c4    0x14  Data  Gb  nr_micro_shell.o [1]
_nr_cmd_taskinfo         0x800'c250    0x14  Data  Gb  statistic_task.o [1]
_nr_cmd_test             0x800'c1ec    0x14  Data  Gb  msg_task.o [1]
_shell_init              0x800'4c3f    0x56  Code  Gb  nr_micro_shell.o [1]
_tx_block_pool_created_count
                        0x2000'56a0     0x4  Data  Gb  tx_initialize_high_level.o [1]
_tx_block_pool_created_ptr
                        0x2000'569c     0x4  Data  Gb  tx_initialize_high_level.o [1]
_tx_build_options       0x2000'56d8     0x4  Data  Gb  tx_thread_initialize.o [1]
_tx_byte_pool_created_count
                        0x2000'56a8     0x4  Data  Gb  tx_initialize_high_level.o [1]
_tx_byte_pool_created_ptr
                        0x2000'56a4     0x4  Data  Gb  tx_initialize_high_level.o [1]
_tx_event_flags_cleanup
                         0x800'ae81    0x90  Code  Gb  tx_event_flags_cleanup.o [1]
_tx_event_flags_create   0x800'a299   0x124  Code  Gb  tx_event_flags_create.o [1]
_tx_event_flags_created_count
                        0x2000'5690     0x4  Data  Gb  tx_initialize_high_level.o [1]
_tx_event_flags_created_ptr
                        0x2000'568c     0x4  Data  Gb  tx_initialize_high_level.o [1]
_tx_event_flags_get      0x800'5fdd   0x1c4  Code  Gb  tx_event_flags_get.o [1]
_tx_initialize_high_level
                         0x800'af11    0x88  Code  Gb  tx_initialize_high_level.o [1]
_tx_initialize_kernel_enter
                         0x800'b2dd    0x48  Code  Gb  tx_initialize_kernel_enter.o [1]
_tx_initialize_low_level
                         0x800'b0d5          Code  Gb  tx_initialize_low_level.o [1]
_tx_initialize_unused_memory
                        0x2000'56ac     0x4  Data  Gb  tx_initialize_high_level.o [1]
_tx_mutex_cleanup        0x800'ac35    0x7a  Code  Gb  tx_mutex_cleanup.o [1]
_tx_mutex_create         0x800'a021   0x134  Code  Gb  tx_mutex_create.o [1]
_tx_mutex_created_count
                        0x2000'5698     0x4  Data  Gb  tx_initialize_high_level.o [1]
_tx_mutex_created_ptr   0x2000'5694     0x4  Data  Gb  tx_initialize_high_level.o [1]
_tx_mutex_get            0x800'7061   0x1c8  Code  Gb  tx_mutex_get.o [1]
_tx_mutex_prioritize     0x800'7911   0x168  Code  Gb  tx_mutex_prioritize.o [1]
_tx_mutex_priority_change
                         0x800'7821    0xf0  Code  Gb  tx_mutex_priority_change.o [1]
_tx_mutex_put            0x800'7229   0x2d4  Code  Gb  tx_mutex_put.o [1]
_tx_mutex_thread_release
                         0x800'acaf    0x40  Code  Gb  tx_mutex_cleanup.o [1]
_tx_queue_created_count
                        0x2000'5688     0x4  Data  Gb  tx_initialize_high_level.o [1]
_tx_queue_created_ptr   0x2000'5684     0x4  Data  Gb  tx_initialize_high_level.o [1]
_tx_semaphore_created_count
                        0x2000'5680     0x4  Data  Gb  tx_initialize_high_level.o [1]
_tx_semaphore_created_ptr
                        0x2000'567c     0x4  Data  Gb  tx_initialize_high_level.o [1]
_tx_thread_application_stack_error_handler
                        0x2000'56dc     0x4  Data  Gb  tx_thread_initialize.o [1]
_tx_thread_create        0x800'9bcd   0x238  Code  Gb  tx_thread_create.o [1]
_tx_thread_created_count
                        0x2000'56c0     0x4  Data  Gb  tx_thread_initialize.o [1]
_tx_thread_created_ptr  0x2000'56bc     0x4  Data  Gb  tx_thread_initialize.o [1]
_tx_thread_current_ptr  0x2000'56b4     0x4  Data  Gb  tx_thread_initialize.o [1]
_tx_thread_execute_ptr  0x2000'56b8     0x4  Data  Gb  tx_thread_initialize.o [1]
_tx_thread_highest_priority
                        0x2000'56cc     0x4  Data  Gb  tx_thread_initialize.o [1]
_tx_thread_initialize    0x800'ade9    0x98  Code  Gb  tx_thread_initialize.o [1]
_tx_thread_mutex_release
                        0x2000'56d4     0x4  Data  Gb  tx_thread_initialize.o [1]
_tx_thread_preempt_disable
                        0x2000'56d0     0x4  Data  Gb  tx_thread_initialize.o [1]
_tx_thread_preempted_maps
                        0x2000'56c8     0x4  Data  Gb  tx_thread_initialize.o [1]
_tx_thread_priority_list
                        0x2000'50d0    0x80  Data  Gb  tx_thread_initialize.o [1]
_tx_thread_priority_maps
                        0x2000'56c4     0x4  Data  Gb  tx_thread_initialize.o [1]
_tx_thread_schedule      0x800'ab65          Code  Gb  tx_thread_schedule.o [1]
_tx_thread_shell_entry   0x800'afd9    0x84  Code  Gb  tx_thread_shell_entry.o [1]
_tx_thread_sleep         0x800'41b1   0x14c  Code  Gb  tx_thread_sleep.o [1]
_tx_thread_stack_analyze
                         0x800'751d    0x80  Code  Gb  tx_thread_stack_analyze.o [1]
_tx_thread_stack_build   0x800'a3bd          Code  Gb  tx_thread_stack_build.o [1]
_tx_thread_stack_error_handler
                         0x800'74fd    0x20  Code  Gb  tx_thread_stack_error_handler.o [1]
_tx_thread_system_preempt_check
                         0x800'7a95    0x90  Code  Gb  tx_thread_system_preempt_check.o [1]
_tx_thread_system_resume
                         0x800'7b57   0x332  Code  Gb  tx_thread_system_resume.o [1]
_tx_thread_system_return_inline
                         0x800'7a79    0x1c  Code  Lc  tx_thread_system_preempt_check.o [1]
_tx_thread_system_return_inline
                         0x800'7b39    0x1e  Code  Lc  tx_thread_system_resume.o [1]
_tx_thread_system_return_inline
                         0x800'5c45    0x1e  Code  Lc  tx_thread_system_suspend.o [1]
_tx_thread_system_stack_ptr
                        0x2000'56b0     0x4  Data  Gb  tx_thread_initialize.o [1]
_tx_thread_system_state
                        0x2000'0558     0x4  Data  Gb  tx_thread_initialize.o [1]
_tx_thread_system_suspend
                         0x800'5c63   0x332  Code  Gb  tx_thread_system_suspend.o [1]
_tx_thread_time_slice    0x800'a51d   0x24c  Code  Gb  tx_thread_time_slice.o [1]
_tx_thread_timeout       0x800'b609    0x38  Code  Gb  tx_thread_timeout.o [1]
_tx_time_get             0x800'5b41    0xd0  Code  Gb  tx_time_get.o [1]
_tx_timer_create         0x800'a155   0x144  Code  Gb  tx_timer_create.o [1]
_tx_timer_created_count
                        0x2000'56fc     0x4  Data  Gb  tx_timer_initialize.o [1]
_tx_timer_created_ptr   0x2000'56f8     0x4  Data  Gb  tx_timer_initialize.o [1]
_tx_timer_current_ptr   0x2000'56f0     0x4  Data  Gb  tx_timer_initialize.o [1]
_tx_timer_expiration_process
                         0x800'a981    0x24  Code  Gb  tx_timer_expiration_process.o [1]
_tx_timer_expired       0x2000'56f4     0x4  Data  Gb  tx_timer_initialize.o [1]
_tx_timer_expired_time_slice
                        0x2000'56e4     0x4  Data  Gb  tx_timer_initialize.o [1]
_tx_timer_expired_timer_ptr
                        0x2000'5700     0x4  Data  Gb  tx_timer_initialize.o [1]
_tx_timer_initialize     0x800'aa85    0xe0  Code  Gb  tx_timer_initialize.o [1]
_tx_timer_interrupt      0x800'a899          Code  Gb  tx_timer_interrupt.o [1]
_tx_timer_list          0x2000'5150    0x80  Data  Gb  tx_timer_initialize.o [1]
_tx_timer_list_end      0x2000'56ec     0x4  Data  Gb  tx_timer_initialize.o [1]
_tx_timer_list_start    0x2000'56e8     0x4  Data  Gb  tx_timer_initialize.o [1]
_tx_timer_priority      0x2000'570c     0x4  Data  Gb  tx_timer_initialize.o [1]
_tx_timer_stack_size    0x2000'5708     0x4  Data  Gb  tx_timer_initialize.o [1]
_tx_timer_stack_start   0x2000'5704     0x4  Data  Gb  tx_timer_initialize.o [1]
_tx_timer_system_activate
                         0x800'759d    0x64  Code  Gb  tx_timer_system_activate.o [1]
_tx_timer_system_clock  0x2000'56e0     0x4  Data  Gb  tx_timer_initialize.o [1]
_tx_timer_system_deactivate
                         0x800'7ecd    0x2e  Code  Gb  tx_timer_system_deactivate.o [1]
_tx_timer_thread        0x2000'4f14    0xb4  Data  Gb  tx_timer_initialize.o [1]
_tx_timer_thread_entry   0x800'a769   0x130  Code  Gb  tx_timer_thread_entry.o [1]
_tx_timer_thread_stack_area
                        0x2000'4628   0x400  Data  Gb  tx_timer_initialize.o [1]
_tx_timer_time_slice    0x2000'5710     0x4  Data  Gb  tx_timer_initialize.o [1]
_tx_trace_available_registry_entries
                        0x2000'5738     0x4  Data  Gb  tx_trace_initialize.o [1]
_tx_trace_buffer_current_ptr
                        0x2000'5728     0x4  Data  Gb  tx_trace_initialize.o [1]
_tx_trace_buffer_end_ptr
                        0x2000'5724     0x4  Data  Gb  tx_trace_initialize.o [1]
_tx_trace_buffer_start_ptr
                        0x2000'5720     0x4  Data  Gb  tx_trace_initialize.o [1]
_tx_trace_event_enable_bits
                        0x2000'572c     0x4  Data  Gb  tx_trace_initialize.o [1]
_tx_trace_full_notify_function
                        0x2000'5730     0x4  Data  Gb  tx_trace_initialize.o [1]
_tx_trace_header_ptr    0x2000'5714     0x4  Data  Gb  tx_trace_initialize.o [1]
_tx_trace_initialize     0x800'af99    0x40  Code  Gb  tx_trace_initialize.o [1]
_tx_trace_object_register
                         0x800'a401   0x11c  Code  Gb  tx_trace_object_register.o [1]
_tx_trace_registry_end_ptr
                        0x2000'571c     0x4  Data  Gb  tx_trace_initialize.o [1]
_tx_trace_registry_search_start
                        0x2000'573c     0x4  Data  Gb  tx_trace_initialize.o [1]
_tx_trace_registry_start_ptr
                        0x2000'5718     0x4  Data  Gb  tx_trace_initialize.o [1]
_tx_trace_total_registry_entries
                        0x2000'5734     0x4  Data  Gb  tx_trace_initialize.o [1]
_txe_event_flags_create
                         0x800'9b19    0xb4  Code  Gb  txe_event_flags_create.o [1]
_txe_event_flags_get     0x800'42fd    0x70  Code  Gb  txe_event_flags_get.o [1]
_txe_mutex_create        0x800'9965    0xcc  Code  Gb  txe_mutex_create.o [1]
_txe_mutex_get           0x800'5a11    0x7c  Code  Gb  txe_mutex_get.o [1]
_txe_mutex_put           0x800'5a8d    0x4c  Code  Gb  txe_mutex_put.o [1]
_txe_thread_create       0x800'91c1   0x15c  Code  Gb  txe_thread_create.o [1]
_txe_timer_create        0x800'9a31    0xe8  Code  Gb  txe_timer_create.o [1]
abort                    0x800'1d09     0x6  Code  Gb  abort.o [2]
ansi_clear_current_line
                         0x800'4a97    0x14  Code  Gb  ansi.o [1]
ansi_get_char            0x800'4aab    0xe6  Code  Gb  ansi.o [1]
ansi_init                0x800'4a77    0x20  Code  Gb  ansi.o [1]
ansi_search_char         0x800'4a4d    0x2a  Code  Gb  ansi.o [1]
ansi_show_str            0x800'6529    0x18  Code  Gb  ansi_port.o [1]
assic                    0x800'c30c    0x10  Data  Lc  msg_task.o [1]
bsp_Can1_Send_buf        0x800'5337    0xa6  Code  Gb  bsp_can_bus.o [1]
bsp_Can2_Send_buf        0x800'55c7    0xa8  Code  Gb  bsp_can_bus.o [1]
bsp_ConfigGpioOut        0x800'33e1    0x2a  Code  Gb  bsp_tim_pwm.o [1]
bsp_ConfigTimGpio        0x800'33a7    0x3a  Code  Gb  bsp_tim_pwm.o [1]
bsp_DetectKey            0x800'456d    0xe8  Code  Lc  bsp_key.o [1]
bsp_GetAFofTIM           0x800'3301    0xa6  Code  Gb  bsp_tim_pwm.o [1]
bsp_GetKey               0x800'4547    0x26  Code  Gb  bsp_key.o [1]
bsp_I2C_EE_Init          0x800'95c1     0x8  Code  Gb  bsp_iic_bus.o [1]
bsp_InitCan1Bus          0x800'5189   0x1ae  Code  Gb  bsp_can_bus.o [1]
bsp_InitCan2Bus          0x800'5419   0x1ae  Code  Gb  bsp_can_bus.o [1]
bsp_InitDWT              0x800'412d    0x1c  Code  Gb  bsp_dwt.o [1]
bsp_InitKey              0x800'4429     0xc  Code  Gb  bsp_key.o [1]
bsp_InitKeyHard          0x800'4435    0x6c  Code  Lc  bsp_key.o [1]
bsp_InitKeyVar           0x800'44a1    0x68  Code  Lc  bsp_key.o [1]
bsp_InitLed              0x800'96a9    0x56  Code  Gb  bsp_led.o [1]
bsp_InitRotationSensor   0x800'2935    0xba  Code  Gb  bsp_rotation.o [1]
bsp_InitSFlash           0x800'98dd    0x42  Code  Gb  bsp_spi_flash.o [1]
bsp_InitSPI1Bus          0x800'8351    0x14  Code  Gb  bsp_spi_bus.o [1]
bsp_InitSPI1Param        0x800'8365    0x8a  Code  Gb  bsp_spi_bus.o [1]
bsp_InitSPI2Bus          0x800'8583     0xe  Code  Gb  bsp_spi_bus.o [1]
bsp_InitSPI2Param        0x800'8591    0x6c  Code  Gb  bsp_spi_bus.o [1]
bsp_InitTimer            0x800'9479    0x5e  Code  Gb  ticktim.o [1]
bsp_InitUart             0x800'4681     0xc  Code  Gb  bsp_usart_fifo.o [1]
bsp_InitWs2812b          0x800'977d    0x1a  Code  Gb  bsp_ws2812b.o [1]
bsp_Key_Scan10ms         0x800'4665    0x1a  Code  Gb  bsp_key.o [1]
bsp_LedOff               0x800'9723    0x24  Code  Gb  bsp_led.o [1]
bsp_LedOn                0x800'96ff    0x24  Code  Gb  bsp_led.o [1]
bsp_LedToggle            0x800'9747    0x26  Code  Gb  bsp_led.o [1]
bsp_PutKey               0x800'452f    0x18  Code  Gb  bsp_key.o [1]
bsp_RCC_GPIO_Enable      0x800'2fb1   0x148  Code  Gb  bsp_tim_pwm.o [1]
bsp_RCC_TIM_Enable       0x800'30f9   0x208  Code  Gb  bsp_tim_pwm.o [1]
bsp_RunPer10ms           0x800'91b9     0x8  Code  Gb  system_task_create.o [1]
bsp_SetKeyParam          0x800'4509    0x26  Code  Lc  bsp_key.o [1]
bsp_SetTIMOutPWM         0x800'34f3   0x26c  Code  Gb  bsp_tim_pwm.o [1]
bsp_SetTIMOutPWM::pwm_led4
                        0x2000'0000   0x420  Data  Lc  bsp_tim_pwm.o [1]
bsp_SetUartParam         0x800'47bd    0x36  Code  Gb  bsp_usart_fifo.o [1]
bsp_SoftTimerDec         0x800'94d7    0x20  Code  Lc  ticktim.o [1]
bsp_Spi1BusEnter         0x800'8573     0x8  Code  Gb  bsp_spi_bus.o [1]
bsp_Spi1BusExit          0x800'857b     0x8  Code  Gb  bsp_spi_bus.o [1]
bsp_spi1Transfer         0x800'853f    0x34  Code  Gb  bsp_spi_bus.o [1]
can1_sent_demo           0x800'3a33    0x32  Code  Gb  msg_task.o [1]
can2_sent_demo           0x800'3a65    0x32  Code  Gb  msg_task.o [1]
can_rx_msg              0x2000'55ec    0x1c  Data  Gb  bsp_can_bus.o [1]
comGetChar               0x800'4a1f    0x1a  Code  Gb  bsp_usart_fifo.o [1]
comSendBuf               0x800'499f    0x2a  Code  Gb  bsp_usart_fifo.o [1]
comSendChar              0x800'49c9     0xe  Code  Gb  bsp_usart_fifo.o [1]
dec_base                 0x800'bcf4    0x28  Data  Lc  msg_task.o [1]
exit                     0x800'bf0f     0x4  Code  Gb  exit.o [2]
fputc                    0x800'4a39    0x14  Code  Gb  bsp_usart_fifo.o [1]
g_RotationTimeHandle    0x2000'5384    0x40  Data  Lc  bsp_rotation.o [1]
g_RxBuf1                0x2000'2a24   0x400  Data  Lc  bsp_usart_fifo.o [1]
g_TimHandle             0x2000'53c4    0x40  Data  Gb  bsp_tim_pwm.o [1]
g_TxBuf1                0x2000'2624   0x400  Data  Lc  bsp_usart_fifo.o [1]
g_iRunTime              0x2000'5678     0x4  Data  Gb  ticktim.o [1]
g_spiLen                0x2000'5654     0x4  Data  Gb  bsp_spi_bus.o [1]
g_spiRxBuf              0x2000'1624  0x1000  Data  Gb  bsp_spi_bus.o [1]
g_spiTxBuf              0x2000'0624  0x1000  Data  Gb  bsp_spi_bus.o [1]
g_spi_busy              0x2000'5745     0x1  Data  Gb  bsp_spi_bus.o [1]
g_tSF                   0x2000'5608    0x1c  Data  Gb  bsp_spi_flash.o [1]
g_tUart1                0x2000'551c    0x2c  Data  Lc  bsp_usart_fifo.o [1]
g_ucEnableSystickISR    0x2000'5747     0x1  Data  Lc  ticktim.o [1]
g_updatecounter         0x2000'5744     0x1  Data  Lc  bsp_rotation.o [1]
hCAN1                   0x2000'5574    0x28  Data  Gb  bsp_can_bus.o [1]
hCAN2                   0x2000'559c    0x28  Data  Gb  bsp_can_bus.o [1]
hdma_ch1                0x2000'51d0    0x60  Data  Lc  bsp_tim_pwm.o [1]
hspi                    0x2000'5230    0x58  Data  Lc  bsp_spi_bus.o [1]
iic_handle              0x2000'52e0    0x54  Data  Gb  bsp_iic_bus.o [1]
ink_spi                 0x2000'5288    0x58  Data  Lc  bsp_spi_bus.o [1]
isalpha                  0x800'6831    0x14  Code  Gb  isalpha.o [2]
ldexp                    0x800'13fd          Code  Gb  ldexp.o [3]
ldexpl                   0x800'13fd          Code  Gb  ldexp.o [3]
localeconv               0x800'1acd     0x4  Code  Gb  xlocale_c.o [2]
main                     0x800'bebd    0x1e  Code  Gb  main.o [1]
memchr                   0x800'122d          Code  Gb  memchr.o [4]
mini_printf              0x800'3af1   0x248  Code  Gb  msg_task.o [1]
nr_ansi                 0x2000'4fc8    0x84  Data  Gb  ansi.o [1]
nr_ansi_common_char_slover
                         0x800'6541    0x84  Code  Gb  ansi_port.o [1]
nr_ansi_ctrl_common_slover
                         0x800'65c5    0x20  Code  Gb  ansi_port.o [1]
nr_ansi_in__             0x800'67cd    0x42  Code  Gb  ansi_port.o [1]
nr_ansi_in_backspace     0x800'661f    0x3e  Code  Gb  ansi_port.o [1]
nr_ansi_in_cmd           0x800'bfe4    0x18  Data  Gb  ansi.o [1]
nr_ansi_in_cmd_fun       0x800'b1a8    0x50  Data  Gb  ansi.o [1]
nr_ansi_in_down          0x800'66b3    0x58  Code  Gb  ansi_port.o [1]
nr_ansi_in_enter         0x800'65e5    0x20  Code  Gb  ansi_port.o [1]
nr_ansi_in_left          0x800'670b    0x18  Code  Gb  ansi_port.o [1]
nr_ansi_in_newline       0x800'6605    0x1a  Code  Gb  ansi_port.o [1]
nr_ansi_in_right         0x800'6723    0x1c  Code  Gb  ansi_port.o [1]
nr_ansi_in_special_symbol
                         0x800'c43c     0x8  Data  Gb  ansi.o [1]
nr_ansi_in_special_symbol_fun
                         0x800'c28c    0x10  Data  Gb  ansi.o [1]
nr_ansi_in_tab           0x800'673f    0x8e  Code  Gb  ansi_port.o [1]
nr_ansi_in_up            0x800'665d    0x56  Code  Gb  ansi_port.o [1]
nr_shell                0x2000'0420   0x134  Data  Gb  nr_micro_shell.o [1]
nr_shell_strtok          0x800'4ba1    0x9e  Code  Lc  nr_micro_shell.o [1]
nr_shell_strtok::last   0x2000'5658     0x4  Data  Lc  nr_micro_shell.o [1]
obuf                    0x2000'5334    0x50  Data  Lc  xfiles.o [2]
putchar                  0x800'7805     0xc  Code  Gb  putchar.o [2]
s_BaudRatePrescaler     0x2000'5648     0x4  Data  Lc  bsp_spi_bus.o [1]
s_CLKPhase              0x2000'564c     0x4  Data  Lc  bsp_spi_bus.o [1]
s_CLKPolarity           0x2000'5650     0x4  Data  Lc  bsp_spi_bus.o [1]
s_gpio_list              0x800'c2bc    0x10  Data  Lc  bsp_key.o [1]
s_tBtn                  0x2000'54ec    0x30  Data  Lc  bsp_key.o [1]
s_tKey                  0x2000'5624    0x10  Data  Lc  bsp_key.o [1]
s_tTmr                  0x2000'5444    0x40  Data  Lc  ticktim.o [1]
scalbln                  0x800'13fd          Code  Gb  ldexp.o [3]
scalblnl                 0x800'13fd          Code  Gb  ldexp.o [3]
scalbn                   0x800'13fd          Code  Gb  ldexp.o [3]
scalbnl                  0x800'13fd          Code  Gb  ldexp.o [3]
scale                    0x800'104f    0x46  Code  Lc  xprintffull_nomb.o [2]
sec_hand                0x2000'5740     0x4  Data  Lc  xfail_s.o [2]
send_char                0x800'3ae1     0xe  Code  Gb  msg_task.o [1]
sf_ReadID                0x800'989b    0x42  Code  Gb  bsp_spi_flash.o [1]
sf_ReadInfo              0x800'97d7    0xc4  Code  Gb  bsp_spi_flash.o [1]
sf_SetCS                 0x800'97a5    0x32  Code  Gb  bsp_spi_flash.o [1]
shell_cmd_complete       0x800'4dd5    0x7c  Code  Gb  nr_micro_shell.o [1]
shell_help_cmd           0x800'50e7    0x50  Code  Gb  nr_micro_shell.o [1]
shell_his_copy_queue_item
                         0x800'5015    0xd2  Code  Gb  nr_micro_shell.o [1]
shell_his_queue_add_cmd
                         0x800'4e6b    0xe4  Code  Gb  nr_micro_shell.o [1]
shell_his_queue_init     0x800'4e51    0x1a  Code  Gb  nr_micro_shell.o [1]
shell_his_queue_search_cmd
                         0x800'4f4f    0xc6  Code  Gb  nr_micro_shell.o [1]
shell_ls_cmd             0x800'395d    0xa8  Code  Gb  msg_task.o [1]
shell_mini_printf_cmd    0x800'3d39    0x1e  Code  Gb  msg_task.o [1]
shell_parser             0x800'4cd1    0xfc  Code  Gb  nr_micro_shell.o [1]
shell_search_cmd         0x800'4c95    0x3c  Code  Gb  nr_micro_shell.o [1]
shell_test_cmd           0x800'3a05    0x2e  Code  Gb  msg_task.o [1]
strchr                   0x800'1185          Code  Gb  strchr.o [4]
strcmp                   0x800'5175          Code  Gb  strcmp.o [4]
strcpy                   0x800'6845          Code  Gb  strcpy.o [4]
strlen                   0x800'11f5          Code  Gb  strlen.o [4]
strstr                   0x800'685d    0x2c  Code  Gb  strstr.o [2]
tx_application_define    0x800'8f31    0x88  Code  Gb  system_task_create.o [1]
tx_thread_fpu_disable    0x800'ac2d          Code  Gb  tx_thread_schedule.o [1]
tx_thread_fpu_enable     0x800'ac2b          Code  Gb  tx_thread_schedule.o [1]
uSdHandle               0x2000'504c    0x84  Data  Gb  bsp_sdio_sd.o [1]
vsnprintf                0x800'59d5    0x3c  Code  Gb  vsnprint.o [2]


[1] = K:\Ls_Monitor_Lower\Ls_Monitor_Lower_SW\EW-ARM(v8x)\Flash\Obj
[2] = dl7M_tlf.a
[3] = m7M_tls.a
[4] = rt7M_tl.a
[5] = shb_l.a

  46'129 bytes of readonly  code memory
   4'634 bytes of readonly  data memory
  23'370 bytes of readwrite data memory

Errors: none
Warnings: none
