:020000040800F2
:10000000505B00209DC3000831C4000879C200087D
:1000100033C4000835C4000837C4000800000000DD
:1000200000000000000000000000000039C40008CB
:100030003BC400080000000091AB00081BB10008A1
:10004000B5C40008B9C40008BDC40008C1C4000894
:10005000C5C40008C9C40008CDC40008D1C4000844
:10006000D5C40008D9C40008DDC40008E1C40008F4
:10007000E5C40008E9C40008EDC40008DB3400084A
:10008000F1C40008F5C40008F9C40008DD530008F5
:10009000E9530008FDC4000801C5000805C50008B3
:1000A00009C500080DC5000811C5000815C50008E0
:1000B000EF290008E734000819C500081DC500082D
:1000C00021C5000825C5000829C500082DC5000860
:1000D00031C50008DF48000835C5000839C50008EB
:1000E0003DC5000841C5000845C5000849C50008D0
:1000F0004DC5000851C5000855C5000859C5000880
:100100005DC50008E98E000861C5000865C50008E6
:1001100069C500086DC5000871C5000875C50008EF
:1001200079C500087DC5000881C50008FF8E00085C
:1001300085C5000889C500088DC500086F560008F0
:100140007B56000891C5000895C5000899C50008B0
:100150009DC50008F38E0008A1C50008A5C50008CC
:10016000A9C50008ADC50008B1C50008B5C500089F
:10017000B9C50008BDC50008C1C5000800000000E1
:10018000C5C50008C9C500082DE9F14FB0B09246B9
:1001900004910DF142013A9A2B9199464A70002040
:1001A0000AE01AF8011B0498309A9047002804903E
:1001B00000F0B4860D98401C0D909AF8000050B1E4
:1001C0002528EED1002100220791089209910A9278
:1001D0000B910C9204E00D9800F0A2BE41F00101D9
:1001E0001AF8010F2028F9D023280CD02B2804D08E
:1001F0002D2805D0302809D00BE041F00201EFE7AF
:1002000041F00401ECE741F00801E9E741F0100199
:10021000E6E72A280FD1D9F8002052F8040BC9F8D4
:10022000002000280F9003D540420F9041F00401B8
:100230000AF1010A14E00F92DFF824380AE00F985F
:10024000984205DA00EB800402EB4402303A0F9248
:100250000AF1010A9AF80020A2F130000A28EED330
:100260009AF800002E2803D04FF0FF320E9229E0BA
:100270001AF8010F2A2809D1D9F8000050F8042BE8
:10028000C9F800000E920AF1010A1BE02D280CBFEC
:100290000AF1010A002000220E92DFF8C4470BE0A9
:1002A00040B90E9AA24205DA02EB820503EB450340
:1002B000303B0E930AF1010A9AF80030A3F13002A4
:1002C0000A2AEDD3ADF84010DFF89807784400F221
:1002D00094709AF8001000F055FF08B11AF8010B5D
:1002E0008DF842009DF84200682805D19AF8000078
:1002F00068280CD1622106E06C2804BF9AF800003F
:100300006C2804D171218DF842100AF1010A12A85B
:1003100006901AF801BBBBF125012CD01C3900F066
:10032000D081091F022940F2CC81133900F02185C8
:10033000093900F0C681891E00F0B685491E00F01B
:100340006385491E022940F2BC81091F00F05C85CB
:10035000491F00F02881491E00F00B85491E00F05E
:10036000D080C91E0DD0891E00F00385C91E00F083
:10037000008500F0A4BD25238DF84830012100F050
:10038000A9BDD9F8000050F8044BC9F80000002CB2
:10039000059440F0A3802B994878002800F09980BC
:1003A0004FF0FF340FF6803000F004FF201A40F0C9
:1003B000B58500F090BD6D1E40F0A7853096079D75
:1003C00012AF75B1309E17F8012B02A9304600F02C
:1003D00071FE002801D46D1EF5D10028309640F042
:1003E0009D850A9D3020002D8DF804000CDD309E87
:1003F000012301AA02A9304600F06CFE002840F05B
:100400008D856D1EF4D13096059F089D75B1309E87
:1004100017F8012B02A9304600F04CFE002801D449
:100420006D1EF5D10028309640F078850B9D302068
:10043000002D8DF804000CDD309E012301AA02A9D5
:10044000304600F047FE002840F068856D1EF4D16C
:10045000309605980899099D471875B1309E17F890
:10046000012B02A9304600F025FE002801D46D1EA4
:10047000F5D10028309640F051850C9D3020002D9C
:100480008DF804000CDD309E012301AA02A930463C
:1004900000F020FE002840F041856D1EF4D130961A
:1004A0009DF8400041077FF588AE2020002C8DF894
:1004B00004007FF782AE309D012301AA02A92846DD
:1004C00000F008FE002840F02985641EF4D1309524
:1004D00073E60FF66040059000F0FDBC0E9D002D08
:1004E00004D5204600F086FE044607E02A46204652
:1004F00000F09CFE002814BF041B2C46089400F05A
:10050000EABCD9F8001051F8040BC9F8001020F02B
:100510000004002121F0FF3512ABCDE9024505931F
:10052000DDE9022306993C2413B90AB90E9898B163
:1005300002F00F053035641EEEB23A2EA8BF273503
:10054000120942EA03721B090D5508BF002A03D0A5
:1005500005980D19A842EBD308190590C4F13C0287
:100560000E98089282420ADABDF84010821A4FF6BD
:10057000EF7001400A92ADF8401000F0ACBC0028CA
:1005800040F1A9849DF8400000F01400102840F0CC
:10059000A2840F9B07990A985B1A1B1A9A1A002AC1
:1005A00040F39984E3E32B99487820B14FF0FF346E
:1005B0000FF65030F8E69DF84200622861D06828B6
:1005C00017D06A283FD06C2806D0712847D07428ED
:1005D0002CD07A281DD064E0D9F8001051F8040B13
:1005E000C9F80010002868D14FF0FF340FF62C3006
:1005F000DAE6D9F8001051F8040BC9F8001020B958
:100600004FF0FF340FF61430CEE60D99018000F064
:1006100062BCD9F8001051F8040BC9F8001000288A
:100620004BD14FF0FF340FF6F420BDE6D9F800109F
:1006300051F8040BC9F8001000283ED14FF0FF34E8
:100640000FF6D820B0E6D9F8001051F8040BC9F81D
:10065000001080B94FF0FF340FF6C020A4E6D9F89F
:10066000001051F8040BC9F8001020B94FF0FF3406
:100670000FF6A82098E60D9AD317C0E9002300F0E2
:100680002ABCD9F8001051F8040BC9F8001020B9A1
:100690004FF0FF340FF6842086E60D99017000F0CC
:1006A0001ABCD9F8001051F8040BC9F8001020B991
:1006B0004FF0FF340FF6642076E60D99016000F0EC
:1006C0000ABCD9F80020D21D22F00702C9F8002088
:1006D000D2E900010832C9F80020CDE90201C80FB3
:1006E00002D007982D210AE0BDF84000810702D50D
:1006F00007982B2103E0C00705D50798202112AAEF
:100700001154401C079012A807994BF0200243187F
:10071000DDE90201CDE92C01612A059321AC0BD062
:100720000E98002802D506200E9005E001BF4BF080
:100730002000672801210E91DDE9020148004015E3
:10074000401C0A460DD109030BD0ABF16105032013
:100750001A2D089002D20FF6E0110DE00FF6DC1111
:100760000AE070B912030CD1ABF1610503201A2D18
:1007700008901AD30FF6CC110322184600F082FD20
:10078000A9E3DDE90201CDE92E01DDE92E2323F005
:100790000047B7F5801F22F000060DD20022002F7F
:1007A00008BF002E009203D116E00FF69411E3E784
:1007B0006A4600F0BBFD0FE0DFF8D808DFF8D81874
:1007C00000EB17500090DDE92E234FF0FF30194069
:1007D000DFF8C87810403943CDE902014BF0200022
:1007E00061280DD1059830210170821CBBF1610F89
:1007F00005920CBF7821582141700798801C079002
:10080000DDE9020120F0000231F0004308BF002AB8
:1008100002D10026002567E14BF02008B8F1610FF6
:1008200040F0B4800E98002847BF21210191401C60
:100830000190019FDDE92C017F1C00220023DDE9EE
:10084000024500F0ABFD00998DF8842038BF85F09B
:100850000045091F002F00910DF1850653DD20464C
:1008600029460022002300F0B1FD4CD24800400D83
:1008700000F11C0312D0002B10DD40F2FF70834208
:1008800006DBDFF81C1805F000421143002011E0E0
:100890006FF31E5141EA035120460BE024F00000A3
:1008A00035F0004108BF00280FBF29461C22294609
:1008B00000F0A4FD04460D4600F03EFEFF1F002F91
:1008C000804609DD00F056FE02460B4620462946CA
:1008D00000F062FE04460D46F01D0721B8F1000F3E
:1008E0000CDD491E5EBF08F00F0200F8012D4FEA33
:1008F0002818F3D502E0002200F8012D491EFAD590
:10090000C61D002FABDC0DF18500361A019886421A
:10091000D8BF304600280DF1850430D4B04206DA45
:100920000DF185010A5C082AA8BF0F2100DA002119
:10093000024621AB134400E0401E13F80159521E39
:100940008D42F9D00F2904D10DF185018B5C5B1C20
:100950008B54002A04D50099091D21AC401C00913C
:10096000411E0CD46218ABF13A0613783033DDB275
:100970003A2DA8BFF318491E02F80139F5D50E9992
:10098000002940F1AF80421E0E92ABE00099DFF8E3
:10099000142747F29750414391FBF2F2DDE92C45D1
:1009A000009225F00045D2F1070204DD20462946D9
:1009B00000F04DFB0BE052420020DFF8EC1600F097
:1009C00046FB02460B462046294600F057FE0446E9
:1009D000B8F1660F0E9806BF009F0A3706273F182A
:1009E000142FC8BF142730200D468DF884000DF158
:1009F0008506002F38DD2046294600F063FF0146BA
:100A00000A4606F1080304200A26B2FBF6F606EBB6
:100A1000860EA2EB4E02303203F8012C0A22B6FBFE
:100A2000F2F202EB820EA6EB4E063036401E03F8C1
:100A3000026DE9D1083F002F03F10806D9DD084611
:100A400000F054FF02460B462046294600F0A4FD64
:100A50000022DFF8583600F057FF04460D46CAE77B
:100A6000CBCCCC0C48BA00000DF18500361A0DF144
:100A7000850404E00098401E761E0090641C2078D7
:100A80003028F7D0B8F1660F02D10099491C04E074
:100A9000B8F1650F0CBF012100210E98081886429D
:100AA000B8BF701E00281DD4B04204DA215C34297E
:100AB000C8BF392100DC30210246631E9D1800E0CA
:100AC000401E15F80169521E8E42F9D0392902D113
:100AD000A15C491CA154002A04D50099491C1C465C
:100AE000401C00910646009D00F0F0FF406A077828
:100AF000DDF8388030B2002802DC01260FF24864AD
:100B00004BF02000662808BF6D1C16D0672846D120
:100B100028B210F1040F48DB404546DA9DF840004A
:100B20006D1C010703D430B24045B8BF804628B2DF
:100B3000B8EB000848BF4FF000080FFA85FBBBF187
:100B4000000F00F3B5800898411C089130220599E8
:100B50000A54B8F1000F03DC9DF84000010704D5EA
:100B60000898411C089105990F5418EB0B0FB8BF5A
:100B7000C8F100052DB268420B90A84432B29045EE
:100B8000B8BF4646059B089836B2099632462146BC
:100B9000184400F077FBA8EB06000C90D2E0BBF104
:100BA000610F17D14FF0700B19E030B2404504DAF5
:100BB0009DF840100A0758BF8046B8F1010848BFA9
:100BC0004FF00008BBF1670F14BF4FF0450B4FF01B
:100BD000650B04E0BBF1410F08BF4FF0500B0898C4
:100BE000411C0891B8F1000F059914F8012B0A5423
:100BF00003DC9DF8400001071AD50898411C0891B4
:100C0000B8F1000F05990F5412DD761E30B2804501
:100C10000598089BB8BF464632B22146184400F0FA
:100C200031FB089936B271180891A8EB06000B90B9
:100C300005980899084429B2002980F800B003D427
:100C40002B224270821C04E02D2242700D46821C31
:100C50006D4200212CAB28460AE004460A2094FB92
:100C6000F0F000EB8005A4EB450403F8014B491CB0
:100C700000B20028F1DC012906DC4BF020006528D9
:100C800004BF302002F8010B00292CAB08D1302022
:100C900002F8010B06E0491E585C303002F8010BE7
:100CA0000029F8DC059908980844121A099249E0CD
:100CB00030B229B288421CDA0598089B32B221462C
:100CC000184400F0DFFA089936B27118ABEB06064B
:100CD000B8F1000F08910B9603DC9DF84000020765
:100CE00004D5059847540999491C0991CDF83080DD
:100CF00028E00598089B2AB22146184400F0C2FA61
:100D00000898761B5844B8F1000F089003DC9DF852
:100D100040100A0703D5411C089105990F5430B2C1
:100D200080450598089BB8BF464632B204EB0B01DC
:100D3000184400F0A7FA089836B230180890A8EBCB
:100D400006000B909DF8400000F01400102840F0C1
:100D5000C280079A08990B988A18099982180C98EA
:100D60008A1882180F98824280F2B580821A0A92FD
:100D7000B1E09DF84200622808D068280ED06A28A9
:100D800014D06C281FD0712810D01CE0D9F80010A6
:100D900051F8040BC9F80010C0B21AE0D9F80010DD
:100DA00051F8040BC9F8001080B212E0D9F8002005
:100DB000D21D22F00702C9F80020D2E90001083252
:100DC000C9F8002006E0D9F8001051F8040BC9F862
:100DD00000100021CDE902019DF8400001075AD51D
:100DE000DDE90223002B08BF002A54D04BF020007D
:100DF000782850D1079812A930220A54401C431C6D
:100E0000079301F800B046E09DF84200622808D040
:100E100068280ED06A2814D06C281FD0712810D0F2
:100E20001CE0D9F8001051F8040BC9F8001040B2CA
:100E30001AE0D9F8001051F8040BC9F8001000B2FC
:100E400012E0D9F80020D21D22F00702C9F80020D4
:100E5000D2E900010832C9F8002006E0D9F80010F4
:100E600051F8040BC9F80010C117CDE9020100299F
:100E700002D507982D210AE0BDF84000810702D570
:100E800007982B2103E0C00705D50798202112AA57
:100E90001154401C079012A807990144059102A81B
:100EA000594600F04FF816E001200790D9F80000ED
:100EB00050F8041BC9F800008DF848100BE02521FC
:100EC0000122BBF1000F8DF84810079203D08DF876
:100ED00049B0022107910F9A07980A990C9C121A9F
:100EE0000898521A0B99121A0998521A121A9DF858
:100EF0004000141B41073FF562AA2020002C8DF80A
:100F000004007FF75CAA309E2546012301AA02A9AE
:100F1000304600F0DFF800283FF44DAA4FF0FF30D4
:100F200031B0BDE8F08F00007072696E74665F7357
:100F30003A2062616420257320617267756D656E69
:100F4000740000002DE9FC4307466F293E6908BF85
:100F5000082405D041F02000782814BF0A2410246A
:100F60003C25D7E90023642918BF69299046994692
:100F700005D1002B03D5D8F1000869EB4909B9F177
:100F8000000F08BFB8F1000F0CD1386B50B9082C16
:100F900039D197F83800010735D530203B2586F840
:100FA0003B0030E08DF80010404649462246E317EA
:100FB00000F092FD3032D0B26D1E3A28019504DB6C
:100FC0009DF80000A0F151018A187255404649462B
:100FD0002246E31700F080FD80465FEA010908BF62
:100FE000B8F1000F03D0F86871198842DCD3082CDF
:100FF00009D197F83800010705D5705D302802D077
:101000006D1E30207055C5F13C02BA617119F9604E
:10101000386B824208DA821A3A624FF6EF70398FE3
:1010200001403987BDE8F38300280ED597F83800D2
:1010300000F01400102808D17B6B7969386A5B1ABC
:101040001B1A9A1A002AC8BF3A62BDE8F3832DE939
:10105000D04306460F4614464FF00008DFF8509084
:1010600012E0E00707D542464B463046394600F0CD
:101070004BFC06460F464046494642464B4600F06A
:1010800043FC641080468946002CEAD1304639463C
:10109000BDE8D08302FCFFFFFFFF0F800000E03FB0
:1010A0000000F07FA08601000000F03F84D7974148
:1010B0000000244010B503460C461146A06898472E
:1010C000A06020B1E06A401CE062002010BD4FF03B
:1010D000FF3010BDF8B505460E4617461C460020E9
:1010E0005CB117F8011BB068A847B06030B1F06A76
:1010F000401CF0620020641EF3D1F2BD4FF0FF30BF
:10110000F2BD00007072696E74665F733A20256EDE
:1011100020646973616C6C6F776564007072696ECE
:1011200074663A2062616420256E20617267756D75
:10113000656E7400000000006E616E004E414E004E
:10114000696E6600494E4600300030B4002513E059
:1011500050F8042BD30744BFA9F101039A18091FC3
:10116000042942F8045BFAD213468C0744BF158069
:101170009B1CC90748BF1D7050F8041B0029E7D10C
:1011800030BC7047C9B202788A421AB11CBF10F84D
:10119000012FF9E718BF002070478268521C826057
:1011A000426832B10268531C036011704168491EE5
:1011B0004160704780B500B906A005490B681BB1B6
:1011C00022220021984701E000F09EFD222002BD6E
:1011D00040570020636F6E73747261696E7420688B
:1011E000616E646C65723A20626164206D65737330
:1011F0006167650000F10103810704D010F8011B4D
:10120000820781B1FAD10268A2F10131914311F054
:10121000803104BF50F8042FF6E709BAB1FA81F122
:1012200000EBD100401CC01A70472E00C9B28307E2
:1012300006D0521E22D310F8013B9942F7D11FE08D
:10124000083A13D302F1040241EA012141EA0141C3
:1012500050F8043B121F21BF4B40A3F1013C2CEA84
:10126000030C1CF0803FF3D0C9B2001F083210F805
:10127000013B521E28BF91EA030FF8D818BF012086
:10128000401E704762B38B0708D0521E11F8013B15
:1012900000F8013B00F024808B07F6D1830740F073
:1012A000208000BF103A07D330B4B1E83810103AAC
:1012B000A0E83810F9D230BC530724BFB1E80810B9
:1012C000A0E8081044BF51F8043B40F8043BD207A3
:1012D00024BF31F8022B20F8022B44BF0B78037097
:1012E0007047121F17D35B0009D151F8043B20F857
:1012F000023B1B0C121F20F8023BF6D20BE051F808
:10130000043B00F8013B1B0A20F8023B1B0C121F98
:1013100000F8013BF3D238BF121D521E24BF11F852
:10132000013B00F8013BF8D87047430010B5144664
:1013300000F002F8226010BDC1F30A5343B14A0025
:1013400012F5001F28D2A3F2FE32A1EB0251704722
:1013500050EA410C20D001F0004C31EA0C01B1FA06
:1013600081F204BFB0FA80F3D2180B3AB2F1200335
:101370002CBF00FA03F1914041EA0C013EBFC2F1DB
:10138000200C20FA0CF319439040524240F2FD33F6
:10139000D21A01EB03517047002270474FF4001C32
:1013A0001CEB410F94BF1CEB430F09E041EA030C17
:1013B00050EA4C0C52EA0C0C03D2994208BF9042FE
:1013C000704714BF8B428242704700004FF4001CEC
:1013D0001CEB410F94BF1CEB430F09E041EA030CE7
:1013E00050EA4C0C52EA0C0C03D28B4208BF8242EA
:1013F000704714BF9942904270470000124254D483
:1014000040F2FF7C1CEA11530FD0634531D09B188A
:1014100063453CBF01EB0251704701F0004141EAD6
:101420000C510020AFF30080704750EA410320D0F8
:1014300001F0004C91EA0C011CD0B1FA81F30B3B96
:101440009A420DD9D21A994051EA0C01C3F1200CED
:1014500020FA0CFC61449840531C40F2FF7CD7E713
:10146000914041EA0C01C2F1200C20FA0CF319431F
:1014700090407047B0FA80F31533202BE0D3202A38
:10148000EED3203A203B9A4209D9D21A00FA03F14E
:1014900041EA0C010020531C40F2FF7CB8E700FA3F
:1014A00002F141EA0C0100207047524240F2FF7CF9
:1014B0001CEA11530DD06345DBD0B2EB030C3CBFEB
:1014C000A1EB025170470CF1010221EA035141F4F2
:1014D000801150EA410CCCD001F0004C352A27DCB9
:1014E00030B481EA0C01B2F1200309DAC2F1200321
:1014F000044601FA03F5D0402843D1409C400CE05B
:10150000C3F12002450020FA03F418BF44F001049F
:1015100021FA03F091400C43002174F1004550F191
:10152000000051EB0C01244230BC7FF47BAF7047CC
:101530006146002076E70000C1F30A5340F2FE3214
:101540009B1A14DDD3F120034FEAE17208DDC902D2
:1015500041EA505141F00040D84080185040704757
:1015600003F2E13010B1D24382F000407047002016
:1015700070470000C11768B14840401AB0FA80F2C5
:101580009040D21CC907C2F5846241EA025202EBC4
:10159000D02140057047000070B44FF0004591EA3B
:1015A000030F40F1B5836B40841A71EB030603D23D
:1015B000001BB141121973414FF4001C1CEB410F89
:1015C00034BF7CEB430442E00C0DA4EB1356352EE4
:1015D0004FDC45EAC323DB0A45EAC121C912B6F153
:1015E00020050DDD63FA05F6EB4086EA030512429D
:1015F00018BF45F00105C01851F100010CD213E0ED
:1016000062FA06F5F2405540F3415A40B340F340C8
:101610005A408018594107D349085FEA30005FEA11
:10162000350528BF45F0010501F58011420875F127
:10163000004250F1000041EB04514E0016F5001F2E
:1016400070BC38BF70470020090D090570471CEBBE
:10165000410F10D252EA43060BD0BCEB410F05D824
:101660000C0DAB43661E342EB6DD02E0AB43801892
:10167000594170BC704770BC70470000F0B540F233
:10168000FF7581EA030C0CF0004C15EA11541DBFE4
:1016900015EA1357AC42AF42E5E0BC41C1F3130178
:1016A000C3F31303801A994143F4801304D2641ED8
:1016B0004000494180185941C90241EA5051B1FBEB
:1016C000F3F603FB1611A2FB0675D7EBC020A94168
:1016D00002D2761E80185941C90241EA5051B1FB2D
:1016E000F3FE03FB1E11A2FB0E75D7EBC020A94130
:1016F00003D2AEF1010E80185941890241EA90519E
:10170000760546EA8E2EB1FBF3F603FB1611A2FB1B
:101710000675D7EB8020A94102D2761E8018594168
:10172000C90241EA50514EEA060EB1FBF3F603FB43
:101730001611A2FB0675D7EBC020A94102D2761E76
:1017400080185941C90241EA5051B1FBF3F703FB3C
:101750001711A2FB0735D3EBC020A94167F10007A1
:101760000CBF004247F0010766F3D5274FEA1E3150
:10177000B80814F5806412DDBD0775F1004250EB26
:101780000E5051EB045111F5801F5CBF41EA0C0172
:10179000F0BD4CF07F6141F0E0410020F0BDBD079D
:1017A0006D0840EA0E5041F48011D4F10104B4F107
:1017B00020060ADAC4F120060200E04001FA06F32E
:1017C000E1401843B24015430EE0342C13DCC6F15F
:1017D000200445EA40056D0820FA06F2154321FA77
:1017E00006F0A1400D43002175F1004250F10000C8
:1017F00051EB0C01F0BD00205FEA0C01F0BDCFB948
:1018000092185B41B3FA83F704BFB2FA82F6BF19AC
:101810000B3FB7F120062FBF02FA06F3BB40C7F11A
:10182000200622FA06F638BF3343BA401CB1E41949
:10183000641E33E77F4231F00041B1FA81F404BF06
:10184000B0FA80F6A4190B3CB4F120062FBF00FAC1
:1018500006F1A140C4F1200620FA06F638BF314354
:10186000A0403C1B1AE7AC421ABF05EA1357AF422F
:1018700012E050EA41061CBF52EA4306BFE750EAB5
:101880004107304661461CBF41EA0551F0BD52EAAE
:10189000430C08BFC143F0BD00204FF4001616EB07
:1018A000410F98BF16EB430F08BF16EB410F24BF43
:1018B000C14305E016EB430F0CBF61464CEA0551EE
:1018C000F0BD0000400D491840EA81200CD2490DBE
:1018D000A1F58061491C40F0004005DBD1F11F01FA
:1018E00054BFC840C017704700207047014648B138
:1018F000B0FA80F18840C91CC1F58461090501EB8B
:10190000D021400570470000B0B581EA030C0CF00F
:10191000004C40F2FF7515EA11541DBF15EA13572C
:10192000AC42AF4239E0E41923EA455343F4801353
:10193000C90241F0004141EA505EC7021100A7FB15
:10194000020200284FF00000EEFB01204FF00001E2
:10195000E3FB072118BF42F0010240180021494172
:10196000E3FB0E01A4F580640F0302D25200404154
:10197000494154F101046CDD470872F1004250F115
:10198000000051EB0451A1F580115CBF41EA0C014C
:10199000B0BD4CEA05510020B0BD05EA1357AC427A
:1019A00014BFAF4241E050EA410E1CBF52EA430E61
:1019B00002E061460020B0BD24423C441BD15FEAF6
:1019C000070EF6D0090302BF01460020AEF1140E47
:1019D000B1FA81F7AEEB070401FA07FE0C37C7F145
:1019E000200100FA07F7C8404EEA000E23EA4553EB
:1019F00043F48013A2E733F00043B3FA83F704BF44
:101A0000B2FA82FE77440B3FE41BB7F1200E2FBFE2
:101A100002FA0EF3BB40C7F1200E22FA0EFE38BFC9
:101A200043EA0E03BA40641C82E750EA410E14BF39
:101A300052EA430E6FF000014FF4001717EB430F0B
:101A40008ABF194617EB410FB5E74CEA0551002054
:101A5000B0BDD4F10104B4F120070FDAC4F12007BE
:101A6000520828BF42F0010210FA07F501FA07F701
:101A7000E1BF2A43E0403843E1400FE0352C98DCD9
:101A8000C7F1200452EA400220FA07F218BF42F0E0
:101A9000010231FA07F0A1400A43002172F100422D
:101AA00050F1000051EB0C01B0BD0000613807E0BF
:101AB00005E0A0F161011A2901D2012070474138E7
:101AC0001A288041C00F704701487047014870478D
:101AD000DC050020A4050020BBBBE1B1B2F5803FCE
:101AE00080F07E80022A1ED98C46B1FBF2F102FB07
:101AF00011C31B0443EA1043B3FBF2FC02FB1C338B
:101B000080B240EA0343B3FBF2F002FB103240EA3A
:101B10000C4000237047022A05D98446B0FBF2F03E
:101B200002FB10C270474AB105D100F0010249081A
:101B30005FEA3000704700220023704700F09EB932
:101B40000B000200002100207047904271EB030C53
:101B5000F6D3B3F5803F2FD2F0B5B3FA83F7B1FADD
:101B600081F4A7F10F0E3D1B5340CEF1200602FA7F
:101B70000EF2F3415340B5F10F0746D80F3C2C4409
:101B80004140C4F12006A040F1414140B1FBF3F6D1
:101B900003FB1611A2FB0645001BA94102D2761ECB
:101BA0008018594180EA010221FA0EF362FA0EF21E
:101BB00000215A403046F0BD30B4B1FBF3FC03FBCA
:101BC0001C11A2FB0C45001BA94103D2ACF1010C76
:101BD0008018594130BC02460B46604600217047D0
:101BE000B2F1807F65D3F0B5B2FA82F7B1FA81F431
:101BF000C7F10F063D1B22FA06F307F1110EF24161
:101C000020355A40B5F10F07B8D94140C4F120063C
:101C1000A040F1414140B1FBF3FC03FB1C11A2FBCE
:101C20000C45001BA94103D2BCF1010C801859419D
:101C30000F2F12D30F3FC90341EA5041B1FBF3F616
:101C400003FB1611A2FB0645D4EBC030A94102D21A
:101C5000761E8018594146EACC3C07B34140C7F193
:101C60002006B840F1414140B1FBF3F603FB1611E9
:101C7000A2FB0645001BA94102D2761E80185941DD
:101C800080EA010221FA0EF3C7F1200462FA0EF293
:101C90000CFA07F05A402CFA04F13043F0BD80EA08
:101CA000010221FA0EF3002162FA0EF260465A4058
:101CB000F0BD8C46B1FBF2F102FB11C31B0243EAFB
:101CC0001063B3FBF2FC02FB1C331B024CEA002046
:101CD00043EA1063B3FBF2FC02FB1C331B024CEA29
:101CE000002043EA1063B3FBF2FC02FB1C331B022F
:101CF0004CEA002043EA1063B3FBF2FC02FB1C3207
:101D00004CEA002000237047012000F0B9B8000021
:101D1000841A71EB030604D26E40001BB141121904
:101D200073414FF4001C1CEB410F34BF7CEB4306A6
:101D300083E00C0DA4EB1356362E00F37C80012EAD
:101D400045EAC32341DC43EA525312BFD202920256
:101D50005B08240545EAC12141EA5051D2EBC0207D
:101D6000994125D407D1B0FA80F610FA06F162D075
:101D70000020203608E0B1FA81F6B140C6F1200219
:101D800020FA02F21143B0404FEAF474B4EB465427
:101D900034F001064FEA74040AD8D6F50016760D21
:101DA00004F00044F04061FA06F25040F14048402F
:101DB000C00A40EA415021F0004128BF5FEA5005C7
:101DC00050F1000044EBD12135E0DB0A45EAC121A6
:101DD000C90AB6F120050EDD42EA0242120CC5F135
:101DE000200603FA06F6EB4042EA06056D429841EA
:101DF00061F100010DE062FA06F5F240554063FA28
:101E000006FC82EA0C02F3405A406D42904161EBBD
:101E1000030111F4801F05D1641E620502D06D001C
:101E20004041494121F48011430875F1004350F1CC
:101E3000000041EB045170BC70471CEB410F15D200
:101E400023F0004352EA43060BD04FEA4C0CBCEBA4
:101E5000410F04D80C0D661E342EB7DDEBE7801A57
:101E6000994150EA410608BF0021E4E708BF1CEB96
:101E7000430F28BF6FF00001DDE70000704700004E
:101E800080B5AFF30080024A11001820ABBEFBE71B
:101E90002600020010B50400002C01D1012014E03E
:101EA00094F83D00002805D1002084F83C00200073
:101EB00000F0B3FD022084F83D00211D206800F0F1
:101EC000B5FB012084F83D00002010BD022180F800
:101ED0003D100168896811F00701062905D00168E5
:101EE000096851F0010102681160012180F83D107C
:101EF0000020704710B50400002C01D1012014E02F
:101F000094F83D00002805D1002084F83C00200012
:101F100000F0C8FD022084F83D00211D206800F07B
:101F200085FB012084F83D00002010BD10B50400A1
:101F3000022084F83D002068006A41F21111084235
:101F40000BD12068006A40F24441084205D1206864
:101F500000684008400021680860200000F0A3FDF0
:101F6000002084F83D00002084F83C00002010BDD3
:101F700010B504000122206800F0C8FC2068DFF8DA
:101F8000A812884204D02068DFF8A012884201D14C
:101F9000012000E00020C0B2002805D02068406C7D
:101FA00050F40040216848642068806810F0070001
:101FB000062805D02068006850F0010021680860FC
:101FC000002010BD38B504000D00110094F83D004C
:101FD000022801D10220B2E094F83D0001280AD184
:101FE000002905D1180080B2002801D00120A6E008
:101FF000022084F83D002800002806D0042821D0C3
:1020000008283CD00C2857D073E0DFF82402626A1D
:10201000D063DFF82002626A10648248626AD0648A
:102020009BB2206810F13402606A00F0EEFD0028D7
:1020300001D0012083E02068C06850F4007021685E
:10204000C86056E0DFF8E801A26AD063DFF8E40177
:10205000A26A10647348A26AD0649BB2206810F12F
:102060003802A06A00F0D1FD002801D0012066E00E
:102070002068C06850F480602168C86039E0DFF8EB
:10208000B001E26AD063DFF8AC01E26A106465482F
:10209000E26AD0649BB2206810F13C02E06A00F072
:1020A000B4FD002801D0012049E02068C06850F448
:1020B00000602168C8601CE0DFF87401226BD06307
:1020C000DFF87001226B10645648226BD0649BB21B
:1020D000206810F14002206B00F097FD002801D02D
:1020E00001202CE02068C06850F480502168C8604E
:1020F000FFE701222900206800F008FC20684A4917
:10210000884203D020684949884201D1012000E07B
:102110000020C0B2002805D02068406C50F4004078
:10212000216848642068806810F00700062805D000
:102130002068006850F0010021680860002032BD6E
:1021400038B504000D002800002806D004280ED061
:10215000082816D00C281ED027E02068C06830F46C
:1021600000702168C860606A00F08FFD1DE0206883
:10217000C06830F480602168C860A06A00F085FD06
:1021800013E02068C06830F400602168C860E06A2D
:1021900000F07BFD09E02068C06830F480502168C1
:1021A000C860206B00F071FDFFE700222900206865
:1021B00000F0ACFB20681C49884203D020681B4912
:1021C000884201D1012000E00020C0B2002811D0D7
:1021D0002068006A41F2111108420BD12068006AA0
:1021E00040F24441084205D12068406C30F4004080
:1021F000216848642068006A41F2111108420BD13D
:102200002068006A40F24441084205D12068006815
:102210004008400021680860012084F83D0000204B
:1022200032BD000095250008000001400004014077
:10223000A5250008E925000810B5040020680069FC
:1022400080071AD52068C068800716D57FF0020085
:1022500021680861012020772068806910F0030F51
:1022600003D0200000F0A2FE05E0200000F09FFE59
:10227000200001F0CAF8002020772068006940079C
:102280001AD52068C068400716D57FF00400216881
:102290000861022020772068806910F4407F03D015
:1022A000200000F083FE05E0200000F080FE20000A
:1022B00001F0ABF8002020772068006900071AD5EC
:1022C0002068C068000716D57FF008002168086103
:1022D000042020772068C06910F0030F03D020008D
:1022E00000F064FE05E0200000F061FE200001F037
:1022F0008CF80020207720680069C0061AD5206875
:10230000C068C00616D57FF010002168086108205B
:1023100020772068C06910F4407F03D0200000F0CF
:1023200045FE05E0200000F042FE200001F06DF8BF
:102330000020207720680069C0070AD52068C0689F
:10234000C00706D57FF0010021680861200000F079
:102350005FFB2068006900060AD52068C068000697
:1023600006D57FF0800021680861200001F03AFA6C
:102370002068006940060AD52068C068400606D576
:102380007FF0400021680861200001F02CFA2068ED
:10239000006980060AD52068C068800606D57FF0EF
:1023A000200021680861200001F01EFA10BD38B538
:1023B00004000D0094F83C00012801D1022073E0D4
:1023C000012084F83C00022084F83D00002A06D059
:1023D000042A1BD0082A31D00C2A46D05DE02900FF
:1023E000206800F080F92068806950F008002168BA
:1023F00088612068806930F0040021688861206865
:102400008169286901432068816146E029002068CC
:1024100000F09BF92068806950F4006021688861B1
:102420002068806930F48060216888612068806954
:10243000296950EA0120216888612EE0290020687E
:1024400000F0BAF92068C06950F008002168C8613E
:102450002068C06930F004002168C8612068C16943
:10246000286901432068C16117E02900206800F055
:10247000D9F92068C06950F400602168C8612068FB
:10248000C06930F480602168C8612068C06929692A
:1024900050EA01202168C861FFE7012084F83D006F
:1024A000002084F83C00002032BD10B5040094F8F0
:1024B0003C00012801D102206AE0012084F83C00A0
:1024C000022084F83D002068806830F0770030F406
:1024D0007F4022689060086800284DD010284BD0BB
:1024E000202849D0302847D040283BD0502825D03C
:1024F00060282DD0702807D0B0F5805F03D0B0F5EC
:10250000005F0ED03DE03CE0CB684A6889682068F7
:1025100000F0F1F92068806850F077002168886049
:102520002FE0CB684A688968206800F0E4F92068E9
:10253000806850F480402168886022E0CA68496859
:10254000206800F0ABF95021206800F0CCF918E0C9
:10255000CA684968206800F0B3F96021206800F07B
:10256000C2F90EE0CA684968206800F097F9402176
:10257000206800F0B8F904E00968206800F0B3F9B9
:10258000FFE7012084F83D00002084F83C00002093
:1025900010BD000080B5806B012180F83D1001F076
:1025A00024F901BD10B5846B012184F83D10616AE6
:1025B000884202D10120207710E0A16A884202D12E
:1025C000022020770AE0E16A884202D104202077C5
:1025D00004E0216B884201D108202077200000F020
:1025E00014FF0020207710BD10B5846B012184F802
:1025F0003D10616A884202D10120207710E0A16A73
:10260000884202D1022020770AE0E16A884202D1A2
:102610000420207704E0216B884201D10820207734
:10262000200001F0E3F80020207710BD10B404680A
:10263000DFF83C32984212D0B0F1804F0FD0DFF873
:10264000342290420BD0DFF83022904207D0DFF8DE
:102650002C22904203D0DFF82822904203D134F09C
:1026600070044A681443984225D0B0F1804F22D0BC
:10267000DFF8002290421ED0DFF8FC2190421AD0F1
:10268000DFF8F821904216D0DFF8F421904212D002
:10269000DFF8F02190420ED07B4A90420BD07B4A6B
:1026A000904208D07A4A904205D07A4A904202D0AD
:1026B000794A904203D134F44074CA68144334F028
:1026C00080044A69144304608A68C2620A688262AC
:1026D000984202D06A4A904201D1096901630121FE
:1026E000416110BC704770B4026A52085200026225
:1026F000046A4568836933F070039B089B000A688D
:10270000134334F002048A681443594EB04202D095
:102710005B4A904205D134F00804CA68144334F08F
:102720000404B04202D0564A904207D135F4807575
:1027300035F400754A6915438A691543456083611C
:1027400049684163046270BC704770B4026A32F039
:1027500010020262036A4468826932F4E04232F491
:1027600040720D6852EA052233F020038D6853EA67
:1027700005133F4DA84202D0414EB04206D133F07E
:102780008003CE6853EA061333F04003A84202D018
:102790003B4DA84209D134F4806434F400644D699F
:1027A00054EA85048D6954EA85044460826149686D
:1027B0008163036270BC704770B4026A32F4807245
:1027C0000262046A4568C36933F070039B089B008A
:1027D0000A68134334F400748A6854EA0224244AD1
:1027E000904202D0264EB04206D134F40064CE6846
:1027F00054EA062434F48064904202D0204A904285
:1028000009D135F4805535F400554A6955EA021569
:102810008A6955EA02154560C3614968C16304626B
:1028200070BC704730B4026A32F480520262036AAC
:102830004468C26932F4E04232F440720D6852EAF0
:10284000052233F400538D6853EA0533084DA8423E
:1028500002D00B4DA84204D134F480444D6954EAAF
:1028600085144460C26149680164036230BC7047EA
:10287000000001400004004000080040000C00403F
:102880000004014000400140004401400048014074
:1028900000180040001C00400020004010B4046AF2
:1028A000036A5B085B000362836933F0F00353EA59
:1028B000021334F00A0421438361016210BC7047A3
:1028C00010B4036A33F0100303628369046A33F4BB
:1028D000704353EA023334F0A00454EA01148361D4
:1028E000046210BC7047826832F0700251F0070138
:1028F00011438160704710B4846834F47F441143FD
:1029000051EA03212143816010BC704710B40124B7
:1029100011F01F0314FA03F3046A34EA0303036299
:10292000036A11F01F0112FA01F11943016210BC90
:102930007047000010B586B01021002202AC2000C4
:1029400000F056FF082100226C46200000F050FFE6
:102950004D4C5FF080402060002060600020A0604F
:102960005FF0FF30E060002020610020A06120685F
:10297000C06850F001002168C8602000FFF78AFAA3
:10298000002804D024224149414801F0B1F84FF415
:102990000050029000200390002004900020059039
:1029A00002A92000FFF781FD002804D02C2237491E
:1029B000374801F09DF80020009000200190694602
:1029C000200001F009FA002804D032222F493048B3
:1029D00001F08EF8002201211C2001F073FA1C2066
:1029E00001F081FA2000FFF771FA06B010BD80B542
:1029F000254801680969C90709D50168C968C90777
:102A000005D57FF001010268116100F001F801BDF8
:102A100020480178491C0170704738B586B0040021
:102A20001421002201AD280000F0E2FE2068B0F180
:102A3000804F26D1002000901748016851F0010115
:102A40000160006810F001000090009800200090E4
:102A50001248016851F001010160006810F00100A6
:102A6000009000984FF40040019002200290012055
:102A70000390022004900120059001A9084801F06C
:102A800041FA07B030BD00008453002094B2000822
:102A900094B80008445700204038024030380240C3
:102AA000000002407047704738B50400002001F074
:102AB0004DFB0500002C01D1012064E0606A002874
:102AC000002084F83400022084F835002068006873
:102AD000400840002168086020680068C0070BD5E6
:102AE00001F034FB401B0628F6D32020606503204C
:102AF00084F83500032046E020680168DFF81804F8
:102B000001406268A0680243E06802432069024312
:102B100060690243A0690243E0690243206A0243FC
:102B20001143606A042803D1E26A206B0243114317
:102B30002068016020684569ED08ED00606A054382
:102B4000606A042810D1A06A0543E06A00280BD00F
:102B5000200000F0E7F9002806D040206065012041
:102B600084F8350001200EE020684561200000F067
:102B7000BBF93F22E16D8A40826000206065012040
:102B800084F83500002032BD10B50400002C01D1BE
:102B9000012039E094F83500022801D1022033E009
:102BA0002068006840084000216808600020216813
:102BB00008600020216848600020216888600020AB
:102BC0002168C860002021680861212021684861CF
:102BD000200000F089F90021E16300212164002137
:102BE00061640021A1640021E164002121653F228C
:102BF000E16D8A40826000206065002084F8350025
:102C0000002084F83400002010BD70B504000025B9
:102C1000A66D94F83400012801D1022034E001208F
:102C200084F8340094F83500012827D1022084F874
:102C3000350000206065200000F03FF93F21E06D85
:102C40008140B1602068006850F01600216808607B
:102C50002068406950F0800021684861206C00289D
:102C600005D02068006850F00800216808602068DE
:102C7000006850F001002168086003E0002084F83B
:102C8000340002252800C0B270BD90F8351002292A
:102C900003D080214165012009E0052180F835102D
:102CA0000168096849084900006801600020704710
:102CB000F8B5040000200090DFF8600200684FF4CF
:102CC0001651B0FBF1F5A66D37680821E06D11FAD9
:102CD00000F0074210D02068006840070CD520683B
:102CE000006830F0040022681060E06D8140B1603F
:102CF000606D50F001006065E06D3900C140C807AB
:102D00000BD520684069000607D50121E06D8140A0
:102D1000B160606D50F0020060650421E06D11FA51
:102D200000F007420AD020680068800706D5E06DF1
:102D30008140B160606D50F0040060651021E06D6D
:102D400011FA00F007422CD020680068000728D54F
:102D5000E06D8140B16020680068400311D52068B3
:102D60000068000306D4206C00281AD02000216CD3
:102D7000884716E0A06C002813D02000A16C88477B
:102D80000FE020680068C00505D42068006830F0B6
:102D9000080021680860206C002802D02000216C07
:102DA00088472021E06D11FA00F007425FD02068CB
:102DB0000068C0065BD5E06D8140B16094F83500D5
:102DC000052828D12068006830F0160021680860C6
:102DD0002068406930F0800021684861206C00283C
:102DE00002D1A06C002805D02068006830F00800EF
:102DF000216808603F21E06D8140B160002084F8C7
:102E00003400012084F83500206D002802D0200015
:102E1000216D884750E020680068400311D5206884
:102E20000068000306D4606C002820D02000616C8C
:102E300088471CE0E06B002819D02000E16B884730
:102E400015E020680068C0050BD42068006830F0E9
:102E5000100021680860002084F83400012084F804
:102E60003500E06B002802D02000E16B8847606DE0
:102E7000002821D0606DC00718D5052084F83500E2
:102E80002068006840084000216808600098401CE5
:102E90000090854204D320680068C007F6D4FFE79D
:102EA000002084F83400012084F83500E06C00280C
:102EB00002D02000E16C8847F1BD30B4046824687A
:102EC00034F4802405682C60046863608368402BB8
:102ED00004D103689A600068C16003E003689960E8
:102EE0000068C26030BC7047017801F0FF01103902
:102EF0001822B1FBF2F10A4A525CC265042905D3DB
:102F00000168890A8902091D816503E00168890A4F
:102F100089028165806D70473F8010F05405002064
:102F20009CC4000802000020936A9169002914D112
:102F3000002B05D0022B03D007D3032B0BD00BE0C3
:102F4000D16AC90100D501202EE0D16AB1F1C07F5C
:102F500000D1012028E027E026E09169B1F5005F6B
:102F600015D1002B05D0022B03D004D3032B07D09F
:102F70000CE0012018E0D16AC90100D5012013E05E
:102F8000D16AB1F1C07F00D101200DE00CE0002B2F
:102F9000022B02D9DB1E02D006E0012004E0D16A38
:102FA000C90100D50120FFE7C0B2704770477047E4
:102FB00081B0DFF8AC1788420DD100200090DFF817
:102FC000AC07016851F001010160006810F00100D8
:102FD000009000988EE0DFF88C1788420DD1002019
:102FE0000090DFF88807016851F002010160006875
:102FF00010F00200009000987CE0DFF86C17884227
:103000000DD100200090DFF86407016851F0040141
:103010000160006810F00400009000986AE0DFF89A
:10302000501788420DD100200090DFF8400701685A
:1030300051F008010160006810F00800009000984D
:1030400058E0DFF8301788420DD100200090DFF8FB
:103050001C07016851F010010160006810F01000B9
:103060000090009846E0DFF8101788420DD100204C
:103070000090DFF8F806016851F020010160006857
:1030800010F020000090009834E0DFF8F01688423D
:103090000DD100200090DFF8D406016851F0400106
:1030A0000160006810F040000090009822E0DFF816
:1030B000D01688420DD100200090DFF8B0060168DC
:1030C00051F080010160006810F0800000900098CD
:1030D00010E0DFF8B01688420CD100200090DFF835
:1030E0008C06016851F480710160006810F48070F2
:1030F0000090009801B0704780B5DFF88C168842C8
:103100000DD100200090DFF88406016851F0010124
:103110000160006810F0010000900098EFE0B0F14D
:10312000804F0DD100200090DFF86406016851F057
:1031300001010160006810F0010000900098DEE0DD
:10314000DFF8501688420DD100200090DFF84006CD
:10315000016851F002010160006810F00200009067
:103160000098CCE0DFF8301688420DD100200090A6
:10317000DFF81C06016851F004010160006810F0DE
:10318000040000900098BAE0DFF8101688420DD1D4
:1031900000200090DFF8F805016851F00801016097
:1031A000006810F0080000900098A8E0DFF8F01523
:1031B00088420DD100200090DFF8D405016851F05D
:1031C00010010160006810F010000090009896E077
:1031D000DFF8D01588420DD100200090DFF8B0054F
:1031E000016851F020010160006810F0200000909B
:1031F000009884E0DFF8B01588420DD100200090DF
:10320000DFF88805016851F002010160006810F0E4
:1032100002000090009872E0DFF8901588420DD10E
:1032200000200090DFF86405016851F480310160EE
:10323000006810F480300090009860E0DFF87015AE
:1032400088420DD100200090DFF84005016851F45C
:1032500000310160006810F40030009000984EE0EA
:10326000DFF8501588420DD100200090DFF81C05D2
:10327000016851F480210160006810F48020009002
:1032800000983CE0DFF8301588420DD10020009016
:10329000DFF8FC04016851F040010160006810F0A3
:1032A0004000009000982AE0DFF8101588420DD108
:1032B00000200090DFF8D804016851F0800101601F
:1032C000006810F080000090009818E0DFF8F0141B
:1032D00088420DD100200090DFF8B404016851F459
:1032E00080710160006810F480700090009806E022
:1032F0008422DFF8D014DFF8D00400F0F9FB01BD20
:1033000010B50024DFF88014884201D1012447E081
:10331000B0F1804F01D1012442E0DFF878148842F7
:1033200001D102243CE0DFF87014884201D102246C
:1033300036E0DFF86814884201D1022430E0DFF87B
:103340006814884201D103242AE0DFF8601488421F
:1033500001D1032424E0DFF85814884201D103246A
:103360001EE0DFF85014884201D1032418E0DFF892
:103370004814884201D1092412E0DFF84014884241
:1033800001D109240CE0DFF83814884201D1092466
:1033900006E0C722DFF82C14DFF82C0400F0A8FBAD
:1033A0002000C0B210BD78B585B004000D00160035
:1033B0002000FFF7FDFD3000FFF79EFE0220019088
:1033C00001200290032003903000FFF799FF049042
:1033D000ADB200956946200000F094FD06B070BDC6
:1033E00030B585B004000D002000FFF7E1FD01209D
:1033F00001900020029003200390ADB20095694631
:10340000200000F07FFD05B030BD80B50021DFF861
:10341000BC03FEF795FE01BD1CB500200090DFF84F
:103420004C03016851F400110160016811F40011AE
:103430000091009900210091016851F40011016090
:10344000006810F4001000900098DFF88403DFF8A3
:10345000841301605FF020614160402181600021A0
:10346000C1604FF4806101614FF4006141614FF42C
:10347000005181614FF48071C1610021016200211E
:103480004162032181620021C16200210163DFF8F2
:103490003C4360628463FFF777FB002807D040F26B
:1034A0001D12DFF82013DFF8200300F021FB606A13
:1034B000FFF7FAFA002807D040F22112DFF80413D0
:1034C000DFF8040300F014FB002200210F2000F0BD
:1034D000F9FC0F2000F007FD13BD80B5DFF8F00206
:1034E000FFF7E6FB01BD80B5DFF8E002FEF7A4FEC2
:1034F00001BD2DE9F0439BB00500884616001F0072
:103500000BA8402100F050FE1C21002204AC20003A
:1035100000F06EF96846DFF8C0121022FDF7C2FE17
:103520003800C0B2072807DB40F26B12DFF89412B4
:10353000DFF8940200F0DCFA239C002C0BD141460A
:1035400089B22800FFF74CFF0022414689B22800CB
:1035500000F0C6FD00E142F2107084420BD14146FA
:1035600089B22800FFF73CFF0122414689B22800BA
:1035700000F0B6FDF0E03200414689B22800FFF7C6
:1035800012FFDFF81052AE4201D1FFF745FFDFF81E
:10359000F80186420FD0DFF8100286420BD0DFF828
:1035A0000C02864207D0DFF80802864203D0DFF81B
:1035B0000402864203D1DFF82402016803E0DFF849
:1035C0001C0201684908229864280AD242F20F7846
:1035D00042F21072B1FBF2F1B1FBF0F0B0F101096F
:1035E00013E040F6B832904209D25FF063086422DB
:1035F000B1FBF2F1B1FBF0F0B0F1010905E05FF0D1
:103600000008B1FBF0F0B0F10109484680B2444334
:1036100042F21070B4FBF0F4AE4204D1DFF8AC011A
:10362000FEF784FC02E00BA8FEF780FCAE4213D14B
:10363000DFF8980106601FFA88F8C0F804801FFAC6
:1036400089F9C0F80C9000210161002181600021FE
:1036500041610021816110E00B961FFA88F8CDF8D6
:1036600030801FFA89F9CDF8389000200F900020A3
:103670000D900020109000201190AE420BD15348C5
:10368000FEF738FC002811D040F2CB124D494E48CD
:1036900000F02EFA0AE00BA8FEF72CFC002805D05B
:1036A00040F2D3124749484800F022FA60200490C3
:1036B00000200690002008900020079000200A902B
:1036C000002009900594AE4211D168463900C9B274
:1036D00030F8112004A93D48FEF769FE002817D0F4
:1036E0004FF4F3723749384800F002FA10E06846A8
:1036F0003900C9B230F8112004A90BA8FEF757FE13
:10370000002805D040F2ED122E492F4800F0F0F9C4
:10371000AE4212D14FF40473314A6846FFB230F81A
:1037200017102A48FEF74EFC002815D040F2F71279
:103730002449254800F0DCF90EE06846FFB230F875
:1037400017100BA8FEF714FC002805D04FF4FF72E9
:103750001C491D4800F0CCF91BB0BDE8F083000007
:1037600000000240000402400008024030380240DD
:10377000000C0240001002400014024000180240F9
:10378000001C02400020024000000140443802407A
:10379000403802400004004000080040000C004097
:1037A00000100040001400400004014000400140AF
:1037B000004401400048014000180040001C004047
:1037C00000200040ACB30008F4B80008C453002047
:1037D000D051002070600240DCC200085405002077
:1037E0000000002070477047704770477047000026
:1037F00062F30F2262F31F42401810F0030308D057
:10380000C91A1FD3DB0748BF00F8012D28BF20F8D5
:10381000022D130030B414461546103928BF20E994
:103820003C00FAD8490728BF20E90C0048BF40F8FF
:10383000042D890028BF20F8022D48BF00F8012D73
:1038400030BC7047C91818BF00F8012DCB0728BF3E
:1038500000F8012D70470000E0B503E0FFE7C82045
:1038600000F0A6FC5FF0FF30009001AB01220721C1
:10387000DFF8E80400F042FD0028F0D101980128AB
:1038800004D0022803D00428E9D0E7E7E7E7E6E719
:1038900038B520208DF8000000200BE0DFF8C004D0
:1038A00000F0F9F803E0DFF8BC0400F0F4F81420AD
:1038B00000F07EFC00F047FE04006946002001F0A5
:1038C000AEF8C0B2002811D0DFF89C5429009DF852
:1038D000000001F0EAF80D2808D115F10801DFF821
:1038E0008C0401F0F5F9280001F0D5F82000C0B2F1
:1038F0000028DCD0E4B2012C12D0D8D3032C1ED087
:1039000009D3052C11D015D3072C22D01CD3092C98
:10391000C4D0C8D3CBE7DFF8580400F0BCF8C6E742
:10392000DFF8500400F0B7F8C1E7DFF84C0400F00E
:10393000B2F8BCE7DFF8440400F0ADF8B7E7DFF811
:10394000400400F0A8F8B2E7DFF8380400F0A3F86C
:10395000ADE7DFF8340400F09EF8A8E710B50C00DE
:103960000021C0B2022848DB607804EB000157A0B8
:1039700001F000FC002816D100241421DFF8EC230C
:10398000106A01FB04F31844C068002839D0106A9B
:1039900001FB04F101444EA000F0AAF84DA000F094
:1039A000A7F8641CE9E7607804EB00014AA001F085
:1039B000E1FB002804D1DFF8D40300F099F820E0FF
:1039C000607804EB000145A001F0D4FB002818D179
:1039D000DFF8BC0300F08CF8DFF8B80300F088F8DB
:1039E000DFF8B40300F084F8DFF8B00300F080F8EB
:1039F000DFF8AC0300F07CF803E0DFF8A80300F088
:103A000077F810BD70B504000D00DFF89C0300F0DE
:103A10006FF8002608E0A85D05EB00023100DFF832
:103A20008C0300F065F8761C2000C0B28642F2D309
:103A300070BD3EB555246846DFF87413D1E9002304
:103A4000C0E90023002508E008226946200001F0B3
:103A500072FC142000F0ACFB6D1C2800C0B20828DA
:103A6000F2DB37BD3EB577246846DFF84813D1E96D
:103A70000023C0E90023002508E008226946200051
:103A800001F0A1FD142000F093FB6D1C2800C0B2D2
:103A90000828F2DB37BD0EB410B5B3B0020035AB69
:103AA000C921684601F096FFDFF80C435FF0FF3153
:103AB000200001F0ADFF694605A000F019F82000D4
:103AC00001F0E4FF33B010BC5DF810FB636D6400DF
:103AD000257300000D0A00002D7600002D680000FF
:103AE00080B50100C9B2002000F06EFF01BD0000EA
:103AF0000EB42DE9F0432DED028B002100210021B1
:103B00000021002100210021082409AE05001DE04C
:103B10001BE0AA4951F82900B8FBF0F051F8291030
:103B2000B8FBF1F201FB1288002800D001273030E9
:103B3000C0B2FFF7D5FFB9F10109B9F1000FE8D51F
:103B4000002F02D13020FFF7CBFF6D1C2878002812
:103B500000F0EB80287825280AD028780A2803D19D
:103B60000D20C0B2FFF7BCFF2878FFF7B9FFECE7E4
:103B70006D1C11E0287830380A280CD215F8010C99
:103B80002E2808D015F8020C2E2804D02C78303CB2
:103B9000002C00D101246D1C2878632814D02878CB
:103BA000642811D0287858280ED0287878280BD08F
:103BB0002878702808D02878752805D028787328A8
:103BC00002D028786628D5D1287858283AD063289A
:103BD00057D064280AD0662859D0702832D073286C
:103BE00044D075282ED078282CD091E73768361D20
:103BF000002F03D52D20FFF773FF7F4200225FF0D7
:103C0000090816E06D4850F82810B7FBF1F150F89C
:103C10002800B7FBF0F300FB137752EA01000028FD
:103C200005D030310800C0B2FFF75AFF0122B8F1C9
:103C30000108B8F1000FE5D5002A02D13020FFF7C6
:103C40004FFF82E73768361D641E0BE02000C0B2CC
:103C500081003800084110F00F005949085CFFF757
:103C60003FFF641E002CF1D508246EE73768361D2F
:103C700003E03878FFF734FF7F1C38780028F8D14C
:103C800063E73068361DC0B2FFF72AFF5DE7F61D17
:103C900036F0070696ED000B083651EC100B01F0DC
:103CA0001BFF08EE100ABDEEC80A10EE107A002FB6
:103CB00003D57F422D20FFF713FF00225FF0090894
:103CC00016E03E4850F82810B7FBF1F150F82800F4
:103CD000B7FBF0F300FB137752EA0100002805D090
:103CE00030310800C0B2FFF7FBFE0122B8F1010835
:103CF000B8F1000FE5D5002A02D13020FFF7F0FE21
:103D00002E20FFF7EDFE9FED140A28EE000ABDEE0F
:103D1000C00A10EE108A42F2107098FBF0F100FB1E
:103D2000118800275FF0030907E70020BDEC028B34
:103D3000BDE8F0035DF810FB80B52248FFF7D8FE20
:103D4000632221492148FFF7D3FE10222049214850
:103D5000FFF7CEFE01BD000000401C46C455002008
:103D600044C000082CC00008C84F002020040020D8
:103D7000FCC0000810C1000824C1000838C10008B8
:103D80004CC1000860C1000814C0000874C10008DC
:103D90005CC00008E8C3000888C1000874C00008BF
:103DA0009CBE000858BF0008ECC20008FCC2000816
:103DB0006CC4000874C40008B8540020F4BC0008A7
:103DC0000CC300088CC000087CC40008A4C0000814
:103DD00084C4000874BF000810B490F83C20012A85
:103DE00001D102201CE0012280F83C20022280F850
:103DF0003D20026853680268946833F070030A68D3
:103E0000134334F0800449680C4301684B60016837
:103E10008C60012180F83D10002180F83C100020CA
:103E200010BC704710F00700314B1A684FF6FF01C5
:103E30000A40304951EA00210A431A6070472C4871
:103E40000068C0F302207047012210F01F018A4071
:103E5000294940B2400941F820207047020052B27F
:103E6000002A08D50901254A40B210F00F0010447D
:103E700000F8041C03E00901214A40B211547047C4
:103E800010B410F00700D0F10703052B01D3042371
:103E900001E0D0F10703041D072C01D2002000E04F
:103EA000C01E012414FA03F35B1E1940814014FA6A
:103EB00000F0401E1040084310BC704780B5FFF76B
:103EC000B1FF01BD70B504000D0016000020FFF722
:103ED000B6FF32002900FFF7D3FF0100200040B2F7
:103EE000FFF7BCFF70BD80B540B2FFF7ADFF01BD6D
:103EF0000CED00E00000FA0500E100E018ED00E044
:103F000000E400E0F8B4002200220022002337E0A1
:103F1000082704E0DFF8DC219042F9D10727FFB23F
:103F200013F00302D2B2920097403E431A00920867
:103F300045F82260DFF8C0512A68A2434E68F603B4
:103F400000D522432A60DFF8B4512A68A2434E68A4
:103F5000B60300D522432A60DFF8A4512A68A243A1
:103F60004E68F60200D522432A60DFF898512A688D
:103F7000A2434E68B60201D5144322002A605B1C9E
:103F8000102B80F0AB80012515FA03F20C68144069
:103F90009442F4D14A68022A02D04A68122A17D100
:103FA0001A00D20800EB8202166A0F2713F00702EC
:103FB000D2B292009740BE430F6913F00702D2B20B
:103FC000920097403E431A00D20800EB820216622C
:103FD000076803261A00D2B2520016FA02F297437B
:103FE00091F804C01CF0030C1A00D2B252001CFA63
:103FF00002FC5CEA070707604A68012A08D04A68A1
:10400000022A05D04A68112A02D04A68122A19D118
:1040100087681A00D2B2520016FA02F29743D1F81A
:104020000CC01A00D2B252001CFA02FC5CEA07076C
:10403000876042689D40AA434D68C5F300159D40C6
:104040002A434260C5681A00D2B252009640B54376
:104050008E681A00D2B2520096403543C5604A6855
:10406000D2008CD500220092274A156855F480456D
:104070001560126812F480420092009A234D1A00D3
:10408000920855F822600F2713F00302D2B2920073
:104090009740BE431E4A904201D100273FE71D4A88
:1040A000904201D101273AE71B4A904201D10227F1
:1040B00035E71A4A904201D1032730E7184A904267
:1040C00001D104272BE7174A904201D1052726E7A3
:1040D000154A90427FF41EAF062720E7F1BC7047D7
:1040E000D2B2002A02D089B2816102E089B2090409
:1040F00081617047001C0240003C0140043C0140CB
:10410000083C01400C3C0140443802400838014062
:10411000000002400004024000080240000C02407F
:1041200000100240001402400018024018480168C4
:1041300051F080710160002016490860164801683E
:1041400051F00101016070470020704780B51448AC
:104150000068002802D101F0F3FC17E00F48006866
:10416000800B0CE000BF00BF00BF00BF00BF00BF5E
:1041700000BF00BF00BF00BF00BF00BF401E00283F
:10418000F0D108480168491C0160006802BD0000C8
:10419000FCED00E0041000E0001000E054050020F9
:1041A0005805002044560020002201F031BD0000D7
:1041B000F8B50500EFF3108672B6454B1C68002C6D
:1041C00004D186F31088132000907FE0414A1068E4
:1041D000EFF305810843002804D086F310881320EC
:1041E000009073E03C48844204D186F31088132089
:1041F00000906BE0002D04D186F310880020009021
:1042000064E0364F3868002804D086F31088132005
:1042100000905BE0DFF8C8C0DCF80000002842D066
:1042200030490968C9053ED51168EFF3058211438D
:104230001A68002906D1D16AD36B1B0453F00043DE
:10424000194309E0B1F1F03F03D211005FF0FF32F2
:1042500002E05FF0F0320021026041607021816075
:1042600021490968C1600561216B4161694681612D
:104270000021C16120301D49096888420ED31C48C5
:104280000068CCF800001B490A6810621A4A1068DE
:10429000002808D008681168884704E0CCF80000BE
:1042A000144909680862042020630120A0630020EB
:1042B000C4F88400E5643868401C386086F31088D0
:1042C000200001F0CEFCD4F8840000900098F2BDEC
:1042D000B456002058050020144F0020D05600206E
:1042E000285700202C570020041000E024570020FD
:1042F000205700201457002030570020F8B5040044
:10430000069D0020002C01D106201AE02668134FDC
:10431000BE4201D0062014E0002B01D1032010E0A2
:10432000002D0ED00E4E3668EFF305873E43002E6B
:1043300001D0042005E00B4E36680B4FBE4200D181
:104340000420002802D1042A00D30820002803D129
:104350000095200001F042FEF2BD00BF4E445644DD
:1043600058050020B4560020144F0020B94A01001F
:10437000C9B252F831100B690100C9B202EBC10198
:1043800089880B40012B0CD00100C9B252F83110C2
:104390000B690100C9B202EBC10189880B40102BE7
:1043A00001D1012100E00021C0B202EBC000807900
:1043B000C9B2814201D1012000E000207047F8B568
:1043C00004002000C0B202281BDA0026FF270025C7
:1043D00008E02800C0B2FFF7C9FF002801D0761C12
:1043E0002F006D1C2800C0B20228F2DBF6B2012EAD
:1043F00005D1FFB2E4B2A74201D1012013E00020B1
:1044000011E0E4B2022C0DD10020FFF7AFFF00282D
:1044100006D00120FFF7AAFF002801D0012002E00A
:10442000002000E00020F2BD80B500F039F800F077
:1044300001F801BD10B586B00020009086480168E3
:1044400051F001010160016811F001010091009932
:1044500000210091016851F010010160006810F026
:10446000100000900098002002900220039003208A
:10447000049000240EE077482100C9B200EBC1018E
:104480008988019101A92200D2B250F83200FFF7C9
:1044900039FD641C2000C0B20228ECDB06B010BD60
:1044A00080B56E48002181720021C1720021017324
:1044B00000201FE06A4964220300DBB21B010B44A9
:1044C0001A8102220300DBB21B010B441A71002285
:1044D0000300DBB21B010B449A7205220300DBB21E
:1044E0001B010B44DA7200220300DBB21B011944EA
:1044F0000A73401C0100C9B20329DBDB06226421D8
:10450000012000F001F801BD10B4554B0400E4B2E5
:1045100024011C4421810100C9B209011944CA7255
:104520000021C0B200011844017310BC70474B4910
:10453000CA7A8854C87A401CC872C87A0A2801DB33
:104540000020C87270474549887ACA7A904201D1E2
:1045500000200AE0887A085C8A7A521C8A728A7A79
:104560000A2A01DB00228A72C0B2704738B5040003
:104570003B482100C9B2090100EB01052000C0B28F
:10458000FFF71DFF002846D02879052802DA05200C
:1045900028715EE028790A2803DA2879401C2871FE
:1045A00057E0A87A00280AD10120A8722100C9B2D8
:1045B00003204143491C0800C0B2FFF7B8FF288917
:1045C000002846D0E888298988420FD2E888401C14
:1045D000E880E888298988423BD1E4B2032044433B
:1045E000E41C2000C0B2FFF7A2FF32E0E87A002806
:1045F0002FD0287B401C2873287BE97A884228D357
:1046000000202873E4B203204443641C2000C0B29D
:10461000FFF78DFF1DE02879062802DB05202871B1
:1046200013E02879002803D02879401E28710CE077
:10463000A87A012809D10020A872E4B203204443DB
:10464000A41C2000C0B2FFF772FF0020E880002009
:10465000287331BDBCC20008303802402456002007
:10466000EC54002010B5002404E02000C0B2FFF795
:104670007DFF641C2000C0B20328F6DB10BD0000E3
:1046800080B500F003F800F022F801BD9648974984
:10469000016097494160974981604FF48061818151
:1046A000C18100210182002141820021C1820021BB
:1046B000018300214183002181820021C161002109
:1046C000016200214162002180F82810704710B576
:1046D00086B0002000908848016851F00101016017
:1046E000016811F001010091009900210091016819
:1046F00051F001010160006810F001000090009885
:10470000002000907D48016851F0100101600068B0
:1047100010F01000009000984FF4007001900220FB
:104720000290012003900320049007200590744C10
:1047300001A92000FFF7E6FB4FF4806001900720FD
:10474000059001A92000FFF7DDFB012200212520B3
:10475000FFF7B8FB2520FFF7C6FB644C0C230022B3
:104760005FF4E131200000F029F8206830F04000CB
:104770002060206830F0200020606248016851F01D
:104780002001016006B010BD80B50100C9B200294A
:1047900001D1554811E00100C9B2012901D1002021
:1047A0000BE0C0B2022801D1002006E040F227123F
:1047B00055495648FFF79CF9002002BD80B590B0DE
:1047C00000900191002002900020039004920020AC
:1047D0000690059300200790684601F0E1FC002850
:1047E00005D040F24F1248494848FFF781F911B00F
:1047F00000BD70B50400206805682068C6682068A0
:104800004069A8061BD520684168A068E28A8154E7
:10481000E08A401CE082E28980B2904201D300200D
:10482000E082608BE289904202D2608B401C608300
:10483000606A002803D00800C0B2616A8847280671
:1048400025D5300623D5A08A00280CD12068C06861
:1048500030F080002168C8602068C06850F04000D7
:104860002168C86013E0012084F828006068618A2C
:10487000405C21684860608A401C6082A18980B2E7
:10488000884201D300206082A08A401EA082680670
:1048900024D5700622D5A08A00280ED12068C068D1
:1048A00030F040002168C860206A002801D0206AEA
:1048B0008047002084F8280010E06068618A405C2E
:1048C00021684860608A401C6082A18980B2884269
:1048D00001D300206082A08A401EA08270BD80B5F6
:1048E0000148FFF786FF01BD1C5500200010014064
:1048F00024260020242A0020303802404438024078
:10490000000002400C10014048B2000824B9000821
:10491000F8B4002335E0BDF800408589AC4209D1E8
:104920000468E468240605D40468E46854F080044C
:104930000568EC60012585F31088848AADF8004095
:10494000002484F31088BDF800608789BE42E2D25B
:104950001E00B6B28E5D4768B0F810C007F80C6054
:1049600085F31088058A6D1C05828689ADB2B54233
:1049700001D300250582858A6D1C858284F3108809
:104980005B1C1C001500A4B2ADB2AC42D2D30168CE
:10499000C96851F080010068C160F1BC704770B512
:1049A0000D001600C0B2FFF7EFFE0400002C0AD085
:1049B000E069002801D0E0698047320092B2290006
:1049C0002000FFF7A5FF70BD02B501226946C0B205
:1049D000FFF7E5FF01BD30B4012282F31088448B5C
:1049E000002383F31088A4B2002C01D1002014E02E
:1049F0008468058B645D0C7082F31088018B491C00
:104A00000183C28989B2914201D300210183418B84
:104A1000491E418383F31088012030BC704710B5D4
:104A20000C00C0B2FFF7B0FE002801D1002002E068
:104A30002100FFF7D0FF10BD10B5040020000100D9
:104A4000C9B20020FFF7C0FF200010BD10B4030062
:104A50000020002000E0401C0A5C1C00E4B2A242DE
:104A600002D00A5C002AF6D1095C002901D15FF06E
:104A7000FF3010BC7047002141605FF0FF310180C2
:104A80000021426802441172002180F88010002148
:104A900080F881107047002141605FF0FF31018094
:104AA0000021426810440172704738B504000D00BF
:104AB0005FF0FF3095F88100002829D134492000AB
:104AC000C0B2FFF7C3FF0100002909D4314A52F8F0
:104AD0002100002859D0280052F82110884754E0BE
:104AE0002000C0B21B280DD1022085F8810095F866
:104AF0008000284480F86C4095F88000401C85F8C0
:104B0000800042E02100C9B2280001F019FD3CE01C
:104B100095F88100022835D195F88000284480F866
:104B20006C402000C0B261381A2808D32000C0B2FF
:104B300041381A2803D32000C0B27E2811D116496B
:104B40002000C0B2FFF782FF01002800134A52F88C
:104B500021108847002085F88000002085F881001A
:104B600013E095F88000132806DB002085F880000C
:104B7000002085F8810008E095F88000401C85F849
:104B8000800002E0002085F881002000C0B232BD24
:104B90003CC400088CC20008E4BF0008A8B10008AB
:104BA00030B488B00A00002103E000236C4663544F
:104BB000491C2029F9DB6B461178C910595C012486
:104BC000157815F00705AC4021431478E410195509
:104BD00011004A1C09780029EDD1002804D1DFF822
:104BE0006005006800E0401C0178C910595C02783B
:104BF00012F00702C9B2D140C90702D501780029D5
:104C0000F1D1020000E0401C017800290CD00178AD
:104C1000C910595C047814F00704C9B2E140C9070F
:104C2000F1D500210170401CDFF8141508608242A4
:104C300001D1002000E0100008B030BC704710B572
:104C40000400DFF80005FEF753FFDFF8FC04FEF771
:104C50004FFFDFF8F804FEF74BFFDFF8F404FEF730
:104C600047FFDFF8F004FEF743FFDFF8EC04FEF740
:104C70003FFF210055A0FEF73BFF14F1240000F098
:104C8000E7F8DFF8D81414F1240000F0EEF8012062
:104C9000608510BDF8B504000D00002600E0761C0C
:104CA0001427206A07FB06F10844C06800280DD0CD
:104CB000206A07FB06F10144280000F05BFA002897
:104CC000EDD1206A7E433044C06800E00020F2BD90
:104CD0002DE9F0479CB006000D000027A9460A24E4
:104CE000290016F1240000F032F9002807D12878B5
:104CF000002804D0290016F1240000F0B6F828009E
:104D0000FCF778FA652808D3DFF85404FEF7F0FEC4
:104D100031002EA0FEF7ECFE55E00FF2B40841463C
:104D20004846FFF73DFF824629003000FFF7B2FFFB
:104D30008146484600280AD1287801F079FD0028EC
:104D400036D05146DFF81C04FEF7D2FE30E0EA46CA
:104D50003800C0B20AF80040290068462200D2B2EA
:104D6000104401F06FFD2800FCF744FA401C0419C0
:104D700025007F1C41460020FFF712FF040015E0CC
:104D80003800C0B20AF80050210068462A00D2B2AA
:104D9000104401F057FD2000FCF72CFA401C451987
:104DA0007F1C41460020FFF7FBFE0400002CE7D1EA
:104DB0004846002803D069463800C0B2C8473100D1
:104DC00002A0FEF795FE1CB0BDE8F0872573000039
:104DD000200000002DE9F84304000D0000205FF0E2
:104DE00000084FF0FF09002600E0761C1427206A17
:104DF0003100C9B27943405C002826D00020290048
:104E0000206A3200D2B27A43104401F027FD002814
:104E1000EBD0216A3200D2B27A431144411A4A4699
:104E2000D2B29142E1D2216A3200D2B27A43114425
:104E3000401A8146206A3100C9B207FB01F700EB36
:104E400007084846C0B20028CFD14046BDE8F283EB
:104E50000021018000214180002181800021018109
:104E60000021418100218181704738B504000D0087
:104E70002800FCF7BFF9010089B2FE2923DB65E0B9
:104E8000A28921882144897B521AFD3A21898A18F6
:104E9000521EA28113E021882180A188491EA18091
:104EA00021882144897B228989B29142E8D3A28951
:104EB00021882144897B521A21898A18A28121885C
:104EC0002144897B2181A189D1F1FD01020092B2A7
:104ED000914202DBA188032907D12188491C218046
:104EE00021880429D7DB0021D6E761896288224422
:104EF00091736188491C61806188042901DB00216C
:104F000000E061886180A188491CA180002113E034
:104F100062890CE00A0092B2AA5C638923449A7405
:104F20006289521C62816289FE2AF1DB0022628161
:104F3000A289521CA281491C0A00030092B29BB2B2
:104F40009A42E7D3608961882144887331BDF8B5FE
:104F500004000E0025880021A088002802D1080046
:104F600080B256E03000FCF745F90200002300E073
:104F70005B1C1800A18880B2884249D2280080B208
:104F80002044807B6D1C290089B2042901DB0025A7
:104F9000FFE7290089B22144897B0F008446BFB214
:104FA0001FFA8CFC674501D3091A02E0D0F1FE0715
:104FB000C919170089B2BFB2B942D9D1591C00270B
:104FC00009E007E0401C84461FFA8CFCBCF1FE0F90
:104FD000F7DB00207F1CBC4696461FFA8CFC1FFAAC
:104FE0008EFEF4450DD284461FFA8CFCA4449CF836
:104FF00012C0BE461FFA8EFE16F80EE0F445E1D050
:105000000021080080B20028B2D0080080B200E081
:105010000020F2BDF0B483880C00A4B2A34260D398
:105020000388C918491E0B009BB2042B01DB091F22
:10503000FFE70B009BB203449B7B491C0C00A4B20E
:10504000042C01DB0021FFE789B201448C7B1900AD
:10505000250089B2ADB2A94218D21D000AE029008C
:1050600089B201448E7C2F00BFB2190089B27F1A29
:10507000D6556D1C2900260089B2B6B2B142EED3D6
:105080000020ADB29BB2EB1AD0542AE01D000AE01A
:10509000290089B201448E7C2F00BFB2190089B269
:1050A0007F1AD6556D1C290089B2FE29F0DB002538
:1050B0000BE02E00B6B2FE36190089B2761A29002E
:1050C00089B20144897C91556D1C2900260089B262
:1050D000B6B2B142EDD3ADB2FE359BB2EB1A0020B1
:1050E000D054F0BC704770B50021C0B2022803DB79
:1050F0001D48FEF7FDFC1DE0002412E0306A05FBB0
:1051000004F101440CA0FEF7F3FC306A05FB04F542
:10511000284401691548FEF7EBFC08A0FEF7E8FCFF
:10512000641C1425124E306A05FB04F10844C06863
:105130000028E3D170BD0000257300000D0A0000B7
:1051400058560020F0B3000834B4000878B40008C2
:10515000BCB4000800B5000844B500088CC40008C1
:1051600090BF0008BCC000089CC1000894C400089F
:105170002004002010F8012B11F8013B0AB19A42DB
:10518000F8D0D01A7047000038B594B0DFF88447E3
:10519000DFF884072060062060600020A060002007
:1051A000E0605FF4A02020615FF4C0006061002037
:1051B0002076002060760020A0760120E076002096
:1051C000207700206077200001F05EFB01000800DE
:1051D000C0B2002804D0C9B2DFF84007FEF788FC4F
:1051E000002010900120119000200A9049F6A400A0
:1051F0000B904FF6FF750C950D9500200E90012039
:1052000012900E200F900AA9200001F0F3FB01007C
:10521000C9B2002905D0C0B20100DFF80407FEF7CB
:1052200067FC00200690012007900020009049F6BE
:10523000AC00019002950395012004900120089094
:105240000A2005906946200001F0D4FB0100C9B294
:10525000002905D0C0B20100DFF8C806FEF748FCFF
:10526000002006900120079000200090002001906F
:10527000002002900020039000200490012008905C
:10528000002005906946200001F0B4FB0100C9B27E
:10529000002905D0C0B20100DFF88C06FEF728FC1B
:1052A000200001F039FC0221200001F0AAFD0028B5
:1052B00003D0DFF87806FEF71BFC0421200001F084
:1052C000A0FD002803D0DFF86806FEF711FC0821D6
:1052D000200001F096FD002803D0DFF85806FEF705
:1052E00007FC1021200001F08CFD002803D0DFF81E
:1052F0004806FEF7FDFB2021200001F082FD00287A
:1053000003D0DFF83806FEF7F3FB4021200001F060
:1053100078FD002803D0DFF82806FEF7E9FB01211D
:10532000200001F06EFD002803D0DFF81806FEF71C
:10533000DFFB15B030BD38B586B00C001500B0F5F8
:10534000006F03D20090002002900DE0B0F1005FEA
:1053500003D201900420029006E0A522DFF8E815B0
:10536000DFF8E805FEF7C4FB2800C0B2092801DB1E
:10537000012015E0EDB204950020039000208DF887
:105380001400DFF890550121280001F07AFC002874
:1053900008D1012322006946280001F0EDFB00201E
:1053A00007B030BD0121280001F06BFC002806D0B9
:1053B000022322006946280001F0DEFBEFE701210D
:1053C000280001F05EFC002806D004232200694674
:1053D000280001F0D1FBE2E70120E1E780B5DFF82A
:1053E000340501F024FD01BD1CB5082100226C46E6
:1053F0002000FEF7FDF9DFF81C45200001F017FD45
:105400006B46DFF84C250021200001F050FCDFF84E
:105410004405FEF76DFB13BD38B594B0DFF8384591
:10542000DFF838052060062060600020A0600020C2
:10543000E0605FF4A02020615FF4C00060610020A4
:105440002076012060760120A0760020E076002002
:10545000207701206077200001F016FA0100080093
:10546000C0B2002804D0C9B2DFF8F404FEF740FB54
:10547000002010900120119000200A9049F6A4000D
:105480000B904FF6FF750C950D9500200E900120A6
:1054900012900E200F900AA9200001F0ABFA010033
:1054A000C9B2002905D0C0B20100DFF8B804FEF788
:1054B0001FFB00200690012007900020009049F675
:1054C000AC00019002950395012004900120089002
:1054D0000A2005906946200001F08CFA0100C9B24B
:1054E000002905D0C0B20100DFF87C04FEF700FB04
:1054F00000200690012007900020009000200190DD
:1055000000200290002003900020049001200890C9
:10551000002005906946200001F06CFA0100C9B234
:10552000002905D0C0B20100DFF84004FEF7E0FA20
:10553000200001F0F1FA0221200001F062FC0028B5
:1055400003D0DFF82C04FEF7D3FA0421200001F089
:1055500058FC002803D0DFF81C04FEF7C9FA082124
:10556000200001F04EFC002803D0DFF80C04FEF709
:10557000BFFA1021200001F044FC002803D0DFF81E
:10558000FC03FEF7B5FA2021200001F03AFC0028C8
:1055900003D0DFF8EC03FEF7ABFA4021200001F066
:1055A00030FC002803D0DFF8DC03FEF7A1FA01216C
:1055B000200001F026FC002803D0DFF8CC03FEF722
:1055C00097FA15B030BD38B586B00C001500B0F5AF
:1055D000006F03D20090002002900EE0B0F1005F57
:1055E00003D201900420029007E04FF4D372DFF859
:1055F0005813DFF85803FEF77BFA2800C0B20928D9
:1056000001DB012015E0EDB204950020039000209D
:105610008DF81400DFF840530121280001F031FB20
:10562000002808D1012322006946280001F0A4FACD
:10563000002007B030BD0121280001F022FB002826
:1056400006D0022322006946280001F095FAEFE710
:105650000121280001F015FB002806D004232200B8
:105660006946280001F088FAE2E70120E1E780B509
:10567000DFF8E40201F0DBFB01BD1CB508210022CC
:105680006C462000FEF7B4F8B34C200001F0CFFBCD
:105690006B46AF4A0021200001F009FBDFF8EC0265
:1056A000FEF726FA13BD38B586B001689A4A9142D2
:1056B00067D100200590B648016851F00071016083
:1056C000016811F0007105910599002105910168AB
:1056D00051F080610160006810F0806005900598CD
:1056E00000200590AB48016851F00101016001689C
:1056F00011F001010591059900210591016851F012
:1057000002010160006810F00200059005984FF456
:105710008050009002200190022002900920049005
:105720009D4D69462800FEF7EDFB4FF400640094A0
:10573000022001900220039009200490694628006D
:10574000FEF7E0FB00940120019000200390002070
:10575000029069469148FEF7D5FB00209049086009
:10576000002200211420FEF7ADFB1420FEF7BBFB46
:10577000002200211320FEF7A5FB1320FEF7B3FB48
:105780006CE000687549884268D100200590804827
:10579000016851F080610160016811F0806105913C
:1057A000059900210591016851F080610160006850
:1057B00010F08060059005980020059075480168FC
:1057C00051F002010160016811F002010591059993
:1057D00000210591016851F002010160006810F09C
:1057E0000200059005984FF40050009002200190AF
:1057F0000220029009200490684C69462000FEF7C0
:1058000081FB4FF480500090022001900220039011
:105810000920049069462000FEF774FB4FF40060F5
:105820000090012001900020039000200290694622
:105830002000FEF767FB0020594908600022002184
:105840004020FEF73FFB4020FEF74DFB00220021E9
:105850003F20FEF737FB3F20FEF745FB07B030BD8A
:1058600010B504002B48844202D14E48FEF740F99F
:105870003948844202D14C48FEF73AF910BD10B5C0
:1058800004002448844202D14848FEF731F93248E6
:10589000844202D14648FEF72BF910BD10B5040032
:1058A0001C48844202D14348FEF722F92A48844228
:1058B00002D14148FEF71CF910BD10B5040015488F
:1058C000844202D13D48FEF713F92348844202D1B5
:1058D0003B48FEF70DF910BD10B504000D48844299
:1058E00002D13848FEF704F91B48844202D13648F9
:1058F000FEF7FEF810BD10B504000648844202D140
:105900003248FEF7F5F81448844202D13048FEF7D9
:10591000EFF810BD74550020006400406CBD000815
:1059200084B90008B0B90008DCB9000840B6000826
:1059300008BA000844B7000874B6000834BA000872
:1059400074B70008A4B7000824B30008D4B700084F
:10595000EC5500209CC200089C55002000680040C7
:1059600090BD000860BA00088CBA0008B8BA0008F8
:10597000A8B60008E4BA000804B80008DCB60008BD
:1059800010BB000834B8000864B80008ACC20008B6
:10599000403802403038024000000240000402401B
:1059A000AC82404220BF00083CBF00081CBE00087B
:1059B0003CBE00085CBE00087CBE00083CBB000882
:1059C00068BB000894BB0008C0BB0008ECBB000823
:1059D00018BC000808B584B00023039300290EBF4B
:1059E00001930190491E0291009301A904AB07485D
:1059F00078441830FAF7C8FB019909B100220A70FF
:105A0000002858BF039805B000BD00BF8FB7FFFF47
:105A100038B502000020002A01D11C2016E01368CE
:105A2000164CA34201D01C2010E000290ED0144BCC
:105A30001B68EFF305842343002B01D0042005E00D
:105A4000104B1B68104CA34200D1042000280ED13B
:105A50000B4D2B68EFF305842343002B07D02C68F4
:105A6000EFF305831C43B4F1F03F00D2132000286C
:105A700002D1100001F0F4FA32BD00BF4554554D7B
:105A800058050020B4560020144F002010B5002106
:105A9000002801D11C2114E002680D4B9A4201D06C
:105AA0001C210EE00B4C2268EFF305831A43002AF9
:105AB00007D02368EFF305821343B3F1F03F00D220
:105AC0001321002902D101F0AFFB0100080010BD35
:105AD0004554554D5805002001F000428B1AA3F1A2
:105AE0006051B1F5801F0ADBB1F17F6F1FD242EA2E
:105AF000C102C10071F1004142EB507070470B15BB
:105B0000C3F10903212B10D2890241EA905180028E
:105B10000128494141F0004121FA03F0C3F120037B
:105B2000994071F1004150417047100070476FF08B
:105B3000000013EB103F5CBF000E42EAC0507047FC
:105B40007CB500200090EFF3108472B626480568FB
:105B5000264B1868002842D02549096889053ED59A
:105B600024490968EFF305821143234A126800298A
:105B700006D1D16AD66B360456F00046314309E0AF
:105B8000B1F1F03F03D211005FF0FF3202E05FF0AD
:105B9000F032002102604160782181601749096874
:105BA000C160056169464161002181610021C161D7
:105BB00020301349096888420DD3124800681860E4
:105BC00011490A681062114A1068002807D0086855
:105BD0001168884703E018600B490968086284F37C
:105BE0001088280076BD00BFE0560020285700200E
:105BF0002C57002058050020B4560020041000E067
:105C00002457002020570020145700203057002030
:105C100000B500BF130096469446103928BFA0E88F
:105C20000C50FAD85FEA417C28BF0CC048BF40F84E
:105C3000042BC90728BF20F8022B48BF00F8012B0E
:105C400000BD00005FF08050DFF848130860EFF3FC
:105C50000580002804D1EFF3108062B680F310882D
:105C600070472DE9FC4705005FF00009DFF828A325
:105C7000DAF80070EFF3108072B6002D33D0296887
:105C8000DFF8182391422ED1A968D5F8A8209142B7
:105C900002D2A968C5F8A810E9680968B1F1EF3F18
:105CA0000AD12969D1F80110B1F1EF3F04D1D5F83B
:105CB000A810EA68914207D280F31088280001F00A
:105CC0001DFCEFF3108072B6D5F8A81051F8041C33
:105CD000B1F1EF3F07D080F31088280001F01EFCDF
:105CE000EFF3108072B680F31088EFF3108872B66D
:105CF000BD420CD1E86C002806D010F1010F03D092
:105D000015F14C0001F04AFCE869A5490860A54E70
:105D10003068401E3060A86B012840F0F380A24B31
:105D20001C681868002846D0A0490978C90742D5E0
:105D30009F490968EFF305821143DAF80020002932
:105D400009D1D16AD2F83CC05FEA0C4C5CF0004C3F
:105D50005CEA010109E0B1F1F03F03D211005FF00C
:105D6000FF3202E05FF0F032002102604160022168
:105D7000816090490968C1600561296B416169468C
:105D800081618D490968C16120308C490968884268
:105D90000DD38B48006818608A490A6810628A4AE5
:105DA0001068002807D008681168884703E0186069
:105DB000844909680862002C01D0D4F80C900020B6
:105DC000A863E86A0090286AA84218D0696A41620C
:105DD00008627E49009A51F82220AA4248D1009ACE
:105DE00041F822007A490868002841D00122009831
:105DF00012FA00F00A6832EA0000086038E0002079
:105E00007249009A41F822000123009813FA00F029
:105E100070490A6832EA000008606D4A106800287C
:105E200006D0009813FA00F0136833EA00001060FF
:105E300000220868002814D120206749086000204B
:105E40005D490860002C04D0E068814501D1002044
:105E5000E06188F310883068002801D1FFF7F2FE76
:105E600096E090FAA0F0B0FA80F082185A480260EA
:105E70005149086885423ED1574A544B106853F83F
:105E800020000860524D2868002825D03068401C4A
:105E9000306088F31088EFF3108872B63068401EC7
:105EA000306000202F6897FAA7F7B7FA87F73818FD
:105EB00000901068009A53F82220D26B90420BD3C6
:105EC000009853F8200008600122009812FA00F0B0
:105ED0002A6832EA00002860002C04D0E06881457E
:105EE00001D10868E06188F310883068002801D18A
:105EF000FFF7A8FE4CE0002C04D0E068814501D1FA
:105F00000868E06188F310882B4801688F423FD011
:105F10000468EFF3108072B6002C32D021681F4A5B
:105F200091422ED1A168D4F8A820914202D2A16852
:105F3000C4F8A810E1680968B1F1EF3F0AD12169FE
:105F4000D1F80110B1F1EF3F04D1D4F8A810E26804
:105F5000914207D280F31088200001F0CFFAEFF3CE
:105F6000108072B6D4F8A81051F8041CB1F1EF3FBC
:105F700007D080F31088200001F0D0FAEFF31080F2
:105F800072B680F310883068002801D1FFF75AFEFE
:105F9000BDE8F38704ED00E0B456002044524854B5
:105FA00010570020D0560020285700202C570020E2
:105FB00058050020041000E0B856002024570020A7
:105FC000205700201457002030570020D0500020C8
:105FD000C8560020C4560020CC5600202DE9F843B6
:105FE00004000D0016009846EFF3108772B6614B5F
:105FF0001868002843D06049097809073FD55F49F0
:106000000968EFF3058211435D4A1268002909D13E
:10601000D16AD2F83CC05FEA0C4C5CF0004C5CEA00
:10602000010109E0B1F1F03F03D211005FF0FF324E
:1060300002E05FF0F03200210260416020218160C7
:1060400050490968C16004614561A1688161C66108
:1060500020304D49096888420DD34C4800681860CB
:106060004B490A6810624B4A1068002807D008683C
:106070001168884703E01860454909680862A2680A
:1060800016F00201206A002800D08243022905D1BF
:1060900015EA0200A84203D0002001E015EA020040
:1060A000002819D0C8F8002016F00106012E11D1E1
:1060B00000216069002803D02069002800D1012157
:1060C000012903D1206A0543256203E0A06830EA74
:1060D0000505A560002049E00898002845D02E4A13
:1060E0001168002901D0072040E02549D1F800902F
:1060F0002A49C9F86810C9F87850C9F88060C9F809
:106100007C80C9F86C40D9F8B010491CC9F8B010AF
:106110006169002906D1C4F81090C9F87090C9F8D7
:10612000749009E02169C9F870104B6FC9F8743098
:10613000C3F87090C1F874906169491C61610721CE
:10614000C9F830100121C9F83810C9F84C0010689E
:10615000401C106087F310884846FFF782FDEFF37C
:10616000108772B6D9F8840000E0072087F3108802
:10617000BDE8F283285700202C5700205805002046
:10618000B4560020041000E02457002020570020BF
:106190001457002030570020D056002081AE000850
:1061A00010B50400002C01D1012033E0A0690028C3
:1061B000FFD194F83900002805D1002084F8380078
:1061C000200000F0AFF9242084F839002068C0686E
:1061D00030F400502168C860200000F01CF82068EE
:1061E000006930F49040216808612068406930F00F
:1061F0002A00216848612068C06850F40050216876
:10620000C8600020E063202084F83900202084F852
:106210003A00002010BD2DE9F0410400206801691A
:1062200031F44051E068014320680161A1682069B0
:10623000014360690143E06901432068C268B648D0
:10624000024011432068C1602068416931F4407107
:10625000A069014320684161E069B0F5004F40F05A
:10626000AE802068AD49884203D02068AC4988429E
:1062700052D101F06FFA804601F06CFA050001F08E
:1062800069FA060001F066FA070001F063FA64217A
:10629000192202FB08F863685B00B8FBF3F35FF0B8
:1062A000640CB3FBFCF35543D4F804C05FEA4C0C18
:1062B000B5FBFCF55643D4F804C05FEA4C0CB6FBC2
:1062C000FCF65FF0640CB6FBFCF601FB1655ED0026
:1062D00032356426B5FBF6F56D0015F4F87515EB4F
:1062E0000315574363685B00B7FBF3F302FB00F24F
:1062F00060684000B2FBF0F06422B0FBF2F001FBFA
:106300001031C80032306421B0FBF1F010F007000A
:10631000451920688560FDE001F011FA804601F022
:106320000EFA050001F00BFA060001F008FA07006A
:1063300001F005FA6421192202FB08F863685B008A
:10634000B8FBF3F35FF0640CB3FBFCF35543D4F8F4
:1063500004C05FEA4C0CB5FBFCF55643D4F804C00E
:106360005FEA4C0CB6FBFCF65FF0640CB6FBFCF687
:1063700001FB1655ED0032356426B5FBF6F56D00D0
:1063800015F4F87515EB0315574363685B00B7FB0D
:10639000F3F302FB00F260684000B2FBF0F064220D
:1063A000B0FBF2F001FB1031C80032306421B0FBC9
:1063B000F1F010F00700451920688560AAE0206818
:1063C0005649884203D020685549884251D101F08E
:1063D000C1F9804601F0BEF9050001F0BBF90600E5
:1063E00001F0B8F9070001F0B5F96421192202FBA8
:1063F00008F863689B00B8FBF3F35FF0640CB3FB31
:10640000FCF35543D4F804C05FEA8C0CB5FBFCF5F3
:106410005643D4F804C05FEA8C0CB6FBFCF65FF080
:10642000640CB6FBFCF601FB16552D0132356426D3
:10643000B5FBF6F515F0F00515EB0315574363684A
:106440009B00B7FBF3F302FB00F260688000B2FB35
:10645000F0F06422B0FBF2F001FB103108013230A1
:106460006421B0FBF1F010F00F0045192068856041
:1064700050E001F064F9804601F061F9050001F097
:106480005EF9060001F05BF9070001F058F964219C
:10649000192202FB08F863689B00B8FBF3F35FF076
:1064A000640CB3FBFCF35543D4F804C05FEA8C0CD6
:1064B000B5FBFCF55643D4F804C05FEA8C0CB6FB80
:1064C000FCF65FF0640CB6FBFCF601FB16552D01E3
:1064D00032356426B5FBF6F515F0F00515EB03151E
:1064E000574363689B00B7FBF3F302FB00F260685D
:1064F0008000B2FBF0F06422B0FBF2F001FB10313F
:10650000080132306421B0FBF1F010F00F004519A2
:1065100020688560BDE8F081F369FFFF001001404D
:10652000001401407047000070B504000D00002603
:1065300003E0A05D01F066F9761CAE42F9D370BDB0
:1065400010B50C00416862292DD2B0F900104268E4
:1065500091420CD2416806E000EB0102D27900EBD7
:1065600001031A72491EB0F900208A42F4D301884F
:10657000491C01804168491C4160B0F90010014488
:106580000C720021426802441172B0F90010491CDB
:106590004068814202D2A048FDF7AAFAE4B2200086
:1065A00001F030F90DE061214160B0F9001042685E
:1065B000914202D34168491E018000214268104483
:1065C000017210BD38B50400002506E004EB05009B
:1065D00090F86C0001F016F96D1C94F8800085426B
:1065E000F4D331BD80B55FF0FF31018000214160FF
:1065F0008A48018D41850D2001F004F90A2001F03F
:1066000001F901BD80B55FF0FF31018000214160DB
:106610008248018D41850A2001F0F4F801BD80B562
:10662000B0F90010002918D4B0F9001006E000EB12
:106630000102527A00EB01031A72491C426891422E
:10664000F5D30188491E01804168491E4160082038
:1066500001F0D8F87248FDF74BFA01BD38B50500D6
:106660006E4C608D002823D06E48FDF741FA200063
:10667000FDF73EFA15F10802618D14F12400FEF7D2
:10668000C9FC15F10800FAF7B5FD68606868401E9E
:106690002880696815F10800FFF746FF608D401EED
:1066A0006085608D002801D1208D00E0608D6085BF
:1066B00031BD38B50500594C608D002824D05948AB
:1066C000FDF716FA2000FDF713FA15F10802618DA7
:1066D00014F12400FEF79EFC15F10800FAF78AFD7C
:1066E00068606868401E2880696815F10800FFF737
:1066F0001BFF608D401C6085208D618D884201D21A
:10670000012000E0608D608531BD80B5B0F90010DA
:10671000002905D40188491E01804348FDF7E8F9A6
:1067200001BD80B5B0F900104268521E914205DAF1
:106730000188491C01803D48FDF7DAF901BD70B5BB
:106740000600364D16F108012800FEF743FB040051
:10675000002C3AD07068002820D12DA42000FDF72D
:10676000C7F900260CE0286A3200D2B201FB02F120
:10677000014428A0FDF7BCF92000FDF7B9F9761C0B
:106780001421286A3200D2B24A431044C06800285B
:10679000E9D129001FA0FDF7ABF916E02148FDF76C
:1067A000A7F92800FDF7A4F92000FAF723FD70608F
:1067B0007068401E3080210016F1080000F042F899
:1067C000716816F10800FFF7AFFE70BD80B590F854
:1067D0006E1033291AD1B0F90010491C06E000EB05
:1067E0000102527A00EB01031A72491C426891427D
:1067F000F5D3B0F90010426812B2914206DA41684E
:10680000491E416004210648FFF78EFE01BD0000CD
:106810000D0A00002573000044C400082004002075
:106820004CC4000854C400085CC4000864C40008D8
:1068300010B50446FBF748F9014620460969BDE852
:10684000104008475FEA000C11F8012B00F8012BFB
:1068500012B111F8012BF9E76046704770B50D468B
:106860002C7834B970BD11F8013F1678B34206D0C8
:10687000401C2146FAF786FC28B101462A4612F848
:10688000013F002BEFD170BD38B50400002C01D1C1
:106890000120AEE094F82000002802D12000FEF78D
:1068A00002FF2068006830F0020021680860FDF7F0
:1068B0004DFC05002068406880070DD5FDF746FCBB
:1068C000401B0B28F6D3606A50F40030606205204C
:1068D00084F8200001208CE02068006850F001005E
:1068E00021680860FDF732FC050020684068C00799
:1068F0000DD4FDF72BFC401B0B28F6D3606A50F437
:1069000000306062052084F82000012071E0207EC4
:10691000012806D12068006850F0800021680860D6
:1069200005E02068006830F0800021680860607E23
:10693000012806D12068006850F0400021680860F6
:1069400005E02068006830F0400021680860A07E03
:10695000012806D12068006850F0200021680860F6
:1069600005E02068006830F0200021680860E07EC3
:10697000012806D12068006830F010002168086006
:1069800005E02068006850F0100021680860207F52
:10699000012806D12068006850F0080021680860CE
:1069A00005E02068006830F0080021680860607F1A
:1069B000012806D12068006850F0040021680860B2
:1069C00005E02068006830F0040021680860A168D4
:1069D000E068014320690143606901436068401E2B
:1069E00001432068C16100206062012084F820001A
:1069F000002032BD30B4026890F820201300DBB2D2
:106A0000012B03D0D2B2022A40F07F80594AD2F83B
:106A1000000250F00100C2F80002D2F8000230F487
:106A20007C50C2F80002D2F800024B6A50EA032000
:106A3000C2F8000201200B7D13F01F0310FA03F3CC
:106A4000D2F81C029843C2F81C02C869002816D16B
:106A5000D2F80C029843C2F80C02486902EBC0005D
:106A6000CC684D68C5EA0444C0F84042486902EB6E
:106A7000C0008C680D68C5EA0444C0F84442C86987
:106A8000012816D1D2F80C021843C2F80C0248694A
:106A900002EBC0000C684D68C5EA0444C0F84042EF
:106AA000486902EBC0008C68CD68C5EA0444C0F8B0
:106AB00044428869002805D1D2F804029843C2F8FC
:106AC000040204E0D2F804021843C2F80402086980
:106AD000002805D1D2F814029843C2F8140204E049
:106AE000D2F814021843C2F81402086A012804D12B
:106AF000D2F81C020343C2F81C32D2F8000240084C
:106B00004000C2F80002002004E0416A51F48021F4
:106B10004162012030BC704738B5040094F8200071
:106B2000012821D1022084F8200020680068400854
:106B3000400021680860FDF709FB050020684068F7
:106B4000C0070DD5FDF702FB401B0B28F6D3606A8A
:106B500050F400306062052084F82000012008E035
:106B600000206062002004E0606A50F4002060624F
:106B7000012032BD0064004070B490F820500468D9
:106B8000A6688C68002CFFD02C00E4B2012C02D047
:106B9000EDB2022D6ED116F0E05F65D0C6F3016450
:106BA000032C05D3416A51F400014162012066E0E3
:106BB0000125A5401D608B68002B09D10B68CD68AD
:106BC00055EA4355036826013344C3F880510AE06F
:106BD0004B688D6855EAC305CB681D4303682601E1
:106BE0003344C3F880510B69056826013544C5F864
:106BF0008431097D01290BD1016823011944D1F8A1
:106C0000841151F48071036825012B44C3F8841169
:106C1000D17993791B0453EA0163517953EA012333
:106C200011790B43016825012944C1F88C31D178D1
:106C300093781B0453EA0163517853EA01231178D6
:106C40000B43016822011144C1F888310168220117
:106C50001144D1F8801151F0010100682201104463
:106C6000C0F8801100200AE0416A51F4001141622D
:106C7000012004E0416A51F480214162012070BC8E
:106C8000704710B40200002092F820301C00E4B2DB
:106C9000012C02D0DBB2022B07D11268926812EAF3
:106CA0008162B2EB816F00D0012010BC704730B41C
:106CB00090F820402500EDB2012D03D0E4B2022C63
:106CC00040F0988000290AD10468E46814F0030FAA
:106CD00010D1416A51F40011416201208FE0046833
:106CE000246914F0030F05D1416A51F40011416287
:106CF000012084E004680D012C44D4F8B04114F064
:106D0000040494609468002C07D104680D012C449D
:106D1000D4F8B041640D146006E004680D012C4401
:106D2000D4F8B041E408546004680D012C44D4F850
:106D3000B041C4F34004D46004680D012C44D4F87D
:106D4000B44114F00F04146104680D012C44D4F80C
:106D5000B441C4F30724946104680D012C44D4F8B1
:106D6000B441240C546102680C012244D2F8B821C9
:106D70001A7002680C012244D2F8B821120A5A7023
:106D800002680C012244D2F8B821120C9A700268F1
:106D90000C012244D2F8B821120EDA7002680C01FC
:106DA0002244D2F8BC211A7102680C012244D2F8A4
:106DB000BC21120A5A7102680C012244D2F8BC218B
:106DC000120C9A7102680C012244D2F8BC21120EF6
:106DD000DA71002906D10168C96851F02001006804
:106DE000C16005E00168096951F020010068016196
:106DF000002004E0416A51F480214162012030BC4E
:106E0000704790F820201300DBB2012B02D0D2B2E1
:106E1000022A06D1026852691143006841610020CC
:106E200004E0416A51F480214162012070472DE95C
:106E3000F84F0500002428684669286847682868D4
:106E4000D0F808802868D0F80C902868D0F810A0F6
:106E50002868D0F818B0F00755D55FEAC87018D583
:106E60000120296888605FEA887003D52800FEF752
:106E700024FD0EE05FEA487002D554F4006408E097
:106E80005FEA087002D554F4805402E0280000F054
:106E9000BFFC5FEAC85019D54FF48070296888603C
:106EA0005FEA885003D52800FEF716FD0EE05FEA82
:106EB000485002D554F4005408E05FEA085002D567
:106EC00054F4804402E0280000F0A3FC5FEAC830DC
:106ED00019D55FF48030296888605FEA883003D56F
:106EE0002800FEF708FD0EE05FEA483002D554F4B2
:106EF000004408E05FEA083002D554F4803402E030
:106F0000280000F087FC300707D55FEAC96004D588
:106F100054F4007410202968C860700708D55FEA2F
:106F2000097005D508202968C8602800FEF798FC7C
:106F3000B00707D52868C06810F0030F02D02800FA
:106F4000FEF79DFC700607D55FEACA6004D554F4CD
:106F50008064102029680861B00608D55FEA0A70CD
:106F600005D5082029680861280000F054FCF006C7
:106F700007D52868006910F0030F02D02800FEF73B
:106F80008DFCB00307D5F80605D5102029684860A8
:106F9000280000F041FCF00307D5380705D508208C
:106FA00029684860280000F038FC30044DD5780787
:106FB00048D5F00506D51BF00100C0B2002801D06D
:106FC00054F00104B00504D55FEA8B7001D554F08C
:106FD0000204700504D55FEA4B7001D554F0040437
:106FE00030052FD51BF0700F2CD01BF0700BBBF1B0
:106FF000100F0FD0BBF1200F0FD0BBF1300F0FD00F
:10700000BBF1400F0FD0BBF1500F0FD0BBF1600FA1
:107010000FD011E054F008040EE054F010040BE01F
:1070200054F0200408E054F0400405E054F08004DB
:1070300002E054F48074FFE72868806930F0700043
:1070400029688861042029684860002C05D0686A96
:1070500004436C62280000F0E1FBBDE8F18F000002
:10706000F8B506000C00EFF3108772B6634B186892
:10707000002841D06249097889063DD561490968EF
:10708000EFF305821143604A1268002906D1D16AE4
:10709000D56B2D0455F00045294309E0B1F1F03FCF
:1070A00003D211005FF0FF3202E05FF0F032002106
:1070B000026041603421816054490968C160066101
:1070C0004461F1688161B168C1612030504909684B
:1070D00088420DD34F48006818604F490A68106213
:1070E0004E4A1068002807D008681168884703E0F6
:1070F000186049490968086243480568B068002873
:1071000022D10120B060F560002D19D0306901282E
:1071100003D1E86A70612020B062D5F8A40000288D
:1071200005D0016B0663CE623163F06203E0C5F8FF
:10713000A460F6623663D5F8A000401CC5F8A00034
:1071400087F31088002058E0F068A84206D1B068A4
:10715000401CB06087F3108800204EE0002C49D01E
:107160002F490868002803D087F310881D2044E0C9
:10717000F2682C48A866EE66D5F8B000401CC5F849
:10718000B000F069002803D1B5612D676D6705E097
:10719000B0692867436F6B671D674567F069401CDE
:1071A000F0610D2028630120A863EC640868401C8E
:1071B000086087F310883069012815D1E86AB16A40
:1071C000884201D2E86AB062E86AD2F89C1088422C
:1071D00002D2E86AC2F89C00E86AD16A884203D207
:1071E000E96A100000F01CFB2800FEF73AFDD5F814
:1071F000840002E087F310881D20F2BD285700208C
:107200002C57002058050020B4560020041000E040
:10721000245700202057002014570020305700200A
:10722000D056002035AC0008F8B504002025EFF357
:10723000108672B6A74B1868002842D0A649097874
:1072400089063ED5A5490968EFF305821143A44A92
:107250001268002906D1D16AD76B3F0457F0004766
:10726000394309E0B1F1F03F03D211005FF0FF3282
:1072700002E05FF0F032002102604160392181605C
:1072800098490968C1600461E1684161A168816150
:107290006946C16120309449096888420DD39348FA
:1072A0000068186092490A681062924A10680028C3
:1072B00007D008681168884703E018608C4909689E
:1072C0000862A068002800F00081E1688448006836
:1072D000E268824206D088480068002802D186F31E
:1072E00010881E25202D40F0F380A068401EA0606D
:1072F000A068002803D086F310880025E8E0002964
:1073000003D186F310880025E2E0D1F8A000401EEA
:10731000C1F8A000D1F8A000002803D10020C1F8D6
:10732000A40009E0E06A226B0263D062D1F8A420D5
:10733000A24201D1C1F8A400A069002807D12069A8
:10734000002804D10020E06086F310880025202D5D
:1073500040F0BE800025D1F89400009020690128FB
:1073600024D1654B1868401C186086F310882022D1
:10737000D1F8A4000CE00669012E03D1866A96427A
:1073800000D2826AC06AD1F8A460B04200D1002065
:107390000028F0D1EFF3108672B61868401E18600E
:1073A000C1F89C200098824200D20092E069022835
:1073B00011D3206901280ED14F4F3868401C386026
:1073C00086F31088200000F0A3FAEFF3108672B65F
:1073D0003868401E3860A06900281ED1464D2868D4
:1073E000401C286086F310882020A062E068C06AF4
:1073F0000099884203D00099E06800F011FAEFF399
:10740000108072B62968491E29600021E16080F36E
:10741000108800F03FFB00255AE0A7692069012889
:1074200004D1E568F86A60612020A062D7F8A00066
:10743000002804D1C7F8A440E462246306E0D7F82A
:10744000A4100A6B0C63D4622263E162401CC7F88B
:10745000A0000120A060E760E069401EE061E069F3
:10746000002802D10020A06104E0386FA061796F8C
:10747000416708670020B8660020C7F884001E48EE
:107480000168491C016086F310882069012817D122
:10749000E06900280CD0200000F03AFAEFF31081E8
:1074A00072B6A069002801D0C06AA06281F310887A
:1074B000E86A0099884203D00099280000F0B0F9EA
:1074C000380000F048FB002502E086F310881E25F6
:1074D0002800F2BD285700202C5700205805002016
:1074E000B4560020041000E024570020205700204C
:1074F0001457002030570020D056002010B5EFF36D
:10750000108472B6044A1168002901D011688847B6
:1075100084F3108810BD00BFDC56002070B4EFF378
:10752000108372B6002833D01B4D0168A9422FD1B9
:10753000C268002A2CD0D0F8A810002928D083F3E4
:1075400010888B1A9B105B0802EB83042668B6F147
:10755000EF3F01D0210000E02200022BF1D2216890
:10756000B1F1EF3F01D1241DF9E7EFF3108372B6BB
:107570000168A9420CD1C168A14209D2D0F8A81073
:107580008C4205D22168B1F1EF3F01D0C0F8A8408C
:1075900083F3108870BC7047445248540268002A34
:1075A00027D012F1010F24D08169002921D1212A8D
:1075B00001D31F2200E0521E0E49096801EB82022E
:1075C0000D490B689A4206D30968521A92100B496A
:1075D000096801EB82021168002903D10061406152
:1075E000106005E011684B691861486101614361F1
:1075F00082617047F0560020EC560020E8560020CB
:107600002DE9F04104000E00002C01D1012091E091
:10761000564D286810F00700B04207D22E70286837
:1076200010F00700B04201D0012083E020788007ED
:1076300016D52078400704D54D48016851F4E05133
:1076400001602078000704D54948016851F4604181
:10765000016047490A6832F0F002A06802430A60FC
:107660002078C00735D56068012805D141480068F9
:10767000800313D401205DE06068022802D06068B6
:10768000032805D13B480068800107D4012051E060
:1076900038480068800701D401204BE0344F396836
:1076A00089088900606801433960FCF74FFD804616
:1076B000386810F00C006168B0EB810F09D0FCF75E
:1076C00045FDB0EB080041F289318842F0D3032038
:1076D00030E0286810F00700864207D22E70286834
:1076E00010F00700B04201D0012023E020784007CD
:1076F00006D51F490A6832F4E052E06802430A6086
:107700002078000707D51A48016831F460412269E2
:1077100051EAC201016000F035F81749144A1268B5
:10772000C2F30312895CC840144908600F20FCF7BB
:107730000BFD0020BDE8F08110480068704780B55F
:10774000FFF7FAFF0E490A4A1268C2F38222895CE7
:10775000C84002BD80B5FFF7EFFF0949044A12682F
:10776000C2F34232895CC84002BD0000003C0240C6
:1077700008380240003802401CC3000854050020AD
:10778000A4C4000810B500200020002000201948E3
:10779000006810F00C00002804D0042804D0082849
:1077A00004D025E0144824E0144822E0144C226858
:1077B00012F03F022068400209D52068C0F388100B
:1077C0000E49A1FB00010023FAF786F908E02068C2
:1077D000C0F388100849A1FB00010023FAF77CF9E7
:1077E0002168C1F30141491C4900B0FBF1F000E000
:1077F000014810BD083802400024F40000127A004D
:10780000043802400149FDF717B900BF5C050020AC
:107810007047704770477047704770477047000067
:107820002DE9F04104000D00EFF3108172B6206BDA
:1078300000280CD0E562D4F89800A84203D2D4F80E
:107840009800E06300E0E56381F3108855E02C4E7A
:107850003768D4F82C802B480268921C0260032001
:1078600020630120A0630020E06481F310882000E1
:10787000FEF7F7F9EFF3108072B6E562D4F89810CE
:10788000A94203D2D4F89810E16300E0E56380F3E5
:107890001088200000F05FF9EFF3108172B63268B3
:1078A000944228D0206B002825D1D06AE36A984200
:1078B00009D3BC421FD13460A8451CD21248E26AE9
:1078C00040F8224017E0E06BE36A984213D2D06A96
:1078D000E36B984207D33460A8450CD20A48E26AA9
:1078E00040F8224007E00123D06A13FA00F0074A6B
:1078F00013681843106081F31088BDE8F08100BF61
:10790000B8560020D0560020D0500020C856002085
:10791000F8B50400EFF3108572B64D4B18680028D7
:1079200042D04C49097889063ED54B490968EFF3A6
:1079300005821143494A1268002906D1D16AD66BE3
:10794000360456F00046314309E0B1F1F03F03D26E
:1079500011005FF0FF3202E05FF0F03200210260C0
:107960004160382181603E490968C1600461E16974
:107970004161694681610021C1612030394909684E
:1079800088420DD338480068186038490A68106288
:10799000374A1068002807D008681168884703E054
:1079A0001860324909680862E0690090009802286E
:1079B00002D285F3108849E00098022809D1A06915
:1079C000016FCA6AC06A824200D2A16185F3108841
:1079D0003CE0A1690A00166F264B1868401C18602D
:1079E0000020F76AD2F82CC0674500D2320085F338
:1079F0001088EFF3108572B6A769B94201D0012053
:107A000005E0009FD4F81CC0674500D00120002885
:107A100001D1366F05E0A169E06900900A00166F98
:107A200000208E42DDD11868401E18608A4209D0BD
:107A3000106F536F43671867486F1167506702678D
:107A40004A67A26185F3108800F024F80020F2BD97
:107A5000285700202C57002058050020B45600203D
:107A6000041000E024570020205700201457002065
:107A700030570020D05600205FF080502949086020
:107A8000EFF30580002804D1EFF3108062B680F395
:107A90001088704710B524480068002841D1234859
:107AA000006823490C68A0423BD0EFF3108072B607
:107AB000002C32D021681F4A91422ED1A168D4F8FF
:107AC000A820914202D2A168C4F8A810E168096810
:107AD000B1F1EF3F0AD12169D1F80110B1F1EF3FC7
:107AE00004D1D4F8A810E268914207D280F310883C
:107AF0002000FFF703FDEFF3108072B6D4F8A81052
:107B000051F8041CB1F1EF3F07D080F3108820003A
:107B1000FFF704FDEFF3108072B680F31088FFF7D3
:107B2000ABFF10BD04ED00E0D0560020B45600209D
:107B3000B8560020445248545FF08050DFF8481394
:107B40000860EFF30580002804D1EFF3108062B6DF
:107B500080F3108870472DE9FC4105005FF00008B4
:107B6000EFF3108072B6002D33D02968DFF81C23A4
:107B700091422ED1A968D5F8A820914202D2A968D5
:107B8000C5F8A810E9680968B1F1EF3F0AD1296981
:107B9000D1F80110B1F1EF3F04D1D5F8A810EA688F
:107BA000914207D280F310882800FFF7A7FCEFF37B
:107BB000108072B6D5F8A81051F8041CB1F1EF3F4F
:107BC00007D080F310882800FFF7A8FCEFF310809F
:107BD00072B680F31088EFF3108772B6686E0028D3
:107BE00004D015F14C0000F071F901E00020E864C8
:107BF000A74B1C681868002843D0A6490978C90714
:107C00003FD5A5490968EFF305821143A34A1268DD
:107C1000002906D1D16AD66B360456F000463143AE
:107C200009E0B1F1F03F03D211005FF0FF3202E052
:107C30005FF0F032002102604160012181609849CB
:107C40000968C1600561296B416169468161954997
:107C50000968C16120309449096888420DD393486E
:107C60000068186092490A681062924A10680028F9
:107C700007D008681168884703E018608C490968D4
:107C80000862002C01D0D4F80C808B4E3068401E66
:107C90003060A86B002840F09380286B002800F02B
:107CA000A180686B002840F0868000202863E96A84
:107CB000824A52F82100002877D142F821502D62E3
:107CC0006D62012212FA01F07D4BD3F800C050EA38
:107CD0000C0018607B480368994280F08380016043
:107CE000704B186800900098002801D11D6079E061
:107CF0000098C06B814275D20098C06B0099C96A28
:107D0000884207D00098C06A12FA00F06E490A68EB
:107D1000104308601D60002C04D0E068804501D14C
:107D20001868E06187F310881C68EFF3108072B662
:107D3000002C32D02168554A91422ED1A168D4F846
:107D4000A820914202D2A168C4F8A810E16809688D
:107D5000B1F1EF3F0AD12169D1F80110B1F1EF3F44
:107D600004D1D4F8A810E268914207D280F31088B9
:107D70002000FFF7C3FBEFF3108072B6D4F8A81011
:107D800051F8041CB1F1EF3F07D080F310882000B8
:107D9000FFF7C4FBEFF3108072B680F310883068F1
:107DA000002801D1FFF7C8FE6CE0416A0D62456210
:107DB0006962286216E0002068630320286311E0EE
:107DC000286B01280ED0286B02280BD0686B002886
:107DD00004D10020A8630020286303E0002068632A
:107DE00003202863002C05D0E068804502D12D488F
:107DF0000068E0612948006887F3108829490A680B
:107E000090423FD00C68EFF3108072B6002C32D055
:107E100021681E4A91422ED1A168D4F8A82091422F
:107E200002D2A168C4F8A810E1680968B1F1EF3F77
:107E30000AD12169D1F80110B1F1EF3F04D1D4F892
:107E4000A810E268914207D280F310882000FFF763
:107E500055FBEFF3108072B6D4F8A81051F8041C4B
:107E6000B1F1EF3F07D080F310882000FFF756FBF9
:107E7000EFF3108072B680F310883068002801D1CB
:107E8000FFF75AFEBDE8F38104ED00E04452485488
:107E9000285700202C57002058050020B4560020F9
:107EA000041000E0B856002024570020205700207E
:107EB0001457002030570020D0560020D05000200A
:107EC000C4560020CC560020C856002081690029E5
:107ED00012D00269904205D10A6882420AD100227A
:107EE0000A6007E0436953611A610B68834201D15C
:107EF00091610A60002181617047000010B50400A3
:107F0000002C01D1012047E0606A0028A06AB0F58A
:107F1000005F94F85100002805D1002084F850003B
:107F2000200000F064FA022084F851002068006804
:107F300030F04000216808606168A0680143E06893
:107F400001432069014360690143A06910F4007096
:107F50000143E0690143206A0143A06A01432068AC
:107F60000160A169090C11F00401606A01432068F5
:107F70004160A06AB0F5005F02D1E06A2168086143
:107F80002068C06930F400602168C8610020606525
:107F9000012084F85100002010BD10B50400002C11
:107FA00001D1012014E0022084F85100206800680B
:107FB00030F0400021680860200000F045FB002000
:107FC0006065002084F85100002084F850000020F3
:107FD00010BD2DE9FC4705000C0091469A465FF064
:107FE0000108002695F85000012801D102204AE13D
:107FF000012085F85000FCF7A9F8070095F85120FA
:10800000686851461300DBB2012B0AD0B0F5827FBD
:1080100005D1A868002802D1D2B2042A01D00226D4
:1080200029E1002C06D0B9F1000F03D0504680B2F0
:10803000002801D101261EE195F85100042802D044
:10804000052085F8510000206865C5F83890A5F82E
:108050003EA0A5F83CA02C63A5F836A0A5F834A056
:108060000020286400206864A86AB0F5005F0BD186
:108070002868006830F400502A681060286800689A
:1080800050F400502A68106028680068400605D443
:108090002868006850F040002A6810600A9CE86870
:1080A000B0F5006F56D16868002802D089B2012966
:1080B00009D1286B00882968C860286B801C286358
:1080C000E88E401EE886E88E002803D1E88F00285D
:1080D00000F098802868806880071ED5E88E002808
:1080E0001BD0B8F1010F18D1286B00882968C8602F
:1080F000286B801C2863E88E401EE8865FF000082D
:10810000E88E002809D1A86AB0F5005F05D128687B
:10811000006850F480502968086028688068C007AB
:108120000ED5E88F00280BD02868C068A96B08809E
:10813000A86B801CA863E88F401EE8875FF00108E9
:10814000FCF704F8C01BA042BDD314F1010FBAD054
:10815000032690E06868002802D089B2012909D17D
:10816000286B007829680873286B401C2863E88E08
:10817000401EE886E88E002802D1E88F002841D012
:108180002868806880071ED5E88E00281BD0B8F1CB
:10819000010F18D1286B007829680873286B401CE0
:1081A0002863E88E401EE8865FF00008E88E00280D
:1081B00009D1A86AB0F5005F05D12868006850F4BD
:1081C00080502968086028688068C0070ED5E88F4D
:1081D00000280BD02868C068A96B0870A86B401CE9
:1081E000A863E88F401EE8875FF00108FBF7AEFF49
:1081F000C01BA04202D314F1010F01D1002CB9D150
:10820000032638E0A86AB0F5005F10D1009723007C
:1082100001220121280000F038F8002805D0686DFF
:1082200050F002006865032625E02868C0682868C9
:108230008068C00608D5686D50F0020068654FF68A
:10824000EF702968886001263A002100280000F0BC
:108250006CF8002803D00126202068650BE0A86890
:10826000002808D1002000902868C0680090286885
:10827000806800900098012085F85100002085F862
:1082800050003000C0B2BDE8F6872DE9F04105008E
:108290000E0090461C00069F286880683040B0425F
:1082A00001D1012000E000204146C9B2884239D006
:1082B00014F1010FF0D0FBF749FFC01BA04201D21F
:1082C000002CE9D12868406830F0E0002968486057
:1082D0006868B0F5827F0DD1A868B0F5004F03D073
:1082E000A868B0F5806F05D12868006830F04000BC
:1082F00029680860A86AB0F5005F0BD1286800689B
:1083000030F40050296808602868006850F4005074
:1083100029680860012085F85100002085F8500088
:10832000032000E00020BDE8F0811CB504000B0034
:108330000092002280212000FFF7A7FF002805D02F
:10834000606D50F020006065032000E0002016BD45
:1083500080B50020A949087002220121382000F0D0
:1083600001F801BD10B5A64B1C68844207D1A54C8D
:1083700024688C4203D1A44C2468944236D01860FF
:10838000A04B1960A04B1A60A04CA14B2360E06188
:108390000020A060616122610020E0600020206276
:1083A000002060620020A0620720E0624FF40070AD
:1083B000A0614FF4827060602000FFF7EEFD00289E
:1083C00004D0542293499448FBF792FB2000FFF716
:1083D00095FD002804D05A228E498F48FBF788FB70
:1083E0002068006850F040002168086010BD18B592
:1083F0008BB00168864A91424DD100200090874899
:10840000016851F002010160016811F00201009160
:10841000009900210091016851F00201016001689A
:1084200011F002010091009900210091016851F0C2
:1084300002010160006810F0020000900098002026
:1084400000907748016851F480510160006810F491
:10845000805000900098082006900220079001208C
:1084600008900220099005200A906E4C06A9200071
:10847000FBF748FD1020069005200A9006A9200071
:10848000FBF740FD2020069005200A9006A9200059
:10849000FBF738FD51E00068634988424DD1002068
:1084A00000905E48016851F002010160016811F01E
:1084B00002010091009900210091016851F004012E
:1084C0000160016811F00401009100990021009100
:1084D000016851F004010160006810F00400009090
:1084E0000098002000905148016851F480410160DB
:1084F000006810F48040009000984FF40050019004
:108500000220029001200390022004900520059093
:1085100001A94448FBF7F6FC0420019005200590D2
:10852000434C01A92000FBF7EDFC08200190052039
:10853000059001A92000FBF7E5FC0CB010BD80B54B
:108540003C48016841F20102914211D24FF47A7124
:10855000009103689BB2384A38492C48FFF739FD2F
:10856000002805D04FF495722A492B48FBF7C0FA32
:1085700001BD012021490870704700201F49087083
:10858000704780B500220021382000F001F801BDBD
:1085900010B52B4C244B2360E0610020A06061618A
:1085A00022610020E0600020206200206062002044
:1085B000A0620A20E0624FF40070A0614FF4827064
:1085C00060602000FFF7E9FC002805D040F2A5120A
:1085D00010491C48FBF78CFA2000FFF78FFC00289D
:1085E00005D040F2AB120B491648FBF781FA206820
:1085F000006850F040002168086010BD4557002019
:10860000485600204C560020505600203052002082
:108610000030014068B30008C4B800083038024098
:108620004438024000040240003800404038024014
:108630000008024054560020241600202406002082
:108640008852002044BC0008704700002DE9FC411E
:108650000400002C01D1012098E12078C0075CD5EE
:10866000DFF82C03016811F00C01042909D000681F
:1086700010F00C0008280ED1DFF818030068400243
:1086800009D5DFF814030068800346D56068002828
:1086900043D101207AE16068B0F5803F06D1DFF870
:1086A000F802016851F48031016017E06068B0F5AC
:1086B000A02F0AD1DFF8E002016851F480210160A7
:1086C000016851F48031016008E0B348016831F479
:1086D00080310160016831F4802101606068002808
:1086E0000DD0FBF733FD0500AB480068800314D4C0
:1086F000FBF72CFD401B6528F6D3032046E1FBF772
:1087000025FD0500A4480068800306D5FBF71EFD83
:10871000401B6528F6D3032038E1207880071DD55B
:108720009B48016811F00C0F08D0006810F00C0095
:1087300008282AD197480068400226D49648016844
:10874000890704D5E168012901D001201EE10168F3
:1087500031F0F801226951EAC20101602078000776
:1087600051D5606900283DD001208C490860FBF795
:10877000EDFC05008A480068800744D4FBF7E6FC5E
:10878000401B0328F6D3032000E1E068002818D03E
:10879000012084490860FBF7D9FC05007E48016888
:1087A000890706D4FBF7D2FC401B0328F6D303202D
:1087B000ECE0016831F0F801226951EAC201016080
:1087C000CCE7002077490860FBF7C0FC0500724841
:1087D00000688007C2D5FBF7B9FC401B0328F6D31D
:1087E0000320D3E000206D490860FBF7AFFC0500D3
:1087F0006B480068800706D5FBF7A8FC401B0328E0
:10880000F6D30320C2E0207840076FD50026664DDE
:108810002868C0000BD400200090286850F08050D9
:108820002860286810F080500090009801265F4F63
:108830003868C00511D4386850F480703860FBF790
:1088400085FC80463868C00507D4FBF77FFCB0EB99
:1088500008000328F6D3032098E0A068012805D17A
:108860005348016851F00101016015E0A068052836
:1088700009D14F48016851F004010160016851F0CD
:108880000101016008E04A480168490849000160A7
:10889000016831F004010160A06800280FD0FBF7E7
:1088A00055FC070042480068800718D4FBF74EFCCF
:1088B000C01B41F289318842F4D3032066E0FBF704
:1088C00045FC07003A480068800708D5FBF73EFCE6
:1088D000C01B41F289318842F4D3032056E0F6B23E
:1088E000012E03D1286830F080502860A06900284C
:1088F0004BD02748006810F00C00082843D0A0692E
:1089000002282FD12B4E00203060FBF71FFC070000
:10891000214D2868800106D5FBF718FCC01B0328F1
:10892000F6D3032032E0E169206A0143606A51EA2C
:108930008011A06A4008401E51EA0041E06A51EAF5
:1089400000611448016001203060FBF7FFFB040068
:108950002868800119D4FBF7F9FB001B0328F7D323
:10896000032013E0002013490860FBF7EFFB04002D
:1089700009480068800108D5FBF7E8FB001B0328C5
:10898000F6D3032002E0012000E00020BDE8F681DC
:10899000083802400438024000380240800E474246
:1089A00074380240000047424038024000700040E6
:1089B000703802406000474210B504000020206873
:1089C000406BC00559D54FF48070216888632068DA
:1089D000C16B6D4801402068C163206B000725D53D
:1089E000206B800702D4206B80060AD5206800F037
:1089F0009EF9002805D0A16B0843A063200000F079
:108A000065FA40F2FF5021688863012084F8340041
:108A1000206BC00702D4206B800703D5200000F034
:108A20005FFAAFE0200000F057FAABE0206B0006E1
:108A300040F1A880206B80060AD5206800F077F905
:108A4000002805D0A16B0843A063200000F03EFA87
:108A5000206BC00700F19680206B800700F19280A8
:108A60002068C06A30F008002168C862012084F8DC
:108A70003400200000F030FA84E02068406B4004AD
:108A800007D54FF4804021688863200000F012F978
:108A900078E02068406B000407D54FF4004021685F
:108AA0008863200000F0F3F86CE02068406B40F22F
:108AB0003A21084266D02068406B800703D5A06B3E
:108AC00050F00200A0632068406B000703D5A06B44
:108AD00050F00800A0632068406B800603D5A06BAF
:108AE00050F02000A0632068406BC00603D5A06B47
:108AF00050F01000A0632068406B800503D5A06B88
:108B000050F00800A06340F2FF702168886320687D
:108B1000C16B1D4801402068C163206B000628D549
:108B2000206C00280CD00FF29100216C0865206C9D
:108B3000FAF7ABF8002825D0206C00F03DF821E0D2
:108B4000E06B00280CD00FF2C500E16B0865E06B0C
:108B5000FAF79BF8002815D0E06B00F057F811E009
:108B60000020A063012084F83400200000F0B0F958
:108B700008E0206B000705D5012084F834002000B0
:108B800000F0A4F910BD0000C5FCFFFF1CB50400F7
:108B900004200020002000906946200000F060F8CA
:108BA000002802D0A16B0843A0630098400A10F08F
:108BB0000F00C0B216BD000010B5846B206C0028F9
:108BC00001D000202064E06B00281ED12000FFF7B8
:108BD000DDFF0021A163012184F834100100C9B236
:108BE000062902D0C0B205280FD1206800F09FF8F6
:108BF000A16B0843A063A06B002803D0200000F005
:108C000067F902E0200000F061F910BD10B5846B37
:108C1000E06B002801D00020E063206C00281ED10A
:108C20002000FFF7B3FF0021A163012184F8341075
:108C30000100C9B2062902D0C0B205280FD12068B0
:108C400000F075F8A16B0843A063A06B002803D067
:108C5000200000F03DF902E0200000F037F910BDDF
:108C600038B505000C000020002C02D15FF0006038
:108C70000CE0296D0904286800F074F8002805D17B
:108C80000021286800F049F82060002032BD70B54E
:108C900004000020A66A002505E0206800F01EF808
:108CA00046F825006D1C082DF7D3A06A2030A0627D
:108CB000002070BD70B504000020266A002505E084
:108CC00006EB8501206800F00CF86D1C082DF7D329
:108CD000206A20302062002070BD0000D0F88000A3
:108CE00070470968C0F880100020704710B4002356
:108CF0000A6882604C688A681443CA681443096928
:108D00000C432343C168090B09030B43C3600020D4
:108D100010BC70470069C0B2704781B00022009259
:108D20001430091800910098006801B0704718B518
:108D300085B004000020002000900C20019040200D
:108D40000290002003904FF4806004906946200058
:108D5000FFF7CCFFDFF868210C21200000F01CF8A1
:108D600006B010BD18B585B00400002000910D209C
:108D7000019040200290002003904FF48060049006
:108D800069462000FFF7B2FF41F288320D21200032
:108D900000F002F806B010BD38B504000D004948D7
:108DA0000068C0084FF47A71B0FBF1F04243100044
:108DB000421E00280AD0606B10F0450FF7D0606BA0
:108DC000400706D50420A063042077E05FF0004050
:108DD00074E0606BC00703D50120A06301206DE043
:108DE0002000FFF797FFEDB2A84201D0012065E017
:108DF00040F2FF50A06300212000FFF78EFF3249B0
:108E0000084201D1002059E0002802D55FF000702F
:108E100054E0410001D5402050E0810001D5802080
:108E20004CE0C10002D54FF4807047E0010102D54B
:108E30004FF4007042E0410102D54FF480603DE004
:108E4000C10102D54FF4006038E0010202D54FF4B1
:108E5000805033E0410202D54FF400502EE08102F1
:108E600002D54FF4804029E0C10202D54FF4004002
:108E700024E0410302D55FF400301FE0810302D5F6
:108E80005FF480201AE0C10302D55FF4002015E0F2
:108E9000010402D55FF4801010E0410402D55FF4B4
:108EA00000100BE0810402D55FF4800006E00007AB
:108EB00002D55FF4000001E05FF4803032BD0000B5
:108EC00000E1F5055405002008E0FFFD70470000B3
:108ED00080B500F01DF801BD80B500F01BF801BDA4
:108EE00080B500F01BF801BD80B50848FFF764FDB0
:108EF00001BD80B50548006CF9F7DAFE01BD80B50B
:108F00000248C06BF9F7D4FE01BD00004C500020B0
:108F100070470000012005490860704701200249A0
:108F20000860704700000000605600205C5600207A
:108F300000B587B0B4200690012005900020049071
:108F400007200390072002904FF48060019074483E
:108F5000009000230FF2E9027249734800F030F9E3
:108F6000B420069001200590002004901E2003905C
:108F70001E2002904FF4806001906C480090002306
:108F80006B4A6C496C4800F01BF9B4200690012034
:108F90000590002004901F2003901F2002904FF4A2
:108FA00080600190654800900023654A65496648E5
:108FB00000F006F907B000BD00B587B0B4200690F8
:108FC00001200590002004900420039004200290CA
:108FD0004FF4806001905D48009000235C4A5D4939
:108FE0005D4800F0EDF8B4200690012005900020C7
:108FF000049003200390032002904FF480600190BE
:10900000564800900023564A5649574800F0D8F871
:10901000B4200690012005900020049007200390C2
:10902000072002904FF48060019050480090002388
:109030000FF28D024E494F4800F0C2F807B000BD54
:10904000E0B500F0E1F900F00FFAFBF76FF800F07F
:1090500013FAFBF715FBFBF7E7F9FFF792FA00F0BD
:10906000AFFA00F021FBFCF78FF8FCF7D5F9F9F720
:1090700061FC00F083FB41F27C5001904FF47A7068
:10908000009001233C4A40213C48FAF732FAFFF7AE
:109090005FF900F023FC3A48FBF7EDFC3948FBF799
:1090A000CEFD394A39493A48FAF722FD00F014F862
:1090B000FFF782FF00F01FFA0120FBF779F8F9E7CC
:1090C00080B5022000F03FFB012000F03CFB642053
:1090D000FBF76EF8F5E77047F8B5342300222D4909
:1090E0002D4800F03FFC342300222C492C4800F08E
:1090F00039FC2C20039001200290012001904FF4B4
:10910000FA7000900023274A2749284800F090FC75
:1091100028222749274800F0FFFC05B000BD0000C9
:10912000284200202CC30008604E0020283A00206E
:10913000859300083CC30008F84C00202836002026
:10914000F59300084CC30008444C0020282E002052
:10915000913800085CC30008284A0020283200200B
:1091600059380008F4C30008DC4A0020283E0020DB
:109170006CC30008AC4D0020000800400004024011
:10918000C84F0020200400200CC4000800C40008C0
:10919000B4BD00087CC30008B854002018C40008FF
:1091A00084540020D790000824C4000848550020AB
:1091B0008CC30008C455002080B5FBF753FA01BDED
:1091C0002DE9F44F86B004000F009A46109DDDF89B
:1091D0004480DDF848900026002C01D10E2678E06E
:1091E0001698B42801D00E2673E0EFF3108172B602
:1091F00044480268521C026081F310880021424AF0
:10920000D2F800B02A004244521E002316E0DBF8D8
:109210000CC0654505D3DBF810C0654501D20025BB
:109220000121DBF80CC0624505D3DBF810C06245B4
:1092300001D200250121DBF888B05B1CDFF8CCC02F
:10924000DCF800C0634504D25C4500D1012101294E
:10925000DDD1EFF3108172B60268521E026081F315
:109260001088FEF717FC5C4501D10E2631E0002D79
:1092700001D103262DE00698002801D1032628E01D
:10928000B8F1C80F01D2052623E0B9F1200F01D3B0
:109290000F261EE01398814501D2182619E0159873
:1092A000022801D3102614E01948006819498842A1
:1092B00000D11326184A1068EFF3058108430028EF
:1092C00007D01168EFF305800143B1F1F03F00D200
:1092D0001326002E11D15346390015980590149885
:1092E000049013980390CDF80890CDF80480009571
:1092F000069A200000F06AFC0600300007B0BDE8C6
:10930000F08F00BFD0560020BC560020C056002071
:10931000B4560020144F0020580500207CB5474D5E
:109320002C00474E3000FAF7B6FB4648006800F0C4
:1093300069FD41EC100B4448FAF7ADFB3000FAF739
:10934000AAFB4248FAF7A7FB4148FAF7A4FB002C16
:1093500012D0A06A01902169D4F8A800091A0091DE
:109360002369A0681B1A6269E16A3A48FAF793FB1D
:10937000D4F88840AC42EAD173BD80B5FFF7CEFF88
:1093800001BD000038B502E0C820FAF711FF3248ED
:1093900000780028F8D0314C20686421B0FBF1F04F
:1093A00020602068002802D126480021016072B6A2
:1093B0002B4D216864204143296062B672B629486A
:1093C000296801600021296062B690ED000AB8EEBC
:1093D000400AD4ED000AF8EE600A80EE200ADFEDC4
:1093E000160A30EEC00A174880ED000A6420FAF72A
:1093F000DFFEE3E7EFF3108072B619490A68521CEA
:109400000A6080F31088F5E738B5134C002020700F
:109410000220FAF7CDFE72B6114D0020286062B628
:109420006420FAF7C5FE72B628680C49086001206E
:10943000207062B631BD00000000C842904B002091
:1094400088B5000868560020ACBF0008F8B10008D5
:10945000CCB5000854B900084657002070560020CB
:109460006C560020745600200248016851F0020139
:109470000160704710E000E0002124E04A4800222B
:109480000B00DBB21B01C25400220B00DBB21B013C
:1094900003445A6000220B00DBB21B0103449A60B4
:1094A00000220B00DBB21B0103449A7000220B0068
:1094B000DBB21B0103445A7000220B00DBB21B011C
:1094C0001844C260491C0800C0B20428D6DB012041
:1094D000364908707047416800290BD04168491E21
:1094E0004160002906D1012181704178012901D113
:1094F00081684160704738B500242DE02A4D200076
:10950000C0B200012844FFF7E6FF2000C0B200010E
:109510002844807801281ED12000C0B200012844D0
:10952000C068002817D02000C0B200012844C068DD
:10953000804700202100C9B2090129448870200019
:10954000C0B20001285C002805D100202100C9B26A
:1095500009012944C860641C2000C0B20428CDDB86
:1095600013480168491C016001687FF00042914284
:1095700001D10021016000F021F80E480178491C5A
:10958000017001780A2903DB00210170FFF714FE46
:1095900009480178491C01700178322903DB002158
:1095A000017000F053FC31BD4454002047570020A7
:1095B0007856002048570020495700207047000087
:1095C00080B500F001F801BD80B5DFF8C400DFF818
:1095D000C41001604FF4804101614EF6602141608A
:1095E00000214161002181600021C16100210162EF
:1095F0000A21C1600021816100F02AFC01BD10B583
:1096000086B0002000902448016851F002010160FA
:10961000016811F002010091009900210091016898
:1096200051F002010160006810F002000090009803
:10963000002000901948016851F400110160006891
:1096400010F40010009000984FF4807001901220E8
:109650000290002003900220049004200590104CFA
:1096600001A92000FAF74EFC4FF40070019004208D
:10967000059001A92000FAF745FC0A48016851F459
:1096800000110160016831F40011016006B010BDE5
:10969000E052002000540040303802404038024080
:1096A000000402402038024010B586B0002000902F
:1096B0002E48016851F020010160006810F0200080
:1096C00000900098012000F02CF8022000F017F81C
:1096D0000120029000200390022004904FF40070BB
:1096E0000190234C01A92000FAF70CFC4FF4806094
:1096F000019001A92000FAF705FC06B010BD401E3C
:109700000100C9B2002904D15FF000701949086056
:1097100006E0C0B2012803D15FF0806015490860FF
:109720007047401E0100C9B2002904D14FF40070F7
:109730001049086006E0C0B2012803D14FF48060F0
:109740000C49086070470100C9B2012905D10A48D7
:10975000016891F40071016007E0C0B2022804D1F1
:109760000548016891F4806101607047303802401B
:10977000001402401814024014140240E0B54FF4E3
:109780007A700190044800900123044A4021044863
:10979000F9F7AFFE07BD000000350C0000040040E3
:1097A0000000024080B5C0B200280CD1FEF7E1FEF7
:1097B000022201210820FEF7D5FD5FF08040DFF88E
:1097C0006011086006E04FF48040DFF85411086033
:1097D000FEF7D3FE01BD10B5DFF8544100F05DF88F
:1097E00020602068DFF84C11401A32D0DFF84811B1
:1097F000401A0AD0DFF84411401A12D0DFF84011A5
:10980000401A1AD0401E30D03BE0DFF83811201D3E
:10981000FDF718F85FF4001060614FF4805020836A
:109820003AE0DFF82411201DFDF70CF85FF400107A
:1098300060614FF4805020832EE0DFF81011201D6E
:10984000FDF700F85FF4000060614FF48050208362
:1098500022E0DFF8FC10201DFCF7F4FF5FF08070C1
:1098600060614FF48050208316E0DFF8E810201D7F
:10987000FCF7E8FF5FF0807060614FF48050208358
:109880000AE0DFF8D410201DFCF7DCFF5FF40010C5
:1098900060614FF48050208310BD70B50020FFF749
:1098A00081FFDFF88000002101609F21DFF8782030
:1098B000117004210160FEF742FEDFF87000457868
:1098C0008478C6780120FFF76DFFEDB2E4B2240280
:1098D00054EA0544F6B23443200070BD80B586B02A
:1098E00000200090DFF87400016851F0020101606F
:1098F000006810F002000090009801200290012002
:109900000390032004904FF48040019001A9DFF8F8
:109910005000FAF7F7FAFFF75EFF07B000BD00004E
:10992000180402405456002024060020241600206B
:10993000085600201821520029046D00D4FA0200B4
:1099400002202D00ACC30008B8C30008C4C300083F
:10995000D0C30008DCC30008CCC200083038024085
:10996000000402402DE9F04105000F00160000241C
:10997000002D01D11C242DE0342B01D01C2429E022
:10998000EFF3108072B624490A68521C0A6080F313
:1099900010882248D0F80080002002E0D8F820800B
:1099A000401C1F4A1268904201D24545F6D1EFF3A0
:1099B000108072B60A68521E0A6080F31088FEF7A3
:1099C00069F8454501D11C2404E0012E02D0002E87
:1099D00000D01F24002C14D112480068124988427C
:1099E00000D11324114A1068EFF3058108430028C1
:1099F00007D01168EFF305800143B1F1F03F00D2C9
:109A00001324002C05D132003900280000F008FB97
:109A100004002000BDE8F081D056002094560020BC
:109A200098560020B4560020144F002058050020FE
:109A30002DE9FE4F0500884691469A460C9E0E9FE2
:109A40000024002D01D1152432E00F982C2801D0DC
:109A500015242DE0EFF3108172B629480268521CDC
:109A6000026081F310882749D1F800B0002102E09C
:109A7000DBF824B0491C244A1268914201D25D45AA
:109A8000F6D1EFF3108172B60268521E026081F3C4
:109A90001088FDF7FFFF5D4501D1152408E0002E79
:109AA00001D1162404E0012F02D0002F00D017248A
:109AB000002C14D1154800681549884200D11324A0
:109AC000144A1068EFF305810843002807D0116895
:109AD000EFF305800143B1F1F03F00D21324002CD5
:109AE0000AD153464A46414602970D980190009686
:109AF000280000F02FFB04002000BDE8FE8F00BF0F
:109B0000D0560020F8560020FC560020B456002005
:109B1000144F002058050020F8B504000E00002561
:109B2000002C01D106253BE0282A01D0062537E08C
:109B3000EFF3108072B61F490A68521C0A6080F366
:109B400010881D480768002001E0BF69401C1B4ABF
:109B50001268904201D2BC42F7D1EFF3108072B686
:109B60000A68521E0A6080F31088FDF793FFBC421A
:109B700001D1062514E0124800681249884200D13C
:109B80001325114A1068EFF305810843002807D018
:109B90001168EFF305800143B1F1F03F00D21325C6
:109BA000002D04D13100200000F076FB05002800D4
:109BB000F2BD00BFD05600208C56002090560020E9
:109BC000B4560020144F0020580500202DE9F14F15
:109BD00084B0894692469B460E9E0F9C002521002C
:109BE000EF2237003800F9F703FEA408A400241F71
:109BF000F01C80088000864200D0241F129E119F16
:109C0000DDF84080CDF800B0CDF808A0CDF8049084
:109C1000DDF810908246B4210022CB465846F9F771
:109C2000E7FD0198C9F828000298C9F84400009897
:109C3000C9F84800C9F80CA0C9F81440C9F82C802C
:109C4000C9F89480C9F81860C9F81C602020C9F8C8
:109C50009C0050462044401EC9F81000C9F83C70D2
:109C6000C9F898700320C9F830005648C9F8540064
:109C7000C9F858905449484600F0A0FBD9F80800AC
:109C8000C9F8A800EFF3108672B65048C9F8000072
:109C90004F4A1068002807D14E48C0F80090C9F814
:109CA0008890C9F88C900BE04A480068D0F88C1076
:109CB000C0F88C90C1F88890C9F88C10C9F8880059
:109CC0001068401C106000945346019A49460120D8
:109CD00000F096FB404B1868002842D03F490968C5
:109CE000C9053ED53E490968EFF3058211433D4A57
:109CF0001268002906D1D16AD76B3F0457F000479C
:109D0000394309E0B1F1F03F03D211005FF0FF32B7
:109D100002E05FF0F0320021026041606421816066
:109D200031490968C160C0F81090C0F81480C0F8CB
:109D300018A0C46120302D49096888420DD32C48F1
:109D4000006818602B490A6810622B4A10680028C6
:109D500007D008681168884703E01860254909683A
:109D60000862139825490A68521C0A60012819D113
:109D70001B480168EFF305800143B1F1F03F07D3C1
:109D80001F480468002C04D0E56BE06AE06300E043
:109D9000002486F310884846FDF7DDFE002C0DD028
:109DA000E5630BE086F31088EFF3108072B60A6863
:109DB000521E0A6080F31088FDF76CFE002005B08B
:109DC000BDE8F08F09B60008D9AF000844524854E6
:109DD000C0560020BC560020285700202C570020D9
:109DE00058050020B4560020041000E0245700203D
:109DF000205700201457002030570020D056002054
:109E0000B8560020C0F3C75181B1FF2906D0C11058
:109E1000400721F0E04101F16051704741020CBF61
:109E200040F4E0016FF000410020704700F0004175
:109E300000020AD0B0FA80FC00FA0CF001F1605187
:109E4000A1EB0C5101EBD021400570477047000099
:109E500038B50400002C01D10120D4E094F83D0075
:109E6000002805D1002084F83C002000FFF7C7FB44
:109E7000242084F83D0020680068400840002168E4
:109E80000860FDF75CFC0100DFF87C21606890420F
:109E900008D2DFF87801814201D2012000E00020E1
:109EA000C0B207E0DFF86801814201D2012000E082
:109EB0000020C0B2012801D10120A4E0DFF8540144
:109EC000B1FBF0F3206840688009800118432568E1
:109ED00068602068056A6068904201D25B1C07E0F8
:109EE0004FF4967043434FF47A70B3FBF0F35B1C6E
:109EF000AD09AD012B43206803622068C369606827
:109F0000904214D2481E62685200B0FBF2F0401C2E
:109F10000005000D042801D204213EE0491E6068BE
:109F20004000B1FBF0F1491C0905090D35E0A068BE
:109F3000002809D14A1E656803204543B2FBF5F0AD
:109F4000401C0005000D0AE04A1E656819204543C3
:109F5000B2FBF5F0401C0005000D50F480400005F8
:109F600001D1012119E0A068002809D1491E6268C9
:109F700003204243B1FBF2F1491C0905090D0AE037
:109F8000491E626819204243B1FBF2F1491C0905E0
:109F9000090D51F4804151F40041DFF87C00034089
:109FA0000B432068C3612068016831F0C001E0699B
:109FB0000143206A01432068016020688168DFF85E
:109FC0005C00014020690143E06801432068816032
:109FD0002068C168090A0902A26960690243114345
:109FE0002068C1602068006850F0010021680860A6
:109FF00000202064202084F83D0000202063002001
:10A0000084F83E00002032BDA186010080841E003D
:10A0100000093D0040420F000030FFFF007CFFFFC1
:10A02000FEB504000F001500342100222600300088
:10A03000F9F7DEFB67602561EFF3108672B63748EB
:10A04000206037483749086037490868002804D13C
:10A0500036480460246264620AE034480068019073
:10A060000198406A019A5462046260620198206219
:10A070000868401C0860002000902B003A00210076
:10A08000052000F0BDF92A4B1868002841D0294965
:10A09000097889063DD528490968EFF305821143FF
:10A0A000264A1268002906D1D16AD76B3F0457F0BF
:10A0B0000047394309E0B1F1F03F03D211005FF0EE
:10A0C000FF3202E05FF0F032002102604160322195
:10A0D00081601B490968C1600461456101A9816112
:10A0E0000021C16120301749096888420DD3164804
:10A0F0000068186015490A681062154A106800283F
:10A1000007D008681168884703E018600F4909689C
:10A11000086286F310880020FEBD00BF4554554DEF
:10A12000AFAC0008D456002098560020945600206A
:10A13000285700202C57002058050020B456002036
:10A14000041000E02457002020570020145700205E
:10A15000305700202DE9FC47040088461700994637
:10A160000A9D0B9E2C210022A2465046F9F740FB87
:10A17000C4F80480A560E6602761C4F81490EFF38A
:10A18000108772B638482060384A1068002804D119
:10A19000374804606462A46206E035480068816A5A
:10A1A00084624C62A16260621068401C106000967C
:10A1B0002B0042462100022000F022F92D4B1868A6
:10A1C000DDF83080002843D02B49096849053FD588
:10A1D0002A490968EFF305821143294A12680029C8
:10A1E00009D1D16AD2F83CC05FEA0C4C5CF0004C5B
:10A1F0005CEA010109E0B1F1F03F03D211005FF028
:10A20000FF3202E05FF0F0320021026041607C2109
:10A2100081601C490968C160046145618661C0F8BC
:10A220001C8020301849096888420DD317480068FF
:10A23000186017490A681062164A1068002807D08B
:10A2400008681168884703E01860114909680862C6
:10A25000B8F1010F03D114F10800FDF79FF987F35E
:10A2600010880020BDE8F6874D495441FC56002077
:10A27000F8560020285700202C57002058050020B1
:10A28000B4560020041000E024570020205700207E
:10A2900014570020305700207CB504000E00282100
:10A2A000002225002800F9F7A3FA6660EFF3108575
:10A2B00072B63648206036490868002804D135480F
:10A2C0000460A461E4610AE03248006801900198EA
:10A2D000C069019AD4618461E0610198A061086855
:10A2E000401C08600020009000233200210006205E
:10A2F00000F086F8284B1868002842D027490978D2
:10A3000009073ED526490968EFF305821143254A1E
:10A310001268002906D1D16AD66B360456F0004681
:10A32000314309E0B1F1F03F03D211005FF0FF3299
:10A3300002E05FF0F0320021026041601E21816086
:10A3400019490968C160046101A941610021816165
:10A350000021C16120301549096888420DD3144895
:10A360000068186013490A681062134A10680028D0
:10A3700007D008681168884703E018600D4909682C
:10A38000086285F31088002076BD00BF4E44564415
:10A39000905600208C560020285700202C57002073
:10A3A00058050020B4560020041000E02457002077
:10A3B000205700201457002030570020026922F057
:10A3C0000702A2F144020D4B13604FF000035360EB
:10A3D0009360D360136153619361D36113625362DD
:10A3E0009362D362136353634FF0FF339363D1637C
:10A3F0004FF080731364826070470000FDFFFFFF21
:10A400002DE9F04F0400414D286800287BD04048DA
:10A410000668404F3868002875D0B4465FF0000EDB
:10A42000DFF8F480D8F8009028685FF0300A0AFB63
:10A4300009FB8344DBF80400002802D1CC465FF01E
:10A44000010EDBF80400884202D1CC465FF0010E19
:10A45000BEF1010F11D09BF80000012802D1B445D4
:10A4600019D1CC4619F10109B14501D35FF00009BA
:10A47000D8F800008145D7D1FFE7B44543D238680A
:10A48000401E38601CF10100B0420DD21CF10100E9
:10A49000C8F800000BE028680AFB0CFB5844407821
:10A4A0000028DFD0CC46DDE70020C8F8000009987E
:10A4B0002D680AFB0CFC654400262E706C706960E8
:10A4C000AB60E860002300E05B1C1F2B08D210008B
:10A4D0001844067805EB03073E7400780028F3D192
:10A4E000002005EB03021074E4B2012C07D1C86A06
:10A4F000000A50F08000A870C86AE87003E00020ED
:10A50000A8700020E870BDE8F08F00BF1857002049
:10A5100034570020385700203C570020F8B5824DB2
:10A5200028680090EFF3108172B6009800283CD0A4
:10A53000009800687D4A904237D100988068009A60
:10A54000D2F8A820904204D200988068009AC2F8FD
:10A55000A8000098C0680068B0F1EF3F0DD10098E6
:10A560000069D0F80100B0F1EF3F06D10098D0F8B3
:10A57000A800009AD268904207D281F31088009810
:10A58000FCF7BCFFEFF3108172B60098D0F8A8007A
:10A5900050F8040CB0F1EF3F07D081F31088009819
:10A5A000FCF7BCFFEFF3108172B681F31088002432
:10A5B000EFF3108672B600205D490860009800280D
:10A5C00024D00098006B002820D10098C069009921
:10A5D000886100988069574908600098006A00996E
:10A5E000884213D00098C06A0099C96B88420DD187
:10A5F00051480099096A009AD26A40F822104F49DE
:10A600004F4A126850F8220008600C684D490B68E8
:10A61000EFF3058003434C48D0F800C04B4F386837
:10A62000002841D04A4A1278D2073DD50968EFF395
:10A63000058211432A68002906D1D16AD56B2D0401
:10A6400055F00045294309E0B1F1F03F03D2110074
:10A650005FF0FF3202E05FF0F03200210260416003
:10A66000052181603B490968C1603449096801617D
:10A670004361C0F818C06946C16120303649096895
:10A6800088420DD335480068386035490A68106241
:10A69000344A1068002807D008681168884703E02A
:10A6A00038602F490968086286F31088002C39D079
:10A6B000EFF3108072B6002C32D021681B4A914211
:10A6C0002ED1A168D4F8A820914202D2A168C4F882
:10A6D000A810E1680968B1F1EF3F0AD12169D1F80A
:10A6E0000110B1F1EF3F04D1D4F8A810E268914213
:10A6F00007D280F310882000FCF700FFEFF31080F2
:10A7000072B6D4F8A81051F8041CB1F1EF3F07D08D
:10A7100080F310882000FCF701FFEFF3108072B681
:10A7200080F31088F1BD00BFB45600204452485455
:10A73000E456002010570020D0500020B8560020CA
:10A74000CC56002058050020D05600202857002065
:10A750002C570020041000E0245700202057002030
:10A7600014570020305700202DE9FC4100244249B5
:10A7700088420ED0BDE8F3814048032202630122E3
:10A7800082633F4A13685B1C136081F31088FBF7F8
:10A7900068FAEFF3108172B63A4A106800680090C8
:10A7A0000098002802D06846009B9861002013683A
:10A7B00018601068001D10601068334B1B689842C9
:10A7C00002D1324800681060314D0020286081F3CA
:10A7D0001088EFF3108172B628E00020B0610AE023
:10A7E000B268F4687068306030680028F5D001A85D
:10A7F000B06136610196274F3E6081F310881000EA
:10A80000002801D020009047EFF3108872B6002096
:10A8100038600198B04204D10020B0613000FCF7EC
:10A82000BDFE88F31088EFF3108172B600980028FF
:10A830001BD0009E0098006900220192864202D13E
:10A840000020009005E07269426110616A468261F1
:10A85000009030682128C3D330682038306000224F
:10A8600001A8B06136610196C5E72868002883D049
:10A8700081F310888DE700BF4D495441144F0020EB
:10A88000D0560020F0560020EC560020E85600205C
:10A89000F45600200057002045F2E061C2F20001AA
:10A8A000086800F10100086045F21073C2F200036D
:10A8B0001A6852B1A2F101021A6032B945F2E4639A
:10A8C000C2F200034FF00100186045F2F061C2F2DD
:10A8D0000001086802683AB145F2F463C2F200036D
:10A8E0004FF001021A600EE000F1040045F2EC6343
:10A8F000C2F200031A68904204D145F2E863C2F242
:10A9000000031868086045F2E463C2F200031A68A5
:10A910002AB945F2F461C2F20001086868B301B5D2
:10A9200045F2F461C2F20001086808B100F028F8AD
:10A9300045F2E463C2F200031A68E2B1FFF7EEFDEC
:10A9400045F2D060C2F200000168A1B945F2B460DE
:10A95000C2F20000016845F2B862C2F20002136858
:10A960004EF60450CEF2000040F20002C1F20002A6
:10A97000994200D00260BDE80140BFF34F8F70479D
:10A9800080B5EFF3108072B604490A68521C0A6061
:10A9900080F310880248FDF7DEF801BDD056002094
:10A9A000144F002010B4010029480268002A07D57E
:10A9B000026852F0004202608869801C886145E0AC
:10A9C000244A254B1B681362244B1B7882F82430E1
:10A9D000234B1B78DBB29362224B1B68D362224B62
:10A9E0001B881386006850632048006890632048E5
:10A9F0000068D0631F4B0020186018680028FCD046
:10AA0000086810604868506088689060C868D060C6
:10AA1000086910614869506188699061C869D061AE
:10AA20001548002109E00A00D2B2825C134C226072
:10AA3000134A12685206FBD5491C0A00D2B2292AD1
:10AA4000F1D30020186018680028FCD010BC7047B3
:10AA50002CED00E00454002024ED00E028ED00E09F
:10AA600029ED00E038ED00E02AED00E030ED00E0F7
:10AA70003CED00E064560020C8BC00080410014012
:10AA80000010014070B586B0002023490860002006
:10AA900022490860002022490860002021490860FE
:10AAA00000202149086080210022204C2500280038
:10AAB000F8F79EFE1E4804601E4804601E4814F10C
:10AAC0007C0101600168091D01601C4C1C4820606C
:10AAD0001C4D4FF4806028601B4E00203060002029
:10AAE0000590002004903068039030680290286838
:10AAF000019020680090154B154A16491648FFF73B
:10AB000065F80028EBD100201449086000201449A2
:10AB1000086006B070BD00BFE0560020105700204E
:10AB2000E4560020F4560020005700205051002029
:10AB3000E8560020F0560020EC5600200457002074
:10AB400028460020085700200C5700204D4954414A
:10AB500069A70008B0C10008144F0020F856002073
:10AB6000FC5600204FF00000314A1060EFF31480D3
:10AB700020F0040080F3148862B64FF080504FF04C
:10AB8000E021C1F8040DBFF34F8FBFF36F8FFEE7D5
:10AB900045F2B460C2F2000045F2B862C2F20002AF
:10ABA0004FF000030168A9B10360EFF3098C2CE9B1
:10ABB000F00F1EF0100F01D12CED108A45F2107429
:10ABC000C2F200044CF804ED2568C1F808C00DB1CC
:10ABD0008D61236072B61168C9B1016062B64F68B9
:10ABE00045F21074C2F200048D6907F101074F604D
:10ABF0002560D1F808C05CF804EB1EF0100F01D1FD
:10AC0000BCEC108ABCE8F00F8CF30988704772B670
:10AC10001168016009B962B6F9E74FF000674FF0BB
:10AC2000E028C8F8047D62B6D9E770477047000095
:10AC3000D056002010B5EFF3108372B6826E2C4C04
:10AC4000A24231D1D0F8B02091422DD1C26E002A5B
:10AC50002AD01168274CA14226D1D169002923D0DE
:10AC600000218166D169491ED161D169002902D1D3
:10AC70000021916107E0016F446F4C67216794697F
:10AC8000844200D19161016B0D290DD11D21C0F8C5
:10AC9000841019490A68521C0A6083F31088FCF773
:10ACA0005AFFEFF3108372B683F3108810BD38B5E6
:10ACB0000400EFF3108172B60F4D2868401C286025
:10ACC000D4F8A40000280AD00122826081F3108801
:10ACD000FCF7AAFAEFF3108172B6D4F8A4000028AA
:10ACE000EED12868401E286081F3108831BD000035
:10ACF00035AC00084554554DD056002038B592B0BB
:10AD0000002400240094264C256855F080552560C9
:10AD1000246814F080540094009C00240094214C7A
:10AD2000256855F480452560246814F48044009417
:10AD3000009C012406945FF48034079402240C9450
:10AD40005FF480040D940E910F901092119306A859
:10AD5000FDF77CFCC0B2002800D0FEE70F20019078
:10AD600002200290002003904FF4A05004904FF472
:10AD700080500590052101A8FCF742FCC0B20028D4
:10AD800000D0FEE700F026F841F20101884204D12C
:10AD90000548016851F48071016013B030BD00BFF7
:10ADA0004038024000700040003C024080B50B4833
:10ADB000016851F400710160016851F48061016023
:10ADC0000320F9F77BF80F20F9F7BEF900F00AF835
:10ADD000002002BD02480068000C7047003C0240A1
:10ADE000002004E07047000010B5002018490860FA
:10ADF00000201849086004210022174C2000F8F7B1
:10AE0000F7FC04210022154C2000F8F7F1FC20206B
:10AE10001349086080210022124C2000F8F7E8FC5A
:10AE200000201149086000201049086000201049E6
:10AE3000086000200F49086000200F4908600F4893
:10AE4000016841F0887151F48071016010BD00BF4C
:10AE5000B4560020B8560020C4560020C856002022
:10AE6000CC560020D0500020BC560020C0560020F8
:10AE7000D0560020D4560020DC560020D8560020A2
:10AE800038B5EFF3108472B6826E1E4B9A4235D1FC
:10AE9000D0F8B020914231D1C36E002B2ED019686A
:10AEA000194A91422AD15969002927D00021816687
:10AEB0005A69196900290ED0521E5A61002A02D11E
:10AEC0000021196109E0026F456F55672A678142C9
:10AED00003D11A6101E00121D960016B07290DD16D
:10AEE0000721C0F8841009490A68521C0A6084F3DB
:10AEF0001088FCF730FEEFF3108472B684F31088EC
:10AF000031BD00BF81AE00084E445644D0560020EB
:10AF100080B500F041F8FFF767FFFFF7B3FD0020B1
:10AF2000114908600020114908600020104908609C
:10AF300000201049086000200F49086000200F49D8
:10AF4000086000200E49086000200E4908600020BB
:10AF50000D49086000200D49086000200C49086078
:10AF600000200C49086001BD7C560020805600205E
:10AF700084560020885600208C56002090560020D1
:10AF80009C560020A0560020A4560020A856002061
:10AF9000945600209856002000200949086000209F
:10AFA0000849086000200849086000200749086037
:10AFB000002007490860002006490860704700BF6C
:10AFC00014570020185700201C570020205700203D
:10AFD000245700202857002010B51D480468EFF3BF
:10AFE000108072B6D4F8AC2080F3108810000028CE
:10AFF00002D0002120009047A06C616C8847154961
:10B000000868002802D0200009688847EFF3108004
:10B0100072B6D4F8AC20012121630121A163002183
:10B02000E1640D490B685B1C0B6080F31088EFF343
:10B03000148030F0040080F314881000002802D03F
:10B040000121200090472000FAF70BFE10BD00BF41
:10B05000B4560020D4560020D0560020F0B402464A
:10B06000106895681318506803EB5004C0071CD58E
:10B070004D441AE013F8017B05F8017B491EF9D114
:10B0800098B113F8011BC6F38106032E08BF13F80D
:10B09000016B01EB06214942801C294405D011F8BF
:10B0A000016B05F8016B401EF9D1A3420ED013F8D5
:10B0B000016B16F0030104BF13F8011BC91C300912
:10B0C0000F28DBD113F8010B0F30D7E7F0BC02F1EA
:10B0D0000C00704772B61448144A10601448016896
:10B0E00041F0010101604FF0E0201249C0F8081D55
:10B0F00011481049096801604FF0E0200F49416193
:10B100004FF0070101610021C0F8181D0C49C0F87B
:10B110001C1D0C49C0F8201D704701B5FFF7BCFB92
:10B12000BDE801407047000034560020AC560020B6
:10B13000001000E000000008B05600203F90020020
:10B14000000000FF0000FF400F48016851F470014B
:10B1500001600E49086850F00100086000200C4AA8
:10B1600010600A680B4802400A600B480B4A1060E6
:10B17000086830F4802008600020094908605FF00A
:10B18000006008490860704788ED00E00038024020
:10B1900008380240FFFFF6FE103000240438024059
:10B1A0000C38024008ED00E0C5650008C5650008E0
:10B1B0005D660008B3660008236700080B67000897
:10B1C000C5650008C5650008C5650008C5650008B7
:10B1D000C5650008C5650008C5650008C5650008A7
:10B1E000C5650008C5650008C5650008C565000897
:10B1F000C5650008CD67000820E4BBBBE58AA1E473
:10B20000BC98E58588E7BAA720E4BBBBE58AA1E640
:10B21000A088E5A4A7E5B08F20E5BD93E5898DE47E
:10B22000BDBFE794A8E6A0882020E69C80E5A4A7FF
:10B23000E6A088E4BDBFE794A8202020E4BBBBE5DE
:10B240008AA1E5908D0D0A004B3A5C4C735F4D6FFF
:10B250006E69746F725F4C6F7765725C4C735F4D93
:10B260006F6E69746F725F4C6F7765725F53575C76
:10B2700053797374656D5C75736172745F6669662A
:10B280006F5C6273705F75736172745F6669666F1D
:10B290002E6300004B3A5C4C735F4D6F6E69746FA8
:10B2A000725F4C6F7765725C4C735F4D6F6E697443
:10B2B0006F725F4C6F7765725F53575C537973742D
:10B2C000656D5C726F746174696F6E5C6273705FE0
:10B2D000726F746174696F6E2E63000010B50E4C4E
:10B2E000206810F10F3F0AD05FF0F0302060FFF7C8
:10B2F000F1FEFFF70DFE09480168491C01605FF08F
:10B30000F030206006480068FDF712FE0020206043
:10B31000FFF728FC10BD00BF58050020D0560020C4
:10B32000AC5600204B3A5C4C735F4D6F6E69746F86
:10B33000725F4C6F7765725C4C735F4D6F6E6974B2
:10B340006F725F4C6F7765725F53575C537973749C
:10B35000656D5C63616E5C6273705F63616E5F629A
:10B3600075732E63000000004B3A5C4C735F4D6FA9
:10B370006E69746F725F4C6F7765725C4C735F4D72
:10B380006F6E69746F725F4C6F7765725F53575C55
:10B3900053797374656D5C7370695C6273705F730D
:10B3A00070695F6275732E63000000004B3A5C4C5D
:10B3B000735F4D6F6E69746F725F4C6F7765725C0F
:10B3C0004C735F4D6F6E69746F725F4C6F7765720F
:10B3D0005F53575C53797374656D5C74696D657206
:10B3E0005C6273705F74696D5F70776D2E630000CF
:10B3F000205F2020205F205F5F5F5F202020205F94
:10B400005F20205F5F205F20202020202020202040
:10B410002020202020202020205F5F5F5F20205FF1
:10B42000202020202020202020205F205F200D0AC7
:10B43000000000007C205C207C207C20205F205CC1
:10B4400020207C20205C2F2020285F29205F5F5F48
:10B45000205F205F5F205F5F5F2020202F205F5FE5
:10B460005F7C7C207C5F5F2020205F5F5F7C207C96
:10B47000207C0D0A000000007C20205C7C207C20C9
:10B480007C5F29207C207C207C5C2F7C207C207CA5
:10B490002F205F5F7C20275F5F2F205F205C2020B4
:10B4A0005C5F5F5F205C7C20275F205C202F205F3B
:10B4B000205C207C207C0D0A000000007C207C5C4D
:10B4C00020207C20205F203C20207C207C20207CB1
:10B4D000207C207C20285F5F7C207C207C20285FD3
:10B4E00029207C20205F5F5F29207C207C207C201D
:10B4F0007C20205F5F2F207C207C0D0A0000000054
:10B500007C5F7C205C5F7C5F7C205C5F5C207C5F80
:10B510007C20207C5F7C5F7C5C5F5F5F7C5F7C204D
:10B52000205C5F5F5F2F20207C5F5F5F5F2F7C5F11
:10B530007C207C5F7C5C5F5F5F7C5F7C5F7C0D0A56
:10B54000000000002020202020202020202020207B
:10B5500020202020202020202020202020202020EB
:10B5600020202020202020202020202020202020DB
:10B5700020202020202020202020202020202020CB
:10B5800020200D0A000000003D3D3D3D3D3D3D3D7C
:10B590003D3D3D3D3D3D3D3D3D3D3D3D3D3D3D3DDB
:10B5A0003D3D3D3D3D3D3D3D3D3D3D3D3D3D3D3DCB
:10B5B0003D3D3D3D3D3D3D3D3D3D3D3D3D3D3D3DBB
:10B5C0003D3D3D3D3D3D3D0D0A0000002020205009
:10B5D00072696F2020202020537461636B53697A55
:10B5E00065202020437572537461636B20202020F6
:10B5F0004D6178537461636B2020205461736B6ECE
:10B60000616D650D0A00000080B5EFF3108272B61F
:10B61000016B042908D109490B685B1C0B6082F39C
:10B620001088FCF798FA08E0836ED0F8B01082F327
:10B6300010881A00002A00D0984701BDD05600207B
:10B6400043414E312043414E5F49545F52585F465B
:10B6500049464F305F4D53475F50454E44494E4732
:10B6600020636F6E666967206572726F72210D0AC2
:10B670000000000043414E312043414E5F49545F7A
:10B6800052585F4649464F315F4D53475F50454ED4
:10B6900044494E4720636F6E666967206572726F1A
:10B6A00072210D0A0000000043414E322043414EFA
:10B6B0005F49545F52585F4649464F305F4D53478C
:10B6C0005F50454E44494E4720636F6E6669672060
:10B6D0006572726F72210D0A0000000043414E3204
:10B6E0002043414E5F49545F52585F4649464F31AF
:10B6F0005F4D53475F50454E44494E4720636F6E40
:10B70000666967206572726F72210D0A0000000081
:10B71000646973706C617920616C6C207468726507
:10B72000616478207461736B20696E666F2C72653A
:10B7300073756C7420746F20626520666978656427
:10B740000000000043414E312043414E5F49545FA9
:10B7500052585F4649464F305F4F56455252554EFC
:10B7600020636F6E666967206572726F72210D0AC1
:10B770000000000043414E312043414E5F49545F79
:10B7800052585F4649464F315F4F56455252554ECB
:10B7900020636F6E666967206572726F72210D0A91
:10B7A0000000000043414E312043414E5F49545F49
:10B7B00054585F4D41494C424F585F454D50545984
:10B7C00020636F6E666967206572726F72210D0A61
:10B7D0000000000057726F6E6720706172616D65C6
:10B7E000746572732076616C75653A2066696C6564
:10B7F000202573206F6E206C696E652025640D0A0C
:10B800000000000043414E322043414E5F49545FE7
:10B8100052585F4649464F305F4F56455252554E3B
:10B8200020636F6E666967206572726F72210D0A00
:10B830000000000043414E322043414E5F49545FB7
:10B8400052585F4649464F315F4F56455252554E0A
:10B8500020636F6E666967206572726F72210D0AD0
:10B860000000000043414E322043414E5F49545F87
:10B8700054585F4D41494C424F585F454D505459C3
:10B8800020636F6E666967206572726F72210D0AA0
:10B890000000000057726F6E6720706172616D6505
:10B8A000746572732076616C75653A2066696C65A3
:10B8B000202573206F6E206C696E652025640D0A4B
:10B8C0000000000057726F6E6720706172616D65D5
:10B8D000746572732076616C75653A2066696C6573
:10B8E000202573206F6E206C696E652025640D0A1B
:10B8F0000000000057726F6E6720706172616D65A5
:10B90000746572732076616C75653A2066696C6542
:10B91000202573206F6E206C696E652025640D0AEA
:10B920000000000057726F6E6720706172616D6574
:10B93000746572732076616C75653A2066696C6512
:10B94000202573206F6E206C696E652025640D0ABA
:10B95000000000002020202532642020202020200C
:10B96000202025356420202020202025356420201B
:10B970002020202020253564202020202020257311
:10B980000D0A000048414C5F43414E5F436F6E66B5
:10B99000696746696C746572302043414E3120728C
:10B9A0006574206E6F74206F6B20256420210A005F
:10B9B00048414C5F43414E5F436F6E66696746691D
:10B9C0006C746572312043414E3120726574206E73
:10B9D0006F74206F6B20256420210A0048414C5F62
:10B9E00043414E5F436F6E66696746696C7465726A
:10B9F000322043414E3120726574206E6F74206F87
:10BA00006B20256420210A0043414E312043414EE2
:10BA10005F49545F52585F4649464F305F46554C28
:10BA20004C20636F6E666967206572726F72210DBC
:10BA30000A00000043414E312043414E5F49545FAC
:10BA400052585F4649464F315F46554C4C20636F14
:10BA50006E666967206572726F72210D0A000000C0
:10BA600048414C5F43414E5F436F6E66696746696C
:10BA70006C746572302043414E3220726574206EC2
:10BA80006F74206F6B20256420210A0048414C5FB1
:10BA900043414E5F436F6E66696746696C746572B9
:10BAA000312043414E3220726574206E6F74206FD6
:10BAB0006B20256420210A0048414C5F43414E5FC2
:10BAC000436F6E66696746696C74657232204341E4
:10BAD0004E3220726574206E6F74206F6B20256467
:10BAE00020210A0043414E322043414E5F49545FBA
:10BAF00052585F4649464F305F46554C4C20636F65
:10BB00006E666967206572726F72210D0A0000000F
:10BB100043414E322043414E5F49545F52585F4685
:10BB200049464F315F46554C4C20636F6E666967DE
:10BB3000206572726F72210D0A00000043414E3180
:10BB40002048414C5F43414E5F54784D61696C62BF
:10BB50006F7830436F6D706C65746543616C6C62B7
:10BB600061636B0D0A00000043414E322048414C96
:10BB70005F43414E5F54784D61696C626F7830432A
:10BB80006F6D706C65746543616C6C6261636B0DA5
:10BB90000A00000043414E312048414C5F43414E72
:10BBA0005F54784D61696C626F7831436F6D706C72
:10BBB00065746543616C6C6261636B0D0A00000023
:10BBC00043414E322048414C5F43414E5F54784DD3
:10BBD00061696C626F7831436F6D706C6574654339
:10BBE000616C6C6261636B0D0A00000043414E3171
:10BBF0002048414C5F43414E5F54784D61696C620F
:10BC00006F7832436F6D706C65746543616C6C6204
:10BC100061636B0D0A00000043414E322048414CE5
:10BC20005F43414E5F54784D61696C626F78324377
:10BC30006F6D706C65746543616C6C6261636B0DF4
:10BC40000A00000057726F6E6720706172616D6547
:10BC5000746572732076616C75653A66696C6520EF
:10BC60002573206F6E206C696E652025640D0A00B7
:10BC70007368656C6C2064656D6F20636D6420660D
:10BC80006F72206C732C7061726173205B636D64E2
:10BC90005D5B2D765D5B2D685D0000007368656CF3
:10BCA0006C2064656D6F20636D6420666F72207414
:10BCB0006573742C747261766572736520616C6C47
:10BCC00020706172617300000D0A456E7465722008
:10BCD000486172644661756C745F48616E646C653E
:10BCE000722C2053797374656D2048616C742E0D2D
:10BCF0000A000000010000000A00000064000000CB
:10BD0000E803000010270000A086010040420F0059
:10BD10008096980000E1F50500CA9A3B546F2064B4
:10BD20006973706C617920616C6C20636D64206C48
:10BD300069737420616E64206465736372697074E2
:10BD4000696F6E0010B5074979441831064C7C4480
:10BD5000163404E00A68081D114488470146A142D0
:10BD6000F8D110BD98000000B400000048414C5FBD
:10BD700043414E5F496E69742043414E31207265E4
:10BD800074206E6F74206F6B20256420210A0000E0
:10BD900048414C5F43414E5F496E69742043414EB8
:10BDA0003220726574206E6F74206F6B20256420C2
:10BDB000210A000052656275696C642074696D65C2
:10BDC00020697320257320616E642064617465208E
:10BDD00069732025732021004EF68851CEF20001B0
:10BDE000086840F470000860BFF34F8FBFF36F8F97
:10BDF0004FF00070E1EE100A704700004F53FFFF54
:10BE000028510000240600200000000051F2FFFF2E
:10BE1000BC070000FE0000000000002043414E313E
:10BE200020E68C81E7BBADE68EA5E694B6E695B03C
:10BE3000E68DAE6669666F300D0A000043414E32F2
:10BE400020E68C81E7BBADE68EA5E694B6E695B01C
:10BE5000E68DAE6669666F300D0A000043414E31D3
:10BE600020E68C81E7BBADE68EA5E694B6E695B0FC
:10BE7000E68DAE6669666F310D0A000043414E32B1
:10BE800020E68C81E7BBADE68EA5E694B6E695B0DC
:10BE9000E68DAE6669666F310D0A00000920636D9C
:10BEA0006420093A2073686F7720616C6C20636F9F
:10BEB0006D6D616E64730D0A0000000080B5FEF7C1
:10BEC00075FF0723022208214FF4A870FEF716FF22
:10BED00000F004F8FFF702FAFEE7000002480168EC
:10BEE00031F002010160704710E000E000F00DF851
:10BEF000002801D0FFF726FFAFF300800020AFF34A
:10BF00000080FFF7DBFF00F002F80120704700F02F
:10BF100001B8000007463846F5F7B2FFFBE700001E
:10BF200043414E31206669666F30E695B0E68DAECE
:10BF3000E68EA5E694B6E6BBA10D0A0043414E325B
:10BF4000206669666F30E695B0E68DAEE68EA5E6B2
:10BF500094B6E6BBA10D0A006C73206E6565642083
:10BF60006D6F726520617267756D656E7473210DFA
:10BF70000A0000007468652025732076616C756581
:10BF8000206973203078257820210D0A00000000F8
:10BF90007468697320636F6D6D616E6420697320CE
:10BFA000746F6F206C6F6E672E0D0A004F53204325
:10BFB0005055205573616765203D2025352E32662A
:10BFC00025250D0A000000000548014603B4684617
:10BFD00080F30988AFF30080FFF7FEFEFFF786FFCE
:10BFE000A5EDF5FE6D4941424344584B4D504A4042
:10BFF0004C6C686E4873757E00000000666F72209E
:10C000007072616374696365206D696E6920505256
:10C01000494E54006B6D756C7469E68C89E994AE79
:10C02000E68C89E4B88B0D0A000000006B6D756C1E
:10C030007469E68C89E994AEE5BCB9E8B5B70D0A38
:10C04000000000006B6D756C7469E68C89E994AE34
:10C05000E995BFE68C890D0A0000000075736561E3
:10C0600067653A206C73205B6F7074696F6E735DE7
:10C070000D0A000009202D7620093A2073686F7799
:10C080002076657273696F6E0D0A000074657374B3
:10C0900020666F72206D696E69205052494E54209F
:10C0A000210D0A007468652025732076616C756522
:10C0B00020697320256420210D0A00006E6F206323
:10C0C0006F6D6D616E64206E616D65643A202573DD
:10C0D0000D0A000063616E3120746F2073656E6419
:10C0E000206F6E636521000063616E3220746F20E3
:10C0F00073656E64206F6E63652100006B30E68CA3
:10C1000089E994AEE5BCB9E8B5B70D0A00000000B6
:10C110006B30E68C89E994AEE68C89E4B88B0D0A25
:10C12000000000006B7570E68C89E994AEE5BCB93F
:10C13000E8B5B70D0A0000006B7570E68C89E994CC
:10C14000AEE68C89E4B88B0D0A0000006B30E68CFB
:10C1500089E994AEE995BFE68C890D0A00000000DC
:10C160006B7570E68C89E994AEE995BFE68C890D14
:10C170000A0000006C732076657273696F6E20315F
:10C180002E302E0D0A00000009202D6820093A20CB
:10C1900073686F772068656C700D0A00446F206EBD
:10C1A0006F74206E656564207061726D210D0A00E8
:10C1B00053797374656D2054696D6572205468728B
:10C1C0006561640030000000000000000000000015
:10C1D00000000000000000006C7300000000000080
:10C1E000000000005D39000870BC000874657374BD
:10C1F0000000000000000000053A00089CBC000898
:10C2000063616E315F73656E64000000333A00084D
:10C21000D4C0000863616E325F73656E6400000015
:10C22000653A0008E8C000086D5F7072696E746658
:10C2300000000000393D0008FCBF00086C69737401
:10C240006361736500000000E75000081CBD000832
:10C250007461736B696E666F000000007B93000869
:10C2600010B700086E000000000000000000000091
:10C2700000000000000000001EF0040F0CBFEFF3F0
:10C280000880EFF30980FEF78DBB00001F660008F1
:10C2900005660008E56500083F67000843414E3128
:10C2A00020525830204952510D0A000043414E326D
:10C2B00020525830204952510A000000001002401C
:10C2C000100001000000024001000100556E6B6E7D
:10C2D0006F7720466C61736800000000000000006A
:10C2E000040008000C000000000000007465737476
:10C2F00020636F6D6D616E643A0D0A00706172614A
:10C30000732025643A2025730D0A00003031323342
:10C310003435363738396162636465660000000081
:10C3200000000000010203040607080941707020A4
:10C330005461736B205374617274000041707020FB
:10C340005461736B205354415400000041707020BD
:10C350005461736B2049444C4500000041707020CB
:10C360005461736B205573657249460041707020AB
:10C370005461736B20434F4D0000000041707050BA
:10C3800072696E746653656D700000004576656E67
:10C390007447726F75704E616D650000014880478B
:10C3A0000148004749B10008C9BF0008535354323F
:10C3B00035564630313642004D5832354C313630E4
:10C3C00036450000573235513634425600000000E1
:10C3D0004E32355131323846560000005732355111
:10C3E00031323846560000006F7074696F6E733AD0
:10C3F000200D0A00417070204D73702050726F0044
:10C4000032323A32343A3330000000004D61792044
:10C4100020352032303235004170704C4344536532
:10C420006D7000004170702054696D6572000000ED
:10C430007047FEE7FEE7FEE770477047080A0D0900
:10C44000000000001B5B3140000000001B5B31500E
:10C45000000000001B5B324B0D0000001B5B3144F1
:10C46000000000001B5B314300000000555555558E
:10C470005555555577777777777777776D696E6903
:10C4800000000000666C6F61740000006C73206334
:10C490006D6400000D0909257300000000061016E8
:10C4A000000610160000000001020304686A6C74A4
:10C4B0007A4C0000FFF7FEBFFFF7FEBFFFF7FEBF9D
:10C4C000FFF7FEBFFFF7FEBFFFF7FEBFFFF7FEBFA0
:10C4D000FFF7FEBFFFF7FEBFFFF7FEBFFFF7FEBF90
:10C4E000FFF7FEBFFFF7FEBFFFF7FEBFFFF7FEBF80
:10C4F000FFF7FEBFFFF7FEBFFFF7FEBFFFF7FEBF70
:10C50000FFF7FEBFFFF7FEBFFFF7FEBFFFF7FEBF5F
:10C51000FFF7FEBFFFF7FEBFFFF7FEBFFFF7FEBF4F
:10C52000FFF7FEBFFFF7FEBFFFF7FEBFFFF7FEBF3F
:10C53000FFF7FEBFFFF7FEBFFFF7FEBFFFF7FEBF2F
:10C54000FFF7FEBFFFF7FEBFFFF7FEBFFFF7FEBF1F
:10C55000FFF7FEBFFFF7FEBFFFF7FEBFFFF7FEBF0F
:10C56000FFF7FEBFFFF7FEBFFFF7FEBFFFF7FEBFFF
:10C57000FFF7FEBFFFF7FEBFFFF7FEBFFFF7FEBFEF
:10C58000FFF7FEBFFFF7FEBFFFF7FEBFFFF7FEBFDF
:10C59000FFF7FEBFFFF7FEBFFFF7FEBFFFF7FEBFCF
:10C5A000FFF7FEBFFFF7FEBFFFF7FEBFFFF7FEBFBF
:10C5B000FFF7FEBFFFF7FEBFFFF7FEBFFFF7FEBFAF
:10C5C000FFF7FEBFFFF7FEBFFFF7FEBFF2FF000160
:10C5D000F1BE01F2FF1E02F1FF02F10E02FC0D009E
:10C5E0006E72407869616E5F75736572232F3E2F9E
:10C5F00004F003FFD8C100080001100224F400F089
:10C600000110070204010134530020840452340451
:10C61000252C6108F4060FA00500208C05002040A1
:10C62000F00207CA1300080452FF01E32A12141093
:10C630000100002A0C12015D52A46447B31AAC87B2
:0EC64000AD1AB4F709B11AC05201190000007A
:040000050800BFC967
:00000001FF
